:020000040800F2
:1000000040910020F5010008792E00084901000800
:10001000D1260008110F0008415E00080000000012
:100020000000000000000000000000005D0100086A
:10003000E718000800000000A10100083D5000087A
:100040000F0200080F0200080F0200080F0200084C
:100050000F0200080F020008791900080F020008BB
:10006000151A0008551A00080F0200080F020008B0
:100070000F0200080F0200080F020008DD1600083A
:100080000F0200080F0200080F0200080F0200080C
:100090000F0200080F0200080F0200080F020008FC
:1000A0000F0200080F0200080F0200080F020008EC
:1000B0000F0200080F0200080F0200080F020008DC
:1000C0000F02000885230008752300080F020008AE
:1000D0000F020008AD5900080F0200080F020008C7
:1000E000ED1900080F0200080F0200080F020008B7
:1000F0000F0200080F0200080F0200080F0200089C
:100100000F0200080F0200088D5200080F020008BD
:100110002D5700086D5800080F0200080F02000854
:100120000F0200080F0200080F0200080F0200086B
:10013000DFF810D000F038FD00480047FD9B0008B4
:10014000AFF30080409100201EF0040F0CBFEFF3CE
:100150000880EFF309800AF051B90000224B1968BA
:100160000868B0E8F00F80F30988BFF36F8F4FF095
:10017000000080F311884EF00D0E70470000000063
:1001800006480068006880F3088862B661B6BFF36D
:100190004F8FBFF36F8F00DF00BF00BF08ED00E09F
:1001A000EFF30980BFF36F8F0F4B1A6820E9F00F50
:1001B000106008B54FF0500080F31188BFF34F8FE7
:1001C000BFF36F8F0CF06EFA4FF0000080F31188D0
:1001D000BDE8084019680868B0E8F00F80F30988A6
:1001E000BFF36F8F704700BFF8010020EFF3058069
:1001F000704700000648804706480047FEE7FEE7D4
:10020000FEE7FEE7FEE7FEE7FEE7FEE7FEE7FEE7C6
:100210005D5000083101000840EA01039B0703D04C
:1002200009E008C9121F08C0042AFAD203E011F835
:10023000013B00F8013B521EF9D27047D2B201E0F7
:1002400000F8012B491EFBD270470022F6E710B5DB
:1002500013460A4604461946FFF7F0FF204610BD34
:10026000421C10F8011B0029FBD1801A704703467D
:1002700011F8012B00F8012B002AF9D1184670471C
:10028000F0B480EA0102D40F4200B2EB410F02D277
:100290000246084611464A0042D0C30DDDB2C1F302
:1002A000C752AD1A202D35DAC1F3160141F4000210
:1002B00004B15242C5F1200602FA06F12A41104467
:1002C000B3EBD05F23D0C4B1012DA0EBC35009DC48
:1002D000F0BC4FF0004202EAC352DBB200F500006E
:1002E00000F07DBB400000F1807000EBC350A0F136
:1002F000807040EAD170490009E0490841EAC071C4
:10030000A0EBC35000F50000400800EBC350F0BC68
:1003100000F05CBB6142012202EB4101001BF6E7E9
:10032000F0BC704781F00041AAE780F00040A7E7E9
:1003300080EA010210B502F00043400022D04A00DA
:100340001FD0010E01EB1261C0F35600C2F356023A
:1003500040F4000042F40002A0FB022000047F39B8
:10036000140400D0401C50EA124001D44000491E41
:10037000C2B20C0604EBD010401C4008802A02D008
:1003800003E0002010BD20F00100002900DA002069
:10039000184310BD30B480EA010202F0004530F08D
:1003A000004221F0004013D090B1C30DD40DC2F330
:1003B0001601C0F31600E41A41F4000140F40002F3
:1003C0007D34914201D3641C00E04900002C02DA24
:1003D00030BC002070474FF400000023914201D34D
:1003E000891A034340084FEA4101F7D151B19142C4
:1003F00002D14FF0004105E002D24FF0010101E0CF
:100400006FF0010103EBC450284430BC00F0DEBAA9
:100410002DE9FE4F804681EA0300C00F0C46009094
:1004200021F0004123F00045B8EB0200A94105D2BC
:100430004046214690461C460B46024623F00040AB
:10044000104347D0270DC7F30A00C3F30A510290A7
:10045000401A019040286BDAC3F3130040F4801B6C
:100460000098924620B10023D2EB030A63EB0B0BFA
:1004700001985946C0F14002504600F076FA06460F
:100480000D4650465946019A00F08EFA10EB0800CE
:100490006141002487EA115284EAE7731A4340D08D
:1004A000009A62B3019A012A4FEA075215DC001B39
:1004B00061EB02014FF0004202EA0752CDE900422F
:1004C000001C41F5801132462B4600F0EFFA03B0D4
:1004D000BDE8F08F40462146F9E7001B61EB0201C1
:1004E000001C41F5801300185B412018A2F500178D
:1004F00047EB030140EAD570B6196D4111E06D0874
:100500004FEA360645EAC0754FEA0752001B61EB19
:100510000201001C41F5801149084FEA3000001922
:10052000514132462B4603B0BDE8F04F00F0AFBA60
:100530000098012240000023D0EB020263EBE0733D
:10054000009821464FEAE074B8EB000061EB04012B
:10055000E9E783F000435BE781F0004158E72DE9CC
:10056000FE4F81EA030404F0004421F000410094AE
:100570004FF0000B23F0004350EA01045ED052EA32
:1005800003045BD0C3F30A54C1F30A552C44A4F20C
:10059000F3340194A0FB0254C1F3130141F4801120
:1005A000C3F3130343F4801301FB024400FB034E27
:1005B000840A970A44EA815447EA8357A4FB0768F0
:1005C00002958D0A05FB07854FEA932C04FB0C541A
:1005D0002705029D4FEA065847EA1637B5EB08058E
:1005E0006EEB070C870E920E47EA811742EA8312E0
:1005F000A7FB0201B6EB0B0164EB00042B0D43EAF1
:100600000C335E1844EB1C50DA465146E7FB0201FE
:10061000C5F313044FEA0B3343EA14534FEA043291
:10062000019C43EA0603A4F10C040294009CCDE96A
:1006300000B400F03BFA03B0BDE8F08F00200146A3
:10064000F9E72DE9F04D81EA030404F0004B21F0B5
:10065000004514464FF0000A23F0004150EA05021D
:1006600020D054EA01021DD0C5F30A570246C5F353
:100670001303C1F31300C1F30A5640F4801543F489
:100680008013A7EB0608101BD64608F2FD3873EB63
:10069000050002D308F1010801E092185B41B8F1AE
:1006A000000F03DA00200146BDE8F08D00204FF472
:1006B0008011064684460EE0171B73EB050705D331
:1006C000121B63EB050306434CEA010C49084FEA91
:1006D000300092185B4150EA0107EDD152EA030065
:1006E00012D082EA040083EA0501084305D0101BFA
:1006F000AB4106D20122002306E000224FF0004366
:1007000002E06FF0010253101AEB06004CEB0851A7
:1007100010EB0A0041EB0B01BDE8F04D00F0B7B95A
:10072000C10F80EAE0700844CA079623002100F058
:1007300056B996230022114600F051B90EB5C10FEB
:1007400080EAE0700844CA07002140F233438DE894
:100750000E000A460B4600F0A9F903B000BD00F0F8
:10076000004220F00040C10DC0F3160040F400002C
:100770007F2901DA00207047962903DCC1F1960138
:10078000C84001E096398840002AF4D040427047C2
:1007900020F00040C10DC0F3160040F400007F2996
:1007A00001DA00207047962903DCC1F19601C840A8
:1007B000704796398840704770B5C1F30A5201F00E
:1007C00000450024C1F3130140F2FF3341F48011CE
:1007D0009A4201DA002070BD40F233439A42A2F2FD
:1007E000334203DC524200F0CFF800E090402C434B
:1007F000F1D0404270BD00F0004230F000400AD01D
:10080000C10D01F56071C0F3160042EA0151C20842
:1008100040071143704700200146704730B5041E61
:1008200071F1000404DB4FF00044404264EB01012D
:10083000141E73F1000405DB1C464FF000435242C6
:1008400063EB04038B4208BF824230BD30B5041E07
:1008500071F1000404DB4FF00044404264EB0101FD
:10086000141E73F1000405DB1C464FF00043524296
:1008700063EB0403994208BF904230BD01F000438E
:1008800030B421F0004150EA010206D00A0DA2F571
:100890006072C1F31301002A02DC30BC00207047F3
:1008A000440F44EAC104C100E01830BC00EBC25060
:1008B00000F08CB8002801DBC0F10040002901DB0A
:1008C000C1F1004181427047002801DBC0F10040C6
:1008D000002901DBC1F100418842704730B50B4669
:1008E000014600202022012409E021FA02F59D4260
:1008F00005D303FA02F5491B04FA02F52844151E34
:10090000A2F10102F1DC30BD2DE9F05F05460020C7
:1009100092469B4688460646814640241BE0284670
:1009200041464746224600F02FF853465A46C01A21
:10093000914110D311461846224600F016F82D1AA0
:1009400067EB01084F4622460120002100F00DF818
:1009500017EB00094E41201EA4F10104DFDC4846DC
:1009600031462A464346BDE8F09F202A04DB203A60
:1009700000FA02F1002070479140C2F1200320FAF2
:1009800003F3194390407047202A04DB203A21FAF0
:1009900002F00021704721FA02F3D040C2F1200298
:1009A0009140084319467047202A06DBCB17203AAE
:1009B00041FA02F043EAE07306E041FA02F3D04064
:1009C000C2F1200291400843194670470029A8BF90
:1009D0007047401C490008BF20F00100704710B468
:1009E000B0FA80FC00FA0CF050EA010404BF10BC1D
:1009F000704749B1CCF1200421FA04F411FA0CF14A
:100A000018BF012121430843A3EB0C01CB1D4FEA82
:100A100000614FEA102042BF002010BC704700EB7D
:100A2000C35010440029A4BF10BC7047401C4900AB
:100A300008BF20F0010010BC7047420005D0C0F391
:100A4000C7525242914201DC0020704700EBC15076
:100A5000704710B541000CD0C0F3C751962908DC8F
:100A60007E2909DC06DB410204D000F0004040F0A2
:100A70007E5010BD002010BDC1F19604C4F12001CC
:100A800000FA01F1E040FFF7A1FFA04010BD10B552
:100A9000141E73F1000408DA401C41F100019218A1
:100AA0005B411A4301D120F0010010BD2DE9F04D4A
:100AB00092469B4611B1B1FA81F202E0B0FA80F29F
:100AC00020329046FFF751FF04460F4640EA0A00E5
:100AD00041EA0B0153465A46084313D0114653EAE4
:100AE000010019D0C8F140025046FFF74DFF0546FE
:100AF0000E46504659464246FFF737FF084305D099
:100B0000012004E020463946BDE8F08D0020054371
:100B100046EAE0762C4337430A986305E40AA0EBE3
:100B200008000022FD0A44EA47540A3002D500209A
:100B30000146E9E7010510196941DDE90845001999
:100B40006941BDE8F04DA2E770B521F000430343D1
:100B50000CD0C1F30A550024D5EB040564EB040363
:100B6000D617AD1AB34102DB0020014670BD201834
:100B700041EB025170BDC1F30A52C1F3130140F2BF
:100B8000FF3341F480119A4202DA00200146704797
:100B900040F233439A42A2F2334202DC5242FFF760
:100BA000F3BEFFF7E2BE0000064C074D06E0E0682A
:100BB00040F0010394E8070098471034AC42F6D3A4
:100BC000FFF7BAFAD0980308F098030870B58C18AC
:100BD00010F8015B15F0070301D110F8013B2A1151
:100BE00006D110F8012B03E010F8016B01F8016B3E
:100BF0005B1EF9D12B0705D40023521E0DD401F83A
:100C0000013BFAE710F8013BCB1A921C03E013F802
:100C1000015B01F8015B521EF9D5A142D8D3002037
:100C200070BD21B1826842F00102826003E08268F7
:100C300022F001028260704721B1826842F4807222
:100C4000826003E0826822F480728260704701460D
:100C500000208A6802F004020AB1012000E00020AE
:100C60007047014600208A6802F008020AB101209C
:100C700000E000207047000030B50246002000234D
:100C800050680F4C20400D790C6844EA052420433D
:100C9000506090680B4C2040D1E902542C434D79B0
:100CA00044EA450420439060D06A20F470000C7C34
:100CB000641EE4B2234340EA0350D06230BD00001A
:100CC000FFFEF0FFFDF7F1FFF0B504460D460020F2
:100CD0000021092D11DDE068A5F10A0606EB4607A3
:100CE000072606FA07F18843A5F10A0606EB460631
:100CF00003FA06F10843E0600CE0206905EB4507C4
:100D0000072606FA07F1884305EB450603FA06F1C4
:100D100008432061072A0FDA606B561E06EB860730
:100D20001F2606FA07F18843561E06EB860605FACB
:100D300006F10843606322E00D2A0FDA206BD61F0C
:100D400006EB86071F2606FA07F18843D61F06EB37
:100D5000860605FA06F10843206310E0E06AA2F176
:100D60000D0606EB86071F2606FA07F18843A2F157
:100D70000D0606EB860605FA06F10843E062F0BDB3
:100D8000816841F008018160704721B1826842F4B6
:100D9000A002826003E0826822F4A00282607047B1
:100DA000816841F0040181607047000008B50121AD
:100DB000042003F0FDF93020ADF8000000208DF88C
:100DC00003006946014801F037F908BD00080140F9
:100DD00010B5FFF7EBFF00F001F810BD00B591B0C2
:100DE0000121084603F0B4F90121480203F0E0F9BB
:100DF000364800F095FC36480690364807900020AB
:100E000008900220099000200A9080200B9040005A
:100E10000C9080000D9020200E90C0010F900020BB
:100E2000109006A9294800F040FD0121274800F054
:100E30006BFC0020019001208DF808008DF809005E
:100E40004FF4602003900020049002208DF81400DD
:100E500001A91F484C38FFF70FFF4FF4404003F043
:100E60006BF905230122042119484C38FFF72CFFA8
:100E700005230222194616484C38FFF725FF0121A9
:100E800013484C38FFF7D8FE012111484C38FFF7C2
:100E9000C8FE0F484C38FFF773FF00BF0C484C38B2
:100EA000FFF7DFFE0028F9D109484C38FFF778FF3B
:100EB00000BF07484C38FFF7CAFE0028F9D10121CE
:100EC00003484C38FFF761FF11B000BD0800024035
:100ED0004C2401400001002008B50121102003F03E
:100EE00067F94FF40040ADF8000010208DF80300C2
:100EF00002208DF802006946044801F09DF84FF485
:100F00000041024801F075F908BD000000100140E1
:100F100000BFFEE700B589B0012140F6040003F0F0
:100F200047F94FF48070ADF8200018208DF82300A9
:100F300003208DF8220008A91F4801F07DF840F237
:100F4000E730ADF818004720ADF814000020ADF8E8
:100F50001A00ADF816008DF81C0005A9174804F01A
:100F600093FB6020ADF804000120ADF806000020DE
:100F7000ADF80800ADF80C00ADF81000ADF80A00AF
:100F800001A90E4804F024FA08210C4804F06CFA78
:100F900001210A4804F0F4F900220121074804F075
:100FA0000DFA0021054804F0FAF90021034804F085
:100FB000EAF909B000BD000000080140002C014022
:100FC00010B50021837A012202FA03F13D4A12682A
:100FD00042F001023B4B1A603A4A1C3212688A43C3
:100FE000384B1C331A60027BCAB9364A0C3212687D
:100FF0008A43344B0C331A604288C38842EA034365
:10100000304A4032847A42F834300288838842EA97
:1010100003432C4A4032847A02EBC4025360027BC1
:10102000012A19D1274A0C3212680A43254B0C3386
:101030001A604288038842EA0343224A4032847A93
:1010400042F83430C288838842EA03431D4A403262
:10105000847A02EBC4025360C27A3AB9194A121D6B
:1010600012688A43174B1B1D1A6006E0154A121DB1
:1010700012680A43134B1B1D1A60028932B9114AC8
:10108000143212688A430F4B14331A600289012A02
:1010900006D10C4A143212680A430A4B14331A6000
:1010A000427B012A06D1074A1C3212680A43054BCB
:1010B0001C331A60034A126822F00102014B1A60C5
:1010C00010BD00000066004030B50246002000233D
:1010D000146824F002041460146844F001041460DD
:1010E00000E05B1C546804F001041CB94FF6FF7467
:1010F000A342F6D1546804F001040CB900206CE05E
:101100008C79012C04D1146844F08004146003E04D
:10111000146824F080041460CC79012C04D1146884
:1011200044F04004146003E0146824F040041460A8
:101130000C7A012C04D1146844F02004146003E0FC
:10114000146824F0200414604C7A012C04D1146833
:1011500044F01004146003E0146824F010041460D8
:101160008C7A012C04D1146844F00804146003E064
:10117000146824F008041460CC7A012C04D114689B
:1011800044F00404146003E0146824F004041460C0
:101190008C78A407CD7844EA05640D7944EA0544C7
:1011A0004D7944EA05540D886D1E2C43D4611468B2
:1011B00024F001041460002300E05B1C546804F078
:1011C00001041CB14FF6FF74A342F6D1546804F039
:1011D00001040CB1002000E0012030BD2DE9F041F8
:1011E00088B004460D4616461F46DDF838800121BA
:1011F000042002F0DDFF0121480602F0B9FF4FF4A0
:101200008050ADF81C0003208DF81E0018208DF8CA
:101210001F0007A9234800F00FFF4FF40060ADF84E
:101220001C0048208DF81F0007A91E4800F004FF8D
:1012300000208DF816008DF817008DF81800012099
:101240008DF8190000208DF81A008DF81B008DF81C
:1012500012808DF813408DF814608DF81550ADF89C
:10126000107004A91048FFF72FFF00208DF80A0026
:101270008DF80B0001208DF80C000020ADF8000067
:10128000ADF80200ADF80400ADF80600ADF80800B6
:1012900001208DF80D006846FFF792FE002008B08F
:1012A000BDE8F081000801400064004010B502462E
:1012B0000020936803F08063B3F1806F00D110E0E9
:1012C000936803F00063B3F1006F01D1012008E0DF
:1012D000936803F08053B3F1805F01D1022000E0F6
:1012E0000420042874D002F5C07303EB00131B68BC
:1012F00003F0010402F5C07303EB00131C600B7ACA
:101300007BB94B7A0C8843EA445302F5C07404EB72
:1013100000142468234302F5C07404EB0014236016
:1013200010E00B7A4C6843EAC4034C7A234302F57D
:10133000C07404EB00142468234302F5C07404EB6A
:10134000001423608B7A03F00F038B7202F5C073D5
:1013500003EB00135B6823F00F0402F5C07303EB8B
:1013600000135C6002F5C07303EB00135B688C7ABA
:10137000234302F5C07404EB001463608B7B1C06EE
:101380004B7B44EA03440B7B44EA0323CC7A23439C
:1013900002F5C07404EB0014A3608B7C1C064B7C2C
:1013A00044EA03440B7C44EA0323CC7B234302F549
:1013B000C07404EB0014E36002F5C07303EB001388
:1013C0001B6843F0010402F5C07303EB00131C60BB
:1013D00010BD000010B50246002321B1012907D03D
:1013E00002290FD109E090681D4C00EA04030BE0CC
:1013F00090681C4C00EA040306E090681A4C00EA6E
:10140000040301E0002300BF00BF184C181BA342D7
:1014100016D007DC83B16FF08060184470B10228E9
:1014200018D111E0B0F5007F10D0114C204448B124
:10143000B0F5003F0ED10BE002230DE000230BE0DE
:10144000002309E0002307E0012305E0012303E076
:10145000012301E0002300BF00BFD8B210BD00008F
:10146000030000040003000800000310000100084E
:101470000001FFF770B502460C46FF25FF2309E087
:1014800012F8010B80EA03010648405C80EA05037C
:101490000548455C201EA4F10106B4B2F0D143EA30
:1014A000052070BDC0D60008C0D700082DE9FE4F4A
:1014B00005460E4614462868A06068686061A86802
:1014C0002062306820607068E060B068A061E16808
:1014D000206AFEF72DFF8246D4E90501FEF728FFBA
:1014E00083465146FEF71EFF6060A169A068FEF7C3
:1014F0001FFF82462168206AFEF71AFF8346514685
:10150000FEF710FF206121686069FEF711FF824637
:10151000D4E90201FEF70CFF83465146FEF702FFB5
:10152000E0616169E069FEF703FF8246216A206994
:10153000FEF7FEFE83465146FEF7F4FE2060216A68
:101540006068FEF7F5FE8246A168E069FEF7F0FEEE
:1015500083465146FEF7E6FEE060A1682069FEF78B
:10156000E7FE824661696068FEF7E2FE8346514607
:10157000FEF7D8FEA061A9680846FEF7D9FE0290E2
:1015800069680846FEF7D4FE019029680846FEF710
:10159000CFFE00900199FEF773FE83460299FEF795
:1015A0006FFE824600F0ACFB0746A1690846FEF7D5
:1015B000BFFE0290E1680846FEF7BAFE019021687E
:1015C0000846FEF7B5FE00900199FEF759FE8346E6
:1015D0000299FEF755FE824600F092FB8046E169D3
:1015E0000846FEF7A5FE029021690846FEF7A0FE18
:1015F000019061680846FEF79BFE00900199FEF796
:101600003FFE83460299FEF73BFE824600F078FBE0
:10161000814641462068FEF78BFE20604146E06827
:10162000FEF786FEE0604146A069FEF781FEA061FC
:1016300049466068FEF77CFE606049462069FEF717
:1016400077FE20614946E069FEF772FEE0613946A7
:10165000A068FEF76DFEA06039466069FEF768FE7F
:1016600060613946206AFEF763FE2062BDE8FE8FA6
:10167000F0B585B007460D46002412200090019079
:1016800000208DF808008DF809008DF80A5000BF81
:1016900005E0395D0DF10B000155601C84B2AC42D0
:1016A000F7DB69460C48FFF701FE0646002401E01F
:1016B000601C84B231460848FFF78CFE18B940F62A
:1016C000FF708442F4DB40F6FF70844202DB0120AD
:1016D00005B0F0BD0020FBE70064004010B50248F3
:1016E00007F0E4FE10BD00003401002000F080513E
:1016F00011B10349086001E00249486070470000E9
:10170000040402400000024021B1026842F00102DC
:10171000026004E002684FF6FE731A4002607047F0
:1017200001684FF6FE7211400160002101604160C6
:101730008160C1604B49884208D14A4908394968EB
:1017400041F00F01474A083A51608AE04549143197
:10175000884208D143490839496841F0F001414ABB
:10176000083A51607DE03F492831884208D13D491F
:101770000839496841F470613A4A083A516070E0AA
:1017800038493C31884208D136490839496841F422
:101790007041344A083A516063E03249503188421E
:1017A00008D130490839496841F470212D4A083A76
:1017B000516056E02B496431884208D129490839E3
:1017C000496841F47001274A083A516049E02549C7
:1017D0007831884208D123490839496841F070615D
:1017E000204A083A51603CE01F49884206D1011F57
:1017F000096841F00F01021F116032E01A491431EB
:10180000884208D11849091F096841F0F001164AB9
:10181000121F116025E014492831884208D112496D
:10182000091F096841F470610F4A121F116018E026
:101830000D493C31884208D10B49091F096841F420
:101840007041094A121F11600BE00749503188426C
:1018500007D10549091F096841F47021024A121F86
:101860001160704708000240080402400146002051
:10187000002201F0805313B1054B1A6801E0054BBB
:101880001A6802EA01030BB1012000E00020704752
:1018900000040240000002401AB103680B430360D9
:1018A00002E003688B430360704710B500220268B2
:1018B00047F6F0739A430C6A8B6823430C69234301
:1018C0004C6923438C692343CC6923434C6A2343EB
:1018D0008C6A23431A430260CB6843600B688360C1
:1018E0004B68C36010BD704770B50446042003F018
:1018F00091FB0C48046025464FF47A704543012063
:10190000094908804FF0E020006940F002004FF0E4
:10191000E021086108464561006940F00100086166
:1019200070BD0000140100201801002070B50446AD
:1019300006492046FEF7FCFC06460549FEF7A0FCDA
:101940000546FEF725FF80B270BD00000000FA4496
:101950000000FA4330B589B004460D466A46294670
:101960002046FFF7A3FD0349684602F0DFFA09B0FD
:1019700030BD00005847002010B5012000F0AAF843
:1019800040B3012000F0A0F80121164800F028FC27
:10199000012813D10221134800F022FC012806D1AE
:1019A00011480088401C00B20F49088019E00E4819
:1019B0000088401E00B20C49088012E0022109484C
:1019C00000F00EFC012806D107480088401E00B236
:1019D0000549088005E004480088401C00B202491F
:1019E000088010BD000801402A01002010B54FF406
:1019F000005000F06FF8012809D10548006810B1C7
:101A00000348006880474FF4005000F05DF810BDB7
:101A1000D001002008B5042000F05CF8012814D1A2
:101A2000042000F051F80020009069460748006843
:101A30000BF068FA009838B14FF080500449086004
:101A4000BFF34F8FBFF36F8F00BF08BD480000206A
:101A500004ED00E010B5082000F03CF840B3082089
:101A600000F032F80821164800F0BAFB012813D123
:101A70000421134800F0B4FB012806D11148008866
:101A8000401C00B20F49088019E00E480088401E33
:101A900000B20C49088012E00421094800F0A0FBC4
:101AA000012806D107480088401E00B20549088079
:101AB00005E004480088401C00B20249088010BDBF
:101AC000000801402C010020014908607047000017
:101AD00014040140014600200022074B1B6803EA62
:101AE0000102054B14331B680B4013B10AB10120EE
:101AF00000E000207047000000040140002123495D
:101B00008279002A3AD00A46126803689A430B4643
:101B10001A600A1D126803689A430B1D1A60027945
:101B200011440A6803681A430A60184A08321268A6
:101B300003689A43154B08331A601A1D126803682C
:101B40009A43124B0C331A604279102A0ED11A1F95
:101B5000126803681A430D4B08331A601A1D126885
:101B600003681A43094B0C331A600DE007494279A8
:101B700011440A6803681A430A6005E002791144B7
:101B80000A6803689A430A60704700000004014035
:101B90000149C860704700000020024030B504468B
:101BA00004254FF4302000F085F80546042D17D1A8
:101BB0000C48006940F002000A4908610846446187
:101BC000006940F0400008614FF4302000F072F8E6
:101BD00005460448006941F6FD7108400149086165
:101BE000284630BD0020024004200B49C96801F09E
:101BF000010109B101200EE00749C96801F00401A3
:101C000009B1022007E00449C96801F0100109B1D7
:101C1000032000E0042070470020024003480069D0
:101C200040F0800001490861704700000020024038
:101C300078B506460C46042500200090E80200F026
:101C400039F80546042D24D11348006940F00100FD
:101C5000114908613480E80200F02CF80546042D93
:101C600010D1B01C0090200C00990880E80200F010
:101C700021F805460848006941F6FE71084006490A
:101C8000086106E00448006941F6FE710840024917
:101C90000861284678BD0000002002400248034940
:101CA00048600348486070472301674500200240B0
:101CB000AB89EFCD00B502460423FFF795FF03463D
:101CC00003E0FFF791FF0346521E012B01D1002ACA
:101CD000F7D102B90523184600BD08B501460091A9
:101CE000009820F000400090009808BD70B50446B0
:101CF000204600F005F805462146FEF719FB70BDA9
:101D00002DE9F843044600940D490098A1EB5000DA
:101D100000900C492046FEF70BFB80460099FEF729
:101D200007FB07460099FEF703FB06460649FEF748
:101D3000FCFA05460099FEF7FBFABDE8F8830000BF
:101D400012141F5F12D3363FFF51D83F7CB50122DA
:101D500044A1454806F038FB44490870084600781D
:101D60000D2841D14248C0684249884212D1012021
:101D700080F3138800BF00BF3F48006800F4E060B4
:101D80003E490843001D3C490860BFF34F8F00BF28
:101D900000BFFEE73AA004F0A9F80022114631A0E6
:101DA00005F0D0FF314908700846007888B940A096
:101DB00004F09CF801222BA1002006F005FB2B4922
:101DC0000870012227A1284806F0FEFA274908706A
:101DD00021E03E48C06880F010003C49C8603CA04B
:101DE00004F084F800BFFEE72048007848B11F489F
:101DF00001783EA004F07AF846A004F077F800BF1E
:101E0000FEE71B48C0681B49884201D002F0A4FDD0
:101E10004AA004F06BF852A004F068F801AA6946E1
:101E200010A005F040FE1149087001984069801E1D
:101E30000199897800FB01F501988078009900FBF1
:101E400001F4A200A90052A004F050F85DA004F033
:101E50004DF804A16748FEF70AFA664809F07CFBD2
:101E60007CBD0000313A0000E81B00205400002037
:101E7000A0460020DDCCBBAA0CED00E00000FA0576
:101E80003E3E53504920464C415348D6D0CEB4B77D
:101E9000A2CFD6CEC4BCFECFB5CDB32CBCB4BDABA7
:101EA000BDF8D0D0B8F1CABDBBAF2E2E2E0D0A00A2
:101EB0003E3E53504920464C415348B8F1CABDBB41
:101EC000AFCDEAB3C92E2E2E0D0A0000001001403E
:101ED000212153504920464C415348B8F1CABDBB5B
:101EE000AFCAA7B0DC2E2E2E0D0A000021215350C0
:101EF0004920464C415348CEC4BCFECFB5CDB3B902
:101F0000D2D4D8CAA7B0DC2E2E2E282564290D0ADB
:101F1000000000002121BFC9C4DCD4ADD2F22C5393
:101F2000504920464C415348B3F5CABCBBAFCEB470
:101F3000B3C9B9A62E2E2E0D0A0000003E3E535006
:101F40004920464C415348CEC4BCFECFB5CDB3B9B1
:101F5000D2D4D8B3C9B9A62E2E2E0D0A0000000087
:101F60000A2A2A2A2A2A2A2A2A2A2A2A2A2A2A2AF1
:101F700020C9E8B1B8D0C5CFA2BBF1C8A1202A2A98
:101F80002A2A2A2A2A2A2A2A2A2A2A2A2A0D0A0018
:101F90000A3E3EC9E8B1B8D7DCBFD5BCE4A3BA2538
:101FA00031306C75204B422E0A3E3EBFC9D3C3BFB1
:101FB000D5BCE4A3BA20202531306C75204B422ECD
:101FC0000A0000002A2A2A2A2A2A2A2A2A2A2A2A0F
:101FD0002A2A2A2ACEC4BCFEC9A8C3E8B2E2CAD4BF
:101FE0002A2A2A2A2A2A2A2A2A2A2A2A2A2A2A0D6E
:101FF0000A0000003C44002030B500228B071C0F73
:102000000F2303FA04F20B4B8C1053F82430934344
:10201000084C8D1044F8253023468C1053F824309A
:102020008C07240F00FA04F42343024C8D1044F86B
:10203000253030BD080001402DE9F0410246002561
:102040000026002000230024002791F803C00CF094
:102050000F0591F803C00CF0100CBCF1000F03D079
:1020600091F802C04CEA050591F800C0BCF1000FE0
:1020700031D0146800202BE04FF0010C0CFA00F373
:10208000B1F800C00CEA03069E4220D183004FF055
:102090000F0C0CFA03F7BC4305FA03FC4CEA0404EA
:1020A00091F803C0BCF1280F06D14FF0010C0CFAD7
:1020B00000FCC2F814C00AE091F803C0BCF1480F5C
:1020C00005D14FF0010C0CFA00FCC2F810C0401C06
:1020D0000828D1D31460B1F800C0BCF1FF0F34DD83
:1020E000546800202EE000F1080C4FF0010808FAB7
:1020F0000CF3B1F800C00CEA03069E4221D1830024
:102100004FF00F0C0CFA03F7BC4305FA03FC4CEA42
:10211000040491F803C0BCF1280F05D100F1080CAC
:1021200008FA0CF8C2F8148091F803C0BCF1480F0B
:1021300007D100F1080C4FF0010808FA0CF8C2F8BA
:102140001080401C0828CED35460BDE8F081000008
:10215000F0B50A46002300240021002500F00046C7
:10216000B6F1004F02D11D4EF16901E01B4E7168BE
:10217000C0F3034583B200F44016B6F5401F08D102
:1021800021F07061154E766826F07066134F7E6000
:1021900012E000F48016B6F5801F06D1032606FA79
:1021A00005F4A14341F0706106E0460D360103FAE3
:1021B00006F6B14341F0706122B1460D360103FAD3
:1021C00006F6314300F00046B6F1004F02D1034E4F
:1021D000F16101E0014E7160F0BD000000000140BE
:1021E0000246002093680B400BB1012000E0002064
:1021F000704741617047016170474FF6FF71018080
:10220000022181700421C170704700002DE9F84F50
:1022100004466078217840EA012005B2E078A17890
:1022200040EA012006B26079217940EA012007B234
:10223000607A217A40EA01200FFA80F8E07AA17AE8
:1022400040EA01200FFA80F9607B217B40EA0120FF
:102250000FFA80FA2B48058046808780A0F8068018
:10226000A0F80890A0F80AA04046FEF759FA00909E
:10227000254801680098FEF755F883462349FEF784
:1022800057F82349C8604846FEF74AFA00901E48AE
:1022900041680098FEF746F883461C49FEF748F867
:1022A0001B4908615046FEF73BFA009016488168CA
:1022B0000098FEF737F883461449FEF739F81449B9
:1022C00048612846FEF72CFA83464FF06251FEF72C
:1022D0002FF80F4908603046FEF722FA83464FF088
:1022E0006251FEF725F80A4948603846FEF718FAA9
:1022F00083464FF06251FEF71BF805498860BDE840
:10230000F88F0000D61B0020941A002000007A3DB0
:10231000A01A00202DE9F0410446207800F00100C9
:1023200010B36078A17840EA012005B2E078217905
:1023300040EA012006B26079A17940EA012007B2A3
:102340000A488581C68107822846FEF7E9F90849CF
:1023500088613046FEF7E4F90549C8613846FEF762
:10236000DFF90349086200BFBDE8F081D61B0020F9
:10237000A01A002010B5024807F0E6F810BD0000D2
:102380003401002010B5024807F028F910BD000004
:102390003401002021B1028842F48062028004E00E
:1023A00002884FF6FF331A4002807047002221F066
:1023B0007F42D3438382704721B1828842F4006216
:1023C000828004E082884FF2FF731A408280704757
:1023D00021B1828842F48052828004E082884EF6E5
:1023E000FF731A408280704710B504460B48844240
:1023F00009D10121480501F0CBFE00214FF4001066
:1024000001F0C6FE08E00121880501F0C1FE0021AF
:102410004FF4800001F0BCFE10BD000000540040ED
:102420000CB50246002000230193009300920B0F8D
:10243000019321F07F41019B1BB1009B143300935A
:1024400003E0090C009B18330093009B1B680B40B2
:102450000BB1012000E000200CBD1AB183880B43B2
:10246000838002E083888B43838070472DE9F043AB
:1024700085B004460D460026B1460427DFF8CC801F
:10248000A6884FF6C0700640684601F0A1FEDDF850
:1024900008802F48B8FBF0F01FFA80F946EA0906D9
:1024A000A68020884FF6FE7108402080002629492A
:1024B000286888420CD828684000B8FBF0F087B242
:1024C000042F00DA04273E4309F10100208427E0AD
:1024D000E8884BF6FF71884206D1286800EB40007F
:1024E000B8FBF0F087B209E0286800EBC00101EB0F
:1024F0000010B8FBF0F087B247F48047C7F30B0039
:1025000008B947F0010747F4004006434FF49670BE
:1025100009FB00F04FF47A7190FBF1F0401C20842D
:10252000A683208840F00100208026884FF6F530F1
:102530000640A8886989084306432680A889298916
:102540000843208105B0BDE8F083000000127A0046
:1025500040420F00A08601000146088AC0B27047C1
:1025600012B141F0010102E04FF6FE731940018201
:1025700070470182704700004AF6AA2001490860AE
:10258000704700000030004008B50121102001F024
:102590000FFE1020ADF800008DF8030003208DF829
:1025A000020069460348FFF747FD10210148FFF785
:1025B00022FE08BD00100140FEB5002600250024C3
:1025C000002700200090019002902F4E00BF14E0E1
:1025D0003568E8B20DF80400C5F30721601C0DF85A
:1025E0000010C5F30741A01C0DF80010290EE01CD7
:1025F0000DF80010361D201DC4B20C2CE8DB0A219A
:102600006846FEF737FF07469DF80A00F9B2884290
:1026100004D19DF80B00B0EB272F0CD01B4803F022
:1026200065FC1B48DFF86CC09CE80E10A0E80E109B
:1026300002F092F926E09DF80010154801719DF80E
:10264000011041719DF8021081719DF80310C17154
:102650009DF8041001729DF805000D498870002155
:102660000B48C1709DF806000949C8609DF8070035
:102670000002C8609DF808000004C8609DF80900C9
:102680000006C860FEBD000000F8030804950308BA
:10269000A0460020A400002008B50121102001F070
:1026A00087FD4FF48040ADF8000010208DF8030046
:1026B00002208DF8020069460448FFF7BDFC4FF484
:1026C00080410248FFF795FD08BD00000010014061
:1026D00004E003480068401C01490860F9E7000075
:1026E00010000020ADF5A25D002502E0322009F0C7
:1026F000BBFD634800780528F8D000F03FFDBDE041
:102700005F480078052873D2DFE800F0033F73AC20
:10271000B00001225BA10DF21C4005F083FE0446CF
:102720004FF420310DF21C4005F03EFAD4B958A008
:1027300003F0DCFB40F211150FE00DF583634FF45D
:10274000806206A9181D05F067FF06A808238022ED
:1027500000210090084600F0D9FC281EA5F10105D3
:10276000EBD108E05048C06880F010004E49C860C6
:102770004EA003F0BBFB0DF21C4005F084F900F005
:10278000A1FC04203E49087077E001223DA10DF232
:102790001C4005F047FE0446CCB93DA003F0A6FB63
:1027A000A0250FE00DF583634FF4806206A9181D84
:1027B00005F032FF06A80823802200210090084679
:1027C00000F0A4FC281EA5F10105EBD108E0364875
:1027D000C06880F010003449C86034A003F086FB64
:1027E0000DF21C4005F04FF903202549087044E024
:1027F00042E0012223A10DF21C4005F013FE044625
:102800004FF4D9210DF21C4005F0CEF9CCB920A02F
:1028100003F06CFB01250FE00DF583634FF480623C
:1028200006A9181D05F0F8FE06A80823802200213D
:102830000090084600F06AFC281EA5F10105EBD1C6
:1028400008E01948C06880F010001749C86017A058
:1028500003F04CFB0DF21C4005F015F9032008496C
:1028600008700AE0642009F0FFFC06E000F0F6FCC6
:10287000322009F0F9FC00E000BF00BF40E7000093
:1028800010010020313A2F7265732E62696E0000CC
:102890003E3EB6AFBBADD7CAD4B4BCD3D4D8B3C90F
:1028A000B9A62E2E2E0D0A00001001402121CEB413
:1028B000B7A2CFD6B6AFBBADD7CAD4B42E2E2E2E6C
:1028C0000D0A000000B54FF47A71032000F03EFAC3
:1028D0004FF47A71042000F039FA00BD1FB50121D0
:1028E000052001F065FC0320ADF80C0004208DF8F4
:1028F0000F0003208DF80E0003A91248FFF79CFB80
:1029000000210846FFF778FB0120009000208DF899
:10291000040010208DF8050001208DF8060068469F
:10292000FFF7ECF806208DF808008DF8090000206C
:102930008DF80A0001208DF80B0002A800F080FB42
:102940001FBD0000000801402DE9F04F89B04FF095
:10295000000AD146CB4600240120089038488088E0
:1029600084134CB9002036490880B1F9000002F008
:10297000DBFA09B0BDE8F08F032C05D10020304907
:102980000880FFF79FFFF4E7012C02D10120089097
:1029900003E0022C01D1E01E089029498988C1F387
:1029A0000D00FDF7CBFE274A274BCDE90001FDF7CF
:1029B00048FE07460022254BFDF7D1FDCDE9040175
:1029C0000898FDF7BBFECDE90201DDE90423FDF720
:1029D000C6FD054600221E4BFDF733FECDE906017C
:1029E000FDF7EAFE0FFA80FB15488089ABEB00008B
:1029F0000FFA80FA124800880AEB8A0100EB810086
:102A000014490988C1EB0111401A0FFA80F9B9F590
:102A10007A7F02DD4FF47A7904E019F57A7F01DAE2
:102A2000DFF834900648A0F800900A48A0F800A00B
:102A30000349B1F9000002F077FA00BF99E70000FE
:102A40005C4B0020A11B92418386694000A074402A
:102A5000000049402E01002018FCFFFF00B54FF494
:102A60007A71012000F072F94FF47A71022000F0BF
:102A70006DF900BD1FB50121052001F099FB0C2067
:102A8000ADF80C0004208DF80F0003208DF80E0027
:102A900003A91248FFF7D0FA03210020FFF7ACFA90
:102AA0000820009000208DF8040010208DF805000B
:102AB00001208DF806006846FFF720F809208DF800
:102AC000080006208DF8090000208DF80A0001207A
:102AD0008DF80B0002A800F0B3FA1FBD00080140FA
:102AE0002DE9F04F89B04FF0000AD146CB460024C3
:102AF000012008903848C08884134CB9002036491A
:102B00004880B1F9020002F033FA09B0BDE8F08F55
:102B1000032C05D1002030494880FFF79FFFF4E7E0
:102B2000012C02D10120089003E0022C01D1E01E0B
:102B300008902949C988C1F30D00FDF7FFFD274A18
:102B4000274BCDE90001FDF77CFD07460022254B10
:102B5000FDF705FDCDE904010898FDF7EFFDCDE98E
:102B60000201DDE90423FDF7FAFC054600221E4BB5
:102B7000FDF767FDCDE90601FDF71EFE0FFA80FBAC
:102B80001548C089ABEB00000FFA80FA1248408864
:102B90000AEB8A0100EB810014490988C1EB01119D
:102BA000401A0FFA80F9B9F57A7F02DD4FF47A798D
:102BB00004E019F57A7F01DADFF834900648A0F8CE
:102BC00002900A48A0F800A00349B1F9020002F0FF
:102BD000CFF900BF99E700005C4B0020A11B924198
:102BE0008386694000A07440000049403001002005
:102BF00018FCFFFF02E0642009F036FB494800782A
:102C00000428F8D000F094F88BE0464800780528B6
:102C100006D044480078012802D04248007848B9DC
:102C2000002002F081F9002002F0A2F9322009F020
:102C30001BFB76E001F0CEFB00F0AEF808F0DEFB07
:102C400090B33949B1F9000002F06EF93649B1F993
:102C5000020002F08DF935480188012002F0ACF93C
:102C600032484188022002F0A7F9304881880320C9
:102C700002F0A2F92D48C188042002F09DF92B48EA
:102C80000189052002F098F928484189062002F0C0
:102C900093F926488189072002F08EF92348C189DB
:102CA000082002F089F939E0FFE703F0CBF860B3C0
:102CB000FFF74AFEFFF714FF1C480188012002F0CD
:102CC0007BF91A484188022002F076F9174881887A
:102CD000032002F071F91548C188042002F06CF954
:102CE00012480189052002F067F910484189062041
:102CF00002F062F90D488189072002F05DF90B4866
:102D0000C189082002F058F908E00020064908802F
:102D1000488002F009F9002002F02AF9142009F095
:102D2000A3FA72E7100100205C4B00201A0100207A
:102D300010B5FFF7D3FDFFF79DFE02F03FFA00202C
:102D400002F0F2F8002002F013F910BD042801DCB3
:102D5000012800DA7047B1F57A7F00DDFAE7012833
:102D600006D0022807D0032809D004280FD10AE092
:102D7000084A11800BE0074A121D118007E0054A3E
:102D80000832118003E0034A0C32118000BF00BFFB
:102D900000BFDFE7340800402DE9F04700BF3249AB
:102DA000B1F90C10322201FB02F0FDF7B9FC8246AA
:102DB0002E49FDF7EFFA8146FDF71DFD07462C4A27
:102DC0002C4BFDF7CCFB0546FDF7F6FC04B2002CBE
:102DD00006DDC4F30D0040F48040234908810FE074
:102DE000002C06DAC4F30D0040F400401E490881AF
:102DF00006E02CB91C48808800F440401A4908813C
:102E00001949B1F90E10322201FB02F0FDF788FCDE
:102E100082461649FDF7BEFA8146FDF7ECFC0746EF
:102E2000134A144BFDF79BFB0546FDF7C5FC04B2A6
:102E3000002C06DDC4F30D0040F480400A494881AF
:102E40000FE0002C06DAC4F30D0040F40040064900
:102E5000488106E02CB90448C08800F4404002498B
:102E60004881BDE8F08700005C4B00200000A543CE
:102E7000A11B9241838669407047000010B504464B
:102E800000F048F8224807F0E1F92149091F887845
:102E900007F013FA1E49091FC87807F017FA032034
:102EA00007F036FA07F0F3F9032007F0E0F9012CF8
:102EB00018D10F21002009F093FC01211C2009F0FA
:102EC0008FFC06211D2009F08BFC0121084609F02A
:102ED00087FCFF21E12009F083FCFF21E22009F0BB
:102EE0007FFC13E00E21002009F07AFC01211C2058
:102EF00009F076FC06211D2009F072FCFF21E1207B
:102F000009F06EFCFF21E22009F06AFC10BD000010
:102F1000A446002000B589B001210D2001F048F938
:102F200001214248FFF714F90121102001F040F976
:102F30000121C80301F01CF93820ADF8000003207E
:102F40008DF8020018208DF8030069463848FFF715
:102F500073F82020ADF8000010208DF803006946BA
:102F60003448FFF769F84FF40040ADF800006946B7
:102F70003148FFF761F84FF40050ADF800004820E9
:102F80008DF8030069462B48FFF756F80D21022003
:102F9000FFF732F84FF40050019000208DF8080040
:102FA0000C208DF8090001208DF80A0001A8FEF719
:102FB000A5FD28208DF8200006208DF82100002096
:102FC0008DF8220001208DF8230008A800F038F8C1
:102FD0000020ADF80C004FF48270ADF80E00002018
:102FE000ADF81000ADF81200ADF814004FF4007009
:102FF000ADF816001020ADF818000020ADF81A004A
:103000000720ADF81C0003A90C4801F04DFC01217C
:103010000A4801F0F7F94FF400410748FFF7EBF8D1
:1030200020210448FFF7E5F809B000BD0002300098
:10303000000C01400010014000080140003C00402D
:1030400070B5002100230F22C47804B3154C246806
:1030500004F4E064C4F5E064210AC1F10403CA4049
:10306000447804FA03F184781440214309010E4C9A
:103070000678A155047804F01F050124AC400578BA
:103080006D11AD0005F1E025C5F8004109E00478B7
:1030900004F01F050124AC40044D0678761145F874
:1030A000264070BD0CED00E000E400E080E100E0AF
:1030B00002490143024A1160704700000000FA050E
:1030C0000CED00E010B5A2B0802102A8FDF7BDF81C
:1030D000002414E004F1B001C8B200F0C7F90020E8
:1030E00000F0C4F9102000F0C1F902A880234022AA
:1030F0003C210090044806F014F9601CC4B2082C6E
:10310000E8DB22B010BD0000340100202DE9F84FAB
:1031100080460E4692461C46DDF82890002700BFE8
:10312000E11704EB5171C910A4EBC10131B920467C
:10313000E11704EB5171C1F3C70506E02046E11722
:1031400004EB5171C910491CCDB235460FE0294638
:10315000404600F071F809EB0700802340223C2133
:103160000090054806F0DDF88037681CC5B2A5421E
:10317000EDDBBDE8F88F00003401002010B54FF4FE
:10318000FA7004F0FFF84FF4FA7004F0FBF8AE2088
:1031900000F06CF9202000F069F9102000F066F9C9
:1031A000B02000F063F9C82000F060F9002000F0C2
:1031B0005DF9102000F05AF9402000F057F9812005
:1031C00000F054F9FF2000F051F9A12000F04EF971
:1031D000A62000F04BF9A82000F048F93F2000F0AD
:1031E00045F9A42000F042F9D32000F03FF9002077
:1031F00000F03CF9D52000F039F9F02000F036F964
:10320000D92000F033F9222000F030F9DA2000F064
:103210002DF9122000F02AF9DB2000F027F92020F8
:1032200000F024F98D2000F021F9142000F01EF99F
:10323000AF2000F01BF910BD70B504460D4605F136
:10324000B001C8B200F012F9102141EA141000F0E8
:103250000DF904F00F0000F009F970BD30B59FB012
:103260002C494868FDF7C7FA044622460B462AA1B6
:1032700015A802F04BFE012315AA0021084600F014
:1032800085F824490868FDF7B6FA044622460B463D
:1032900026A11AA802F03AFE01231AAA1946002014
:1032A00000F074F82648028826A110A802F02EFE2D
:1032B000012310AA0221002000F068F825480288A6
:1032C00025A10BA802F022FE01230BAA0321002056
:1032D00000F05CF82448B0F9002024A106A802F010
:1032E00015FE012306AA0421002000F04FF81E4815
:1032F000B0F9022021A101A802F008FE012301AAD1
:103300000521002000F042F8322008F0ADFF1FB088
:1033100030BD0000040100204D61696E2020566F11
:103320006C746167653A25352E3266005365727696
:103330006F20566F6C746167653A25352E326600D2
:10334000E800002064697374616E6365313A253565
:10335000646D6D00F800002064697374616E6365CC
:10336000323A2535646D6D005C4B00206D6F746FD3
:1033700072315F70776D3A25356400006D6F746F40
:1033800072325F70776D3A25356400002DE9F84F91
:1033900005468846164699460027BA460024B9F1E4
:1033A000010F03D0B9F1020F57D122E01DE0305DCB
:1033B0002038C7B27E2D04DD002508F1010000F0A1
:1033C000FF0841462846FFF737FF07EB470024492F
:1033D00001EB4000062340223C210090214805F0EB
:1033E000A0FFA81DC5B2601CC4B2305D0028DED1AC
:1033F00033E02EE0305D2038C7B2782D04DD0025A3
:1034000008F1010000F0FF0841462846FFF714FFCD
:10341000154800EB0710082340223C21009011487A
:1034200005F07FFF08F10100C1B22846FFF704FF55
:10343000082000EB07100C490844082340223C21D7
:103440000090084805F06DFF05F10800C5B2601C4A
:10345000C4B2305D0028CDD100BF00BFBDE8F88FF9
:10346000C0D8000834010020E8DA000810B504468E
:10347000234600223C21024805F0CFFF10BD00008A
:103480003401002010B504464FF07E512068FDF74E
:103490001BFA03D24FF07E50206006E00021206826
:1034A000FDF708FA01D20020206010BD2DE9F84F89
:1034B00005460026B1460024287AC0F17F00C600E8
:1034C000B146E8797F3800EB80000644E8797F3820
:1034D00000EB8000A9EB0009F9480680A0F80290F3
:1034E0006979A1F17F00FDF71BF980F00047F549EC
:1034F0003846FCF74FFFF44908600868F349FCF7C9
:1035000049FF0090FDF777F907460022F04BFCF7E2
:103510007FFF8246FDF7B2F9EB4908600846FFF7E6
:10352000B1FFE9490868FEF701FAEA490880A97A7B
:10353000687A41EA002404F48040D0B104F0080025
:10354000B8B9E1494868FDF756F98246E24AE34BCB
:10355000FCF7FFFF0746FDF791F9DB494860081DBE
:10356000FFF790FFD8494868FEF7E0F9D94948804D
:103570001CE004F48040C8B904F00800B0B1D2499E
:103580004868FDF738F98246D34AD44BFCF740FF30
:103590000746FDF773F9CC494860081DFFF772FF35
:1035A000C9494868FEF7C2F9CA49488004F4004096
:1035B00040B304F0040028BBC3498868FDF71BF939
:1035C0008246C54AC54BFCF7C4FF0746FDF756F9CE
:1035D000BD49886001F10800FFF754FFBA498868C7
:1035E000FDF709F90746BE4ABE4BFDF717F902D2AF
:1035F000BD48B5498860B4498868FEF797F9B54970
:1036000088802AE004F4004038BB04F0040020B3B2
:10361000AD498868FDF7EFF80746AF4AAF4BFCF7B6
:10362000F7FE8246FDF72AF9A749886001F10800F4
:10363000FFF728FFA4498868FDF7DDF80746AB4A85
:10364000AB4BFDF703F902D2AA489F4988609E4917
:103650008868FEF76BF99F49888004F48050D8B1E0
:1036600004F48060C0B99849C868FDF7C4F80746FB
:10367000994A9A4BFCF76DFF8246FDF7FFF8924995
:10368000C86001F10C00FFF7FDFE8F49C868FEF726
:103690004DF99049C8801DE004F48050D0B904F47D
:1036A0008060B8B18849C868FDF7A5F807468A4A1E
:1036B0008A4BFCF7ADFE8246FDF7E0F88249C86010
:1036C00001F10C00FFF7DEFE7F49C868FEF72EF916
:1036D0008049C88004F40050D8B104F40060C0B937
:1036E00079490869FDF787F807467B4A7B4BFCF769
:1036F00030FF8246FDF7C2F87349086101F11000FE
:10370000FFF7C0FE70490869FEF710F9714908819A
:103710001DE004F40050D0B904F40060B8B16A4967
:103720000869FDF768F807466B4A6C4BFCF770FEBA
:103730008246FDF7A3F86449086101F11000FFF724
:10374000A1FE61490869FEF7F1F86249088104F0B9
:103750008000D8B104F02000C0B95B494869FDF78A
:103760004AF882465C4A5D4BFCF7F3FE0746FDF7DC
:1037700085F85549486101F11400FFF783FE52496D
:103780004869FEF7D3F8534948811DE004F08000F2
:10379000D0B904F02000B8B14B494869FDF72BF8C7
:1037A00082464D4A4D4BFCF733FE0746FDF766F85F
:1037B0004549486101F11400FFF764FE4249486938
:1037C000FEF7B4F84349488104F01000D8B104F082
:1037D0004000C0B93C498869FDF70DF882463E4A71
:1037E0003E4BFCF7B6FE0746FDF748F836498861C0
:1037F00001F11800FFF746FE33498869FEF796F895
:10380000344988811DE004F01000D0B904F0400074
:10381000B8B12D498869FCF7EEFF07462E4A2F4BB9
:10382000FCF7F6FD8246FDF729F82749886101F18A
:103830001800FFF727FE24498869FEF777F8254925
:10384000888104F40070D8B104F48070C0B91E49B6
:10385000C869FCF7D0FF07461F4A204BFCF779FEEA
:103860008246FDF70BF81849C86101F11C00FFF70B
:1038700009FE1549C869FEF759F81649C8811DE0C7
:1038800004F40070D0B904F48070B8B10E49C8696E
:10389000FCF7B1FF0746104A104BFCF7B9FD824612
:1038A000FCF7ECFF0849C86101F11C00FFF7EAFDD5
:1038B0000549C869FEF73AF80649C881BDE8F88F9E
:1038C0005C4B00200000FE42B40000200000E040FD
:1038D0000000E03F1A0100207B14AE47E17A743FFC
:1038E0009A9999999999B93FCDCCCC3DCDCCCCCC76
:1038F000CCCCEC3F6666663F08B50121102000F095
:1039000057FC0120ADF8000010208DF803000320C3
:103910008DF8020069460248FEF78EFB08BD0000E4
:103920000010014008B50121102000F041FC0220E8
:10393000ADF8000048208DF8030003208DF8020048
:1039400069460248FEF778FB08BD00000010014000
:1039500086B0FDF7C1FAFEF79FFEFFF7CDFFFFF738
:10396000E1FF00BF4FF47A7008F07EFC0221754839
:10397000FEF736FC20B901217248FEF73CFC00E05E
:10398000F0E74FF400416F48FEF735FC4FF48041FB
:103990006C48FEF730FC02E0642008F065FC022170
:1039A0006848FEF71DFC0028F6D002E0642008F00D
:1039B0005BFC654800780028F8D0C2E0022161482D
:1039C000FEF70EFCE0B940F2DC5008F04DFC02219D
:1039D0005C48FEF705FC0028EFD101205A49087029
:1039E00041F2707008F040FC00BF02215548FEF71C
:1039F000F7FB0028F9D001215248FEF7FAFBA0E0BE
:103A00005248007850B94FF400414E48FEF7F1FBA0
:103A10004FF480414B48FEF7ECFB29E04B4800781F
:103A2000012809D1C1034748FEF7E5FB4FF4804167
:103A30004448FEF7DEFB1BE044480078022809D129
:103A400081034048FEF7D5FB4FF480413D48FEF727
:103A5000D2FB0DE03D480078032809D14FF4004126
:103A60003848FEF7C8FB4FF480413648FEF7C3FBE9
:103A700037490888FCF75DFE4FF08B410090FCF75A
:103A800089FC0190FCF7B7FE4FF06632314BCDE96F
:103A90000201FCF764FD824600222F4BFCF75FFD1C
:103AA00080462E4A2E4BFCF75AFD06460F462D49FE
:103AB0000868FCF7A0FE8046284A2B4BFCF74FFD18
:103AC00032463B46CDE90401FCF7A2FC0446FCF774
:103AD000D5FE244908601E494888FCF72AFE834623
:103AE0004FF08B41FCF756FC8246FCF784FE4FF00A
:103AF0006632184BCDE90001FCF731FD80461B4AC8
:103B00001B4BFCF72CFD0646144A154BFCF727FD12
:103B1000CDE9040113494868FCF76DFE06460F4ADB
:103B2000114BFCF71CFDCDE90201DDE90423FCF794
:103B30006FFC0446FCF7A2FE0A494860142008F016
:103B400093FB3BE70010014010010020D40100204E
:103B50000001002066660A40000026409A99999963
:103B60009999C93F040100209999E93FCFF753E3A0
:103B7000A59B344030B58BB00446A078112854D1B1
:103B80004AF6AA20ADF8040019208DF806000C2092
:103B90008DF80700DE4800798DF80800DC4841798F
:103BA0008DF8091081798DF80A10C1798DF80B1004
:103BB000017A8DF80C1081788DF80D109DF80700B2
:103BC000801E81B201A8FDF755FCADF82800002544
:103BD0000CE000BF8021CF4801F0EDFF0028F9D0B4
:103BE00001A8415DCB4802F0B4F86D1C9DF80700B8
:103BF000801EA842EDDC00BF8021C64801F0DBFF3B
:103C00000028F9D0BDF82810C24802F0A2F800BF81
:103C10008021C04801F0CFFF0028F9D0BDF828006E
:103C20000112BC4802F095F86FE1A078122855D136
:103C30002179B748017161794171A1798171E17987
:103C4000C171217A017200F087FE18B101208DF850
:103C5000080002E000208DF808004AF6AA20ADF81E
:103C600004001A208DF8060007208DF807009DF843
:103C70000700801E81B201A8FDF7FCFBADF828000B
:103C800000250CE000BF8021A24801F094FF00282D
:103C9000F9D001A8415D9F4802F05BF86D1C9DF8CA
:103CA0000700801EA842EDDC00BF8021994801F08A
:103CB00082FF0028F9D0BDF82810964802F049F894
:103CC00000BF8021934801F076FF0028F9D0BDF8AD
:103CD000280001128F4802F03CF816E1A078132862
:103CE0004DD120798A49887000F036FE18B1012044
:103CF0008DF8080002E000208DF808004AF6AA209E
:103D0000ADF804001B208DF8060007208DF8070091
:103D10009DF80700801E81B201A8FDF7ABFBADF84E
:103D2000280000250CE000BF80217A4801F043FF05
:103D30000028F9D001A8415D764802F00AF86D1C10
:103D40009DF80700801EA842EDDC00BF802171486D
:103D500001F031FF0028F9D0BDF828106D4801F0BE
:103D6000F8FF00BF80216B4801F025FF0028F9D043
:103D7000BDF828000112674801F0EBFFC5E0A0780C
:103D8000152803D12046FFF791FBBEE0A078162846
:103D90007DD12179607941EA00205F490880A179CD
:103DA000E07941EA00205C494880217A607A41EA62
:103DB000002059498880A17AE07A41EA00205649DA
:103DC000C880217B607B41EA002053490881A17BA8
:103DD000E07B41EA002050494881217C607C41EA37
:103DE00000204D498881A17CE07C41EA00204A49BD
:103DF000C881617D207D41EA002048498880E17DBD
:103E0000A07D41EA00204549C880207E44490870D1
:103E10004AF6AA20ADF804001E208DF806001120F5
:103E20008DF8070000208DF808003C480089011239
:103E30008DF809103948017A8DF80A10408901126D
:103E40008DF80B103548817A8DF80C109DF807001D
:103E5000801E81B201A8FDF70DFBADF828000025FA
:103E60000CE000BF80212B4801F0A5FE0028F9D00E
:103E700001A8415D274801F06CFF6D1C9DF807000B
:103E8000801EA842EDDC00BF8021224800E016E041
:103E900001F091FE0028F7D0BDF828101D4801F070
:103EA00058FF00BF80211B4801F085FE0028F9D093
:103EB000BDF828000112174801F04BFF25E0A0785B
:103EC000212815D12079012802D1164908701CE05B
:103ED0002079022802D11349087016E020790328BE
:103EE00002D11049087010E000200E4908700CE063
:103EF000A078092802D0A0781D2806D100231A46F0
:103F000021460948006808F08DFE0BB030BD000066
:103F1000A0460020003801401A0100205C4B002020
:103F2000D40100204C000020980000202DE9FF5F04
:103F300005460C464FF07E502968FCF7A1F98246F1
:103F40002969FCF79DF98146296AFCF799F98046B1
:103F50004FF07A51FCF7ECF906463046FDF7BDFE0E
:103F60008046FDF7C3FE206072492068FCF7ACFC78
:103F700021D24FF07A502168FCF70CFA8346E969A8
:103F80006869FCF7CFF980465946FCF7D1F96060C3
:103F9000A968A869FCF7C6F980465946FCF7C8F934
:103FA000A060E9686868FCF7BDF980465946FCF7EF
:103FB000BFF9E06084E04FF07E502968FCF760F9BB
:103FC0004FF07C510390FCF7B3F982463146FCF781
:103FD000A9F98146FDF781FE8046FDF787FE606006
:103FE0004FF07E502969FCF74BF94FF07C5103905C
:103FF000FCF79EF982463146FCF794F98146FDF7BD
:104000006CFE8046FDF772FEA0604FF07E50296A7C
:10401000FCF736F94FF07C510390FCF789F98246A2
:104020003146FCF77FF98146FDF757FE8046FDF7E4
:104030005DFEE060E9686868FCF722F980460021CF
:10404000FCF738FC11D2A06880F00040A060E9695C
:104050006869FCF715F980460021FCF735FC1AD297
:10406000E06880F00040E06015E0E9686868FCF70F
:1040700007F980460021FCF727FC0CD2E969686942
:10408000FCF7FEF880460021FCF714FC03D2E06840
:1040900080F00040E060E9696869FCF743F9804618
:1040A0000021FCF707FC0BD2606880F000406060E4
:1040B000A06880F00040A060E06880F00040E06010
:1040C000E1680846FCF734F90390A1680846FCF75C
:1040D0002FF9029061680846FCF72AF901902168DF
:1040E0000846FCF725F900900199FCF7C9F88246CB
:1040F0000299FCF7C5F881460399FCF7C1F88046A0
:10410000FDF7FEFD074639462068FCF711F92060EF
:1041100039466068FCF70CF960603946A068FCF726
:1041200007F9A0603946E068FCF702F9E060BDE8F5
:10413000FF9F00000AD7233C01460020034A506835
:1041400020F44040084350607047000000100240D7
:1041500029B1064A52690243044B5A6104E0034AFA
:1041600052698243014B5A617047000000100240BF
:1041700029B1064AD2690243044BDA6104E0034ADA
:10418000D2698243014BDA6170470000001002409F
:1041900029B1064A12690243044B1A6104E0034A3A
:1041A00012698243014B1A617047000000100240FF
:1041B00029B1064A92690243044B9A6104E0034A1A
:1041C00092698243014B9A617047000000100240DF
:1041D00030B500210022002400232D4D6D6805F02C
:1041E0000C0121B1042905D0082923D105E0294D6E
:1041F000056022E0274D05601FE0254D6D6805F440
:104200007012234D6D6805F48034022505EB92424F
:104210001CB9214D554305600BE01D4D6D6805F43B
:1042200000351DB11C4D5543056002E0194D554345
:10423000056002E0174D056000BF00BF144D6D68BA
:1042400005F0F0010909154D6B5C0568DD4045601E
:104250000F4D6D6805F4E061090A104D6B5C45680F
:10426000DD4085600A4D6D6805F46051C90A0B4D4B
:104270006B5C4568DD40C560054D6D6805F44041E7
:10428000890B074D6B5CC568B5FBF3F5056130BD67
:104290000010024000127A0000093D00E2010020F7
:1042A000F201002094B007F0AFF820214448FDF758
:1042B000A2FF83E04248C06880F010004049C86017
:1042C00000231A460AA93F48006808F06FFB01283E
:1042D0001BD19DF82B00821E0AA96846FBF79CFFA4
:1042E000BDF84C00C1B29DF82B00801E0DF80010E7
:1042F000BDF84C0001129DF82B00401E0DF8001077
:104300009DF82B10684606F025F800236422194614
:104310002D48006808F04AFB0DF12B010AA805F0B2
:1043200035FF05469DF82B00801E0AA9095C9DF803
:104330002B00401E0AAA105C41EA0020ADF84C0098
:1043400065B922480088401C20490880084600883A
:10435000022802DD00201E4908702FE09DF82B0086
:10436000801E81B20AA8FDF785F804469DF82B004F
:10437000202815DCBDF84C000006B0EB046F0FD10F
:10438000BDF84C000012B0EB242F09D10AA8FFF7AA
:104390008DF800200D49088001200D4908700CE0BF
:1043A0000A480088401C09490880084600880228FD
:1043B00002DD00200649087000E000BF7AE7000037
:1043C00000100140980000209C000020A200002066
:1043D000A00000200848B0F90000084988810020AA
:1043E000054908800648B0F900000449C88100204A
:1043F00003490880704700002A0100205C4B002020
:104400002C01002021B1028842F04002028004E029
:1044100002884FF6BF731A400280704770B5054698
:104420000C4616464FF480511048FDF7E2FE03207B
:1044300000F0B0F9C4F3074000F0ACF9C4F3072072
:1044400000F0A8F9E0B200F0A5F904E0FF2000F0C8
:10445000A1F928706D1C301EA6F101018EB2F5D1B4
:104460004FF480510148FDF7C6FE70BD000C0140BD
:104470002DE9F05F07460E4614464FF00008C1468E
:10448000C2460025AB4606F0FF0ACAF10000C5B2DD
:104490002046E11704EB1161C1F30728E11704EB93
:1044A00011610912A4EB012101F0FF09BAF1000F1B
:1044B00020D1B8F1000F05D122463146384600F030
:1044C000CBF864E009E04FF480723146384600F0E2
:1044D000C3F806F5807607F58077B8F10000A8F1FB
:1044E000010101F0FF08EED14A463146384600F09E
:1044F000B3F84CE0B8F1000F18D1A94510DDA9EBD5
:10450000050000F0FF0B2A463146384600F0A4F8BB
:104510002E442F445A463146384600F09DF836E086
:1045200022463146384600F097F830E0601B84B2EE
:104530002046E11704EB1161C1F30728E11704EBF2
:1045400011610912A4EB012101F0FF092A4631464D
:10455000384600F081F82E442F4409E04FF4807271
:104560003146384600F078F806F5807607F5807712
:10457000B8F10000A8F1010101F0FF08EED1B9F196
:10458000000F04D04A463146384600F065F8BDE8D1
:10459000F09F000000B587B001218803FFF7E8FD18
:1045A00001214CF20800FFF703FE4FF48050ADF8F4
:1045B000040003208DF8060010208DF8070001A9E3
:1045C0002348FDF739FD4FF40050ADF804001820E2
:1045D0008DF8070001A91E48FDF72EFD4FF480401D
:1045E000ADF8040001A91A48FDF726FD4FF400407C
:1045F000ADF8040001A91648FDF71EFD4FF48051E7
:104600001348FDF7F8FD0020ADF808004FF4827064
:10461000ADF80A000020ADF80C000220ADF80E0045
:104620000120ADF810004002ADF812000020ADF8F6
:104630001400ADF816000720ADF8180002A90548CF
:1046400000F032F901210348FFF7DCFE07B000BD9E
:10465000000C01400038004070B505460C46164677
:1046600000F0F0F84FF480511548FDF7C2FD02202C
:1046700000F090F8C4F3074000F08CF8C4F3072072
:1046800000F088F8E0B200F085F8B6F5807F04DD30
:104690004FF480760BA001F029FC03E0287800F0AD
:1046A00079F86D1C301EA6F101018EB2F6D14FF4DF
:1046B00080510348FDF79FFD00F0A8F870BD000091
:1046C000000C01403C3C2D464C4153482D45525274
:1046D0004F522D3E3E205350495F464C4153485F58
:1046E00050616765577269746520746F6F206C61E3
:1046F000726765210A0000002DE9F04100240025C1
:10470000002600274FF480510F48FDF772FD9F20CF
:1047100000F040F8FF2000F03DF80546FF2000F0D3
:1047200039F80646FF2000F035F807464FF480516F
:104730000548FDF760FD280440EA062040EA07042A
:104740002046BDE8F0810000000C014010B5044691
:1047500000F078F800F05AF84FF480510C48FDF75B
:1047600048FD202000F016F8C4F3074000F012F8CE
:10477000C4F3072000F00EF8E0B200F00BF84FF49D
:1047800080510348FDF737FD00F040F810BD0000F0
:10479000000C014010B504464FF4805019490860E0
:1047A0000AE018490868411E164A116020B9002025
:1047B00000F0B2F8C0B210BD0221134800F066F854
:1047C0000028EED02146104800F06CF84FF48050DD
:1047D0000C4908600AE00B490868411E094A11604B
:1047E00020B9012000F098F8C0B2E4E701210648A2
:1047F00000F04CF80028EED0034800F050F8C0B2AA
:10480000D9E700000C0100200038004010B500245A
:104810004FF480510A48FDF7ECFC0520FFF7BAFF82
:1048200000BFFF20FFF7B6FF044604F00100002898
:10483000F7D14FF480510248FDF7DDFC10BD0000B8
:10484000000C014010B54FF480510648FDF7D1FC33
:104850000620FFF79FFF4FF480510248FDF7CBFC85
:1048600010BD0000000C014010B54FF48051064807
:10487000FDF7BFFCAB20FFF78DFF4FF480510248DE
:10488000FDF7B9FC10BD0000000C014002460020FD
:1048900013890B400BB1012000E000207047014656
:1048A000888970478181704710B50022028802F420
:1048B00041520B884C8823438C882343CC88234364
:1048C0000C8923434C8923438C892343CC8923437C
:1048D0001A430280838B4FF2FF74234083830B8A39
:1048E000038210BD70B504460D4629462046FFF7E9
:1048F000D9FF00BF02212046FFF7C8FF0028F9D0EA
:1049000000BF01212046FFF7C1FF0028F9D0204653
:10491000FFF7C5FFC0B270BD10B50446214602A026
:1049200001F0E4FA002010BD3C3C2D464C415348B8
:104930002D4552524F522D3E3E2053504920B5C86E
:10494000B4FDB3ACCAB1216572726F72436F646516
:10495000203D2025640A00002DE9FE4300250026A5
:10496000002400274FF004094FF0010800200090B8
:1049700001900290434800798DF800004148407949
:104980008DF801003F4880798DF802003D48C079DC
:104990008DF803003B48007A8DF804003948807890
:1049A0008DF805003748007B8DF806003548808972
:1049B000000A8DF807003348C068000C8DF8080025
:1049C0003048C068000E8DF809000A216846FCF7DF
:1049D00051FD0746F8B28DF80A0038128DF80B0029
:1049E000FDF75CF93420FDF7D3F82748FDF7D6F83A
:1049F0008146254D00BF19E000261DF80410601CFB
:104A00001DF8000041EA0021A01C1DF8000041EA49
:104A10000041E01C1DF8000041EA006631462846CE
:104A2000FDF706F981462D1D201DC4B20C2C02DABB
:104A3000B9F1040FE0D0FDF7F1F8134D002418E0B0
:104A40001DF80410601C1DF8000041EA0021A01CA4
:104A50001DF8000041EA0041E01C1DF8000041EA99
:104A600000662868B04201D04FF000082D1D201DBF
:104A7000C4B20C2C02DAB8F1000FE1D14046BDE817
:104A8000FE830000A046002000F8030894B0002038
:104A900011901290139000BF834604F087FA0446E9
:104AA00000200690814606F091FE06F023FF0020CC
:104AB000D049087002E0642007F0D6FBCD480078AA
:104AC0000028F8D02146CC4806F094FDCA49183198
:104AD000C948FCF73FFF00BF8AE100235A1E194670
:104AE000C648006807F062FF01287DD104F05EFA35
:104AF0000446C348007808B1082000E0002000F117
:104B00000E0AC04853463B2268210090BE4804F07C
:104B1000D9FBBC48FDF77AFBB948007818B1B94811
:104B20000E30FDF7F7FBB94911984860129888607C
:104B3000B749B1F90C10A1F1F100FBF7FFFD0746F1
:104B4000B44AB54BFBF77DFD0546FBF797FE069093
:104B5000AF49B1F90E10A1F14800FBF7E1FD814624
:104B600000210698FBF7B0FE21D800214846FBF74C
:104B7000A1FE1CD249460698FBF70CFC0190FBF7FE
:104B80003AFECDE9020101F0DBFF4FF00052A34BEA
:104B9000CDE90401FBF7E3FC07460022A04BFBF73D
:104BA00037FC0546FBF76AFE9849C86075E00021AE
:104BB0000698FBF77FFE23D200214846FBF77AFEDA
:104BC0001ED849460698FBF7E5FB0190FBF713FE5C
:104BD000CDE9020101F0B4FF07464FF000528F4BC0
:104BE000FBF7BDFC054600E05FE000228C4BFBF7C5
:104BF0000FFCCDE90401FBF741FE8449C8604CE09D
:104C000000210698FBF756FE21D800214846FBF705
:104C10005BFE1CD249460698FBF7BCFB0190FBF7F4
:104C2000EAFDCDE9020101F08BFF4FF000527B4B12
:104C3000CDE90401FBF793FC05460022794BFBF715
:104C4000E7FB0746FBF71AFE7049C86025E0002124
:104C50000698FBF739FE20D200214846FBF734FEC8
:104C60001BD849460698FBF795FB0190FBF7C3FD5F
:104C7000CDE9020101F064FF05464FF00052674B99
:104C8000FBF76DFC0022674BCDE90401FBF7C0FB8D
:104C90000746FBF7F3FD5D49C86000BF6248C06886
:104CA00080F010006049C86000BF604800780128AB
:104CB0007ED1A4EB0B000A287BD94AF6AA20ADF8D6
:104CC0001C0029208DF81E0018208DF81F00504868
:104CD00000788DF820004E480088010A07A841712D
:104CE0004B48817807A8817149484088010A07A884
:104CF000C1714748017907A8017245488088010AB7
:104D000007A841724248817907A881724048C0884B
:104D1000010A07A8C1723E48017A07A801733C48FE
:104D20000089010A07A841733948817A07A881736D
:104D300037484089010A07A8C1733548017B07A895
:104D4000017433488089010A07A841743048817B87
:104D500007A881742E48C089010A07A8C1742C488D
:104D6000017C07A801752A48008A010A07A8417535
:104D70009DF81F00801E81B207A8FCF77BFBADF8F1
:104D8000400000250CE000BF8021294800F013FFFF
:104D90000028F9D007A8415D254800F0DAFF6D1C16
:104DA0009DF81F00801EA842EDDC00BF802101E0BD
:104DB00019E01DE01E4800F0FEFE0028F6D0BDF808
:104DC00040101B4800F0C5FF00BF8021184800F0CC
:104DD000F2FE0028F9D0BDF840000112144800F09E
:104DE000B8FFA34604E011480078022800D000BFB5
:104DF00073E6000010010020A01A002048000020E7
:104E00003B000020C01B002034010020D41A0020E9
:104E1000D61B0020A4703D0AD7A3F03FDCA54C4070
:104E20000080564000E07040001001404C0000201F
:104E30000038014010B500F041F900F033FA10BD20
:104E400010B500F001F810BD0CB5002001900090E5
:104E50003348006840F480303149086000BF304872
:104E6000006800F4003000900198401C0190009808
:104E700018B90198B0F5A06FF1D12948006800F485
:104E8000003010B10120009001E000200090009857
:104E9000012843D12348006840F0100021490860F0
:104EA0000846006820F0030008600846006840F0EB
:104EB000020008601A48406819494860084640687E
:104EC00048600846406840F4806048600846406892
:104ED00020F47C1048600846406840F4E8104860C0
:104EE0000846006840F08070086000BF0C48006809
:104EF00000F000700028F9D00948406820F0030055
:104F0000074948600846406840F00200486000BF1A
:104F10000348406800F00C000828F9D10CBD0000DF
:104F2000001002400020024000B50346B3F57A7F2E
:104F300002DD4FF47A7303E013F57A7F00DA0B4B4E
:104F4000002B08DB99B20120FDF700FF00210220B1
:104F5000FDF7FCFE08E000210120FDF7F7FE5842B6
:104F600081B20220FDF7F2FE00BD000018FCFFFF39
:104F700000B50346B3F57A7F02DD4FF47A7303E0A0
:104F800013F57A7F00DA0B4B002B08DB002103209E
:104F9000FDF7DCFE99B20420FDF7D8FE08E0584288
:104FA00081B20320FDF7D2FE00210420FDF7CEFEE2
:104FB00000BD000018FCFFFF0246082A00DD704714
:104FC00040F6C413994200DDF9E7B1F5FA7F00DA43
:104FD000F5E7042A03DD0D48131FDAB200E00C48A0
:104FE000012A06D0022A06D0032A06D0042A09D1B3
:104FF00005E0818607E0018705E0818703E0A0F8EE
:10500000401000E000BF00BF00BFD8E700340140FF
:1050100000040040042808D14FF0E021096941F064
:1050200004014FF0E022116107E04FF0E02109692F
:1050300021F004014FF0E0221161704710B508F033
:1050400075F8012802D007F03FFC04E00248006830
:10505000401C0149086010BD1400002010B5134821
:10506000006840F001001149086008464068104996
:1050700008400E494860084600680E4908400B4940
:1050800008600846006820F48020086008464068F0
:1050900020F4FE0048604FF41F008860FFF7D0FE48
:1050A0004FF000600449086010BD0000001002408D
:1050B0000000FFF8FFFFF6FE08ED00E000B589B044
:1050C00001210420FFF774F8C020ADF8200018205B
:1050D0008DF8230003208DF8220008A93448FCF73E
:1050E000ABFF01210820FFF763F80320ADF8200093
:1050F00018208DF8230003208DF8220008A92D48E0
:10510000FCF79AFF01210220FFF732F844F62060F5
:10511000ADF818004720ADF814000020ADF81A00D3
:10512000ADF816008DF81C0005A9234800F0ACFA74
:105130006020ADF804000120ADF806000020ADF8B5
:105140000C0040F2DC50ADF80A0001A91A4800F04A
:105150003FF90821184800F087F940F2DC50ADF81B
:105160000A0001A9144800F089F90821124800F04A
:10517000D7F940F2DC50ADF80A0001A90E4800F062
:10518000DDF908210C4800F029FA40F2DC50ADF8B6
:105190000A0001A9084800F02BFA0821064800F08F
:1051A00065FA0121044800F0EEF809B000BD0000E6
:1051B00000080140000C01400004004000B589B027
:1051C00001210820FEF7F4FF4FF47070ADF82000C5
:1051D00018208DF8230003208DF8220008A9294803
:1051E000FCF72AFF01210420FEF7C2FF4FF47A707A
:1051F000ADF818004720ADF814000020ADF81A00F3
:10520000ADF816008DF81C0005A91F4800F03CFA07
:105210006020ADF804000120ADF806000020ADF8D4
:105220000C00ADF80A0001A9174800F0D1F80821D8
:10523000154800F019F90020ADF80A0001A912483C
:1052400000F01CF90821104800F06AF90020ADF8C0
:105250000A0001A90C4800F071F908210A4800F081
:10526000BDF90020ADF80A0001A9074800F0C0F917
:105270000821054800F0FAF90121034800F083F8FD
:1052800009B000BD000C014000080040044800883F
:105290000348008820F001000149088070470000A1
:1052A000100C004000B589B0012142F21000FEF759
:1052B0007FFF4FF47070ADF8200018208DF82300A8
:1052C00003208DF8220008A92B48FCF7B5FE44F610
:1052D0002060ADF818004720ADF814000020ADF8AC
:1052E0001A00ADF816008DF81C0005A9234800F03F
:1052F000CBF96020ADF804000120ADF806000020D5
:10530000ADF80C0040F2DC50ADF80A0001A91B48D2
:1053100000F05EF80821194800F0A6F840F2DC50D1
:10532000ADF80A0001A9154800F0A8F808211348B3
:1053300000F0F6F840F2DC50ADF80A0001A90F4881
:1053400000F0FCF808210D4800F048F940F2DC506C
:10535000ADF80A0001A9094800F04AF908210748F8
:1053600000F084F90121054800F00DF801210348FF
:1053700000F015F809B000BD0010014000340140F4
:10538000CA430282704721B1028842F001020280C2
:1053900004E002884FF6FE731A400280704731B174
:1053A000B0F8442042F40042A0F8442005E0B0F8F0
:1053B0004420C2F30E02A0F8442070471AB183893A
:1053C0000B43838102E083898B4383817047000014
:1053D00070B5002400220023058C4FF6FE76354080
:1053E0000584028C8388048B4FF68F752C40B51E84
:1053F0002C400D882C43751E2A400D892A434D8868
:105400002A43144DA8420BD0134DA84208D0134D87
:10541000A84205D0124DA84202D0124DA84213D185
:105420004FF6F7752A404D892A434FF6FB752A40FF
:105430008D882A434FF6FF652B404FF6FF552B40D2
:105440008D892B43CD892B4383800483CD8885862A
:10545000028470BD002C0140003401400040014036
:1054600000440140004801400A460021018B4FF6EC
:10547000F7731940114301837047000070B5002491
:1054800000220023058C4FF6EF7635400584028C10
:105490008388048B48F6FF752C404FF6FF452C405F
:1054A0000D884FF6FF7606EA05252C434FF6DF758B
:1054B0002A400D8906EA05152A434D8806EA051596
:1054C0002A43154DA84202D0144DA8421DD14FF6D3
:1054D0007F752A404D894FF6FF7606EA05152A4367
:1054E0004FF6BF752A408D8806EA05152A434FF608
:1054F000FF352B404FF2FF752B408D8906EA85055D
:105500002B43CD8906EA85052B4383800483CD8810
:105510000587028470BD0000002C0140003401406A
:105520000A460021018B4FF2FF7319404FF6FF73BB
:1055300003EA0223194301837047000070B5002479
:1055400000220023058C4FF6FF6635400584028C4F
:105550008388848B4FF68F752C404FF6FC752C405A
:105560000D882C434FF6FF552A400D894FF6FF76E4
:1055700006EA05252A434D8806EA05252A43154DE6
:10558000A84202D0144DA8421DD14FF2FF752A4007
:105590004D894FF6FF7606EA05252A434FF6FF357B
:1055A0002A408D8806EA05252A434EF6FF752B40D2
:1055B0004DF6FF752B408D8906EA05152B43CD89E5
:1055C00006EA05152B4383808483CD888587028472
:1055D00070BD0000002C0140003401400A4600214B
:1055E000818B4FF6F7731940114381837047000098
:1055F00070B5002200230024058C4EF6FF7635405E
:105600000584038C8488828B48F6FF752A404FF608
:10561000FF452A400D884FF6FF7606EA05252A4306
:105620004DF6FF752B400D8906EA05352B434D8855
:1056300006EA05352B430B4DA84202D00A4DA8427D
:1056400008D14BF6FF752C408D894FF6FF7606EAA0
:1056500085152C4384808283CD88A0F84050038434
:1056600070BD0000002C0140003401400A460021BA
:10567000818B4FF2FF7319404FF6FF7303EA022349
:105680001943818370470000002202881D4B984215
:105690000ED01D4B98420BD0B0F1804F08D01B4B61
:1056A000984205D01A4B984202D01A4B984204D126
:1056B0004FF68F731A404B881A43174B984207D006
:1056C000164B984204D04FF6FF431A40CB881A433A
:1056D00002808B8883850B8803850A4B98420BD008
:1056E000094B984208D00E4B984205D00D4B98427A
:1056F00002D00D4B984201D10B7A0386012383829D
:1057000070470000002C01400034014000040040BC
:1057100000080040000C0040001000400014004051
:1057200000400140004401400048014010B540F2F3
:105730002551184800F04CFA30B31748007870B97A
:10574000144800F001FB4FF6FF7101EA00201349F5
:10575000088011480078401C0F49087018E00E4876
:105760000078012811D10B4800F0EEFA0B490988A6
:1057700008430A4908800846008809490880064805
:105780000078401C0449087002E0024800F0DCFA8E
:1057900010BD0000004C0040EA000020EC0000209A
:1057A000E800002010B588B0044601211120FEF762
:1057B000FFFC0121C804FEF7DBFC4FF48060ADF86C
:1057C0001C0018208DF81F0003208DF81E0007A96B
:1057D0002448FCF731FC4FF40060ADF81C000420B5
:1057E0008DF81F0007A91F48FCF726FC0394002032
:1057F000ADF81000ADF81200ADF81400ADF81800C7
:105800000C20ADF8160003A9174800F031FA00206B
:10581000ADF80400ADF806004FF40070ADF80800D4
:105820000020ADF80A0001A90F4800F0A7F93420C4
:105830008DF8000006208DF8010000208DF8020090
:1058400001208DF803006846FDF7FAFB012240F2C3
:105850002551054800F0E6F90121034800F09FF9C1
:1058600008B010BD00100140004C004010B540F2DF
:105870002551184800F0ACF930B31748007870B9DA
:10588000144800F061FA4FF6FF7101EA0020134955
:10589000088011480078401C0F49087018E00E4835
:1058A0000078012811D10B4800F04EFA0B49098805
:1058B00008430A49088008460088094908800648C4
:1058C0000078401C0449087002E0024800F03CFAED
:1058D00010BD000000500040FA000020FC00002035
:1058E000F800002010B588B0044601213120FEF7F1
:1058F0005FFC01210805FEF73BFC4FF48050ADF83A
:105900001C0018208DF81F0003208DF81E0007A929
:105910002348FCF791FB0420ADF81C008DF81F0014
:1059200007A92048FCF788FB03940020ADF810007D
:10593000ADF81200ADF81400ADF818000C20ADF869
:10594000160003A9184800F093F90020ADF80400F0
:10595000ADF806004FF40070ADF808000020ADF877
:105960000A0001A9104800F009F935208DF800005F
:1059700006208DF8010000208DF8020001208DF82E
:1059800003006846FDF75CFB012240F22551064802
:1059900000F048F90121044800F001F908B010BDF9
:1059A00000100140001401400050004010B50024D8
:1059B00040F22551444800F00BF900280DD0424830
:1059C00000F0C2F9C4B24148008838B9AA2C79D194
:1059D0003E480088401C3D49088073E03B480088F1
:1059E00001280FD1AA2C09D138480088401C37491A
:1059F00008804AF6AA203649088063E0002033492F
:105A000008805FE031480088022807D12F480088CD
:105A1000401C2E4908802E48847053E02B48008893
:105A200003280FD129480088401C28490880202CD1
:105A300002DC2748C47045E000202449088024493E
:105A4000C8703FE02248C078801E204909888842FB
:105A50000BDD1E480088001F1D49091D0C541B4802
:105A60000088401C194908802CE01948C078801E25
:105A700016490988884207D115488484134800884C
:105A8000401C124908801DE01148C078401E0F4993
:105A90000988884211D10E48808C40EA04200C49C4
:105AA000888400231A460B48006807F0A1F90020FB
:105AB000064908800649C87004E0002003490880B0
:105AC0000349C87010BD000000380140D400002018
:105AD000344B0020D800002010B586B004460121C8
:105AE00044F20400FEF764FB4FF40070ADF81400BC
:105AF00018208DF8170003208DF8160005A91D4801
:105B0000FCF79AFA4FF48060ADF8140004208DF889
:105B1000170005A91748FCF78FFA01940020ADF88B
:105B20000800ADF80A00ADF80C00ADF810000C202C
:105B3000ADF80E0001A9104800F09AF825208DF864
:105B4000000006208DF8010000208DF802000120E1
:105B50008DF803006846FDF773FA012240F22551E3
:105B6000054800F05FF80121034800F018F806B07E
:105B700010BD0000000801400038014010B5024689
:105B80000020108A4FF2FF0318400B884C882343F3
:105B90008C882343CC8823431843108210BD21B145
:105BA000828942F40052828104E082894DF6FF73BB
:105BB0001A408281704702460020B1F5007F00D173
:105BC00000BF13880B400BB1012000E0002070479C
:105BD00070B50246002400230025002040F66A1616
:105BE000B14200D100BFC1F3421501F01F030126ED
:105BF00006FA03F3012D02D19689334006E0022D07
:105C000002D1168A334001E0968A33400C120126F5
:105C100006FA04F41688344013B10CB1012000E0F8
:105C2000002070BDF0B503460024002600250020AA
:105C300040F66A17B94200D100BF1846C1F34214BA
:105C400001F01F06012707FA06F5012C01D10C30DF
:105C500004E0022C01D1103000E014301AB10768C2
:105C60002F43076002E00768AF430760F0BD000004
:105C70002DE9F04786B005460E460024A24600BF37
:105C8000A1460027B08900B100BF2F462C8A4CF6F0
:105C9000FF700440F08804432C82AC894EF6F31068
:105CA0000440B08831890843718908430443AC81BA
:105CB000AC8A4FF6FF400440B0890443AC8201A88F
:105CC000FEF786FA1F48874202D1DDF810A001E0F6
:105CD000DDF80CA0A88900F4004040B10AEBCA002E
:105CE00000EB0A1031684900B0FBF1F807E00AEB5D
:105CF000CA0000EB0A1031688900B0FBF1F864209B
:105D0000B8FBF0F004012009642101FB1089A88987
:105D100000F4004040B1322000EBC900B0FBF1F0CC
:105D200000F00700044308E0322000EB0910642172
:105D3000B0FBF1F000F00F0004432C8106B0BDE889
:105D4000F08700000038014001468888C0F3080051
:105D50007047C1F3080282807047000040F6B830F7
:105D600006F082FA00BF80211148FFF724FF0028C7
:105D7000F9D055210E48FFF7ECFF00200D490870BF
:105D800014E00C48007802280DD100BF802108489B
:105D9000FFF711FF0028F9D055210548FFF7D9FF7B
:105DA000002004490870642006F05EFAE9E700006C
:105DB000004C0040EA00002040F6B83006F054FAEB
:105DC00000BF80211348FFF7F6FE0028F9D05521C7
:105DD0001048FFF7BEFF00200F49087019E00E4879
:105DE0000078022812D10D4801880DA000F07EF83D
:105DF00000BF80210748FFF7DEFE0028F9D05521BB
:105E00000448FFF7A6FF002003490870642006F04D
:105E10002BFAE4E700500040FA000020F8000020D0
:105E2000756C747261736F6E69635F6469737461BA
:105E30006E6365323A202564206D6D0A0000000013
:105E400000BFFEE70148007870470000DC0000203A
:105E50008AB0002226210A2006F062FD154908605A
:105E6000002425E00023C82269461248006806F095
:105E70009DFD012819D19DF80300801E81B268465E
:105E8000FBF7F8FA0446BDF82400A04206D16846A4
:105E9000FDF770FE01200849087009E0BDF82410E4
:105EA0002246064800F022F802E00020024908706D
:105EB000D8E70000D8000020DC000020B0940308E0
:105EC00008B501210820FEF773F90420ADF80000A1
:105ED00028208DF8030003208DF80200694602484F
:105EE000FCF7AAF808BD0000000C01400FB4054BF8
:105EF00010B503A9044A029800F03CFA10BC5DF802
:105F000014FB0000BD8E00086C0200200FB4084B8B
:105F100010B504A902AA039800F02CFA044602A9BD
:105F2000002000F0AAFD204610BC5DF814FB000024
:105F30007B6A0008490050EAC12018BF04204A0DBE
:105F400018BF40F0010040F2FF72B2EB515F08BF92
:105F500040F00200012808BF0520704741000802F8
:105F600018BF04200A0E18BF40F001004FF07F4216
:105F700032EA010108BF40F00200012808BF0520F5
:105F800070472DE9F0414F1E00EBC7010446D1E9EF
:105F9000000115461E4637F006020DD02A4633464C
:105FA000FAF7DDFA7F1E04EBC703D3E90023FAF703
:105FB0002FFA37F00602F1D1022F25D0042F13D08B
:105FC000062F18BFBDE8F0812A463346FAF7C7FA14
:105FD000D4E90A23FAF71CFA2A463346FAF7BFFA3D
:105FE000D4E90823FAF714FA2A463346FAF7B7FA3F
:105FF000D4E90623FAF70CFA2A463346FAF7AFFA41
:10600000D4E90423FAF704FA2A463346FAF7A7FA42
:10601000D4E90223FAF7FCF92A463346FAF79FFA45
:10602000D4E90023BDE8F041FAF7F2B90122FAF70A
:106030008BBD0000024A00201107FAF785BD000061
:1060400001FDFFFF0121FAF7F8BC00210846FAF72D
:10605000A1B96FF05E010807FAF7EFBC2DE9F04D2A
:106060000D4614464FF07F41B1EB440F9EBF4FF0F9
:10607000FF312960BDE8F08D4FF0004040EA042177
:10608000C4F3C750783810F01F024A4B4FEA601C27
:10609000C2F120067B44C4F3C750A0F178004FEA58
:1060A000601003EB800053F82C3008BFD0E901C624
:1060B00012D0D0F804C093402CFA06F73B4387680F
:1060C0000CFA02FC27FA06F8C06807FA02F2F04060
:1060D0004CEA080C42EA0006A3FB0132ACFB01C00B
:1060E000A6FB016101EB0C068E4234BF4FF0010CA0
:1060F0004FF0000CC1186144BCF1000F02D0814286
:1061000002D903E0814201D2012000E000201044C6
:1061100000F120024FEA92188006CA0C40EA423091
:106120004F03C5F80080FAF7FBFA82463846FAF7C3
:1061300000FB6FF01201FAF780FC07463046FAF7D1
:10614000F8FA6FF02501FAF778FC83463946504695
:10615000FAF796F85946FAF793F800F500666FF3E8
:106160000B0651463046FAF7DDF83946FAF7DAF809
:106170005946FAF7DAF81049FAF7DAF807460F49FC
:106180003046FAF7D5F83946FAF77AF807460C4957
:106190003046FAF7CDF83946FAF772F814F0004FA6
:1061A00008BFBDE8F08DC8F1805180F00040296043
:1061B000BDE8F08DF8330300DB0FC92F22AAFD29BB
:1061C0000000C92F02E008C8121F08C1002AFAD136
:1061D00070477047002001E001C1121F002AFBD167
:1061E00070470000014908607047000070020020FD
:1061F0002DE9FF5F82B00021DDE90430020DDDF8FA
:1062000040B0034318D044F61050A2F2FF3242438C
:106210001514119801281FD0A5EB0B00401C5FEA54
:10622000000A4FF000064E4FDFF83891B046504656
:1062300015D5CAF1000413E0119801244AA30128DE
:1062400001D16FEA0B010298119AC0E90031C0E94F
:10625000024206B0BDE8F09FCBF10000DFE7044644
:106260000021404A491842EB0450CDE9001012E0E9
:10627000E00707D032463B4640464946FAF76FF9F9
:106280008046894632463B4610461946FAF767F97A
:1062900006460F466410002CEAD1DDE90401DDE971
:1062A0000023BAF1000F06DAFAF759F942464B46D5
:1062B000FAF755F905E0FAF7C4F942464B46FAF702
:1062C000C0F904460E460022284BFAF7BFFA03D85D
:1062D0004FF0FF30014607E00022254B20463146B3
:1062E000FAF796F8FAF747FC102409E0002C0ADBCD
:1062F0000A220023FAF708FB039B30321A55641E6A
:1063000050EA0102F2D1641C039AC4F1110314444F
:10631000119A012A03D0012208430DD10AE0084353
:1063200004D000204FF0110B119072E7A3EB0B0586
:106330006D1E0DE05B4504DD4FF0000205F1010527
:1063400004E003DA4FF00002A5F10105002AECD0C9
:1063500002981199C0E90231C0E9004579E70000CF
:10636000000014400000F03F300000000000F04347
:106370000000E03F2DE9FF4F95B09A46884606465B
:106380000025EEE1252877D100242746F94A01218E
:10639000039400E0044316F8013F203B01FA03F0A8
:1063A0001042F7D130782A2811D06FF02F033078BF
:1063B000A0F13002092A16D8039A44F0020402EB35
:1063C000820203EB42021044761C0390EFE758F878
:1063D000042B0392002A03DA504244F40054039041
:1063E00044F00204761C30782E2816D116F8010FDE
:1063F00044F004042A280DD06FF02F023078A0F169
:106400003003092B09D807EB870302EB4303C718B6
:10641000761CF3E758F8047B761C30786C280FD094
:1064200006DC4C2817D068280DD06A2814D104E067
:10643000742810D07A280FD10DE044F400140AE03B
:1064400044F4801401E044F440147278824202D192
:1064500004F58014761C761C307866280BD013DC8B
:10646000582877D009DC002875D04528F6D0462872
:10647000F4D047281AD193E118E0632835D0642876
:1064800079D0652812D18BE1702873D008DC672899
:10649000F1D069286FD06E280DD06F2806D1ACE0FE
:1064A00073282CD0752874D0782853D05246179969
:1064B00090476D1C54E1C4F30250022809D0032810
:1064C0000DD0D8F8001004280DD00D6008F1040894
:1064D00046E1D8F80010EA17C1E90052F6E7D8F80B
:1064E00000100D80F2E70D70F0E718F8041B8DF82E
:1064F000001000208DF80100EB46012003E058F861
:1065000004BB4FF0FF3061074FF0000102D40DE0F3
:1065100009F101018946B9420FDA8145F8DB1BF820
:1065200009100029F4D108E009F1010189468142EE
:10653000FADB1BF809100029F6D103985346A0EBAB
:10654000090721463846179A00F080FA284400EBE4
:10655000090507E044E008E10DE01BF8010B524695
:1065600017999047B9F10109F7D2534621463846A9
:10657000179AF2E039E00A21C4F302524FF0000BFF
:106580000091022A06D058F8040BC117032A09D03B
:106590000AE023E008F1070020F00702F2E8020118
:1065A000904605E000B2C117042A01D140B2C117DC
:1065B000002906DA0A460021404261EB02012D2241
:1065C00002E0220504D52B228DF80420012203E0ED
:1065D000E20701D02022F7E7914657E00A2100E0C8
:1065E00010214FF0000B00910BE010214FF0000B39
:1065F00044F004040827009103E008204FF0000B4A
:106600000090C4F30252022A05D058F8040B00216E
:10661000032A08D008E008F1070020F00702F2E89A
:106620000201904603E080B2042A00D1C0B24FF0CC
:10663000000922072AD53278702A07D0DDF800C079
:106640008CF0100C5CEA0B0C05D00EE040228DF8AB
:106650000420012208E050EA010306D030238DF81F
:1066600004308DF8052002229146009B83F0080338
:1066700053EA0B030AD150EA010201D1620705D5A2
:1066800030228DF804204FF001097F1E3278582AFD
:1066900004D039A20C920CAA02920BE03BA2F9E7BB
:1066A0005B46009AFAF730F90C9B9B5C029A521EEB
:1066B0000292137050EA0102F2D1029804A9081A5A
:1066C00000F1200B600702D524F4803400E001279C
:1066D0005F4502DDA7EB0B0000E0002000EB0B01A3
:1066E000009003984944401A0390E00306D45346AF
:1066F0002146179A039800F0A9F90544002706E0FF
:1067000001A85246C05D179990476D1C7F1C4F45EC
:10671000F6DBE0030CD553462146179A039800F0A8
:1067200095F9054404E030205246179990476D1CB6
:106730000099481E00900029F5DC08E002980299B3
:1067400052460078491C0291179990476D1CBBF185
:106750000001ABF1010BF1DC5BE100F065F90544F0
:10676000761C307800287FF40DAE19B02846BDE8BD
:10677000F08F0000092801003031323334353637CC
:10678000383961626364656600000000303132337D
:10679000343536373839414243444546000000001D
:1067A000600700D4062708F1070020F00700F0E892
:1067B0000223804603F0004C5FEA0C0001D097A052
:1067C00009E0200501D596A005E0E00701D095A0DD
:1067D00001E0AFF24C001390307823F000436528BD
:1067E0000CD006DC452809D046281DD047287FD18B
:1067F0003BE0662818D067287AD136E00021112FB7
:1068000001DB112000E0781CCDE9000104A90CA8EF
:10681000FFF7EEFCDDE90D010C9A4FF0000B07F1DC
:106820000109109200914EE04FF000400097CDE931
:10683000011004A90CA8FFF7DBFCDDE90D020C9B9D
:106840000F994FF0000B91461093009211B9791CEB
:1068500000EB0109B7EB090003D4C0F1FF3B07F1DE
:106860000109A9EB0700019042E0012F00DA01279E
:106870000021112F01DD112000E03846CDE9000193
:1068800004A90CA8FFF7B4FCDDE90D010C9A0091F6
:106890004FF0000BB946109221070FD4009A4A45D9
:1068A00003DA914601E0A9F10109B9F1010F05DD13
:1068B000109AA9F10101515C3029F4D0B84202DAF2
:1068C00010F1040F03DA0121CDE9011010E00028D6
:1068D00003DC8344A9EB000102E0411C494500DDD3
:1068E0008946A0EB0B00401C01904FF00040029045
:1068F000200705D40198484502DB4FF0FF30019096
:1069000000208DF84B0002980DF14B07B0F1004FBD
:1069100025D002200C902B200D90029800280CDA34
:10692000404202902D200D9007E00A210298F9F7CD
:10693000D5FF3031029007F8011D0C99481E0C90CC
:106940000029F2DC02980028EFD1791E0D9808701A
:10695000307800F0200040F0450007F8020D11A843
:10696000C01BC01D02901398007800B1012000EBFD
:106970000901019801EBE071029801440398401A63
:10698000401E0390E00306D453462146179A03980D
:1069900000F05CF805441398007818B15246179936
:1069A00090476D1CE00323D553462146179A039860
:1069B00000F04CF805441BE0BBF1000F07DB00982A
:1069C000584504DD1098179910F80B0001E017994D
:1069D00030205246904701980BF1010B401E05F103
:1069E0000105019004D12E205246179990476D1C45
:1069F000B9F10001A9F10109DEDC05E017F8010B8E
:106A00005246179990476D1C0299481E0290002922
:106A1000F4DC53462146179A03989EE62D000000A9
:106A20002B000000200000002DE9F0410446002565
:106A30001E461746880404D405E039462020B04796
:106A40006D1C641EF9D52846BDE8F0812DE9F041A2
:106A5000044600251E469046C80301D5302700E0B5
:106A60002027880404D505E041463846B0476D1C10
:106A7000641EF9D52846BDE8F0810A68531C0B60F6
:106A8000107070470549097801B1704704490860E2
:106A90000C21044A117000BFF7E70000CC01002070
:106AA000C8010020C001002010B5044623460A2278
:106AB000034801780348006802F0AFFC10BD0000F5
:106AC000C0010020C801002010B5094B0022094870
:106AD00001780948006802F017FC38B104480078D2
:106AE000482801D1012010BD0020FCE70020FAE772
:106AF000C1010020C0010020C80100200C4615463D
:106B000000BF502080F31188BFF34F8FBFF36F8F0A
:106B100000BF2946204604F0F5FF2A46214602A080
:106B2000FFF7E4F900BFFEE74173736572742066F6
:106B300061696C65642025733A25640A00000000D1
:106B40002DE9F84F04460D4621F0004000917349AD
:106B5000814211DC7249884201DC06D12CB1204609
:106B60002946BDE8F84FFFF761BA6E48002DCCBF4B
:106B70006D496E49BDE8F88F6D49814211DD6D495F
:106B80008142D8BF4FF0FF366DDD20462946FFF722
:106B9000D1F9042808BFFFF74DFA20462946BDE881
:106BA000F88F6549654F25F00045814233DD644922
:106BB000814219DD002632464FF0804320462946A7
:106BC000F9F726FC80468A46012220462946F9F735
:106BD000BBFF00223B46F9F7BCFC42465346F9F79F
:106BE00030FD04460D463EE001260022BA463B46F3
:106BF00020462946F9F70CFC80460F4600225346F2
:106C000020462946F9F7A5FC42463B46F9F719FD0F
:106C100004460D4627E04B4981421BDDDFF828A1E1
:106C200002260022534620462946F9F798FC002206
:106C30003B46F9F7EDFB80460F46002253462046BF
:106C40002946F9F786FC42463B46F9F7FAFC04462A
:106C50000D4608E0032622462B4600203B49F9F763
:106C6000F0FC04460D4622462B4610461946F9F71D
:106C700076FC8B46824602460B46F9F770FC0746C7
:106C80000246334888460B4606217844FFF779F9D7
:106C900052465B46F9F763FC82462E488B463A46DD
:106CA000434605217844FFF76CF93A464346F9F725
:106CB00056FC02460B46002E504659460CDAF9F7B0
:106CC000A7FB22462B46F9F74AFC01B022462B4689
:106CD000BDE8F04FF9F740BCF9F79AFB22462B4686
:106CE000F9F73DFC1C4A7A4402EBC603D3E90023C2
:106CF000F9F72FFC22462B46F9F72BFC174A7A446A
:106D000002EBC603D3E90023F9F726FC009A002A18
:106D1000B8BF81F00041BDE8F88F000000001044CA
:106D20000000F07F182D4454FB21F93FFB21F9BFEF
:106D30000000DC3F0000203E0000F33F0000F03F79
:106D40000000E63F008003400000F83F0000F0BF75
:106D5000D2270300902703002E270300F626030006
:106D600070B504460D4600202071401EE0622946A1
:106D7000204602F0D1FF08B1032070BD94F82E1216
:106D800094F82F0241EA00204AF65521884201D0AA
:106D90000220F2E794F86900010694F8680041EADD
:106DA000004194F8670041EA002094F86610084317
:106DB00020F07F400D49884201D10020DDE794F8A2
:106DC0008500010694F8840041EA004194F88300AC
:106DD00041EA002094F88210084320F07F400349E4
:106DE000884201D10020C8E70120C6E7464154008F
:106DF000024600E0521C107810B110788842F9D198
:106E0000107870470246891E5069801E884201D85A
:106E1000002070479378906A01FB0300F9E70000B7
:106E20002DE9F04780460C46A17EE07E41EA002035
:106E300010B10020BDE8F087207800F03F00401E30
:106E400000EB800101EBC0064FF00109002524E0B2
:106E50001A48405D205C1949495D2144497840EA5F
:106E60000127B9F1000F11D0FF2E0BD2384601F0E7
:106E700083FD82463146761C38F8110001F07CFD16
:106E8000824501D00020D5E7B94605E04FF6FF70F6
:106E9000874201D00020CDE76D1C0D2DD8D320787E
:106EA00000F0400038B1B9F1000F04D038F81600F6
:106EB00008B10020BEE70120BCE70000F8E20008AE
:106EC0002DE9F843044602464F486946B0EB420FAD
:106ED00009D94FF0E640B0EB420F94BF00204FF0CD
:106EE000FF30009030E0494B22F00040834271D9DE
:106EF00047492046F9F71CFAF9F7ABFD8046F9F748
:106F00002EFC00F00300009042494046F9F710FAC9
:106F1000054641494046F9F70BFA06463F494046C7
:106F2000F9F706FA07463E494046F9F701FA2146C5
:106F3000F9F7FBF93946F9F7F5F93146F9F7F2F9BE
:106F40002946F9F7EFF904462546009C002C45DB5D
:106F5000294614F0010F08461CD0F9F7E9F9064656
:106F60003049F9F7E5F93049F9F7DFF93146F9F732
:106F7000DFF92E49F9F784F93146F9F7D9F92946AD
:106F8000F9F7D6F92946F9F77BF914F0020F1CD06E
:106F9000BDE8F883F9F7CCF905462549F9F7C8F9B2
:106FA0002449F9F76DF92946F9F7C2F92249F9F7A9
:106FB00067F92946F9F7BCF94FF07E51F9F760F906
:106FC00014F0020F08BFBDE8F88380F00040BDE870
:106FD000F883FFE71046FFF741F8B4E76800B0F127
:106FE0007F4F3CBF4FF07E50BDE8F88307D14FF094
:106FF0000100FFF7F7F8BDE8F843FFF726B8284689
:10700000BDE8F843FFF71EB8B61F927E490E494609
:1070100083F9223F1A61342C0020A23300A0FD39ED
:107020000000C93F336D4C39DA82083CA0AA2ABE61
:10703000B93AB2BACA9F2A3DDDFFFFBE2DE9F0473B
:1070400004468946B9F1000F06D1E76817B16069B7
:10705000B84215D8012713E04946204601F0B4FF95
:107060000646022E02D20120BDE8F087701C08B946
:107070003046F9E76069B04201D93046F4E74F463F
:107080003D4600BF6D1C6069A84204D80225BD4280
:1070900001D90020E8E72946204601F095FF064681
:1070A00006B909E0701C08B1012E01D13046DBE7BA
:1070B000BD42E7D10020D7E700BF6FF070422946FC
:1070C000204603F0D1FF8046B8F1000F08D1B9F196
:1070D000000F05D02A464946204603F0C5FF8046EA
:1070E000B8F1000F0BD1E5602069401C78B1206930
:1070F000401E2061607940F00100607107E0B8F146
:10710000010F02D14FF0FF3000E001200546284674
:10711000AAE700002DE9F34F83B081460498006888
:10712000019002E00198401C0190019800782F28FE
:10713000F8D0019800785C28F4D0D9F81CA000257C
:107140002F4600BF38467F1C01990C5C202C03DBC6
:107150002F2C01D05C2C00D132E0FF2D03D3062070
:1071600005B0BDE8F08FE4B2812C13DBE0B2FE285D
:1071700010DC38467F1C01990E5C06EB042084B2BB
:10718000402E01DB7E2E05DD802E01DBFE2E01DD93
:107190000620E5E70121204601F0B0FB04460CB9CA
:1071A0000620DDE7802C06DA214671A0FFF720FEDD
:1071B00008B10620D4E728466D1C2AF81040C1E724
:1071C00000BF0198C11904980160202C01DA042045
:1071D00000E00020804608E0681E3AF81040202CAD
:1071E00002D02E2C00D002E06D1E002DF4D100BF85
:1071F0000DB90620B4E700202AF815000B22202143
:10720000D9F8180002F07EFD002700E07F1C3AF854
:1072100017002028FAD03AF817002E28F6D00FB120
:1072200048F0030800E06D1E25B1681E3AF8100012
:107230002E28F8D10020064602904FF0080B00BF20
:1072400038467F1C3AF8104004B963E0202C03D084
:107250002E2C04D1AF4202D048F00308F0E7029888
:10726000584501D2AF4214D1BBF10B0F02D148F007
:1072700003084FE0AF4201D048F00308AF4200D905
:1072800048E02F46082002904FF00B0BB006060E88
:10729000D6E7802C09DB204601F06EFB0021009030
:1072A00001F02CFB044648F00208FF2C11DDABF185
:1072B00001000299884204D848F00308CDF808B0CC
:1072C000BEE72212D9F818300298411C02911A54D4
:1072D00019E024B1214629A0FFF78AFD18B15F24E7
:1072E00048F003080FE0412C04DB5A2C02DC46F086
:1072F000020608E0612C06DB7A2C04DC46F001066D
:10730000A4F1200084B2D9F818300298411C0291EF
:107310001C5495E700BFD9F818000078E52803D180
:107320000520D9F818100870BBF1080F01D1B0067C
:10733000060E06F00C000C2803D006F0030003280C
:1073400001D148F0020808F0020058B906F0030025
:10735000012801D148F0100806F00C00042801D1E2
:1073600048F00808D9F8180080F80B800020F7E6EC
:10737000222A3A3C3E3F7C7F000000002B2C3B3D04
:107380005B5D000070B5044605F0D0FE012811D009
:107390000C480088844206DB0A48008894FBF0F51C
:1073A000284604F061FF0748008894FBF0F100FBD9
:1073B000114084B24FF47A7104FB01F000F004F83C
:1073C00070BD00001801002070B5034600224FF088
:1073D000E02675690D4E366803FB06F44FF0E02693
:1073E000B16910E04FF0E026B06988420BD08842C6
:1073F00002D20E1A324402E02E1A0E4432440146E2
:10740000A24200D300E0EDE700BF70BD14010020F0
:107410002DE9F04104460E460021204600F030FAE6
:107420000546EDB9002700BF2169206802F074FC11
:10743000054605B113E060690078E52802D060696F
:10744000007820B9781C0746B04201D107E0002738
:107450000121204600F07FF80546002DE4D000BF52
:10746000042D00D107252846BDE8F0812DE9F0471D
:1074700004460021204600F003FA074617B13846BB
:10748000BDE8F0874FF0FF09CA464FF6FF70208431
:1074900000BF2169206802F03FFC074607B157E0B2
:1074A00065692E780EB9042752E0E87A00F03F08AB
:1074B000E52E05D008F0080040B1B8F10F0F05D057
:1074C0004FF0FF094FF6FF7020843AE0B8F10F0F3C
:1074D0001CD1E06978B306F0400030B195F80DA0FA
:1074E00026F04006B146E08820844E450AD1687BEC
:1074F000504507D12946E069FFF792FC10B1A9F188
:10750000010000E0FF2000F0FF091AE0B9F1000FD0
:1075100005D1284604F002FB504500D118E0A069CF
:10752000C07A00F0010038B90B222846A16902F0A8
:10753000C9FB08B90CE004E04FF0FF094FF6FF70FB
:1075400020840021204600F006F80746002FA0D036
:1075500000BF384694E72DE9F04104468846E088AC
:10756000461CB0B208B1206910B90420BDE8F08112
:1075700021684889C11700EBD1614911B6FBF1F2CE
:1075800001FB1261002971D12069401C2061E06873
:1075900028B920680089B04268D80420E6E721684D
:1075A0004889C11700EBD1614911B6FBF1F122689E
:1075B0009278521E1140002958D1E168206801F0EC
:1075C00003FD0546012D01D80220CFE7681C08B94C
:1075D0000120CBE720684069A84241D8B8F1000FEC
:1075E00001D10420C2E7E1682068FFF727FD0546C6
:1075F0000DB90720BAE7012D01D10220B6E7681CBA
:1076000008B90120B2E7206804F0FCFA08B10120B3
:10761000ACE721684A8901F13000002102F072FBD9
:1076200029462068FFF7EEFB2168C86200270EE0BC
:10763000012021680871206804F0E4FA08B10120F3
:1076400094E72068C06A401C2168C8627F1C2068DB
:107650008078B842ECD82068C06AC01B2168C86234
:10766000E56029462068FFF7CDFB2061E6802168B0
:107670004889C11700EBD1614911B6FBF1F201FB5A
:1076800012612268303202EB4111616100206DE726
:107690002DE9F05F04468A464FF0FF09CB460427E8
:1076A0004FE02169206802F037FB074607B14BE045
:1076B000666935780DB9042746E0F07A00F03F0896
:1076C000E52D0AD02E2D08D028F02000082801D161
:1076D000012000E00020504502D04FF0FF0929E0D2
:1076E000B8F10F0F1AD105F0400030B196F80DB087
:1076F00025F04005A946E08820844D450AD1707BDD
:10770000584507D13146E06902F038FE10B1A9F1C1
:10771000010000E0FF2000F0FF090BE0B9F1000FCD
:1077200004D1304604F0FAF9584502D04FF6FF7004
:10773000208409E000212046FFF70DFF074607B12E
:1077400002E020690028ACD100BF0FB10020206109
:107750003846BDE8F09F2DE9FE4F0446D4F8188066
:10776000D4F81C900C224146684602F0BEFA00BFD5
:107770009DF80B0000F0010020B3002088F80B00FA
:10778000E06101260CE033464A466946404601F076
:10779000A7FB2046FFF76AFE054605B102E0761C0E
:1077A000642EF0D300BF642E02D10720BDE8FE8F07
:1077B000042D01D02846F9E79DF80B0088F80B004E
:1077C000C4F81C909DF80B0000F0020060B1002688
:1077D00000E0761C39F816000028FAD106F11900ED
:1077E0000D21B0FBF1F700E0012739462046FFF7F5
:1077F0000FFE054645BB781E071E25D0E088C11B3D
:10780000204600F03DF80546F5B9A06904F086F978
:10781000824600BF2169206802F07EFA054605B164
:1078200011E0FAB253466169E06901F0BFFA012044
:107830002168087100212046FFF78DFE054615B925
:10784000781E071EE6D100BFC5B92169206802F085
:1078500063FA054695B920220021606902F052FAC8
:107860000B22D4E9050102F040FAA069C07A00F0C9
:10787000180061690873012021680871284695E79E
:107880002DE9F04104460E46E680A568012D03D09F
:1078900020684069A84202D80220BDE8F0812DB9D5
:1078A00020680078032801D12068456A45B920681E
:1078B0000089B04201D80220EFE72068476A24E03F
:1078C00021684889C11700EBD1614911226892787B
:1078D00001FB02F812E02946206801F075FB05461D
:1078E000681C08B90120D8E7022D03D3206840693D
:1078F000A84201D80220D0E7A6EB08064645EAD206
:1079000029462068FFF77EFA0746E5600FB9022096
:10791000C3E721684889C11700EBD1614911B6FB63
:10792000F1F13944216121684889C11700EBD16127
:107930004911B6FBF1F201FB12612268303202EB11
:10794000411161610020A8E770B50446012614B119
:10795000012C11D100E011E0FCF71CFE4FF4FA7588
:1079600000BF681E80B2051EFBD1FCF77DFF012021
:1079700000F048F8064601E0012600BF00BF30468F
:1079800070BD10B50346042013B1012B16D100E0E1
:1079900016E0012904D0022906D003290BD107E003
:1079A0004FF40064146006E04FF48054148002E049
:1079B0000124146000BF00BF002001E0042000BFCC
:1079C00000BF10BD2DE9F04104460D4616461F4686
:1079D0004FF0040814B1012C0CD100E00DE04FF67B
:1079E000FF7000EA073231032846FCF717FD4FF01D
:1079F000000802E04FF0040800BF00BF4046BDE8A9
:107A0000F081000070B50446012514B1012C0BD1A2
:107A100000E00BE0FCF770FE0649884202D125F039
:107A2000010500E0012501E0012500BF00BF284657
:107A300070BD00001740EF002DE9F04706460F46E5
:107A400090461C464FF0040914B90420BDE8F087A5
:107A500016B1012E11D100E012E04FEA0835284698
:107A6000FCF774FE4FF6FF7000EA043229463846F0
:107A7000FCF7FEFC4FF0000902E04FF0040900BFE4
:107A800000BF4846E2E770B50546284600F0DEFE36
:107A9000044634B9284604F063FE04460CB90020BD
:107AA0002860204670BD2DE9F74F82B08A4600223B
:107AB00002A9049800F08EFF0190049804680198D0
:107AC00000286DD1D4E90410801E814203D82069BA
:107AD000CAF8000064E094F800B00026BBF1010F82
:107AE0001CD1022700BF3946204601F06DFA8046BE
:107AF00008F1010010B9012001900EE0B8F1010F6A
:107B000002D10220019008E0B8F1000F00D1761CEC
:107B1000781C074661698842E5D33AE06769206AC4
:107B200000904FF00009002500BFB9F1000F0ED101
:107B30000098421C01462046009202F0EDF80190A8
:107B4000019800B124E004F13005B4F80A90BBF1CB
:107B5000020F09D12878697840EA012000B9761C23
:107B6000AD1CA9F1020910E0E8780006A97840EA06
:107B70000140697840EA01202978084320F07040EC
:107B800000B9761C2D1DA9F10409781E071ECCD161
:107B900000BF2661607940F001006071CAF80060A2
:107BA000019805B0BDE8F08F2DE9F04704460E4678
:107BB000204604F0D5FD8246BAF1000F02D05046AF
:107BC000BDE8F087E07908B1E079F9E7E068B04214
:107BD00004D2A07900F0020000B9E668D4F8089059
:107BE0004FF00008C4F80880002E71D0206880781B
:107BF0002168498900FB01F7B9F1000F11D0701E0F
:107C0000B0FBF7F1A9F10100B0FBF7F0814208D316
:107C1000A9F10100791E8843A060A068361A656941
:107C200012E025697DB900212068FFF707FA0546B3
:107C3000012D02D10220E071C2E7681C10B90120B9
:107C4000E071BDE725616561002D41D023E0A07999
:107C500000F0020038B129462068FFF7EFF9054629
:107C600035B93E4619E02946206801F0ADF90546D0
:107C7000681C10B90120E071A2E7012D03D920682A
:107C80004069A84202D80220E07199E76561A068C6
:107C90003844A060F61BBE42D9D800BFA06830446B
:107CA000A06020684089B6FBF0F100FB116078B15C
:107CB00029462068FFF7A6F88046B8F1000F02D1E8
:107CC0000220E0717CE720684089B6FBF0F0804438
:107CD00021684989A068B0FBF1F201FB120020B3D2
:107CE000A069404521D0A07900F0400078B121681A
:107CF0004878012304F12401A269FFF79DFE10B129
:107D00000120E0715CE7A07920F04000A0712168BB
:107D100048780123424604F12401FFF753FE10B1D5
:107D20000120E0714CE7C4F81880D4E902018842D0
:107D300005D9A068E060A07940F02000A07150460D
:107D40003EE700002DE9F74F90B0914611980128C9
:107D500003DD132013B0BDE8F08F10A801F060FA26
:107D60000F900F98002801DA0B20F3E7FA490F98DB
:107D700051F820500DB90C20ECE7002028700F9826
:107D8000C0B20C9000200B900C98FFF7DDFD019025
:107D9000019800F0010008B10320DBE7019800F032
:107DA000040008B10A20D5E705F10A0202210C9867
:107DB000FFF7E7FD38B96889B0F5805F03DC6889B3
:107DC000B0F5007F01DA0120C4E700BF04AA012159
:107DD0000C98FFF7D6FD10B90498802801D2012035
:107DE000B8E7119808B1002000E03F2082460498CF
:107DF000A0EB0A000490A9F1010000EA090008B113
:107E00004FF00009B9F1000F1AD16889C11700EBD2
:107E1000D15149124FF4FA6292FBF1F1049AB2FB8C
:107E2000F1F10A914FF0000B01E00BF1010BCB488F
:107E300030F81B100A988142F7D8C94830F81B90D7
:107E4000B9F5007F02D36889B9FBF0F9B9F1000FE9
:107E500001D14FF00109B9F1800F01D94FF080092C
:107E60000498B0FBF9F8012640F6F670804500D37F
:107E700002264FF6F670804500D30326032E0CD160
:107E8000082000EB880069890844401EB0FBF1F728
:107E9000202003900020029019E0012E05D108EB6C
:107EA0004800401C4008C01C02E04FEA4800001D8A
:107EB000074668893844401E6989B0FBF1F7012004
:107EC000039068894FF48041B1FBF0F00290039871
:107ED0005044079007983844069002990698084441
:107EE000059005984844A0EB0A000499884201D9FE
:107EF0000E202FE709AA03210C98FFF742FD28B9AD
:107F0000099818B10998B0F5004F01D901200990DE
:107F1000099905980844401E491E8843099009990B
:107F20000598081A0990032E08D109990398084466
:107F30000390099907980844079001E009980744BD
:107F4000DDE90301081AC11B0298081AB0FBF9F811
:107F5000022E03D140F6F670804505D3032E05D1DD
:107F60004FF6F670804501D20E20F3E6032E02D1C3
:107F70000C200D9010E0012E06D10498B0F5803F42
:107F800002D201200D9007E00498B0F5803F01D2A5
:107F9000042000E006200D9000BF119810B1F020E1
:107FA0000E9043E06A89002105F1300001F0AAFE3D
:107FB00005F5F77401206070A0700020E0700D9846
:107FC0002071FE206071049850443F21B0FBF1F015
:107FD000FF21B0FBF1F009903F21099841EA9000A0
:107FE000A0710998E0713F20207200216172A17296
:107FF000E172049820730498010A61730498010CDB
:10800000A1730498010EE173552185F82E12AA215F
:1080100085F82F120123002205F130010C98FFF79B
:108020000BFD08B1012095E6F8200E9005F1300413
:108030006A890021204601F065FE0B2249A12046F5
:1080400001F053FEB5F80AB084F80BB04FEA1B21DB
:10805000217384F80D900398A0730398010AE173CB
:1080600001202074032E01D1002001E04FF40070A4
:10807000834684F811B04FEA1B21A1740498B0F52F
:10808000803F05D20498E0740498010A217510E03D
:10809000049884F820000498C0F30721212001559A
:1080A0000498C0F30741222001550498010E2320B3
:1080B00001550E9860753F20207600216176FF20E3
:1080C000A076E17684F81CA04FEA1A2161774FEA86
:1080D0001A41A1774FEA1A61E17701F015F809908A
:1080E000032E4BD1099884F843000998C0F3072167
:1080F000442001550998C0F30741452001550998CE
:10810000010E4620015584F82470C7F3072125206D
:108110000155C7F3074126200155390E2720015587
:10812000022084F82C0000212D2001552E2001551D
:108130002F200155012084F8300031200155062000
:1081400084F8320033200155802084F84000292033
:1081500084F8420013220BE0D801002006E3000857
:108160001CE30008EBFE904D53444F53352E300076
:108170008AA104F1470001F0B8FD1FE0099884F8D6
:1081800027000998C0F30721282001550998C0F35A
:108190000741292001550998010E2A200155A7758C
:1081A000390AE175802084F82400292084F826000B
:1081B00013227FA104F12B0001F097FD552084F8D4
:1081C000FE01AA2140F2FF1001550123524621462B
:1081D0000C98FFF731FC08B10120BBE5032E06D156
:1081E00001230AF1060221460C98FFF725FC0798A7
:1081F00008904FF0000B5FE06A890021204601F0F3
:1082000081FD0E980990032E14D0012E01D16D48E6
:1082100001E06FF0FF000999084309900998207068
:108220000998000A60700998000CA0700998000E67
:10823000E07019E0099860F0FF000990099820703B
:108240000998000A60700998000CA0700998000E47
:10825000E070FF202071FF216171A171E171207236
:108260006172A1720F21E1720898411C024601233C
:10827000089121460C98FFF7DFFB08B1012069E562
:108280006A890021204601F03DFD012009900EE0A1
:108290000898411C02460123089121460C98FFF7DB
:1082A000CBFB08B1012055E50998401C09900998BD
:1082B000B842EDD30BF1010BBBF1000F9CD0032EA4
:1082C00001D1484600E00298834600BF0898411C4F
:1082D00002460123089121460C98FFF7ADFB08B137
:1082E000012037E5ABF10100B0F1000BEED1032E18
:1082F00049D15220207060706120A0704120E07050
:10830000722084F8E401722140F2E5100155412108
:10831000401C01556121401C0155A8F1010084F861
:10832000E801C0F3072140F2E9100155A8F101006E
:10833000C0F307414FF4F5700155A8F10100010E9B
:1083400040F2EB100155022084F8EC01002140F2CC
:10835000ED100155401C0155401C0155552084F875
:10836000FE01AA2140F2FF10015501230AF101028A
:1083700021460C98FFF760FB01230AF10702214612
:108380000C98FFF759FB002211460C98FFF7F9FAF9
:1083900008B10120DEE40020DCE400004E4F204E56
:1083A000414D4520202020464154333220202000DA
:1083B0004E4F204E414D4520202020464154202044
:1083C0002020200000FFFF00F7B582B0164603987A
:1083D000019001A800F024FF0546002D02DA0B20D1
:1083E00005B0F0BD0E4850F825400CB100202070BB
:1083F000029810B10020029908700949029841F8CA
:108400002500029808B1012E01D00020E8E70022E3
:1084100003A902A800F0DEFA07463846E0E70000AC
:10842000D80100202DE9F743ADF50C7D0546164631
:1084300025B909200DF50F7DBDE8F08300202860E7
:1084400006F01F0626F001028DA983A800F0C2FAEB
:108450000746002F74D180A88990CDF828D283A830
:108460008D9900F0E3FC0746889C0FB904B90627F4
:1084700006F01C0000285CD04FB1042F03D183A864
:10848000FFF769F9074646F00806889C09E0E07A9C
:1084900000F0110008B1072703E006F0040000B166
:1084A0000827002F55D106F00800002851D000F011
:1084B0002BFE804684F80E804FEA1821E1734FEAC4
:1084C000184121744FEA1861617484F816804FEAEC
:1084D0001821E1754FEA184121764FEA186161765B
:1084E0000020E072207700216177A177E1772146B3
:1084F000839801F0E7FA81460021204603F036FA1E
:10850000012083990871B9F1000F22D08398D0F827
:108510002C804946839802F0E9FF0746CFB9A9F1BC
:1085200001008399C8604146839801F0F5FB074636
:108530000FE077B9E07A00F0100010B1042708E0EE
:108540002DE006F0020020B1E07A00F0010000B159
:10855000072747B906F0080008B146F020068398BF
:10856000C06AE8612C62D7B9AE710020E87121467B
:10857000839801F0A7FA2861E07F0106A07F41EA15
:108580000041607F41EA0020217F0843E86000202D
:10859000A860A861839828602868C088A8803846A9
:1085A00048E733B5ADF5057D04461CB909200DF546
:1085B000077D30BD002286A984A800F00BFA05468D
:1085C0002DBB8498206081A8A06101A8E0612046AD
:1085D000869900F02BFC0546B5B9606958B1606911
:1085E000C07A00F0100028B16169849801F06AFA3D
:1085F000A06000E005253DB98498C088A0800021D6
:108600002046FFF73DF90546042D00D105250DB1A3
:10861000002020602846CAE72DE9FF4F85B00446B8
:1086200015469A46DDF818B00020CAF8000020462A
:1086300004F096F80490049818B1049809B0BDE8C5
:10864000F08FE07908B1E079F8E7A07900F0010057
:1086500008B90720F2E7D4E90210401A0290029804
:10866000854200D9029DBAE021684989A068B0FB23
:10867000F1F201FB1200002877D121684989A06836
:10868000B0FBF1F021688978491E084000F0FF092D
:10869000B9F1000F17D1A06810B92069039004E068
:1086A0006169206800F090FC03900398022802D2D0
:1086B0000220E071C2E70398401C10B90120E0716C
:1086C000BCE70398606161692068FEF79BFB064682
:1086D00016B90220E071B1E74E4420684089B5FB2D
:1086E000F0F8B8F1000F2DD009EB08002168897867
:1086F000884203D920688078A0EB0908216848786F
:10870000434632465946FFF75DF910B10120E0714A
:1087100094E7A07900F0400078B1A069801B404543
:108720000BD2A169891B23685B8901FB03B0216817
:108730004A8904F1240101F0D8FA2068408900FB3D
:1087400008F742E0A069B04220D0A07900F04000D4
:1087500080B121684878012304F12401A269FFF760
:108760006BF918B10120E07168E710E0A07920F002
:108770004000A071216848780123324604F12401A9
:10878000FFF720F910B10120E07157E7A6612168D9
:108790004989A068B0FBF1F201FB12002168498908
:1087A0000F1AAF4200D92F4621684989A068B0FB53
:1087B000F1F201FB120104F1240008443A4601469B
:1087C0000190584601F091FA00BFBB44A0683844BC
:1087D000A060DAF800003844CAF80000ED1B002D54
:1087E0007FF442AF002029E770B5ADF5047D044663
:1087F0000E46204603F0B4FF05461DBB2EB90021EE
:108800002046FFF73DF805461CE081A8A06101A8BD
:10881000E06100212046FEF73BFF0546042D02D112
:108820000020206100256DB93146204600F070FC23
:1088300000212046FEF78FFE0546042D02D10020C0
:108840002061002528460DF5047D70BD2DE9F0411D
:108850000446204603F084FF0746002F4CD1A07940
:1088600000F02000002847D0A07900F0400078B147
:1088700021684878012304F12401A269FFF7DCF89C
:1088800010B10120BDE8F081A07920F04000A07176
:10889000E169206801F040FA0746002F2CD1256AD3
:1088A000E87A40F02000E872207B2877A089010A4E
:1088B0006977E068010CA977E068010EE97728463E
:1088C000216903F053F800F01FFC0646AE75310A2B
:1088D000E975310C2976310E69760020A8740021E3
:1088E000E974A07920F02000A071012021680871AE
:1088F000206803F023F907463846C3E72DE9F04125
:1089000002460F46802A01DA10462FE01FB1184BAD
:1089100045F2205602E0174B45F220560025102460
:1089200016E0A6EB050C0CEBDC7805EB68014FEAD2
:10893000410C33F81CC0944500D10BE04FEA410CC8
:1089400033F81CC0944501DA0D4600E00E46641E63
:10895000002CE6D100BF34B14FF0010C0CEB410C00
:1089600033F81CC001E04FF0000C6046BDE8F08118
:10897000B637020832E3000830B5802807DA6128EC
:1089800023DB7A2821DCA0F12005A8B21DE00C220F
:1089900000234FF4F77400BFE51A03EB55010B4DAC
:1089A00035F81150854200D10AE0084D35F81150D4
:1089B000854201DA0B4600E00C46551E2A1EEBD11B
:1089C00000BF12B1024D35F8110030BD3A8C0308DA
:1089D000169003082DE9F74F8AB000210A9801602C
:1089E0000B9800F01DFC09900998002803DA0B2071
:1089F0000DB0BDE8F08FE949099851F820400CB955
:108A00000C20F5E70A980460207878B16078FEF7CA
:108A1000F9FF814609F0010040B90C9820B109F036
:108A2000040008B10A20E3E70020E1E700202070FD
:108A3000099860706078FEF787FF814609F00100B1
:108A400008B10320D4E70C9820B109F0040008B164
:108A50000A20CDE7607804F10A020221FEF791FFB7
:108A600038B96089B0F5007F03DB6089B0F5805FBD
:108A700001DD0120BCE7002739462046FEF770F9EA
:108A80000546012D01D09DBB32E000261AE004F519
:108A9000F77000EB061898F8040070B198F80B0016
:108AA000010698F80A0041EA004198F8090041EAF5
:108AB000002098F80810084300E0002002A941F8BF
:108AC0002600761C042EE2D3002606B1761E00BFD7
:108AD00002A850F8267027B139462046FEF740F923
:108AE00000E0022005461DB1701C06460428EFD3A5
:108AF000032D01D101207BE70DB10D2078E73B204C
:108B0000015D94F83C0041EA00206189884201D06F
:108B10000D206DE74620015D94F8470041EA002AE8
:108B2000BAF1000F0ED194F85700010694F85600E0
:108B300041EA004194F8550041EA002094F85410AD
:108B400040EA010AC4F818A04020005DE070E07817
:108B5000012804D0E078022801D00D2048E7E07811
:108B60000AFB00FA3D20005DA070A07818B1A07843
:108B7000411E084008B10D203AE74120015D94F8FC
:108B8000420041EA002020816089C11700EBD161D9
:108B90004911228992FBF1F301FB132109B10D2048
:108BA00026E74320015D94F8440041EA0020089044
:108BB000089870B994F85300010694F8520041EAFD
:108BC000004194F8510041EA002094F85010084305
:108BD00008903E20015D94F83F0041EA002001909A
:108BE000019808B90D2003E76089C11700EBD16136
:108BF0004911228992FBF1F20199514411440791E4
:108C0000DDE90710884201D20D20F1E6DDE9071009
:108C1000401AA178B0FBF1FBBBF1000F01D10D2090
:108C2000E6E6012540F6F670834500D302254FF6AF
:108C3000F670834500D303250BF102006061E76104
:108C400001983844206207983844A062032D16D159
:108C5000208908B10D20CBE694F85F00010694F856
:108C60005E0041EA004194F85D0041EA002094F87A
:108C70005C100843606260698000069014E02089FF
:108C800008B90D20B4E6206A50446062022D02D17A
:108C90006069400007E0207D00F00100616901EBA0
:108CA000410100EB510006906089401E069908447E
:108CB0006189B0FBF1F0A169884201D90D2097E6E6
:108CC0004FF0FF302061E06080206071032D5AD1A9
:108CD00094F8601094F8610041EA0020012852D114
:108CE000791C204601F018F8E8BB0020607194F868
:108CF0002E1294F82F0241EA00204AF655218842AC
:108D000041D13320005D01063220005D41EA00417F
:108D10003120005D41EA002094F8301008432049DA
:108D2000884230D194F81702010694F8160241EAFD
:108D3000004194F8150241EA002094F81412084307
:108D4000184988421FD194F81B02010694F81A02B0
:108D500041EA004194F8190241EA002094F81812FF
:108D60000843206100E00EE094F81F02010694F829
:108D70001E0241EA004194F81D0241EA002094F8E5
:108D80001C120843E060257007480088401C80B230
:108D900005490880E08000202AE60000D801002074
:108DA0005252614172724161E0010020F0B5044607
:108DB0001D464D730F27CF7200270F738F76BC4669
:108DC00081F81BC0571E07EB870C0CEBC70600276A
:108DD00038463B4600BF4FF6FF77B84203D03746D0
:108DE000761C34F81700DFF840C01CF803C001F807
:108DF0000C000712DFF830C01CF803C08C448CF85C
:108E0000017008B94FF6FF705F1C3B460D2FE2D38F
:108E10004FF6FF77B84202D034F816700FB942F01F
:108E200040020A70F0BD0000F8E200082DE9F341AD
:108E30000446019800782F2803D0019800785C2818
:108E400002D10198401C01900020A0600198007898
:108E5000202807D200212046FEF712FD05460020FB
:108E6000606128E000BF01A92046FEF753F90546DE
:108E700005B11FE02046FEF7F9FA0546A069C67A5B
:108E80003DB1042D04D100BF06F0040000B9052552
:108E900010E006F0040000B10CE06769F87A00F019
:108EA000100008B9052505E03946206800F00AFEE3
:108EB000A060D8E700BF2846BDE8FC8170B5044635
:108EC0000D46E1B20548FCF744FF00BF802103488E
:108ED000FCF771FE0028F9D0204670BD0038014033
:108EE0002DE9FF4F83B0074691461E460B223846B8
:108EF000049900F0FAFE052E19D9B04612E039F8AF
:108F000002BB00250CE0584668F35F0080464FEA3C
:108F10006B0B08F4803010B1234888EA00086D1C00
:108F2000102DF0D3B9F800000028E8D146460725F7
:108F300000BF06F00F0000F1300ABAF1390F03DD6F
:108F40000AF1070000F0FF0A28466D1E01A901F88A
:108F500000A03609002EECD17E20485500240BE0FD
:108F6000385D812807DB385DFE2804DC681EA042DE
:108F700000D106E0641C641CAC4202D2385D20289B
:108F8000EED100BF00BF082D04D228466D1C01A9F8
:108F9000095C00E020212046641C3954082CF2D3DF
:108FA00007B0BDE8F08F00002110010010B504F0FB
:108FB000BDF8012802D004F0C9F810BD01480068CE
:108FC000FBE70000140000202DE9F05F04460D4689
:108FD000022D02D36069A84202D84FF001098FE048
:108FE0004FF0FF392078012804D002283CD0032814
:108FF0007ED157E02F4607EB57076089B7FBF0F0AB
:10900000216A00EB010A5146204600F085FE00B1BE
:1090100075E038467F1C6189B0FBF1F201FB12015B
:1090200004F1300010F801806089B7FBF0F0216A8C
:1090300000EB010A5146204600F06EFE00B15EE0F2
:109040006089B7FBF0F100FB117104F13000405C66
:1090500048EA002805F0010010B14FEA181001E0BD
:10906000C8F30B0081464AE0B4F80AA00AEBDA70B4
:109070004010B5FBF0F0216A00EB010B5946204689
:1090800000F04AFE00B13AE068006189B0FBF1F2FD
:1090900001FB120104F130000E183078717840EABB
:1090A00001292CE0B4F80AA04FEAEA700AEB9070AC
:1090B0008010B5FBF0F0216A00EB010B5946204609
:1090C00000F02AFE00B11AE0A8006189B0FBF1F2BD
:1090D00001FB120104F130000E18F0780006B1789F
:1090E00040EA0140717840EA01203178084300E00D
:1090F00002E020F0704902E04FF0010900BF00BF1C
:109100004846BDE8F09F0000004870470000214637
:109110002DE9F05F80460D4605F10907D8F81000EB
:10912000002843D0D8F81440002626E03046761CAC
:1091300014F80090B9F1200F00D11EE0B9F1050F2D
:1091400001D14FF0E509092E02D12E2007F8010BBD
:10915000B9F1410F0EDBB9F15A0F0BDC207B092E60
:1091600001D3102100E00821084018B109F12000C6
:1091700000F0FF0907F8019B00BF0B2ED6D3E07A61
:109180002872E07F0106A07F41EA0041607F41EA4A
:109190000020217F08432860217E607E41EA002074
:1091A000A880A17DE07D41EA0020E88000203870A1
:1091B000A86998B30026AF69D8F8100060B3E869D1
:1091C00050B3B8F820004FF6FF71884224D0D8F889
:1091D0001CB01BE000215046FFF790FB8246BAF11D
:1091E000000F01D1002616E0BAF1FF0F04DD4FEAAF
:1091F0002A223046761C3A54E869401EB04201D813
:10920000002608E03046761C07F800A03BF8021B59
:10921000B1F1000ADED100BF0020B855BDE8F09FD3
:1092200070B502464FF0FF301568E5B1116800E0F7
:10923000491C0D78202D02D30D783A2DF8D10D78E8
:109240003A2D0FD1146814F8015BA5F130030A2BF5
:1092500007D28C4205D1022B03D218464D1C294659
:10926000156070BD002000BFFBE7000038B5044664
:10927000002000906946206A03F044FE009838B14F
:109280004FF0805003490860BFF34F8FBFF36F8FDB
:1092900038BD000004ED00E010B5044640F20120A6
:1092A0002168096808802168002208684FF4C061BD
:1092B000F9F7D3F810BD10B50446204600F07DFA4A
:1092C000012010BD2DE9F04188B0074688461446BC
:1092D0001D460E9EFF2C07D12B460122414603A8B6
:1092E000009600F0C5F808E0012023460022414620
:1092F0008DE8610003A800F0CBF803A9384600F020
:10930000FDFA08B0BDE8F081F8B505460E461746EF
:109310001C4601233A46314628460094FFF7D2FF07
:10932000F8BD2DE9F04188B00746884614461D4631
:109330000E9EFF2C07D12B460022414603A8009623
:1093400000F096F808E000202346024641468DE8EA
:10935000610003A800F09CF803A9384600F0CEFA9B
:1093600008B0BDE8F0812DE9F84305460E461746E2
:109370001C46DDF820806B463A4631462846FFF70A
:10938000C3FFB8F1000F05D00120A0409DF80010E8
:10939000084305E00120A0409DF8001021EA0000EC
:1093A000C0B200909DF800303A463146284600F0A1
:1093B00034F8BDE8F8832DE9F84F80468946924697
:1093C0001C46DDE90A566B46524649464046FFF7C1
:1093D0009BFFB0F1000B1DD00120A840401E611B77
:1093E000491C8840C7B2601B401C06FA00F0C6B298
:1093F0003E409DF80000B84300909DF800003043C7
:1094000000909DF8003052464946404600F005F86D
:10941000834600BF5846BDE8F88F7FB582B004464A
:109420000D46164605A801233246294600902046DF
:10943000FFF777FF06B070BD10B504462168086CD1
:109440000021F8F761F92168886CF8F74FF9216875
:1094500008680021F8F7B0FF216808680021F8F7D4
:10946000B7FF21680022086C0A21F8F715FA10BD31
:1094700030B5039C01718271002505734FF6FF75AD
:10948000C58103600025C57104610225457130BDA9
:10949000F0B505AC70CC017184710273C3810560B5
:1094A0000027C771066102274771F0BD10B5044659
:1094B0002168886CF8F7DAF940B12046FFF7BCFF65
:1094C0002046FFF7D3FE2046FFF7E6FE2168C86C72
:1094D000F8F7CCF958B12168C86CF8F707F9012101
:1094E000E1722046FFF7C2FE2046FFF7D5FE10BD11
:1094F00038B504462168886B0121FAF729FE2068F7
:1095000000681030A0620021E16221636163A16301
:109510008021E163002121646164A1644FF4005162
:10952000E164206890F844008DF8000007208DF871
:10953000010000208DF8020001208DF8030068462C
:10954000F9F77EFD38BD000010B5044621680868B3
:109550001E49F8F765FFB8B1617A481E60720029AC
:1095600005DD40F2011021680968088007E001214B
:10957000E1722046FFF77AFE2046FFF78DFE216854
:1095800008681249F8F712FF216808681049F8F7CF
:1095900047FF20B1216808680D49F8F707FF2168E7
:1095A00008680C49F8F73CFF20B1216808680949B0
:1095B000F8F7FCFE216808680749F8F731FF20B189
:1095C000216808680449F8F7F1FE10BD0004001096
:1095D00000010010000800100002001070B50446E1
:1095E00020680068858A05F00100F8B10020A061BC
:1095F000A07A20B1608A4FF6FF71884208D0227AA3
:109600005206110E226810680022F8F7A9FFD3E075
:10961000216808680121F8F7BDFE227A5206110E72
:10962000226810680122F8F79BFFC5E005F00200F0
:10963000002851D0A07A20B1608A4FF6FF7188428D
:1096400024D020680068068B608A4FF6FF7188423C
:1096500015D0207C58B1628A110A22681068F8F788
:1096600088FFA17C22681068F8F783FF04E0A17CE2
:1096700022681068F8F77DFF4FF6FF71618221685C
:10968000012208689102F8F7E8FE95E06068012879
:1096900005D1216808680021F8F77CFE04E0216804
:1096A00008680121F8F794FE2168002208684FF449
:1096B000C061F8F7D2FE21680122086C0A21F8F790
:1096C000EBF8216808680121F8F776FEBFF35F8F99
:1096D00020680068068B6FE005F0040088B32068FE
:1096E0000068068B06F0040078B1A07A012805D145
:1096F00040F2011021680968088019E02046FFF750
:10970000B5FD2046FFF7C8FD12E021680868F8F7AC
:1097100023FFA269511CA161616988546168A06935
:10972000884205D12046FFF7A1FD2046FFF7B4FD92
:1097300000BF20680068008800F480700028F8D11D
:109740003AE0FFE705F04000A0B121680868F8F7AB
:1097500003FFA269511CA161616988546168A06915
:10976000884229D12168002208684FF48061F8F707
:1097700074FE21E005F08000F0B1A07A012807D145
:109780002168002208684FF48061F8F766FE13E054
:10979000A3695A1CA2616269D15C22681068F8F75B
:1097A000E8FE6168A069884206D121680022086845
:1097B0004FF48061F8F751FE70BD10B504462046A5
:1097C00000F001F810BD30B587B004462168486A42
:1097D0000121FAF7EDFC216848690121FAF7E8FC5C
:1097E000216848680121FAF7C3FC01A8F8F705FDD4
:1097F00014208DF8070003208DF806002068808B68
:1098000080B2ADF804002168886901A9F8F714FC5A
:109810002068808D80B2ADF804002168886A01A9B3
:10982000F8F70AFC2568AD8DABB22568AD8BAAB2FE
:109830002568A96AA86900F0D7F81C208DF80700F0
:109840002068808B80B2ADF804002168886901A986
:10985000F8F7F2FB2068808D80B2ADF80400216833
:10986000886A01A9F8F7E8FB21680868F8F7BCFDE9
:109870000020ADF810004BF6FF70ADF8120030205C
:10988000ADF814004FF48060ADF816000001ADF89B
:1098900018002068006903902168086803A9F8F798
:1098A000E5FD2168012208681102F8F7D6FD20685D
:1098B000007A8DF8080007208DF8090000208DF847
:1098C0000A0001208DF80B0002A8F9F7B9FB206807
:1098D000007B8DF8080002A8F9F7B2FB2046FFF7DD
:1098E00007FE03220021012003F01AF82062012064
:1098F00003F004F8606207B030BD000070B50446A4
:109900000D46002600235A1E1946606A03F04EF8E1
:1099100014222946201DF6F77FFC204600F036F879
:1099200000234FF47A721946206A03F03FF80128A9
:1099300003D1E07A50B9012608E02046FFF77CFD0C
:10994000204600F04AF805A0FCF7D0FA00231A469A
:109950001946606A03F066F9304670BD526573744B
:10996000617274204932432E2E2E200A000000001E
:1099700008B500210091009102E00099491C009176
:1099800064214143009A9142F7D808BD10B50446BE
:10999000A07A01280ED1616861636169E162216882
:1099A000086C04F12801F7F780FF2168086C012199
:1099B000F7F7AAFE2168002208684FF48061F8F7E3
:1099C0004CFD2168012208685102F8F746FD40F27B
:1099D000011021680968088010BD10B504462046B2
:1099E000FFF7F1FE10BD00002DE9F04107460C46DF
:1099F00015461E4631462046F8F7FDFB21E0294674
:109A00003846F8F7F8FBDFF8B88000BF294638463B
:109A1000F8F7E6FB20B9B8F10000A8F10108F5D18C
:109A20006420FFF7A5FF29463846F8F7E2FB6420DB
:109A3000FFF79EFF29463846F8F7DDFB6420FFF765
:109A400097FF31462046F8F7CBFB0028D7D02946B0
:109A50003846F8F7D0FB6420FFF78AFF31462046EE
:109A6000F8F7C7FB6420FFF783FF31462046F8F77D
:109A7000C0FB6420FFF77CFF31462046F8F7BBFBB4
:109A800029463846F8F7B7FBDFF8348000BF29468F
:109A90003846F8F7A5FB20B9B8F10000A8F1010895
:109AA000F5D1DFF81C8000BF31462046F8F798FB5F
:109AB00020B9B8F10000A8F10108F5D1BDE8F081A6
:109AC000A086010010B502468C7ECB7E44EA0320BE
:109AD0001378032B05D10C7D4B7D44EA032340EA28
:109AE000034010BD70B504460E46154624B1002152
:109AF0002846F6F7DFFE00D870BD2A4631462046DC
:109B000000F002F800BFF7E72DE9FF5F04460D46BD
:109B1000164631462846F6F73DFC03903548039932
:109B2000F6F738FC804602F097F807463946384683
:109B3000F6F7FEFB83463048FDF7C2F94FF080414F
:109B40000190F6F7F5FB82463946F6F7F1FB8146C0
:109B50004FF07E51F6F794FB80465946F6F790FB9E
:109B6000029039463846F6F7E3FB80460299F6F74D
:109B700011FCA0604FF08040A168F6F7D9FBE060CF
:109B8000A068206139463846F6F7D2FB82464FF08E
:109B90007E51F6F7C7FB81464FF08041F6F7C8FBD0
:109BA00080460299F6F7F6FB206039463846F6F70C
:109BB000BFFB01901048FDF783F94FF08041009002
:109BC000F6F7B6FB83463946F6F7B2FB82464FF00E
:109BD0007E51F6F7AAFB81460199F6F751FB8046C4
:109BE0000299F6F7D7FB606000206061A061BDE8D4
:109BF000FF9F0000DB0F4940DB0F493F1CB54FF4CE
:109C00004070F9F755FA4820F7F76EFEF7F782F93A
:109C1000FCF756F9F8F7B8FC4FF4E130FBF75CFFBE
:109C20001BA0FCF763F94FF41650FBF7BBFD4FF494
:109C30001650FBF757FE1B48FFF73DFBF8F7BCFC3F
:109C4000F8F784F8F7F7C4F8FBF7F4F800200423DA
:109C5000032211460090F7F7C1FA134801210023AF
:109C60004FF49672CDE9001010A1134803F02EFABC
:109C700002F0A6FC012211A10020FEF7A5FB10486E
:109C8000C06880F010000E49C86000201CBD0000B4
:109C900048656C6C6F2020776F726C6420210D0A10
:109CA0000000000034010020000000205354415205
:109CB000545F5441534B00007DB90008313A000015
:109CC00000100140F0B503461C460D46002000BFC1
:109CD000161EA2F1010207D014F8017B15F801CB82
:109CE000A7EB0C06301EF3D0F0BD70B503460C4652
:109CF00003E014F8015B03F8015B151EA2F10102F9
:109D0000F7D170BD30B5034601E003F8011B141E06
:109D1000A2F10102F9D130BD70B504460D4600260E
:109D2000E06AA84210D0204601F06CFF06465EB9FA
:109D3000607801232A4604F13001FDF743FE10B19B
:109D40004FF0FF350126E562304670BD10B5054B7A
:109D500075220548017805480068FFF7D5FA0148E3
:109D6000007810BD784B0020B4010020B80100201D
:109D70000649097801B17047054908606821054A1C
:109D800011700121014A117000BFF4E7BC010020ED
:109D9000B8010020B401002008B5012007236B2280
:109DA00000900348017803480068FFF7DCFA08BD1B
:109DB000B4010020B80100201CB504460320002394
:109DC0001D22CDE900040348017803480068FFF72D
:109DD000F2FA1CBDB4010020B80100201CB50446F5
:109DE000032002236B22CDE90004034801780348D5
:109DF0000068FFF7E0FA1CBDB4010020B8010020A4
:109E00001CB50446032000231A22CDE900040348B0
:109E1000017803480068FFF7CEFA1CBDB4010020AA
:109E2000B80100201CB50446022004231C22CDE901
:109E300000040348017803480068FFF7BCFA1CBD22
:109E4000B4010020B80100201CB504460220042300
:109E50001B22CDE900040348017803480068FFF79E
:109E6000AAFA1CBDB4010020B801002038B5044690
:109E70000123372203480094017803480068FFF764
:109E800072FA38BDB4010020B801002038B504468C
:109E900005236A2203480094017803480068FFF70D
:109EA00062FA38BDB4010020B801002038B504467C
:109EB0000023382203480094017803480068FFF724
:109EC00052FA38BDB4010020B801002010B5044694
:109ED000234638220348017803480068FFF79DFABB
:109EE00010BD0000B4010020B801002038B50446C0
:109EF0000623372203480094017803480068FFF7DF
:109F000032FA38BDB4010020B801002038B504464B
:109F10000523372203480094017803480068FFF7BF
:109F200022FA38BDB4010020B801002038B504463B
:109F30000423372203480094017803480068FFF7A0
:109F400012FA38BDB4010020B801002038B504462B
:109F50000723372203480094017803480068FFF77D
:109F600002FA38BDB4010020B80100201CB5044637
:109F7000042003232422CDE9000403480178034888
:109F80000068FFF718FA1CBDB4010020B8010020DA
:109F900010B5044623461922034801780348006897
:109FA000FFF73BFA10BD0000B4010020B80100200B
:109FB0001CB50446052004233422CDE900040348DF
:109FC000017803480068FFF7F6F91CBDB4010020D2
:109FD000B801002070B504460D46032C00DD70BDAD
:109FE00004EB44002530C2B22B46044801780448F3
:109FF0000068FFF712FA00BFF1E70000B40100208B
:10A00000B80100207CB504460D46032C00DD7CBD64
:10A010000420CDE9000504EB44002730C2B203233D
:10A020000348017803480068FFF7C5F900BFEEE771
:10A03000B4010020B801002038B504460D4623467F
:10A04000672204480095017803480068FFF78BF900
:10A0500038BD0000B4010020B801002038B5044626
:10A060000D46032C00DD38BD04EB44002730C2B29E
:10A07000072304480095017803480068FFF773F947
:10A0800000BFF0E7B4010020B801002038B5044655
:10A090000423242203480094017803480068FFF752
:10A0A00062F938BDB4010020B801002070B5044643
:10A0B0000D46032C00DD70BD04EB44002630C2B217
:10A0C0002B460448017804480068FFF7A6F900BF52
:10A0D000F1E70000B4010020B801002038B50446C3
:10A0E00006236B2203480094017803480068FFF7B9
:10A0F0003AF938BDB4010020B801002038B5044653
:10A1000084F0010003236B22009003480178034888
:10A110000068FFF728F938BDB4010020B80100201D
:10A1200038B50446062324220348009401780348E6
:10A130000068FFF718F938BDB4010020B80100200D
:10A140001FB510A103C9CDE90201F8F7E3FE05220E
:10A1500002A9302002F01EFB05226946102001F002
:10A1600083F900240AE002A8005D1DF8041088426B
:10A1700002D0002004B010BD601CC4B2052CF2DB7C
:10A180000120F7E711223344550000002DE9F0418A
:10A1900007460C464FF0000800202070072001F011
:10A1A00089F9054605F0100030B1FF21E12002F0E9
:10A1B00017FB4FF001080EE005F0400030B13846C3
:10A1C00000F022F820704FF0030804E005F02000B2
:10A1D00008B14FF002087021072002F001FB0720B0
:10A1E00001F068F9064600BF4046BDE8F081000076
:10A1F00008B50020009069460248006802F082FE1F
:10A2000008BD00009C00002070B50546602001F0EC
:10A2100051F90446002C0FDD212C0DDA20210A48CB
:10A22000F7F7E7FF22462946612001F01DF92021BA
:10A230000548F7F7E0FF00E00024FF21E22002F0EC
:10A24000CFFA204670BD00000010014010B5044652
:10A250000321084602F0C4FA052221462A2002F012
:10A2600099FA05222146302002F094FA10BD70B50B
:10A2700004460F2C00DD70BD042001F01BF90546DB
:10A2800025432946042002F0ABFA00BFF3E770B57E
:10A29000062001F00FF90546042001F00BF90446F1
:10A2A00005F0200010B944F0100401E044F050041F
:10A2B0002146042002F094FA70BD10B504467D2CAE
:10A2C00003DC2146052002F08BFA10BD70B505466F
:10A2D000062001F0EFF8044624F0280425B1012DF2
:10A2E00005D0022D08D104E044F0200404E000BFB2
:10A2F00002E044F0080400BF00BF2146062002F03F
:10A300006FFA70BD0149086070470000D00100205D
:10A3100070B50546062001F0CDF8044604F0F804B7
:10A3200035B1012D06D0022D07D0032D0BD107E04A
:10A3300000BF08E044F0020405E044F0040402E039
:10A3400044F0070400BF00BF2146062002F048FA8F
:10A3500070BD000070B504460D4620210648F7F791
:10A3600048FF2A462146A82002F014FA202102487C
:10A37000F7F741FF70BD000000100140F0B5044642
:10A380008F7EC87E47EA002008B10020F0BD087823
:10A3900000F03F00401E00EB800707EBC0020126E3
:10A3A00000231AE01448C05C085C134FFF5C0F44A4
:10A3B0007F7840EA07254EB1FF2A01D30020E5E768
:10A3C0002E461046521C24F8105005E04FF6FF7040
:10A3D000854201D00020D9E75B1C0D2BE2D3087821
:10A3E00000F0400030B1FF2A01D30020CEE700206A
:10A3F00024F812000120C9E7F8E2000808B5044675
:10A400002D48006800F0010000B100BE2B48006834
:10A41000401C2A49086025686668A768D4F80C8043
:10A42000D4F81090D4F814A0D4F818B0E0690090D3
:10A4300023A0FBF75BFD294627A0FBF757FD31461C
:10A4400028A0FBF753FD394629A0FBF74FFD4146F5
:10A450002AA0FBF74BFD49462BA0FBF747FD5146D1
:10A460002CA0FBF743FD59462DA0FBF73FFD2FA085
:10A470000099FBF73BFD1048B83801682EA0FBF7A8
:10A4800035FD0D48C83801682EA0FBF72FFD0A489E
:10A49000C43801682EA0FBF729FD0748C0380168C1
:10A4A0002EA0FBF723FD0448B43801682EA0FBF76B
:10A4B0001DFD00BFFEE70000F0ED00E00C000020F5
:10A4C0005B48617264206661756C742068616E64BB
:10A4D0006C65725D0A0000005230203D2025780A2C
:10A4E000000000005231203D2025780A00000000C5
:10A4F0005232203D2025780A000000005233203DD2
:10A500002025780A00000000523132203D202578B5
:10A510000A0000004C52203D2025780A000000006F
:10A520005043203D2025780A00000000505352205F
:10A530003D2025780A00000042464152203D20255A
:10A54000780A000043465352203D2025780A000037
:10A5500048465352203D2025780A00004446535275
:10A56000203D2025780A000041465352203D2025F9
:10A57000780A00002DE9F04105460E461C480768A0
:10A580001C480068001D01F021FC50B91948006802
:10A5900090F82C100120884017490968814316481B
:10A5A0000160681C38B936B112480168091D1348AA
:10A5B00001F098FC1AE07C190E4800684460BC4227
:10A5C00007D20C480168091D0D48006801F070FCB5
:10A5D0000CE008480168091D0A48006801F068FCA1
:10A5E00009480068844201D207480460BDE8F08150
:10A5F0000C020020F801002010020020004D002075
:10A6000000020020FC0100202802002010B50446B2
:10A6100001F074FC24480068401C2349086023486A
:10A62000006840B9214804600846006801280DD13F
:10A6300000F0EAF90AE01E48006838B91B480068D3
:10A64000C06AE16A884201D8184804601948006865
:10A65000401C1849086008460068606494F82C1093
:10A660000120884014490968084313490860E16AD9
:10A6700001EB8101114A02EB8100211D01F032FC46
:10A6800001F094FC0A48006868B108480068C06A94
:10A69000E16A884207D24FF0805009490860BFF351
:10A6A0004F8FBFF36F8F10BD08020020F80100200C
:10A6B000140200202402002010020020E84B002099
:10A6C00004ED00E010B501F019FC10480068D0B9A5
:10A6D0000F4801F0DDFB0F4801F0DAFB0C480E4992
:10A6E00008600C480D49086000220C21142002F07B
:10A6F00017F9064908600846006820B108A1034818
:10A70000006801F075FD01F051FC10BD3C02002015
:10A71000144D0020284D0020340200203802002073
:10A72000546D72510000000070B523E001F0B2FFDB
:10A730001348006808B9012000E00020054602F037
:10A74000A7FEBDB901F0DAFB0D48C068C468201D42
:10A7500001F03CFB0B480068401E0A4908600A48AB
:10A760000068401E0849086001F020FC204600F007
:10A7700060F800BF044800680028D7D170BD000011
:10A78000EC4C0020080200200402002070B50446B2
:10A790000D46206C70B1216CE0680844E06061688F
:10A7A000E068884201D32068E0602846226CE168B6
:10A7B000F5F732FD70BD2DE9F04104460F46154610
:10A7C0004FF00008A66B206C40B9206860BB606841
:10A7D00002F084FD80460020606025E07DB93946A6
:10A7E000226CA068F5F718FD216CA0680844A060F1
:10A7F000D4E90110884217D32068A06014E03946DC
:10A80000226CE068F5F708FD216CE068401AE06012
:10A810002168E068884203D2216C6068401AE060D9
:10A82000022D01D106B1761E701CA0634046BDE822
:10A83000F08110B50446206B01F0F2FB204601F0D8
:10A84000EFFB10BD0146084A126812680AB90122DE
:10A8500000E000220A600A6822B9034A1268D2683E
:10A86000106800E0002070473402002030B54FF43B
:10A870008043174800F007042CB1C01D20F00700EA
:10A88000134C041B1B1B0246124C22600024114D6A
:10A890006C60D018083820F007000F4C20600024AE
:10A8A0000D4D2D686C600C4D2D682C601146441ABE
:10A8B0004C60094C24680C60084D4C682C60084DB5
:10A8C0004C682C604FF00044064D2C6030BD0000F9
:10A8D0003C4D0020540200205C0200206402002055
:10A8E000600200206802002000BFFFF71DFF01F09A
:10A8F00081FAFAE710B504464CB100206060206090
:10A90000E06000231A461946204602F08BF910BD7C
:10A910002DE9F04106460D4617469846069C0DB9AE
:10A92000246000E02760E66325640121204602F0F0
:10A9300023F984F850800020A064BDE8F081000075
:10A940002DE9F05F82460F4690469B460A9E0C9C7E
:10A950004FEA8801A522206BF5F770FCA8F10100F1
:10A96000216B01EB800929F0070909F0070008B9FC
:10A97000012000E0002028B940F22B321BA1214821
:10A98000FCF7BCF8002507E0795D04F1340041557F
:10A99000785D00B902E06D1C102DF5D300BF0021D9
:10A9A000432001550A2E00D30926E662E664002002
:10A9B0002065201D01F079FA04F1180001F075FA04
:10A9C0002461C6F10A00A061646200206065A06590
:10A9D00084F85C005A465146484600F0DDFC206091
:10A9E0000B9808B10B980460BDE8F09F5372635C4C
:10A9F0004672656552544F535C7461736B732E637A
:10AA0000000000004897030810B5002407E004EB9D
:10AA100084010F4A02EB810001F03AFA641C0A2C0F
:10AA2000F5D30C4801F034FA0B4801F031FA0B4829
:10AA300001F02EFA0A4801F02BFA0A4801F028FA30
:10AA400004480949086004480849086010BD00002E
:10AA5000E84B0020B04C0020C44C0020D84C002013
:10AA6000EC4C0020004D0020FC01002000020020E2
:10AA700010B50146164800E0006803688B42FBD31E
:10AA80000246436813448B4204D143684C68234414
:10AA9000436001460A464B6813440468A34211D13F
:10AAA0000C4C03682468A34208D04B6804686468AF
:10AAB00023444B6003681B680B6005E0054B1B6873
:10AAC0000B6001E003680B60884200D0016010BD9C
:10AAD000540200205C0200202DE9F04104460D469E
:10AAE00016461F464FF0000865602461B5420CD839
:10AAF000F01BA169884202D34FF0010811E0211D2B
:10AB00000948006801F0D4F90BE0BE4204D2BD420E
:10AB100002D34FF0010804E0211D0448006801F051
:10AB2000C7F94046BDE8F081380200203402002019
:10AB300070B5054601F0E2F9A86B08B9012400E000
:10AB4000002401F033FA204670BD70B5054601F0CF
:10AB5000D5F9A86BE96B884201D1012400E00024FB
:10AB600001F024FA204670BD2DE9F3410D4600980E
:10AB7000846C00272CB940F6CE121AA11FA0FBF757
:10AB8000BDFFA06BE16B884201D2012000E00020F4
:10AB900028B940F6CF1213A11D48FBF7AFFFA06BF9
:10ABA000E16B88421BD294F945602A4669462046EB
:10ABB000FFF701FE0746701C60B9606A08B9012002
:10ABC00000E0002050B904F1240002F005FC28B197
:10ABD000012703E0701C40B284F8450000BF3846EE
:10ABE000BDE8FC815372635C4672656552544F53F5
:10ABF0005C71756575652E63000000007078517595
:10AC0000657565536574436F6E7461696E65720036
:10AC100000970308F8B505460F4613480068C0685A
:10AC2000C468201D01F0D2F8E069012818D1A0699C
:10AC300041192B463A462046FFF74EFF80B10020CF
:10AC400003462A4601460090204602F0EDFC0646E7
:10AC50002EB94FF4027205A10AA0FBF74FFF00BF07
:10AC60002046616A8847F8BD340200205372635C55
:10AC70004672656552544F535C74696D6572732EEC
:10AC80006300000078526573756C740070B586B00F
:10AC900060E0039800285DDB059C606908B901202D
:10ACA00000E0002010B9201D01F090F802A800F08B
:10ACB000D7F8054603980A284AD2DFE800F00905CC
:10ACC000072C2E4506082D2F00BF00BF00BF00BF78
:10ACD0000498A269811803462A462046FFF7FCFE25
:10ACE000C0B12046616A8847E069012812D100207E
:10ACF00000900498A169421800231946204602F0EA
:10AD000093FC06462EB940F2213218A11DA0FBF794
:10AD1000F5FE00BF1DE000BF1BE000BF0498A0616E
:10AD2000A06908B1012000E0002028B94FF44E725C
:10AD30000EA116A0FBF7E2FEA06941192B462A4698
:10AD40002046FFF7C9FE04E0204601F069F900E063
:10AD500000BF00BF00231A4603A91648006801F08F
:10AD600025FE002895D106B070BD00005372635CCB
:10AD70004672656552544F535C74696D6572732EEB
:10AD80006300000078526573756C74002820707839
:10AD900054696D65722D3E7854696D6572506572A7
:10ADA000696F64496E5469636B73203E20302029BB
:10ADB000000000003C020020F8B505460C4601F0FA
:10ADC00069FC684600F04CF80646009820BB44B980
:10ADD000B54206D802F05CFB31462846FFF71AFF61
:10ADE0001CE03CB10E480068006808B9012000E092
:10ADF00000200446A91B22460A48006801F00EFA0A
:10AE000002F046FB50B94FF0805007490860BFF38D
:10AE10004F8FBFF36F8F01E002F03AFBF8BD0000E7
:10AE2000380200203C02002004ED00E00A490968D5
:10AE3000096809B9012100E0002121B14FF0FF317B
:10AE4000064A116006E004490968C968C868034AEF
:10AE50004168116070470000FC01002028020020BA
:10AE600070B5044602F072F905460748006885424D
:10AE700004D200F00BF80120206001E000202060E7
:10AE800001480560284670BD440200202DE9F843C2
:10AE90002DE021480068C06805681F480068C06848
:10AEA000C468201D00F092FF2046616A8847E0696F
:10AEB00001281CD1A0694619AE4207D966602461F9
:10AEC000211D1548006800F0F3FF10E00020034644
:10AED0002A4601460090204602F0A6FB07462FB9FD
:10AEE00040F292320DA113A0FBF708FE00BF0A4802
:10AEF0000068006808B9012000E000200028C8D0E0
:10AF00000548D0F800800D480068034908600B48E8
:10AF1000C0F80080BDE8F883340200205372635CFF
:10AF20004672656552544F535C74696D6572732E39
:10AF30006300000078526573756C7400380200205D
:10AF40000B480068401C08B9012000E0002020B92F
:10AF5000F42208A112A0FBF7D1FD00BF502080F31E
:10AF60001188BFF34F8FBFF36F8F00BF00BFFEE7A5
:10AF7000480200205372635C4672656552544F5319
:10AF80005C706F727461626C655C525644535C41D4
:10AF9000524D5F434D335C706F72742E630000003E
:10AFA0007578437269746963616C4E657374696E18
:10AFB00067203D3D207E30554C00000008B500BFA5
:10AFC0006846FFF73FFC044620460099FFF7F4FE71
:10AFD000FFF75CFEF4E770B5044600F08FFF94F9CC
:10AFE00045501AE0A06C38B100212046FFF7BCFDA7
:10AFF00088B101F009FA0EE0606A08B9012000E0AA
:10B00000002038B904F1240002F0E6F918B101F08B
:10B01000FBF900E003E0681E45B2002DE2DC00BF52
:10B02000FF2084F8450000F0C1FF00F067FF94F9AD
:10B03000445010E0206908B9012000E0002048B920
:10B0400004F1100002F0C8F908B101F0DDF9681E42
:10B0500045B200E001E0002DECDC00BFFF2084F8E9
:10B06000440000F0A3FF70BD2DE9F05F04460E46DA
:10B070001746022E02D36069B04202D84FF0020890
:10B08000B3E02078012804D0022852D0032872D1DE
:10B0900072E0B14609EB59096089B9FBF0F0216A09
:10B0A00000EB010A51462046FEF736FE8046B8F115
:10B0B000000F00D098E0484609F101096189B0FB12
:10B0C000F1F201FB120104F130000D1806F001004D
:10B0D00020B1F9B2287861F31F1000E038462870DB
:10B0E000012020716089B9FBF0F0216A00EB010AB0
:10B0F00051462046FEF710FE8046B8F1000F00D002
:10B1000072E06089B9FBF0F100FB119104F13000AD
:10B110000D1806F0010010B1C7F3071005E02878FC
:10B1200000F0F000C7F303210843287001202071CC
:10B130005AE0B4F80AA00AEBDA704010B6FBF0F05F
:10B14000216A00EB010B59462046FEF7E5FD8046DB
:10B15000B8F1000F00D047E070006189B0FBF1F258
:10B1600001FB120104F130000D182F70380A6870CD
:10B170000120207138E034E0B4F80AA04FEAEA7008
:10B180000AEB90708010B6FBF0F0216A00EB010B27
:10B1900059462046FEF7C0FD8046B8F1000F00D0AA
:10B1A00022E0B0006189B0FBF1F201FB120104F171
:10B1B00030000D18E8780006A97840EA0140697867
:10B1C00040EA01202978084300F0704007432F70BF
:10B1D000380A6870380CA870380EE87001202071A9
:10B1E00002E04FF0020800BF00BF4046BDE8F09FFC
:10B1F0002DE9F04104464FF0000801F04BFA4148B8
:10B20000006808B9FFF732FB3F480068204000287B
:10B2100060D1002C14D0083404F0070080B104F091
:10B220000700C0F10800044404F0070008B9012039
:10B2300000E0002020B9BF2234A13EA0FBF75EFC55
:10B24000002C47D047480068844243D8464E3046D9
:10B25000056801E02E462D686868A04202D2286881
:10B260000028F7D127480068854233D0306800F1C4
:10B270000808286830606868001B102813D92F1947
:10B2800007F0070008B9012000E0002020B9EC22F7
:10B290001EA13648FBF732FC6868001B78606C60C2
:10B2A0003846FFF7E5FB2F4968680968081A2D49F9
:10B2B0000860084600682E490968884203D2294878
:10B2C00000682B490860104968680968084368608D
:10B2D0000020286002F0DCF8B8F1000F01D100F086
:10B2E00097FD08F0070008B9012000E0002028B908
:10B2F0004FF4967205A11F48FBF700FC4046BDE8DD
:10B30000F08100005C020020680200205372635C40
:10B310004672656552544F535C706F727461626C13
:10B32000655C4D656D4D616E675C686561705F342D
:10B330002E63000028207857616E74656453697A23
:10B3400065202620706F7274425954455F414C4904
:10B35000474E4D454E545F4D41534B2029203D3DB6
:10B3600020300000600200205402002040980308B2
:10B3700064020020849803080648006830B105493B
:10B38000096801F15000096D491C0160014800681D
:10B3900070470000F8010020001F4FF08073036029
:10B3A000001F21F001030360001F034B03601438EA
:10B3B000026020387047000041AF000810B5F7F771
:10B3C000FBF8FEF7BDFE012805D1F7F757FD05484C
:10B3D000FEF798FF04E004A0FAF788FD00BFFEE73F
:10B3E00010BD0000F1A10008526164696F2063681C
:10B3F00065636B206661696C212F6E0001480078DF
:10B4000070470000A000002010B5FFF7D7FF002212
:10B410002621032001F084FA0849086008460068E4
:10B4200020B9622206A10BA0FBF768FB03220021D2
:10B43000012001F075FA0B49086010BD980000204A
:10B440005372635C53797374656D5C726164696F88
:10B450002E630000726164696F547851756575657B
:10B46000000000009C0000202DE9F04105460E463A
:10B4700017464FF400410D48F6F7BBFE29460C482D
:10B48000F9F730FA8046002406E0FF210848F9F772
:10B4900029FA3055601CC4B2BC42F6DB4FF40041BF
:10B4A0000248F6F7A8FE4046BDE8F08100080140DA
:10B4B000003C004070B504464FF400410948F6F7DF
:10B4C00098FE21460848F9F70DFAA5210648F9F734
:10B4D00009FA05464FF400410248F6F78CFE28466B
:10B4E00070BD000000080140003C00402DE9F04123
:10B4F00004460E46022E02D36069B04201D80227EC
:10B5000027E0002721E031462046FDF75DFD054696
:10B5100005B91DE0012D01D1022719E0681C08B909
:10B52000012715E0002231462046FFF79DFD074622
:10B5300007B10DE02069401C30B12069401C20613A
:10B54000607940F0010060712E466069B042DAD83F
:10B5500000BF3846BDE8F081F0B591B004462148FF
:10B560000F9040F2FF10109021466846FDF719F841
:10B570000546002D33D12046F4F772FE064600BF83
:10B5800009A96846FDF730F9054615B99DF82D0063
:10B5900000B923E00F98007808B10F9801E00DF191
:10B5A0002D00074638782E2800D1E9E79DF82C00B9
:10B5B00000F0100060B1A0193A460BA1FAF7A6FC02
:10B5C0002046FFF7C9FF05460020A0552DB105E034
:10B5D0003A46214605A0FAF789FCD1E700BF284684
:10B5E00011B0F0BDA04400202F25730025732F2536
:10B5F000730D0A0070B504460D4604F10C0000F00E
:10B6000059F9204600F046F904F1180000F062F9FB
:10B6100070BD0021417300F1140101617047000009
:10B6200070B53F48FEF7A4FB0A2000F01DFEFEF7B0
:10B63000B3FB142000F018FEFEF788FB0546712DC1
:10B6400006D101203749087037A0FAF74FFC02E015
:10B650003DA0FAF74BFC0020FEF740FD0A2000F069
:10B6600003FE0120FEF7BAFB0A2000F0FDFD0120D9
:10B67000FEF744FD0020FEF729FC0120FEF7F6FB53
:10B680000320FEF7E1FB0020FEF7CCFB0320FEF7D2
:10B6900093FB0420FEF77CFC0220FEF7B1FB0024A4
:10B6A00013E0C4EBC401304A02EB81002F4A304959
:10B6B000FEF718FAC4EBC4012E4A02EB81002E4AB1
:10B6C0002B49FEF70FFA601CC4B2032CE9DB1448C7
:10B6D000FBF7D8F9FBF7F8F948B1012027490870C2
:10B6E0001620FBF7E1F926A0FAF700FC02E02CA0F7
:10B6F000FAF7FCFB00220C21012001F011F930497E
:10B70000086000220C21012001F00AF92D4908608F
:10B7100000220C21012001F003F92B49086070BDC3
:10B72000340100203A0000204D505536353030208D
:10B7300049324320636F6E6E656374696F6E205B80
:10B740004F4B5D2E0A0000004D50553635303020ED
:10B7500049324320636F6E6E656374696F6E205B60
:10B760004641494C5D2E0A006C1B00200000A0429F
:10B7700000007A44181B00200000F0413B0000202C
:10B78000414B383936332049324320636F6E6E6542
:10B790006374696F6E205B4F4B5D2E0A00000000E2
:10B7A000414B383936332049324320636F6E6E6522
:10B7B0006374696F6E205B4641494C5D2E0A000040
:10B7C0003C000020400000204400002010B50B4841
:10B7D000007800B110BD03220021012001F0A0F883
:10B7E000074908600748FFF714FFFFF719FF00F04B
:10B7F0000BF801200149087000BFEBE7240000208E
:10B8000048000020800200201FB501211120F8F718
:10B81000CFFC0420ADF80C0028208DF80F00032089
:10B820008DF80E0003A91A48F6F706FC0221084617
:10B83000F6F7E2FB0420019000208DF808000820B4
:10B840008DF8090001208DF80A0000BF502080F318
:10B850001188BFF34F8FBFF36F8F00BF01A8F6F7BA
:10B860004DF90420F6F730F9002080F3118800BF6D
:10B8700008208DF8000006208DF8010000208DF8CA
:10B88000020001208DF803006846F7F7D9FB1FBDC1
:10B890000010014010B5044600231A462146044812
:10B8A000006801F083F8012800D110BD0020FCE7FA
:10B8B0003C00002010B5044600231A4621460448E7
:10B8C000006801F073F8012800D110BD0020FCE7EA
:10B8D0004000002010B5044600231A4621460448C3
:10B8E000006801F063F8012800D110BD0020FCE7DA
:10B8F0004400002010B50920FEF75AFB0020FEF797
:10B90000B5FA0120FEF70CFC0020FEF71FFB00201B
:10B91000FEF7ECFA0020FEF7F9FA0120FEF706FB2D
:10B920000020FEF7B3FB0D20FEF720FB0E48007849
:10B9300098B18C210020FEF74DFB02210020FEF77C
:10B94000B5FB08210020FEF75DFB01210020FEF77A
:10B9500073FB01210020FEF781FB0120FEF796FA20
:10B960000120FEF7A3FA10BD3B00002081760B0AF0
:10B97000C3760A0C02750B0E437570477CB50546FD
:10B9800000F0BCFA00F04AFF0446214631A0FAF765
:10B99000ADFA0020052103464FF49672CDE9001060
:10B9A00036A1384801F092FB0020052103464FF4F0
:10B9B000C862CDE9001034A1354801F087FB0020B2
:10B9C000052103466422CDE9001032A1334801F07D
:10B9D0007DFB0020052103466422CDE9001030A143
:10B9E000314801F073FB0020052103466422CDE9B4
:10B9F00000102EA12F4801F069FB0020052103460D
:10BA0000C822CDE900102CA12D4801F05FFB0020D9
:10BA1000052103466422CDE900102AA12B4801F03C
:10BA200055FB0020052103466422CDE9001028A122
:10BA3000294801F04BFB00F0F1FE0446214627A007
:10BA4000FAF754FA2E48006800F050FC00F0AEFA05
:10BA50007CBD000046726565206865617020626586
:10BA6000666F7265207374617274696E673A20251F
:10BA7000642062797465730A0000000053454E53D8
:10BA80004F5253008D4A00084D454E5500000000AE
:10BA9000E5260008504F5745520000005139000874
:10BAA0004D4F544F52000000F52B000852414449BD
:10BAB0004F000000A5420008555341525431000088
:10BAC000515E000855415254340000005D5D00088D
:10BAD0005541525435000000B95D00084672656555
:10BAE000206865617020616674657220737461728C
:10BAF00074696E673A2025642062797465730A0060
:10BB000000000020034A044B1A601A4650609160FE
:10BB1000704700001F008A2F7402002030B50146D4
:10BB200000200B2200BF431003EBC01411F8015B8F
:10BB30006319D8B2531E1A1EF5D130BD70B5044634
:10BB4000204600F05FF80546002D59D120780328E3
:10BB50004FD1607901284CD16289002104F1300075
:10BB6000FEF7D0F8552184F82E12AA2184F82F125E
:10BB7000522084F8300052213120015561213220B9
:10BB80000155412133200155722184F8141284F8A3
:10BB90001512412184F81612612184F81712217CB4
:10BBA00084F81812208A010A84F819122069010CFD
:10BBB00084F81A122069010E84F81B12217B84F884
:10BBC0001C12A089010A84F81D12E068010C84F897
:10BBD0001E12E068010E84F81F12E069401CE0624A
:10BBE0006078012304F13001E26AFBF725FF0020B1
:10BBF0006071607800221146FBF7C3FE00B1012599
:10BC0000284670BD2DE9F041044600272079F8B19F
:10BC1000E56A607801232A4604F13001FBF70CFF46
:10BC200008B1012714E000202071206A281AA169B8
:10BC300088420DD2E67809E0A069054460780123C6
:10BC40002A4604F13001FBF7F7FE761E022EF3D2EE
:10BC50003846BDE8F08100002DE9F843044602466D
:10BC60004C486946B0EB420F09D94FF0E640B0EBC3
:10BC7000420F94BF00204FF0FF30009030E0464B61
:10BC800022F00040834265D944492046F4F750FB36
:10BC9000F4F7DFFE8046F4F762FD00F00300009049
:10BCA0003F494046F4F744FB05463E494046F4F719
:10BCB0003FFB06463C494046F4F73AFB07463B4902
:10BCC0004046F4F735FB2146F4F72FFB3946F4F7ED
:10BCD00029FB3146F4F726FB2946F4F723FB0446FB
:10BCE000009D002D3ADB21460846F4F721FB06466D
:10BCF0002F49F4F71DFB2F49F4F7C2FA3146F4F748
:10BD000017FB2D49F4F7BCFA3146F4F711FB2B4928
:10BD1000F4F7B6FA3146F4F70BFB2949F4F7B0FA19
:10BD20003146F4F705FB2749F4F7AAFA3146F4F750
:10BD3000FFFA2146F4F7FCFA2146F4F7A1FA15F0D0
:10BD4000010F08BFBDE8F8830146BDE8F8431E486F
:10BD5000F4F720BB1046FAF781F9C0E76000B0F1B4
:10BD60007F4F09D22046FAF7F9F8042808BFFAF7FE
:10BD700070F92046BDE8F88306D10120FAF732FABF
:10BD8000BDE8F843FAF761B92046BDE8F843FAF791
:10BD900059B90000B61F927E490E494683F9223FE9
:10BDA0001A61342C0020A23300A0FD390000C93FE5
:10BDB000BBE9223C0C6D063B8A76CE3CACB5593DC6
:10BDC00035A1083E29AAAA3E000080BF01460A69A3
:10BDD000D1E901309860D1E9010358605068884288
:10BDE00001D188685060002008611068401E106012
:10BDF0001068704710B5FDF7D9F80446F6F7BCFB9C
:10BE000008210248F5F734FC30BF10BD04000020C3
:10BE100000BF502080F31188BFF34F8FBFF36F8FA7
:10BE200000BF05A0FAF762F80848C06880F010006B
:10BE30000649C86000BFFEE70A4D616C6C6F632065
:10BE40006661696C6564210A000000000010014011
:10BE500000BF502080F31188BFF34F8FBFF36F8F67
:10BE600000BF05A0FAF742F80848C06880F010004B
:10BE70000649C86000BFFEE70A537461636B206F18
:10BE8000766572666C6F77210A0000000010014031
:10BE900000F1080141604FF0FF31816000F10801BD
:10BEA000C16001610021016070470021016170479C
:10BEB00010B502460B685C1C0CB9106907E002F172
:10BEC000080000E04068446824689C42FAD944684D
:10BED0004C604C68A160886041600A611468641C11
:10BEE000146010BD42684A6093688B609368596023
:10BEF0009160086103685B1C0360704710B500BF68
:10BF0000502080F31188BFF34F8FBFF36F8F00BFB6
:10BF10000B480068401C0A49086008460068012870
:10BF20000DD108480068C0B208B9012000E0002027
:10BF300028B94FF4BD7204A10EA0FAF7DFFD10BDC1
:10BF40004802002004ED00E05372635C46726565B0
:10BF500052544F535C706F727461626C655C5256E0
:10BF600044535C41524D5F434D335C706F72742E8D
:10BF7000630000002820706F72744E5649435F4979
:10BF80004E545F4354524C5F524547202620706FF9
:10BF90007274564543544143544956455F4D41538D
:10BFA0004B2029203D3D20300000000010B50B48FB
:10BFB000006828B940F2811209A114A0FAF79EFD89
:10BFC00006480068401E054908600846006820B918
:10BFD000002080F3118800BF00BF10BD4802002080
:10BFE0005372635C4672656552544F535C706F7256
:10BFF0007461626C655C525644535C41524D5F43C0
:10C000004D335C706F72742E63000000757843725C
:10C0100069746963616C4E657374696E67000000D2
:10C0200070B506463546002E35D0083D2C461A49D7
:10C0300060680968084008B1012000E0002028B9C4
:10C040004FF4A07215A11FA0FAF758FD206808B997
:10C05000012000E0002028B940F241120FA126A0E3
:10C06000FAF74CFD0C4960680968084098B12068EF
:10C0700088B90949606809688843606000F00AFB74
:10C080002549606809680844234908602046FEF78E
:10C09000EFFC01F0FDF970BD680200205372635C93
:10C0A0004672656552544F535C706F727461626C76
:10C0B000655C4D656D4D616E675C686561705F3490
:10C0C0002E630000282070784C696E6B2D3E7842FC
:10C0D0006C6F636B53697A6520262078426C6F63BE
:10C0E0006B416C6C6F6361746564426974202920D4
:10C0F000213D20300000000070784C696E6B2D3EB1
:10C1000070784E65787446726565426C6F636B201B
:10C110003D3D204E554C4C006002002003484FF03E
:10C12000E021486107200861704700003F190100C5
:10C1300070B5F4F75BF80546102D11D305F1E0203A
:10C1400090F8F04310480078844201DB012000E0C1
:10C15000002028B94FF42A720CA117A0FAF7CEFCE0
:10C160002048006800F4E0601F490968884201D84F
:10C17000012000E0002028B94FF42E7203A11B48D3
:10C18000FAF7BCFC70BD00004C0200205372635CE7
:10C190004672656552544F535C706F727461626C85
:10C1A000655C525644535C41524D5F434D335C7065
:10C1B0006F72742E63000000756343757272656E52
:10C1C000745072696F72697479203E3D2075634DB9
:10C1D000617853797343616C6C5072696F726974E2
:10C1E000790000000CED00E050020020FC970308ED
:10C1F000024600200BE0084B53F8303033B9064BB1
:10C2000043F8301003EBC0035A6002E0401C0A28D8
:10C21000F1D300BF70470000984B00202DE9F0419A
:10C2200005460E4617462C46FFF768FE94F9440073
:10C23000401C10B9002084F8440094F94500401CCB
:10C2400010B9002084F84500FFF7B0FEA06B28B9B4
:10C250003A46314604F1240000F006F92046FEF784
:10C26000BAFEBDE8F081000070B504460025ACB10F
:10C270000F48006808B9012000E0002028B940F20A
:10C28000CF420CA111A0FAF739FC00F003FA00210B
:10C290002046FEF76FF901F0FBF805463DB94FF077
:10C2A000805011490860BFF34F8FBFF36F8F70BD8F
:10C2B000300200205372635C4672656552544F53DE
:10C2C0005C7461736B732E630000000075785363B8
:10C2D000686564756C657253757370656E646564CA
:10C2E000203D3D203000000004ED00E070B5054623
:10C2F000FFF704FE15B92D48006800E02846044603
:10C30000201DFFF763FD78B9E06A00EB8000284943
:10C3100051F8200040B994F82C100120884025499C
:10C320000968814323480160A06A18B104F118002C
:10C33000FFF74CFD20480068401C1F4908601B485F
:10C340000068844209D1211D1C48FFF7CBFD1C4821
:10C350000068401C1A49086009E01A480068401E3D
:10C36000184908602046FEF764FAFEF75FFDFFF704
:10C370001DFE15480068C0B10C480068844214D105
:10C380001248006808B9012000E0002028B940F2F6
:10C3900065420FA114A0FAF7B1FB4FF08050194984
:10C3A0000860BFF34F8FBFF36F8F70BDF80100209F
:10C3B000E84B00201002002024020020EC4C00205A
:10C3C0000402002008020020140200203002002095
:10C3D0005372635C4672656552544F535C7461736B
:10C3E0006B732E6300000000757853636865647595
:10C3F0006C657253757370656E646564203D3D2095
:10C400003000000004ED00E00120014908607047A1
:10C410001C02002070B504460D462CB940F60632C9
:10C4200007A10DA0FAF76AFB0E48016818312046F3
:10C43000FFF73EFD01212846FEF79CF870BD000085
:10C440005372635C4672656552544F535C746173FA
:10C450006B732E630000000070784576656E744C37
:10C4600069737400F801002070B505460E46144645
:10C470002DB940F6313209A10EA0FAF73FFB104862
:10C48000016818312846FFF72DFD0CB14FF0FF363B
:10C4900021463046FEF76EF870BD00005372635CB3
:10C4A0004672656552544F535C7461736B732E63AF
:10C4B0000000000070784576656E744C69737400F6
:10C4C000F801002070B505462C46002D4BD02649BA
:10C4D000E06A0968C96A884245D2A06900F0004054
:10C4E00028B921480068C06AC0F10A00A061E16A69
:10C4F00001EB81011D4A02EB81016069884201D193
:10C50000012000E0002050B3201DFFF75FFC78B948
:10C51000E06A00EB8000154951F8200040B994F81A
:10C520002C1001208840124909688143104801609D
:10C530000D480068C06AE06294F82C100120884021
:10C540000B49096808430A490860E16A01EB810167
:10C55000064A02EB8100211DFFF7C4FC03E00248FC
:10C560000068C06AE06270BDF8010020E84B00205E
:10C570001002002010B504462CB940F6C13205A1C6
:10C580000AA0FAF7BBFA0C48006820600B48006864
:10C59000606010BD5372635C4672656552544F53C0
:10C5A0005C7461736B732E630000000070785469D3
:10C5B0006D654F7574000000200200200C02002001
:10C5C0001CB51A4800210B469622CDE9001018A18F
:10C5D000194800F07BFD0446012C02D100F0EEFF6B
:10C5E0000446012C15D100BF502080F31188BFF301
:10C5F0004F8FBFF36F8F00BF4FF0FF300F490860C0
:10C6000001200F49086000200E49086000F00CF975
:10C610000BE0601C08B1012000E0002028B940F2C6
:10C62000847209A10EA0FAF769FA1CBD2C02002041
:10C6300049444C4500000000E9A8000828020020F9
:10C64000140200200C0200205372635C4672656580
:10C6500052544F535C7461736B732E63000000007F
:10C660007852657475726E20213D20657272434F59
:10C67000554C445F4E4F545F414C4C4F43415445E1
:10C680005F52455155495245445F4D454D4F5259B2
:10C690000000000002480068401C01490860704723
:10C6A0003002002010B52248006818B1012021494D
:10C6B00008603BE000201F4908601F4800680068D0
:10C6C0001D490968096B884205D81B480168343147
:10C6D0000068FFF7BDFB19480068B0FA80F0C0F1B0
:10C6E0001F0404EB8400164951F8200008B1012012
:10C6F00000E0002028B940F6F62212A11748FAF708
:10C70000FDF904EB84010E4A02EB8100416849689F
:10C71000416000F1080142688A4202D141684968DB
:10C7200041604168C968044A116000BF10BD000043
:10C73000300200201C020020F8010020100200201E
:10C74000E84B00205372635C4672656552544F5348
:10C750005C7461736B732E6300000000B497030870
:10C7600070B505462C4684B1206870B12068007809
:10C7700058B12068C088A188884206D121684878CD
:10C78000FBF740F900F0010008B1092070BD00205E
:10C79000FCE700002DE9F04105460C4616464FF433
:10C7A00000410D48F5F725FD29460C48F8F79AF8A1
:10C7B0008046002706E014F8011B0848F8F792F8B5
:10C7C000781CC7B2B742F6DB4FF400410248F5F7D8
:10C7D00012FD4046BDE8F08100080140003C0040E9
:10C7E00070B504460D464FF400410A48F5F701FDC7
:10C7F00044F020010848F8F775F80646294606482F
:10C80000F8F770F84FF400410248F5F7F4FC3046B1
:10C8100070BD000000080140003C00400148006875
:10C8200070470000600200201CB5224801460978CC
:10C830000191FF21024611700146097800919DF88F
:10C84000001001F050011C4A117007211B4A1160B1
:10C8500009E01A490968491E184A11609DF800103C
:10C860004906090E00919DF8001001F08001802911
:10C87000EFD0124909680902104A1160114609886F
:10C8800001F4E06111600B4A019911700C480068D5
:10C8900040F470000A4908600846006840F07040A3
:10C8A0000860FFF73BFC002006490860F3F768FCCE
:10C8B00000201CBD00E400E04C02002050020020DB
:10C8C00020ED00E04802002010B500BF502080F3AA
:10C8D0001188BFF34F8FBFF36F8F00BF00F03CFC98
:10C8E00018B14FF080500449086000BF002080F369
:10C8F000118800BF10BD000004ED00E02DE9F041FB
:10C9000004460126002722460021012000F008F8F5
:10C9100005462846FDF7EEFF2846BDE8F0810000F9
:10C920002DE9F84305460E4690460DB1012000E082
:10C93000002028B94FF4C4720DA113A0FAF7DEF855
:10C940000EB9002701E005FB06F707F15400FEF7DA
:10C950004FFC044644B104F1540943464A4631466B
:10C9600028460094FDF7D4FF2046BDE8F883000078
:10C970005372635C4672656552544F535C717565C2
:10C9800075652E6300000000757851756575654CFE
:10C99000656E677468203E20282055426173655497
:10C9A0007970655F74202920300000002DE9FF4771
:10C9B00082B005460E461F464FF0000A2C462CB9A1
:10C9C00040F2DC4261A167A0FAF798F80EB9206C3A
:10C9D00008B9012000E0002028B940F2DD425BA147
:10C9E0006248FAF78BF800F0A1FB08B9049808B97F
:10C9F000012000E0002028B94FF49C6253A15C485C
:10CA0000FAF77CF800BFFFF779FAD4F83890B9F15B
:10CA1000000F3DD0D4F80C8031462046FDF7B6FE1D
:10CA2000DFB9A9F10100A063206810B9FEF7A4FCEA
:10CA30006060206908B9012000E0002010BB04F10B
:10CA4000100000F0C9FCE8B14FF08050494908607F
:10CA5000BFF34F8FBFF36F8F14E0C4F80C80606A90
:10CA600008B9012000E0002060B904F1240000F0C2
:10CA7000B3FC38B14FF080503E490860BFF34F8F90
:10CA8000BFF36F8FFFF792FA012006B0BDE8F08781
:10CA9000049818B9FFF78AFA0020F6E7BAF1000FF8
:10CAA00004D16846FFF766FD4FF0010AFFF77EFAF2
:10CAB000FFF7F0FDFFF722FA94F94400401C10B98B
:10CAC000002084F8440094F94500401C10B900206F
:10CAD00084F84500FFF76AFA04A9684600F09EFA58
:10CAE00040BB2046FEF724F8F0B1206830B9FFF7CC
:10CAF00005FA6068FFF7E6FCFFF758FA04F1240036
:10CB00000499FFF787FC2046FEF765FA00F0C0FCA9
:10CB100000287FF478AF4FF0805016490860BFF3CB
:10CB20004F8FBFF36F8F6EE72046FEF754FA00F089
:10CB3000AFFC68E72046FEF74EFA00F0A9FC20465D
:10CB4000FDF7F6FF0028EED000209EE75372635CED
:10CB50004672656552544F535C71756575652E63F9
:10CB6000000000007078517565756500B496030883
:10CB70006895030804ED00E070B505460E462C46A6
:10CB80002CB940F21B121EA123A0F9F7B7FFFFF743
:10CB9000B5F9D4E90F12206801FB020060600020A3
:10CBA000A0632068A060E06B401E226C216800FB3F
:10CBB0000210E060FF2084F8440084F845009EB92C
:10CBC000206908B9012000E00020A8B904F1100094
:10CBD00000F002FC80B14FF0805011490860BFF3B3
:10CBE0004F8FBFF36F8F07E004F11000FFF750F98C
:10CBF00004F12400FFF74CF9FFF7D8F9012070BDCC
:10CC00005372635C4672656552544F535C7175652F
:10CC100075652E63000000007078517565756500BC
:10CC200004ED00E02DE9FF4383B0064688461D462B
:10CC30004FF0000934462CB940F2D92260A166A019
:10CC4000F9F75CFFB8F1000F01D1206C08B90120A1
:10CC500000E0002028B940F2DA2259A16048F9F733
:10CC60004DFF022D02D1E06B012801D1012000E02F
:10CC7000002028B940F2DB2251A15A48F9F73EFFC3
:10CC800000F054FA08B9059808B9012000E0002026
:10CC900028B940F2DE224AA15348F9F72FFF00BF1E
:10CCA000FFF72CF9A06BE16B884201D3022D38D13C
:10CCB0002A4641462046FDF77EFD0746A06C68B136
:10CCC00029462046FDF750FF28B34FF080504749D2
:10CCD0000860BFF34F8FBFF36F8F1CE0606A08B925
:10CCE000012000E0002068B904F1240000F074FB8A
:10CCF00088B14FF080503D490860BFF34F8FBFF3BC
:10CD00006F8F08E03FB14FF0805038490860BFF3A3
:10CD10004F8FBFF36F8FFFF749F9012007B0BDE8D0
:10CD2000F083059818B9FFF741F90020F6E7B9F14B
:10CD3000000F04D101A8FFF71DFC4FF00109FFF718
:10CD400035F9FFF7A7FCFFF7D9F894F94400401C28
:10CD500010B9002084F8440094F94500401C10B933
:10CD6000002084F84500FFF721F905A901A800F08B
:10CD700055F9F0B92046FDF7E8FEA0B104F1100026
:10CD80000599FFF747FB2046FEF725F900F080FBE9
:10CD9000002885D14FF0805014490860BFF34F8FB1
:10CDA000BFF36F8F7CE72046FEF715F900F070FBAC
:10CDB00076E72046FEF70FF900F06AFB0020ADE7AA
:10CDC0005372635C4672656552544F535C7175656E
:10CDD00075652E63000000007078517565756500FB
:10CDE00064960308C09503086895030804ED00E005
:10CDF0002DE9F05F80468A4615461E4644462CB90A
:10CE000040F29F3235A13BA0F9F778FEBAF1000F4E
:10CE100001D1206C08B9012000E0002028B94FF4AE
:10CE200068722EA13548F9F769FE022E02D1E06B37
:10CE3000012801D1012000E0002028B940F2A132F0
:10CE400026A12F48F9F75AFEFFF772F900BF5021CB
:10CE5000EFF3118081F31188BFF34F8FBFF36F8F12
:10CE600000BF0746A06BE16B884201D3022E2BD195
:10CE700094F945B0324651462046FDF79CFC0BF133
:10CE80000100C8B9A06C40B131462046FDF76CFEE8
:10CE9000B8B1B5B10120286013E0606A08B901207B
:10CEA00000E0002068B904F1240000F095FA40B1D8
:10CEB0003DB10120286004E00BF1010040B284F88C
:10CEC00045004FF0010901E04FF0000900BF87F372
:10CED000118800BF4846BDE8F09F00005372635CB4
:10CEE0004672656552544F535C71756575652E6366
:10CEF0000000000070785175657565006496030840
:10CF0000C09503082DE9F04707460D463C462CB96D
:10CF100040F23C4231A137A0F9F7F0FD206C08B98E
:10CF2000012000E0002028B94FF488622BA133A033
:10CF3000F9F7E4FD206808B9606808B9012000E04D
:10CF4000002028B940F2454224A13348F9F7D6FD24
:10CF5000FFF7EEF800BF5021EFF3118081F3118845
:10CF6000BFF34F8FBFF36F8F00BF0646D4F83890E2
:10CF7000E06B484529D994F945A009F10100A06367
:10CF80000AF10100C8B9A06C40B100212046FDF7AC
:10CF9000EBFDB8B1B5B10120286013E0606A08B9B3
:10CFA000012000E0002068B904F1240000F014FA28
:10CFB00040B13DB10120286004E00AF1010040B217
:10CFC00084F845004FF0010801E04FF0000800BF71
:10CFD00086F3118800BF4046BDE8F0875372635C5A
:10CFE0004672656552544F535C71756575652E6365
:10CFF0000000000070785175657565007078517596
:10D000006575652D3E75784974656D53697A65203F
:10D010003D3D203000000000089603082DE9F04156
:10D0200004460D462CB940F6CB3219A11EA0F9F7E3
:10D0300065FD2DB940F6CC3215A11EA0F9F75EFDB5
:10D04000FEF75CFF1F4807682868401C08B90026E7
:10D0500019E01D4920680968884204D06068B84218
:10D0600001D801260FE06068381A2968884209D281
:10D0700028686168791A401A28602046FFF77AFA12
:10D08000002600E00126FEF791FF3046BDE8F08162
:10D090005372635C4672656552544F535C7461739E
:10D0A0006B732E6300000000707854696D654F75D6
:10D0B0007400000070785469636B73546F57616932
:10D0C000740000000C020020200200202DE9FF4F18
:10D0D00085B0804689461746DDE912ABB800FEF7F9
:10D0E00087F8064656B16020FEF782F804460CB178
:10D0F000266304E03046FEF793FF00E000247CB195
:10D100000020CDE900ABCDE902403A464946404611
:10D11000089BFDF715FC2046FDF778FA012501E094
:10D120004FF0FF35284609B0BDE8F08F0549096882
:10D1300009B9012005E00449096809B9022000E0A5
:10D1400000207047140200203002002001490868C6
:10D15000704700000C0200202DE9F0414FF000085C
:10D1600042480068002873D141480068451C404887
:10D170000560002D1DD13F480068006808B90120F6
:10D1800000E0002028B940F6D9123BA140A0F9F7F1
:10D19000B5FC384807684948006836490860474880
:10D1A000076047480068401C45490860FDF73EFE9F
:10D1B00000BF4448006885423CD300BF2D4800684A
:10D1C000006808B9012000E0002020B14FF0FF30D6
:10D1D0003C4908602DE027480068C068C46866685C
:10D1E000B54202D23748066023E0201DFEF7EEFD6F
:10D1F000A06A18B104F11800FEF7E8FD94F82C10AD
:10D20000012088403049096808432F490860E16AD5
:10D2100001EB81012D4A02EB8100211DFEF762FE28
:10D220002B49E06A0968C96A8842C7D34FF00108F0
:10D23000C4E700BF26480068C06A00EB80002349AD
:10D2400051F82000012801D94FF0010805E0FFE75F
:10D2500020480068401C1F4908601F48006808B14A
:10D260004FF001084046BDE8F08100003002002088
:10D270000C020020FC0100205372635C467265655D
:10D2800052544F535C7461736B732E630000000043
:10D2900028206C6973744C4953545F49535F454D62
:10D2A0005054592820707844656C617965645461E4
:10D2B000736B4C6973742029202900000002002040
:10D2C000200200202802002010020020E84B00204D
:10D2D000F8010020180200201C02002070B505464D
:10D2E0002C460026002D4BD026480068844201D1F0
:10D2F000012000E0002028B940F6C76222A128A042
:10D30000F9F7FCFB206D28B940F6C9621EA12AA0DE
:10D31000F9F7F4FB206D401E2065E16CE06A88425D
:10D320002ED0206D60BB201DFEF750FD78B9E06A5D
:10D3300000EB8000264951F8200040B994F82C10E9
:10D340000120884023490968814322480160E06C3C
:10D35000E062E06AC0F10A00A06194F82C1001209C
:10D3600088401C49096808431A490860E16A01EBD2
:10D370008101174A02EB8100211DFEF7B3FD012652
:10D38000304670BDF80100205372635C46726565DB
:10D3900052544F535C7461736B732E630000000032
:10D3A0007078544342203D3D207078437572726519
:10D3B0006E7454434200000070785443422D3E7511
:10D3C000784D75746578657348656C64000000007D
:10D3D000E84B00201002002070B50646F068C468D3
:10D3E0002CB940F661321AA11FA0F9F787FB04F1AE
:10D3F0001800FEF7EBFC20480068A8B9201DFEF7D6
:10D40000E5FC94F82C10012088401C490968084369
:10D410001A490860E16A01EB8101194A02EB8100B7
:10D42000211DFEF75FFD04E004F118011548FEF729
:10D4300059FD1549E06A0968C96A884204D901257D
:10D4400001201249086000E00025284670BD000058
:10D450005372635C4672656552544F535C746173DA
:10D460006B732E63000000007078556E626C6F6302
:10D470006B6564544342000030020020100200201B
:10D48000E84B0020D84C0020F80100201C020020AE
:10D4900070B5002400263448006828B94FF4FD62B6
:10D4A00032A138A0F9F72AFBFEF728FD2E480068C4
:10D4B000401E2D4908600846006800284FD13748B3
:10D4C000006800284BD024E03548C068C46804F1E7
:10D4D0001800FEF77BFC201DFEF778FC94F82C105A
:10D4E000012088402F49096808432E490860E16AF5
:10D4F00001EB81012C4A02EB8100211DFEF7F2FCB9
:10D500002A49E06A0968C96A884202D30120284989
:10D5100008602348006808B9012000E000200028C6
:10D52000D2D00CB1FDF782FC2248056865B100BF7E
:10D53000FFF712FE10B101201D4908606D1E002D7D
:10D54000F6D100201B4908601948006838B101264F
:10D55000300719490860BFF34F8FBFF36F8FFEF795
:10D5600025FD304670BD0000300200205372635C20
:10D570004672656552544F535C7461736B732E63CE
:10D580000000000075785363686564756C657253BC
:10D59000757370656E646564000000000802002009
:10D5A000D84C002010020020E84B0020F801002099
:10D5B0001C0200201802002004ED00E01CB500242D
:10D5C000FDF780F80B48006850B10B48012100239B
:10D5D0009622CDE9001009A10A48FFF777FD04461D
:10D5E0002CB940F2331208A10DA0F9F787FA2046B2
:10D5F0001CBD00003C02002040020020546D72203F
:10D6000053766300BDAF00085372635C4672656574
:10D6100052544F535C74696D6572732E6300000041
:10D620007852657475726E002DE9FE4304460D460E
:10D6300016461F46DDF828804FF000092CB94FF43C
:10D64000D37216A11BA0F9F759FA1C48006810B351
:10D65000009501960294062D15DAFFF767FD022862
:10D6600008D100234246694614480068FFF7DAFAF9
:10D67000814610E000231A46694610480068FFF70B
:10D68000D1FA814607E000233A4669460B48006814
:10D69000FFF7AEFB81464846BDE8FE835372635CEC
:10D6A0004672656552544F535C74696D6572732E92
:10D6B000630000007854696D657200003C02002030
:10D6C00000C1814001C0804101C0804100C1814052
:10D6D00001C0804100C1814000C1814001C0804142
:10D6E00001C0804100C1814000C1814001C0804132
:10D6F00000C1814001C0804101C0804100C1814022
:10D7000001C0804100C1814000C1814001C0804111
:10D7100000C1814001C0804101C0804100C1814001
:10D7200000C1814001C0804101C0804100C18140F1
:10D7300001C0804100C1814000C1814001C08041E1
:10D7400001C0804100C1814000C1814001C08041D1
:10D7500000C1814001C0804101C0804100C18140C1
:10D7600000C1814001C0804101C0804100C18140B1
:10D7700001C0804100C1814000C1814001C08041A1
:10D7800000C1814001C0804101C0804100C1814091
:10D7900001C0804100C1814000C1814001C0804181
:10D7A00001C0804100C1814000C1814001C0804171
:10D7B00000C1814001C0804101C0804100C1814061
:10D7C00000C0C101C30302C2C60607C705C5C40421
:10D7D000CC0C0DCD0FCFCE0E0ACACB0BC90908C891
:10D7E000D81819D91BDBDA1A1EDEDF1FDD1D1CDC81
:10D7F00014D4D515D71716D6D21213D311D1D010F1
:10D80000F03031F133F3F23236F6F737F53534F4E0
:10D810003CFCFD3DFF3F3EFEFA3A3BFB39F9F83850
:10D8200028E8E929EB2B2AEAEE2E2FEF2DEDEC2C40
:10D83000E42425E527E7E62622E2E323E12120E0B0
:10D84000A06061A163A3A26266A6A767A56564A4A0
:10D850006CACAD6DAF6F6EAEAA6A6BAB69A9A86810
:10D8600078B8B979BB7B7ABABE7E7FBF7DBDBC7C00
:10D87000B47475B577B7B67672B2B373B17170B070
:10D880005090915193535292965657975595945460
:10D890009C5C5D9D5F9F9E5E5A9A9B5B99595898D0
:10D8A000884849894B8B8A4A4E8E8F4F8D4D4C8CC0
:10D8B0004484854587474686824243834181804030
:10D8C0000000000000000000002F00000000070022
:10D8D000070000147F147F1400242A7F2A1200629C
:10D8E0006408132300364955225000000503000048
:10D8F00000001C224100000041221C000014083ED0
:10D9000008140008083E0808000000A06000000895
:10D9100008080808000060600000002010080402E9
:10D92000003E5149453E0000427F400000426151A7
:10D930004946002141454B31001814127F10002741
:10D9400045454539003C4A49493000017109050304
:10D9500000364949493600064949291E0000363635
:10D960000000000056360000000814224100001498
:10D970001414141400004122140800020151090675
:10D9800000324959513E007C1211127C007F4949F6
:10D990004936003E41414122007F4141221C007F27
:10D9A00049494941007F09090901003E4149497A35
:10D9B000007F0808087F0000417F410000204041AF
:10D9C0003F01007F08142241007F40404040007F1B
:10D9D000020C027F007F0408107F003E4141413E5F
:10D9E000007F09090906003E4151215E007F0919A7
:10D9F00029460046494949310001017F0101003FA4
:10DA00004040403F001F2040201F003F4038403F23
:10DA10000063140814630007087008070061514987
:10DA2000454300007F41410000552A552A5500001A
:10DA300041417F0000040201020400404040404098
:10DA4000000001020400002054545478007F484430
:10DA5000443800384444442000384444487F003867
:10DA60005454541800087E0901020018A4A4A47C90
:10DA7000007F080404780000447D4000004080845A
:10DA80007D00007F102844000000417F4000007CA2
:10DA900004180478007C08040478003844444438AE
:10DAA00000FC242424180018242418FC007C0804FA
:10DAB000040800485454542000043F444020003CD3
:10DAC0004040207C001C2040201C003C4030403C5A
:10DAD000004428102844001CA0A0A07C00446454EA
:10DAE0004C4414141414141400000000000000002E
:10DAF0000000000000000000000000F8000000002E
:10DB0000000000333000000000100C06100C06006E
:10DB1000000000000000000040C07840C0784000D5
:10DB2000043F04043F040400007088FC0830000037
:10DB3000001820FF211E0000F008F000E01800008F
:10DB400000211C031E211E0000F008887000000048
:10DB50001E2123241927211010160E00000000009A
:10DB60000000000000000000000000E018040200B7
:10DB7000000000071820400000020418E000000028
:10DB80000040201807000000404080F08040400026
:10DB90000202010F01020200000000F0000000007C
:10DBA0000101011F01010100000000000000000050
:10DBB00080B07000000000000000000000000000C5
:10DBC000000101010101010100000000000000004E
:10DBD00000303000000000000000000080601804E9
:10DBE000006018060100000000E010080810E000C6
:10DBF000000F102020100F00001010F8000000008F
:10DC00000020203F202000000070080808887000D5
:10DC10000030282422213000003008888848300055
:10DC20000018202020110E000000C02010F8000075
:10DC300000070424243F240000F80888880808000E
:10DC40000019212020110E0000E010888818000023
:10DC5000000F112020110E0000380808C8380800F5
:10DC60000000003F00000000007088080888700075
:10DC7000001C222121221C0000E010080810E000F6
:10DC80000000312222110F00000000C0C00000007F
:10DC900000000030300000000000008000000000A4
:10DCA000000080600000000000008040201008009C
:10DCB0000001020408102000404040404040400065
:10DCC0000404040404040400000810204080000040
:10DCD0000020100804020100007048080808F00045
:10DCE0000000003036010000C030C828E810E00015
:10DCF0000718272423140B000000C038E0000000A0
:10DD0000203C23020227382008F888888870000009
:10DD1000203F202020110E00C030080808083800DD
:10DD2000071820202010080008F808080810E00054
:10DD3000203F202020100F0008F88888E8081000F5
:10DD4000203F20202320180008F88888E8081000C9
:10DD5000203F200003000000C03008080838000001
:10DD600007182020221E020008F808000008F80802
:10DD7000203F210101213F20000808F80808000089
:10DD80000020203F2020000000000808F8080800BC
:10DD9000C08080807F00000008F888C02818080034
:10DDA000203F20012638200008F80800000000006D
:10DDB000203F20202020300008F8F800F8F8080064
:10DDC000203F003F003F200008F830C00008F8085E
:10DDD000203F200007183F00E01008080810E0006E
:10DDE0000F10202020100F0008F808080808F00085
:10DDF000203F210101010000E01008080810E000A8
:10DE00000F18242438504F0008F88888888870003C
:10DE1000203F2000030C30200070880808083800DC
:10DE20000038202121221C00180808F808081800D2
:10DE30000000203F2000000008F808000008F80853
:10DE4000001F202020201F000878880000C8380804
:10DE5000000007380E010000F80800F80008F8007C
:10DE6000033C0700073C0300081868808068180816
:10DE700020302C03032C30200838C800C838080094
:10DE80000000203F2000000010080808C8380800E3
:10DE90002038262120201800000000FE0202020087
:10DEA0000000007F40404000000C30C00000000037
:10DEB000000000010638C00000020202FE0000005F
:10DEC000004040407F000000000004020202040005
:10DED0000000000000000000000000000000000042
:10DEE000808080808080808000020204000000002A
:10DEF0000000000000000000000080808080000022
:10DF00000019242222223F2008F80080800000000F
:10DF1000003F112020110E000000008080800000D2
:10DF2000000E112020201100000000808088F800E1
:10DF3000000E112020103F20000080808080000013
:10DF4000001F222222221300008080F08888881877
:10DF50000020203F20200000000080808080800082
:10DF6000006B94949493600008F800808080000017
:10DF7000203F210000203F200080989800000000F2
:10DF80000020203F20200000000000809898000022
:10DF900000C08080807F000008F800008080800042
:10DFA000203F24022D302000000808F80000000067
:10DFB0000020203F20200000808080808080800022
:10DFC000203F20003F20003F8080008080800000B4
:10DFD000203F210000203F20000080808080000042
:10DFE000001F202020201F00808000808000000073
:10DFF00080FFA12020110E000000008080808000A2
:10E00000000E112020A0FF80808080008080800092
:10E0100020203F21200001000000808080808000BF
:10E020000033242424241900008080E08080000034
:10E030000000001F20200000808000000080800081
:10E04000001F202020103F208080800000808080E2
:10E0500000010E3008060100808000800080808072
:10E060000F300C030C300F00008080008080800097
:10E070000020312E0E3120008080800000808080C2
:10E0800080818E7018060100008080808080800072
:10E090000021302C2221300000000000807C020290
:10E0A00000000000003F404000000000FF000000B2
:10E0B00000000000FF0000000002027C8000000061
:10E0C0000040403F0000000000060101020204047D
:10E0D00000000000000000000000F010101010FF11
:10E0E00010101010F000000000000F04040404FFE2
:10E0F000040404040F0000004040405F555555756E
:10E100005555555F404040000040200F094989792E
:10E110000909090F2040000000FE02424ACA4A4A8B
:10E12000CA4A4A4202FE000000FF40504C434040B1
:10E130004F50505C40FF00000000F888888888FF3E
:10E1400088888888F800000000001F080808087FF9
:10E15000888888889F80F00080828282828282E222
:10E16000A2928A8682808000000000000040807FAA
:10E1700000000000000000002424A4FEA3220022CE
:10E18000CC0000FF00000000080601FF00010404AD
:10E19000040404FF02020200101010FF109008880F
:10E1A0008888FF88888808000444827F0180804036
:10E1B000432C1028468180004040484848C8784F8A
:10E1C000484848484840400000000000031212221E
:10E1D00022528A06000000000010608000FF00004C
:10E1E00000FF0000C030000040404043407F4040FE
:10E1F000407F424140404000101010FF10900888BE
:10E200008888FF88888808000444827F01808040D5
:10E21000432C1028468180000010101010D030FFD1
:10E2200030D0121C1010000010080402010000FF82
:10E2300000000102040810000000FE222222FE005D
:10E24000FE828292A29E000080601F0242827F00B6
:10E25000FF402F102C438000000090884C57A424CE
:10E2600054548C840000000001018042221A0702ED
:10E270004282423E010101000004E4242CB4252620
:10E2800024B42C24E40400000000FF02011E12123A
:10E29000121E41827F000000005800400000400034
:10E2A0002100000022000000801A06000800000083
:10E2B000000C0140000400000A00000008000000FB
:10E2C000000C0140000800000B00000000000000EE
:10E2D0000100000000000000580002400F00000094
:10E2E0000000020000000800000000000000000024
:10E2F000000000000000000001030507090E1012D5
:10E300001416181C1E0000040002000180004000CA
:10E3100020001000080004000200000000800040FF
:10E320000020001000080040002000100008000439
:10E330000002A400E8A1A700ECA1A800A7A1B000DA
:10E34000E3A1B100C0A1B700A4A1D700C1A1E00022
:10E35000A4A8E100A2A8E800A8A8E900A6A8EA00ED
:10E36000BAA8EC00ACA8ED00AAA8F200B0A8F3008F
:10E37000AEA8F700C2A1F900B4A8FA00B2A8FC0048
:10E38000B9A80101A1A81301A5A81B01A7A82B01E9
:10E39000A9A84401BDA84801BEA84D01ADA86B01C4
:10E3A000B1A8CE01A3A8D001ABA8D201AFA8D401D7
:10E3B000B3A8D601B5A8D801B6A8DA01B7A8DC0180
:10E3C000B8A85102BBA86102C0A8C702A6A1C90291
:10E3D000A5A1CA0240A8CB0241A8D90242A8910334
:10E3E000A1A69203A2A69303A3A69403A4A69503B1
:10E3F000A5A69603A6A69703A7A69803A8A6990381
:10E40000A9A69A03AAA69B03ABA69C03ACA69D0350
:10E41000ADA69E03AEA69F03AFA6A003B0A6A10320
:10E42000B1A6A303B2A6A403B3A6A503B4A6A603EC
:10E43000B5A6A703B6A6A803B7A6A903B8A6B103B5
:10E44000C1A6B203C2A6B303C3A6B403C4A6B50350
:10E45000C5A6B603C6A6B703C7A6B803C8A6B90320
:10E46000C9A6BA03CAA6BB03CBA6BC03CCA6BD03F0
:10E47000CDA6BE03CEA6BF03CFA6C003D0A6C103C0
:10E48000D1A6C303D2A6C403D3A6C503D4A6C6038C
:10E49000D5A6C703D6A6C803D7A6C903D8A6010424
:10E4A000A7A71004A1A71104A2A71204A3A71304ED
:10E4B000A4A71404A5A71504A6A71604A8A71704C3
:10E4C000A9A71804AAA71904ABA71A04ACA71B0490
:10E4D000ADA71C04AEA71D04AFA71E04B0A71F0460
:10E4E000B1A72004B2A72104B3A72204B4A7230430
:10E4F000B5A72404B6A72504B7A72604B8A7270400
:10E50000B9A72804BAA72904BBA72A04BCA72B04CF
:10E51000BDA72C04BEA72D04BFA72E04C0A72F049F
:10E52000C1A73004D1A73104D2A73204D3A7330442
:10E53000D4A73404D5A73504D6A73604D8A7370402
:10E54000D9A73804DAA73904DBA73A04DCA73B04CF
:10E55000DDA73C04DEA73D04DFA73E04E0A73F049F
:10E56000E1A74004E2A74104E3A74204E4A743046F
:10E57000E5A74404E6A74504E7A74604E8A747043F
:10E58000E9A74804EAA74904EBA74A04ECA74B040F
:10E59000EDA74C04EEA74D04EFA74E04F0A74F04DF
:10E5A000F1A75104D7A710205CA9132043A8142079
:10E5B000AAA1152044A81620ACA11820AEA11920AC
:10E5C000AFA11C20B0A11D20B1A1252045A8262067
:10E5D000ADA13020EBA13220E4A13320E5A135200C
:10E5E00046A83B20F9A1AC2080000321E6A105212B
:10E5F00047A8092148A81621EDA1212159A9602188
:10E60000F1A26121F2A26221F3A26321F4A26421AA
:10E61000F5A26521F6A26621F7A26721F8A268217A
:10E62000F9A26921FAA26A21FBA26B21FCA2702146
:10E63000A1A27121A2A27221A3A27321A4A274217A
:10E64000A5A27521A6A27621A7A27721A8A278214A
:10E65000A9A27921AAA29021FBA19121FCA192213A
:10E66000FAA19321FDA1962149A897214AA89821B2
:10E670004BA899214CA80822CAA10F22C7A1112298
:10E68000C6A115224DA81A22CCA11D22D8A11E2256
:10E69000DEA11F224EA82022CFA123224FA825228F
:10E6A000CEA12722C4A12822C5A12922C9A12A229C
:10E6B000C8A12B22D2A12E22D3A13422E0A135223F
:10E6C000DFA13622C3A13722CBA13D22D7A1482208
:10E6D000D6A14C22D5A1522250A86022D9A16122F4
:10E6E000D4A16422DCA16522DDA1662251A86722A3
:10E6F00052A86E22DAA16F22DBA1952292A899225C
:10E70000D1A1A522CDA1BF2253A81223D0A160245C
:10E71000D9A26124DAA26224DBA26324DCA26424ED
:10E72000DDA26524DEA26624DFA26724E0A26824BD
:10E73000E1A26924E2A27424C5A27524C6A27624AB
:10E74000C7A27724C8A27824C9A27924CAA27A24AD
:10E75000CBA27B24CCA27C24CDA27D24CEA27E247D
:10E76000CFA27F24D0A28024D1A28124D2A282244D
:10E77000D3A28324D4A28424D5A28524D6A286241D
:10E78000D7A28724D8A28824B1A28924B2A28A243D
:10E79000B3A28B24B4A28C24B5A28D24B6A28E245D
:10E7A000B7A28F24B8A29024B9A29124BAA292242D
:10E7B000BBA29324BCA29424BDA29524BEA29624FD
:10E7C000BFA29724C0A29824C1A29924C2A29A24CD
:10E7D000C3A29B24C4A20025A4A90125A5A90225A2
:10E7E000A6A90325A7A90425A8A90525A9A9062541
:10E7F000AAA90725ABA90825ACA90925ADA90A2511
:10E80000AEA90B25AFA90C25B0A90D25B1A90E25E0
:10E81000B2A90F25B3A91025B4A91125B5A91225B0
:10E82000B6A91325B7A91425B8A91525B9A9162580
:10E83000BAA91725BBA91825BCA91925BDA91A2550
:10E84000BEA91B25BFA91C25C0A91D25C1A91E2520
:10E85000C2A91F25C3A92025C4A92125C5A92225F0
:10E86000C6A92325C7A92425C8A92525C9A92625C0
:10E87000CAA92725CBA92825CCA92925CDA92A2590
:10E88000CEA92B25CFA92C25D0A92D25D1A92E2560
:10E89000D2A92F25D3A93025D4A93125D5A9322530
:10E8A000D6A93325D7A93425D8A93525D9A9362500
:10E8B000DAA93725DBA93825DCA93925DDA93A25D0
:10E8C000DEA93B25DFA93C25E0A93D25E1A93E25A0
:10E8D000E2A93F25E3A94025E4A94125E5A9422570
:10E8E000E6A94325E7A94425E8A94525E9A9462540
:10E8F000EAA94725EBA94825ECA94925EDA94A2510
:10E90000EEA94B25EFA9502554A8512555A852250D
:10E9100056A8532557A8542558A8552559A8562513
:10E920005AA857255BA858255CA859255DA85A25E3
:10E930005EA85B255FA85C2560A85D2561A85E25B3
:10E9400062A85F2563A8602564A8612565A8622583
:10E9500066A8632567A8642568A8652569A8662553
:10E960006AA867256BA868256CA869256DA86A2523
:10E970006EA86B256FA86C2570A86D2571A86E25F3
:10E9800072A86F2573A8702574A8712575A87225C3
:10E9900076A8732577A8812578A8822579A883256C
:10E9A0007AA884257BA885257CA886257DA887252F
:10E9B0007EA8882580A8892581A88A2582A88B25FC
:10E9C00083A88C2584A88D2585A88E2586A88F25CB
:10E9D00087A8932588A8942589A895258AA8A02585
:10E9E000F6A1A125F5A1B225F8A1B325F7A1BC2573
:10E9F0008BA8BD258CA8C625F4A1C725F3A1CB25DE
:10EA0000F0A1CE25F2A1CF25F1A1E2258DA8E32525
:10EA10008EA8E4258FA8E52590A80526EFA1062657
:10EA2000EEA1092691A84026E2A14226E1A10030EC
:10EA3000A1A10130A2A10230A3A10330A8A10530F9
:10EA4000A9A1063065A9073096A90830B4A10930FC
:10EA5000B5A10A30B6A10B30B7A10C30B8A10D306A
:10EA6000B9A10E30BAA10F30BBA11030BEA1113038
:10EA7000BFA1123093A81330FEA11430B2A11530FB
:10EA8000B3A11630BCA11730BDA11D3094A81E3013
:10EA900095A8213040A9223041A9233042A9243031
:10EAA00043A9253044A9263045A9273046A9283056
:10EAB00047A9293048A94130A1A44230A2A443303B
:10EAC000A3A44430A4A44530A5A44630A6A447304E
:10EAD000A7A44830A8A44930A9A44A30AAA44B301E
:10EAE000ABA44C30ACA44D30ADA44E30AEA44F30EE
:10EAF000AFA45030B0A45130B1A45230B2A45330BE
:10EB0000B3A45430B4A45530B5A45630B6A457308D
:10EB1000B7A45830B8A45930B9A45A30BAA45B305D
:10EB2000BBA45C30BCA45D30BDA45E30BEA45F302D
:10EB3000BFA46030C0A46130C1A46230C2A46330FD
:10EB4000C3A46430C4A46530C5A46630C6A46730CD
:10EB5000C7A46830C8A46930C9A46A30CAA46B309D
:10EB6000CBA46C30CCA46D30CDA46E30CEA46F306D
:10EB7000CFA47030D0A47130D1A47230D2A473303D
:10EB8000D3A47430D4A47530D5A47630D6A477300D
:10EB9000D7A47830D8A47930D9A47A30DAA47B30DD
:10EBA000DBA47C30DCA47D30DDA47E30DEA47F30AD
:10EBB000DFA48030E0A48130E1A48230E2A483307D
:10EBC000E3A48430E4A48530E5A48630E6A487304D
:10EBD000E7A48830E8A48930E9A48A30EAA48B301D
:10EBE000EBA48C30ECA48D30EDA48E30EEA48F30ED
:10EBF000EFA49030F0A49130F1A49230F2A49330BD
:10EC0000F3A49B3061A99C3062A99D3066A99E3017
:10EC100067A9A130A1A5A230A2A5A330A3A5A430C5
:10EC2000A4A5A530A5A5A630A6A5A730A7A5A83060
:10EC3000A8A5A930A9A5AA30AAA5AB30ABA5AC3030
:10EC4000ACA5AD30ADA5AE30AEA5AF30AFA5B03000
:10EC5000B0A5B130B1A5B230B2A5B330B3A5B430D0
:10EC6000B4A5B530B5A5B630B6A5B730B7A5B830A0
:10EC7000B8A5B930B9A5BA30BAA5BB30BBA5BC3070
:10EC8000BCA5BD30BDA5BE30BEA5BF30BFA5C03040
:10EC9000C0A5C130C1A5C230C2A5C330C3A5C43010
:10ECA000C4A5C530C5A5C630C6A5C730C7A5C830E0
:10ECB000C8A5C930C9A5CA30CAA5CB30CBA5CC30B0
:10ECC000CCA5CD30CDA5CE30CEA5CF30CFA5D03080
:10ECD000D0A5D130D1A5D230D2A5D330D3A5D43050
:10ECE000D4A5D530D5A5D630D6A5D730D7A5D83020
:10ECF000D8A5D930D9A5DA30DAA5DB30DBA5DC30F0
:10ED0000DCA5DD30DDA5DE30DEA5DF30DFA5E030BF
:10ED1000E0A5E130E1A5E230E2A5E330E3A5E4308F
:10ED2000E4A5E530E5A5E630E6A5E730E7A5E8305F
:10ED3000E8A5E930E9A5EA30EAA5EB30EBA5EC302F
:10ED4000ECA5ED30EDA5EE30EEA5EF30EFA5F030FF
:10ED5000F0A5F130F1A5F230F2A5F330F3A5F430CF
:10ED6000F4A5F530F5A5F630F6A5FC3060A9FD3028
:10ED700063A9FE3064A90531C5A80631C6A80731CC
:10ED8000C7A80831C8A80931C9A80A31CAA80B31D7
:10ED9000CBA80C31CCA80D31CDA80E31CEA80F31A7
:10EDA000CFA81031D0A81131D1A81231D2A8133177
:10EDB000D3A81431D4A81531D5A81631D6A8173147
:10EDC000D7A81831D8A81931D9A81A31DAA81B3117
:10EDD000DBA81C31DCA81D31DDA81E31DEA81F31E7
:10EDE000DFA82031E0A82131E1A82231E2A82331B7
:10EDF000E3A82431E4A82531E5A82631E6A8273187
:10EE0000E7A82831E8A82931E9A82032E5A2213273
:10EE1000E6A22232E7A22332E8A22432E9A2253276
:10EE2000EAA22632EBA22732ECA22832EDA2293246
:10EE3000EEA231325AA9A33249A98E334AA98F339F
:10EE40004BA99C334CA99D334DA99E334EA9A133A8
:10EE50004FA9C43350A9CE3351A9D13352A9D233CB
:10EE600053A9D53354A9004EBBD2014EA1B6024ED0
:10EE70004081034EDFC6044E4181054E4281064E5D
:10EE80004381074EF2CD084EC9D5094EFDC80A4E42
:10EE9000CFC90B4EC2CF0C4EA2D80D4EBBB20E4EF8
:10EEA000EBD30F4E4481104EA4D8114EF3B3124E43
:10EEB0004581134EA8D7144ED2C7154EA7D8164E6B
:10EEC000C0CA174E4681184EF0C7194EFBB11A4EF4
:10EED000B5D21B4ED4B41C4EABB61D4EBFCB1E4E8E
:10EEE000A9D81F4E4781204E4881214E4981224E8C
:10EEF000AAB6234E4A81244EBDC1254ECFD1264EFF
:10EF00004B81274EA5C9284EADD8294E4C812A4E9B
:10EF1000F6B82B4EBED12C4EDCE32D4ED0D62E4E65
:10EF20004D812F4E4E81304EE1B7314E4F81324EE2
:10EF3000AEB4334E5081344ED9C1354E5181364E28
:10EF4000BCD8374E5281384EE8CD394EA4B53A4E32
:10EF5000AACE3B4EF7D63C4E53813D4EF6C03E4EB8
:10EF6000D9BE3F4EAFD8404E5481414E5581424E9E
:10EF70005681434ECBC4444E5781454EC3BE464E88
:10EF80005881474EB1D8484EB4C3494EE5D24A4E97
:10EF900059814B4EAED64C4EDACE4D4EA7D54E4E85
:10EFA000F5BA4F4EA6B7504ED6C0514E5A81524E6A
:10EFB000B9C6534ED2C5544EC7C7554E5B81564E47
:10EFC000D4B9574E5C81584ECBB3594ED2D25A4E1B
:10EFD0005D815B4E5E815C4EBFD85D4EC5BE5E4EB0
:10EFE000F2C65F4EB2D2604EB0CF614EE7CF624EF6
:10EFF0005F81634E6081644E6181654E6281664EC1
:10F00000E9CA674E6381684E6481694EC0D86A4E12
:10F0100065816B4E66816C4E67816D4E68816E4E68
:10F0200069816F4E6A81704EF2C2714ED2C2724EC9
:10F030006B81734EE9C8744E6C81754E6D81764E4E
:10F040006E81774E6F81784E7081794E71817A4EE4
:10F0500072817B4E73817C4E74817D4E75817E4EB4
:10F06000ACC77F4E7681804E7781814E7881824E0B
:10F070007981834E7A81844E7B81854E7C81864E58
:10F08000CBC1874E7D81884EE8D3894EF9D58A4E13
:10F090007E818B4EC2CA8C4EFEB68D4EA1D88E4E4E
:10F0A000DAD38F4EF7BF904E8081914EC6D4924EE8
:10F0B000A5BB934EC1D8944EE5CE954EAEBE964EAE
:10F0C0008181974E8281984EA8D8994E83819A4E1D
:10F0D000C7D19B4EA9D09C4E84819D4E85819E4E6A
:10F0E00086819F4EBDD8A04EEFD9A14EF6CDA24E3F
:10F0F000BABFA34E8781A44EBBBDA54EA5BAA64EEE
:10F10000E0D2A74EFAB2A84EE0BAA94EB6C4AA4EB3
:10F110008881AB4EEDCFAC4EA9BEAD4EA4CDAE4E68
:10F12000C1C1AF4E8981B04E8A81B14E8B81B24E42
:10F13000D7C7B34EF1D9B44E8C81B54EF4D9B64E83
:10F140008D81B74E8E81B84E8F81B94E9081BA4E67
:10F15000CBC8BB4EE9D8BC4E9181BD4E9281BE4E0C
:10F160009381BF4EDAD2C04EB2CAC14ECAC8C24E97
:10F17000ECD8C34EEAD8C44EC6D8C54EF6BDC64E6E
:10F18000CDC6C74EF0B3C84E9481C94EEBD8CA4E17
:10F19000F1BDCB4EE9BDCC4E9581CD4ED4C8CE4EFF
:10F1A000D3B4CF4E9681D04E9781D14ED8C2D24E95
:10F1B0009881D34ED6B2D44ED0D7D54ECBCAD64EE8
:10F1C000FBCBD74ECCD5D84EB6B8D94EC9CFDA4E38
:10F1D0009981DB4E9A81DC4E9B81DD4EDAD9DE4E81
:10F1E000F0D8DF4EAAC7E04E9C81E14EEED8E24E49
:10F1F0009D81E34EFAB4E44EEEC1E54ED4D2E64E24
:10F200009E81E74E9F81E84EEDD8E94EA081EA4EFF
:10F21000C7D2EB4EEFD8EC4EC7C3ED4EA181EE4EF8
:10F22000A281EF4EA381F04EF6D1F14EA481F24EB1
:10F23000D9D6F34EF2D8F44EA581F54EF5D8F64E58
:10F24000FEBCF74EDBBCF84EA681F94EA781FA4E04
:10F25000A881FB4ECEC8FC4EA981FD4EDDB7FE4E07
:10F26000AA81FF4EC2B7004FAB81014FF3C6024FD8
:10F27000AC81034FAD81044FAE81054FAF81064F86
:10F28000B081074FB181084FB281094FF8D80A4FBA
:10F29000C1D20B4FB3810C4FB4810D4FE9CE0E4F4D
:10F2A000BFBC0F4FFCB7104FA5B7114FDDD0124FA9
:10F2B000B581134FB681144FB781154FB881164FE2
:10F2C000B981174FDAD6184FC5D3194FEFBB1A4F74
:10F2D000E1BB1B4FF1D81C4FBA811D4FBB811E4FA4
:10F2E000A1C91F4FB0CE204FABB4214FBC81224FDC
:10F2F000F3D8234FBD81244FCBC9254FF6D8264FD5
:10F30000D7C2274FF7D8284FBE81294FBF812A4F38
:10F31000B1CE2B4FF9D82C4FC0812D4FC1812E4F2C
:10F32000C2812F4FAEB2304FC0B9314FC381324F7F
:10F33000A3D9334FC481344FE9B0354FC581364F1F
:10F34000E6C1374FC681384FECC9394FC7813A4FB4
:10F35000C5CB3B4FC8813C4FC6CB3D4FA4D93E4F98
:10F36000C9813F4FCA81404FCB81414FCC81424F31
:10F37000CD81434FE8B5444FCE81454FCF81464FB5
:10F38000ABB5474FD081484FD181494FD2814A4FC9
:10F39000D3814B4FD4814C4FD5814D4FBBCE4E4F77
:10F3A000CDB54F4FA1D7504FF4D7514FD3D3524F74
:10F3B000D681534FE5CC544FD781554FCEBA564FD7
:10F3C000D881574FA2D9584FDCD9594FE0D35A4F63
:10F3D000FDD85B4FF0B75C4FF7D75D4FFED85E4F5F
:10F3E000FAD85F4FA1D9604FE3C4614FD981624F12
:10F3F000DA81634FB6D3644FF4D8654FDDD9664FD9
:10F40000DB81674FFBD8684FDC81694FE5C56A4FE8
:10F41000DD816B4FDE816C4FD0C06D4FDF816E4F51
:10F42000E0816F4FF0D1704FDBB0714FE181724FCF
:10F43000E281734FD1BC744FA6D9754FE381764FEB
:10F44000A5D9774FE481784FE581794FE6817A4FEE
:10F45000E7817B4FACD97C4FAED97D4FE8817E4FA1
:10F46000ABD97F4FB9CA804FE981814FEA81824F82
:10F47000EB81834FA9D9844FB6D6854FEC81864F57
:10F48000ED81874FEE81884FDEB3894FA8D98A4F2F
:10F49000EF818B4FFDC08C4FF0818D4FCCCA8E4FCA
:10F4A000F1818F4FAAD9904FF281914FA7D9924FF6
:10F4B000F381934FF481944FB0D9954FF581964FD6
:10F4C000F681974FB1B6984FF781994FF8819A4FCF
:10F4D000F9819B4FA9B99C4FFA819D4FC0D29E4F95
:10F4E000FB819F4FFC81A04FC0CFA14FFD81A24F58
:10F4F000FE81A34FC2C2A44F4082A54FC4BDA64FF8
:10F50000ECD5A74FE0B2A84FC8C7A94FEBBFAA4F91
:10F51000ADD9AB4F4182AC4FAFD9AD4F4282AE4F68
:10F52000EACEAF4FEEBAB04F4382B14F4482B24FF2
:10F530004582B34F4682B44F4782B54FD6C7B64FC8
:10F540004882B74F4982B84F4A82B94F4B82BA4F6F
:10F550004C82BB4F4D82BC4F4E82BD4F4F82BE4F3F
:10F560005082BF4FE3B1C04F5182C14F5282C24F50
:10F570005382C34FD9B4C44FEDB6C54FB4D9C64FAB
:10F580005482C74F5582C84F5682C94F5782CA4FBF
:10F59000A1BFCB4F5882CC4F5982CD4F5A82CE4F0C
:10F5A000DED9CF4FCEC7D04FFEC0D14FB8D9D24F42
:10F5B0005B82D34F5C82D44F5D82D54F5E82D64F43
:10F5C0005F82D74FD7CBD84FFDB7D94F6082DA4F84
:10F5D000B5D9DB4F6182DC4FB7D9DD4FA3B1DE4F28
:10F5E000E1D3DF4FB9D9E04F6282E14FC5D0E24F9E
:10F5F0006382E34FB6D9E44F6482E54F6582E64FFC
:10F60000B1D9E74F6682E84FB2D9E94FA9C1EA4FB5
:10F61000B3D9EB4F6782EC4F6882ED4FF3BCEE4FEE
:10F62000DED0EF4FA9B8F04F6982F14FE3BEF24F41
:10F630006A82F34FBDD9F44F6B82F54F6C82F64F5F
:10F640006D82F74F6E82F84FBAD9F94F6F82FA4F39
:10F65000B3B0FB4F7082FC4F7182FD4F7282FE4F40
:10F66000C2D9FF4F738200507482015075820250DC
:10F670007682035077820450788205507982065052
:10F680007A8207507B8208507C8209507D820A5022
:10F690007E820B5080820C50C4D90D50B6B10E50F2
:10F6A00081820F50BFD91050828211508382125034
:10F6B000B9B5135084821450F3BE1550858216508C
:10F6C0008682175087821850C8CC1950F2BA1A5047
:10F6D000D0D21B5088821C50C3D91D5089821E5025
:10F6E0008A821F50E8BD20508B822150ABB322503C
:10F6F0008C8223508D8224508E822550C5D926506D
:10F70000EBBE27508F822850C6D92950BBD92A502A
:10F71000DFC42B5090822C50BED92D50C1D92E5011
:10F72000C0D92F5091823050928231509382325002
:10F730009482335095823450968235509782365059
:10F7400098823750998238509A8239509B823A5029
:10F75000AED53B509C823C50B5D63D509D823E502C
:10F76000E3C73F509E8240509F824150A08242504A
:10F77000A1824350C8D94450A2824550A38246502A
:10F78000A4824750D9BC4850CAD94950A5824A5092
:10F79000A6824B50A7824C50BCD94D50A8824E50E7
:10F7A000CBD94F50ABC65050A9825150AA8252506B
:10F7B000AB825350AC825450AD825550C9D956508B
:10F7C000AE825750AF825850B0825950B1825A50D1
:10F7D000F6D75B50B2825C50A3CD5D50B3825E50D1
:10F7E000B4825F50B5826050B6826150B782625079
:10F7F000B8826350B9826450BA826550A1BD665028
:10F80000BB826750BC826850BD826950BE826A501C
:10F81000BF826B50C0826C50CCD96D50C1826E508B
:10F82000C2826F50C3827050C4827150C5827250C0
:10F83000C6827350C7827450C8827550C982765090
:10F84000BCC57750B5CD7850CA827950CB827A50FA
:10F85000CC827B50CDD97C50CD827D50CE827E50E3
:10F86000C7D97F50A5B38050FEBF8150CF82825050
:10F87000D0828350D1828450D2828550B5B88650D0
:10F88000D3828750D4828850FCC08950D5828A5058
:10F89000D6828B50D7828C50D8828D50F8B08E5043
:10F8A000D9828F50DA829050DB829150DC82925064
:10F8B000DD829350DE829450DF829550E082965034
:10F8C000E1829750E2829850E3829950E4829A5004
:10F8D000E5829B50E6829C50E7829D50E8829E50D4
:10F8E000E9829F50EA82A050EB82A150EC82A250A4
:10F8F000ED82A350F6B4A450EE82A550CED9A65006
:10F90000EF82A750CFD9A850A2B4A950D0D9AA50FD
:10F91000F082AB50F182AC50DFB4AD50F282AE5009
:10F92000F382AF50F482B050F582B150F682B250FB
:10F93000C1B0B350F782B450F882B550F982B650D6
:10F94000FA82B750FB82B850FC82B950FD82BA509F
:10F95000D1D9BB50B5C9BC50FE82BD504083BE500A
:10F960004183BF504283C0504383C1504483C2503F
:10F970004583C3504683C4504783C5504883C6500F
:10F980004983C7504A83C8504B83C9504C83CA50DF
:10F990004D83CB504E83CC504F83CD505083CE50AF
:10F9A0005183CF50F1CFD0505283D1505383D25096
:10F9B0005483D3505583D4505683D5505783D65053
:10F9C000D2D9D7505883D8505983D9505A83DA5056
:10F9D000C5C1DB505B83DC505C83DD505D83DE5052
:10F9E0005E83DF505F83E0506083E1506183E250CB
:10F9F0006283E3506383E4506483E5506583E6509B
:10FA0000D6D9E750AEC9E8506683E9506783EA501B
:10FA10006883EB506983EC50D5D9ED50D4D9EE50C2
:10FA2000D7D9EF506A83F0506B83F1506C83F2505A
:10FA30006D83F350DBCBF4506E83F550A9BDF650C7
:10FA40006F83F7507083F8507183F9507283FA50C6
:10FA50007383FB50A7C6FC507483FD507583FE5022
:10FA60007683FF5077830051788301517983025167
:10FA70007A8303517B8304517C8305517D83065136
:10FA8000D3D90751D8D908517E83095180830A51AF
:10FA900081830B51D9D90C5182830D5183830E512F
:10FAA00084830F51858310518683115187831251AE
:10FAB000E5C8135188831451898315518A831651DF
:10FAC0008B8317518C8318518D8319518E831A5152
:10FAD0008F831B5190831C5191831D5192831E5122
:10FAE00093831F519483205195832151DCC022516F
:10FAF00096832351978324519883255199832651C6
:10FB00009A8327519B8328519C8329519D832A5195
:10FB10009E832B519F832C51A0832D51A1832E5165
:10FB2000A2832F51A3833051A4833151A583325135
:10FB3000A6833351A7833451A8833551A983365105
:10FB4000AA833751AB833851AC833951AD833A51D5
:10FB5000AE833B51AF833C51B0833D51B1833E51A5
:10FB6000B2833F51F9B64051A3D84151CAD4425152
:10FB7000B3834351AAD44451D6D04551E4B346513E
:10FB8000D7D54751B4834851C8CF4951E2B94A51FA
:10FB9000B5834B51CBBF4C51B6834D51E2C34E514F
:10FBA000B7834F51B8835051B9835151D2B6525196
:10FBB000BA835351BB835451C3CD5551EED95651DD
:10FBC000F0D95751BC835851BD835951BE835A5106
:10FBD000B3B55B51BF835C51B5B65D51C0835E5117
:10FBE000C1835F51C2836051C3836151C483625139
:10FBF000A4BE6351C5836451C6836551EBC8665189
:10FC0000C7836751C8836851ABC86951C9836A51BA
:10FC1000CA836B51CBB06C51ABB96D51F9C16E5108
:10FC2000E2D96F51CB837051BCC07151B2B97251DE
:10FC3000CC837351D8B97451CBD07551F8B176518A
:10FC4000E4C67751DFBE7851E4B57951C8D77A510F
:10FC5000CD837B51F8D17C51E6BC7D51DECA7E510B
:10FC6000CE837F51CF838051BDBC8151E6D9825173
:10FC7000E7D88351D0838451D1838551DAC486512A
:10FC8000D2838751D3838851D4B88951BDC88A5152
:10FC9000D4838B51D5838C51E1B28D51D9D48E51FF
:10FCA000D6838F51D7839051D8839151D983925164
:10FCB000B0C39351DA839451DB839551E1C39651DC
:10FCC000A2DA9751DFC89851DC839951B4D09A5188
:10FCD000DD839B51FCBE9C51A9C59D51DE839E5185
:10FCE000DF839F51E083A051DAB9A151E183A25192
:10FCF000A3DAA351E283A451A9D4A551A4DAA65151
:10FD0000E383A751E483A851E583A951E683AA516F
:10FD1000E783AB51FBD9AC51ACB6AD51E883AE51E2
:10FD2000E983AF51EBB7B051F9B1B151FCD9B25140
:10FD3000E5B3B351F6BEB451EA83B551F6BFB6513F
:10FD4000B1D2B751E4C0B851EB83B951EC83BA5189
:10FD5000ED83BB51B3B6BC51FED9BD51FDD9BE51E7
:10FD6000EE83BF51EF83C051BBBEC151F083C2517E
:10FD7000F183C351F283C451E0C6C551F383C65128
:10FD8000BCD7C751A1DAC851F483C951B9C1CA510E
:10FD9000F583CB51F2B5CC51E8C1CD51F683CE51AC
:10FDA000F783CF51F5BCD051F883D151D5B4D2519E
:10FDB000F983D351FA83D451FB83D551FC83D651B7
:10FDC000FD83D751FE83D8514084D9514184DA5103
:10FDD0004284DB51DDC1DC514384DD51FDC4DE5181
:10FDE0004484DF514584E051B8BCE151B2B7E251DF
:10FDF0004684E3514784E451EFB7E5514884E65126
:10FE00004984E7514A84E8514B84E9514C84EA51D2
:10FE10004D84EB51ECD9EC514E84ED51BEC6EE5100
:10FE20004F84EF51ADBFF051CBBBF1515084F25133
:10FE30005184F351CAB5F4515284F551C9DBF651DE
:10FE4000D7D0F7515384F851B9CDF951BCB0FA511C
:10FE5000F6B3FB51F7BBFC51CADBFD51AFBAFE5103
:10FE60005484FF51E4D40052B6B50152F3B50252A6
:10FE7000D6D80352D0C8045255840552568406522F
:10FE8000D6B70752D0C70852D7D8095257840A525A
:10FE9000AFBF0B5258840C5259840D52BBDB0E522B
:10FEA000D8D80F525A8410525B841152CCD01252BF
:10FEB000AEBB13525C8414525D8415525E8416529C
:10FEC000BEEB1752D0C11852F5C11952F2D41A52D2
:10FED000D5B81B52B4B41C525F841D52F5B31E52E8
:10FEE00060841F5261842052BEC921526284225212
:10FEF0006384235264842452D0C5255265842652DB
:10FF00006684275267842852D9C52952FBC02A52D9
:10FF100068842B52F0B12C5269842D52D9D82E52BC
:10FF2000CEB92F526A843052BDB531526B843252F1
:10FF30006C843352DAD834526D8435526E84365222
:10FF4000C6D63752A2CB3852AFC83952B2C93A528C
:10FF5000CCB43B52CCBF3C526F843D52F4B93E52BC
:10FF600070843F52DBD84052DCD84152E7B642524F
:10FF7000C1BC4352EACC4452718445527284465209
:10FF800073844752748448527584495276844A5225
:10FF9000F7CF4B5277844C52DDD84D52B0C74E52FA
:10FFA00078844F5279845052D0B95152A3BD5252E5
:10FFB0007A8453527B845452DECC55527C84565200
:10FFC000CAC657527D8458527E84595280845A52F0
:10FFD00081845B5282845C52E0D85D5283845E529D
:10FFE000DED85F528484605285846152DFD86252C9
:10FFF000868463528784645288846552FEB0665258
:020000040801F1
:1000000089846752E7BE68528A846952A3CA6A52D9
:10001000F4BC6B528B846C528C846D528D846E5206
:100020008E846F52B1B870528F8471529084725224
:10003000EEB87352918474529284755293847652BE
:1000400094847752958478529684795297847A5220
:1000500098847B5299847C529A847D52E2D87E5255
:100060009B847F52CBBD80529C848152E4D88252C3
:10007000E3D883529D8484529E8485529F84865205
:10008000A0848752A1848852FCC58952A2848A52D6
:10009000A3848B52A4848C52A5848D52A6848E5244
:1000A000A7848F52A8849052E5D89152A984925285
:1000B000AA849352E6D89452AB849552AC8496525B
:1000C000AD849752AE849852AF849952B0849A52BC
:1000D000B1849B52A6C19C52B2849D52B0C89E521C
:1000E000ECB09F52A6B9A052D3BCA152F1CEA252FD
:1000F000BDDBA352D3C1A452B384A552B484A6528B
:10010000B584A752B684A852AFB6A952FAD6AA525D
:10011000ACC5AB52D9BDAC52BEDBAD52BFDBAE52AB
:10012000B784AF52B884B052B984B152F8C0B25259
:10013000A2BEB352CDC0B452BA84B552BB84B6523B
:10014000BC84B752BD84B852BE84B952BF84BA527F
:10015000C084BB52C184BC52C284BD52C384BE524F
:10016000C0DBBF52C6CAC052C484C152C584C25289
:10017000C684C352AAB2C452C784C552C884C652E8
:10018000C984C752C2D3C852CA84C952E3C3CA522F
:10019000CB84CB52ABD1CC52CC84CD52CD84CE5279
:1001A000CE84CF52CF84D052C2DBD152D084D2522F
:1001B000D5C0D352D184D452D284D552D384D6520E
:1001C000C3DBD752D484D852B1BFD952D584DA52C6
:1001D000D684DB52D784DC52D884DD52D984DE52F7
:1001E000DA84DF52BCC4E052DB84E152DC84E252A8
:1001F000DD84E352DE84E452DAC7E552DF84E6525E
:10020000E084E752E184E852E284E952E384EA526E
:10021000E484EB52E584EC52E684ED52E784EE523E
:10022000E884EF52E984F052C4DBF152EA84F252DE
:10023000EB84F352EC84F452ED84F552EE84F652E2
:10024000EF84F752F084F852F184F952E8D9FA5267
:10025000D7C9FB52F284FC52F384FD52F484FE525F
:10026000B4B9FF52F0CE0053C8D40153F584025301
:10027000F6840353F7840453F8840553FCB0065303
:10028000D2B40753F9840853D9D00953FA840A53D6
:10029000FB840B53FC840C53FD840D53E9D90E539E
:1002A000FE840F53CBDE1053EBD91153408512530C
:1002B000418513534285145343851553B0D81653C3
:1002C000AFBB1753B1B1185344851953D7B31A5361
:1002D000CED81B5345851C5346851D53D1D41E5380
:1002E00047851F5348852053B3BD2153EFBF225389
:1002F00049852353BBCF24534A8525534B85265329
:10030000D0D827534C8528534D8529534E852A53E1
:10031000CBB72B534F852C5350852D5351852E53DE
:10032000D1D82F535285305353853153548532538E
:100330005585335356853453578535535885365331
:10034000598537535A8538535B853953A5C63A5377
:10035000F8C73B53BDD23C535C853D535D853E534E
:10036000D2D83F53E4C440535E854153AECA425392
:100370005F854353A7C7445360854553A6D846536A
:1003800061854753FDC94853E7CE4953DCBB4A5307
:10039000EBB04B5362854C5363854D5364854E538C
:1003A000AABB4F53ADD0505365855153B0B1525392
:1003B000E4D75353BFD7545366855553A5B5565309
:1003C000F4C25753CFC458536785595368855A535D
:1003D000A9B25B5369855C53B7B25D536A855E53BE
:1003E000E5B15F53B2DF6053BCD56153A8BF625320
:1003F000ACC26353D5D86453B1C265536B856653A1
:10040000D4D86753D4CE68536C856953E0DA6A5305
:100410006D856B53C0CE6C536E856D536F856E5377
:10042000B4D86F53AEC37053A1D37153A3CE7253DC
:1004300070857353B4BC7453B4C87553D1C276532A
:1004400071857753EDBE7853B6D0795372857A5360
:10045000E1DA7B5373857C5374857D5375857E53B8
:1004600076857F53E4C7805377858153788582539F
:10047000A7B3835379858453F2B68553FCCC865356
:10048000FAC087537A8588537B858953F7C08A538E
:100490007C858B53B9D18C53E1D18D53C7D88E5302
:1004A0007D858F537E8590538085915381859253AE
:1004B000828593538385945384859553DEB29653F6
:1004C0008585975386859853E5C0995387859A53B8
:1004D000F1BA9B5388859C5389859D53C8D89E53F8
:1004E0008A859F53ADD4A0538B85A1538C85A2538D
:1004F000E1CFA353C9D8A4538D85A553CAD8A65319
:10050000C3CFA7538E85A853F8B3A953C7BEAA5328
:100510008F85AB539085AC539185AD539285AE5387
:10052000CBD8AF539385B0539485B1539585B253CF
:100530009685B3539785B4539885B5539985B6532B
:10054000CCDBB7539A85B8539B85B9539C85BA5376
:100550009D85BB53A5C8BC539E85BD539F85BE5387
:10056000A085BF53D8CFC053A185C153FEC8C25385
:10057000CEB2C353A285C453A385C553A485C65325
:10058000A585C753A685C853D6D3C953E6B2CA5367
:10059000B0BCCB53D1D3CC53ABCBCD53B4B7CE53EC
:1005A000A785CF53A885D053A985D153A2B7D253DD
:1005B000AA85D353AB85D453E5CAD553AC85D6535E
:1005C000A1C8D753DCCAD853E4B1D953F0D0DA5319
:1005D000AD85DB53D1C5DC53AE85DD53AF85DE532E
:1005E000B085DF53C5DBE053FEB5E153B185E2537F
:1005F000B285E353DABFE453C5B9E553E4BEE6532D
:10060000EDC1E753B385E853B6DFE953B5DFEA53ED
:10061000BBD6EB53D0BDEC53D9D5ED53C8B0EE5398
:10062000A3B6EF53C9BFF053A8CCF153B3DFF253D5
:10063000B7CAF353D2D3F453B485F553CFD8F65396
:10064000B6D2F753C5BAF853BECBF953BECCFA5362
:10065000B585FB53B7DFFC53F0B5FD53B4DFFE5354
:10066000B685FF53B7850054B8850154F5D30254BD
:10067000B9850354D4B30454F7B80554BA85065465
:10068000BADF0754BB850854CFBA0954AABC0A5430
:10069000F5B50B54BC850C54ACCD0D54FBC30E54B6
:1006A000F3BA0F54F4C01054C2CD1154F2CF125407
:1006B000B8DF1354C5CF1454BD851554C0C21654A9
:1006C000B9DF1754F0C21854BE851954BF851A54A7
:1006D000C0851B54FDBE1C54C1851D54DFC11E5472
:1006E000CCCD1F54F7D22054CDB72154C1DF2254B2
:1006F000C2852354C4DF2454C3852554C48526549D
:10070000F1B72754C9B02854D6B62954D4B72A54BF
:10071000C5852B54ACBA2C54FDCC2D54D4BF2E54CB
:10072000B1CB2F54F4C63054C6853154A8D63254B8
:10073000C5DF3354C7853454E2CE3554B3B3365491
:10074000C8853754C9853854FCCE3954B5B43A54A9
:10075000CA853B54C7CE3C54F0BA3D54CB853E5479
:10076000E1CE3F54CC854054BDD14154CD85425457
:10077000CE854354C0DF4454CF854554D08546547C
:10078000F4B44754D1854854CAB34954D2854A5425
:10079000E6B84B54BBDF4C54D3854D54D4854E54EE
:1007A000D5854F54D6855054C5C45154D78552541D
:1007B000BCDF5354BDDF5454BEDF5554BBC5565443
:1007C000BFDF5754C2DF5854B1D45954C3DF5A5411
:1007D000D8855B54BAC75C54D8CE5D54D9855E5475
:1007E000DA855F54DB856054DC856154DD856254B5
:1007F000D8C46354DE856454CADF6554DF8566540B
:10080000CFDF6754E0856854DCD66954E1856A54CB
:10081000E2856B54E3856C54E4856D54E5856E5434
:10082000E6856F54E7857054E8857154C9DF7254CA
:10083000DADF7354B6CE7454E9857554C7BA76546A
:10084000CEDF7754C8DF7854DEC57954EA857A5410
:10085000EB857B54EBC97C54F4BA7D54FCC37E54C5
:10086000EC857F54ED858054D7BE8154EE8582544B
:10087000C6DF8354EF858454CDDF8554F0858654DC
:10088000D8C58754F1858854F2858954F3858A54F4
:10089000F4858B54A6D58C54CDBA8D54F5858E54E1
:1008A000CCBE8F54BDD39054C0B89154F6859254A9
:1008B000E4D69354F7859454C7DF9554BEB9965443
:1008C000A7BF9754F8859854F9859954FCC19A5458
:1008D000CBDF9B54CCDF9C54FA859D54D0DF9E54D3
:1008E000FB859F54FC85A054FD85A154FE85A25430
:1008F0004086A354DBDFA454E5DFA5544186A6540B
:10090000D7DFA754D6DFA854C9D7A954E3DFAA5428
:10091000E4DFAB54EBE5AC54A7D2AD54D2DFAE5418
:100920004286AF54A9BFB0544386B154DBD4B2540D
:100930004486B354C8BFB454D4DFB5544586B654C6
:100940004686B7544786B854CCCFB9544886BA5473
:100950004986BB54DDDFBC544A86BD54CAD1BE545F
:100960004B86BF54DEDFC054A7B0C154B7C6C254D3
:10097000D3DFC3544C86C454E5BAC5544D86C6541F
:10098000DFB6C754DBCDC854FEB9C954D5D4CA5458
:100990004E86CB544F86CC54DFDFCD54ECCFCE54B3
:1009A000A5B0CF54E7DFD054D1DFD154C6D1D25453
:1009B000D5DFD354D8DFD454D9DFD554DCDFD654B7
:1009C0005086D754A9BBD8545186D954E0DFDA54A5
:1009D000E1DFDB545286DC54E2DFDD54E6DFDE5437
:1009E000E8DFDF54B4D3E0545386E1545486E25434
:1009F0005586E3545686E4545786E554E7B8E654E2
:100A0000B6C5E754EADFE854DAC9E954A8C1EA54A4
:100A1000C4C4EB545886EC545986ED54DEBFEE54F2
:100A2000F8CFEF545A86F0545B86F1545C86F2544A
:100A3000DCD5F354EEDFF4545D86F5545E86F6544F
:100A40005F86F7546086F8546186F9546286FA54DA
:100A5000B8B2FB546386FC54DFBAFD54ECDFFE549D
:100A60006486FF54C1DB005565860155E4D102550B
:100A7000668603556786045568860555698606555A
:100A8000F4CB0755BDB408556A860955A6B00A557A
:100A90006B860B556C860C556D860D556E860E5506
:100AA0006F860F55F1DF1055C6CC1155F2DF125588
:100AB0007086135571861455EDDF155572861655DF
:100AC00073861755748618557586195576861A5586
:100AD00077861B55E9DF1C5578861D5579861E558E
:100AE0007A861F557B862055EBDF21557C86225563
:100AF000EFDF2355F0DF2455BDBB25557D862655F8
:100B00007E862755F3DF28558086295581862A550C
:100B1000F4DF2B5582862C55A3BB2D5583862E558D
:100B2000DBCA2F55A8CE3055A7E03155AAB33255B0
:100B300084863355A6E034558586355586863655E8
:100B400087863755A1E038558886395589863A55C4
:100B50008A863B558B863C55FEDF3D558C863E553F
:100B6000D9CD3F55FCDF40558D864155FADF4255C2
:100B70008E864355D0BF4455C4D745558F864655BC
:100B8000CCC947559086485591864955F8DF4A5556
:100B9000A1B04B5592864C5593864D5594864E5533
:100BA00095864F5596865055FDDF5155978652557F
:100BB00098865355998654559A865555FBDF565558
:100BC000A2E057559B8658559C8659559D865A5587
:100BD0009E865B559F865C55A8E05D55A0865E5558
:100BE000A1865F55A2866055A3866155C8B7625538
:100BF000A4866355A5866455A1C66555B6C96655D4
:100C0000B2C06755F5DF6855A6866955A7866A554F
:100C1000BEC56B55A8866C55C4D86D55F9DF6E55A9
:100C2000F6C46F55A9867055AA867155AB86725564
:100C3000AC867355AD867455AE867555A3E0765572
:100C4000A4E07755A5E07855A5D07955AF867A55BB
:100C5000B0867B55B4E07C55E4CC7D55B1867E559D
:100C6000B1E07F55B2868055A6BF8155AFE0825571
:100C7000B9CE8355ABE08455C6C98555B386865534
:100C8000B4868755AEC08855AEE08955EDBA8A5511
:100C9000B0BA8B55A9E08C55B5868D55B6868E5564
:100CA000B7868F55F6DF9055B8869155B3E09255CB
:100CB000B9869355BA869455B8E09555BB86965536
:100CC000BC869755BD869855ADB49955B9E09A55EF
:100CD000BE869B55BF869C55B2CF9D55C8BA9E55C2
:100CE000C0869F55B0E0A055C186A155C286A255C9
:100CF000C386A355C486A455C586A555C686A655E4
:100D0000C786A755FAD0A855C886A955C986AA5539
:100D1000CA86AB55CB86AC55CC86AD55CD86AE5587
:100D2000CE86AF55CF86B055D086B155ACE0B25522
:100D3000D186B355FBD4B455D286B555F7DFB65539
:100D4000D386B755E7C5B855D486B955ADE0BA5581
:100D5000D586BB55F7D3BC55D686BD55B6E0BE5536
:100D6000B7E0BF55D786C055D886C155D986C2557C
:100D7000DA86C355DB86C455C4E0C555E1D0C655F7
:100D8000DC86C755DD86C855DE86C955BCE0CA5528
:100D9000DF86CB55E086CC55C9E0CD55CAE0CE55AF
:100DA000E186CF55E286D055E386D155BEE0D255D7
:100DB000AAE0D355A4C9D455C1E0D555E486D6558B
:100DC000B2E0D755E586D855E686D955E786DA5597
:100DD000E886DB55E986DC55C8CADD55C3E0DE553B
:100DE000EA86DF55B5E0E055EB86E155CBCEE2551E
:100DF000EC86E355C3CBE455CDE0E555C6E0E655BA
:100E0000C2E0E755ED86E855CBE0E955EE86EA55B8
:100E1000BAE0EB55BFE0EC55C0E0ED55EF86EE557E
:100E2000F086EF55C5E0F055F186F155F286F255A2
:100E3000C7E0F355C8E0F455F386F555CCE0F65518
:100E4000F486F755BBE0F855F586F955F686FA5560
:100E5000F786FB55F886FC55F986FD55D4CBFE5533
:100E6000D5E0FF55FA860056D6E00156D2E002568C
:100E7000FB860356FC860456FD860556FE860656FE
:100E80004087075641870856D0E00956CEBC0A561F
:100E900042870B5643870C56D1E00D5644870E56B9
:100EA000C2B80F56C5D810564587115646871256F8
:100EB0004787135648871456498715564A8716564A
:100EC0004B8717564C871856EAD019564D871A5635
:100ED0004E871B56EFC21C564F871D5650871E5615
:100EE000CFE01F56BDE0205651872156528722562B
:100EF00053872356D4E02456D3E0255654872656EC
:100F000055872756D7E028565687295657872A5699
:100F100058872B5659872C56DCE02D56D8E02E5694
:100F20005A872F565B8730565C873156F6D6325635
:100F3000B0B333565D873456ECD735565E87365698
:100F4000BBCB37565F87385660873956DAE03A565A
:100F500061873B56FBCE3C5662873D5663873E56C3
:100F600064873F56D9BA40566587415666874256D0
:100F70006787435668874456698745566A87465649
:100F80006B8747566C8748566D8749566E874A5619
:100F90006F874B5670874C56E1E04D56DDE04E565C
:100FA000ADD24F567187505672875156738752563D
:100FB0007487535675875456E2E0555676875656D1
:100FC00077875756DBE05856D9E05956DFE05A5636
:100FD00078875B5679875C56E0E05D567A875E5687
:100FE0007B875F567C8760567D8761567E87625619
:100FF000DEE0635680876456E4E065568187665676
:101000008287675683876856F7C66956ACD86A5692
:10101000EBD46B56E6E06C56C9CA6D5684876E56A3
:1010200085876F568687705687877156E5E07256BA
:1010300088877356898774568A8775568B87765644
:10104000C1B877568C8778568D8779568E877A56B1
:101050008F877B56E7E07C56E8E07D5690877E568A
:1010600091877F56928780569387815694878256C0
:10107000958783569687845697878556E9E08656E6
:10108000E3E0875698878856998789569A878A56C3
:101090009B878B569C878C569D878D569E878E5638
:1010A000BFBA8F56E7CC90569F879156A08792562D
:1010B000A1879356EAE09456A2879556A387965641
:1010C000A4879756A5879856A6879956A7879A56B4
:1010D000A8879B56A9879C56AA879D56AB879E5684
:1010E000AC879F56AD87A056AE87A156AF87A25654
:1010F000B087A356F9CFA456B187A556B287A65696
:10110000B387A756B487A856B587A956B687AA56F7
:10111000B787AB56B887AC56B987AD56BA87AE56C7
:10112000BB87AF56EBE0B056BC87B156BD87B25611
:10113000BE87B356BF87B456C087B556C187B6566B
:10114000C287B756C2C8B856C387B956C487BA56FD
:10115000C587BB56C687BC56C0BDBD56C787BE56E1
:10116000C887BF56C987C056CA87C156CB87C256E3
:10117000CC87C356CD87C456CE87C556CF87C656B3
:10118000D087C756D187C856D287C956D387CA5683
:10119000D2C4CB56D487CC56D587CD56D687CE561B
:1011A000D787CF56D887D056D987D156DA87D25627
:1011B000DB87D356DC87D456ECE0D556DD87D65690
:1011C000DE87D756EDE0D856DF87D956E087DA5666
:1011D000F4C7DB56C4CBDC56E187DD56EEE0DE56C5
:1011E000D8BBDF56B6D8E056F2D2E156EFE0E25671
:1011F000C5CDE356E287E456DAB6E556E387E65610
:10120000E487E756E587E856E687E956E787EA5632
:10121000E887EB56F1E0EC56E987ED56B0D4EE5690
:10122000EA87EF56EB87F056A7C0F156D1B4F256D5
:10123000EC87F356ED87F456A7CEF556F0E0F65658
:10124000EE87F756EF87F856F087F956F2E0FA5630
:10125000CCB9FB56F187FC56F287FD56FAB9FE561B
:10126000BCCDFF56F3E00057F3870157F4870257D0
:10127000F5870357D4C60457F4E00557F687065799
:10128000B2D40757F7870857A6C80957F6E00A5798
:10129000F5E00B57F8870C57F9870D57FA870E576B
:1012A000FB870F57FC871057FD871157FE87125792
:1012B000408813574188145742881557438816575A
:1012C00044881757458818574688195747881A572A
:1012D00048881B5749881C57F7E01D574A881E57F6
:1012E0004B881F57C1CD20574C8821574D88225716
:1012F0004E882357A5CA24574F882557508826570C
:101300005188275752882857DAD42957D7DB2A57CC
:10131000D9DB2B5753882C57D8DB2D57E7B92E57DD
:10132000DCDB2F57DDDB3057D8B5315754883257C7
:1013300055883357DADB3457568835575788365730
:1013400058883757598838575A883957DBDB3A5706
:10135000A1B33B57DFDB3C575B883D575C883E576A
:10136000F8BB3F575D884057B7D641575E88425714
:10137000E0DB43575F88445760884557618846578C
:1013800062884757F9BE48576388495764884A5767
:10139000BBB74B5765884C57D0DB4D57AECC4E573B
:1013A000B2BF4F57B5BB5057F8D75157D3BF52575D
:1013B00066885357678854576888555769885657C1
:1013C0006A885757E9BF58576B8859576C885A57DE
:1013D000E1BC5B57B3CC5C57DEDB5D57D3B05E57E7
:1013E000EBCE5F57D8B76057B9D76157C2C66257BF
:1013F0006D8863576E886457A4C065576F886657B9
:10140000B9CC675770886857E7DB6957E1DB6A57E3
:10141000BAC66B57E3DB6C5771886D57E8DB6E57C4
:1014200072886F57F7C570577388715774887257F1
:1014300075887357EADB74577688755777887657BF
:10144000E9DB7757C0BF78577888795779887A571A
:101450007A887B57E6DB7C57E5DB7D577B887E57B8
:101460007C887F577D8880577E8881578088825707
:10147000B9B48357ACC08457A2C28557E2DB865704
:10148000E4DB8757818888578288895783888A5701
:1014900084888B57CDD08C57EDDB8D5785888E5740
:1014A00086888F5787889057888891578988925760
:1014B000DDC09357F2DB94578A8895578B889657EF
:1014C0008C8897578D8898578E8899578F889A5708
:1014D00090889B57E2B69C5791889D5792889E575B
:1014E00093889F579488A057F3DBA157D2DBA2576C
:1014F000B8B9A357ABD4A457ECDBA5579588A6572A
:10150000D1BFA757F0DBA8579688A957D1DBAA57B8
:101510009788AB57E6B5AC579888AD57EBDBAE571D
:10152000E5BFAF579988B0579A88B1579B88B25793
:10153000EEDBB3579C88B457F1DBB5579D88B6579F
:101540009E88B7579F88B857F9DBB957A088BA5714
:10155000A188BB57A288BC57A388BD57A488BE5793
:10156000A588BF57A688C057A788C157A888C25763
:10157000A1B9C357A3B0C457A988C557AA88C657ED
:10158000AB88C757AC88C857AD88C957AE88CA570B
:10159000AF88CB57F1C2CC57B088CD57B188CE5762
:1015A000C7B3CF57EFDBD057B288D157B388D257E4
:1015B000F8DBD357B488D457D2C6D557F4DBD65707
:1015C000B588D757B688D857F5DBD957F7DBDA5740
:1015D000F6DBDB57B788DC57B888DD57FEDBDE5714
:1015E000B988DF57F2D3E057BAB2E157BA88E25769
:1015F000BB88E357BC88E457FDDBE557BD88E65759
:10160000BE88E757BF88E857C088E957C188EA57BE
:10161000C288EB57C388EC57C488ED57A4DCEE575B
:10162000C588EF57FBDBF057C688F157C788F257DC
:10163000C888F357C988F457FADBF557CA88F657B4
:10164000CB88F757CC88F857FCDBF957E0C5FA5739
:10165000F9BBFB57CD88FC57CE88FD57A3DCFE575E
:10166000CF88FF57D0880058A5DC0158D188025890
:10167000C3CC0358D2880458D3880558D488065858
:10168000D1B60758C0DD0858D5880958D6880A58F9
:10169000D7880B58A1DC0C58D8880D58A2DC0E58FE
:1016A000D9880F58DA881058DB881158B5C71258F6
:1016B000DC881358DD881458DE881558E9B61658AA
:1016C000DF881758E0881858E1881958A7DC1A589D
:1016D000E2881B58E3881C58E4881D58E5881E588A
:1016E000A6DC1F58E6882058A9DC2158A4B122584E
:1016F000E7882358E8882458CCB52558E988265827
:10170000EA882758EB882858EC882958ED882A5809
:10171000B0BF2B58EE882C58EF882D58F0882E58E3
:10172000F1882F58F2883058DFD13158F388325879
:10173000F4883358F5883458F6883558C2B6365888
:10174000F7883758F8883858F9883958FA883A5855
:10175000FB883B58FC883C58FD883D58FE883E5825
:1017600040893F58418940584289415843894258ED
:101770004489435845894458A8DC45584689465809
:101780004789475848894858498949584A894A5891
:101790004B894B584C894C58FACB4D58F3EB4E586B
:1017A0004D894F584E8950584F895158DCCB52586B
:1017B0005089535851895458FECB55585289565820
:1017C0005389575854895858C1CC595855895A5833
:1017D00056895B5857895C5858895D5859895E58B5
:1017E000FBC85F585A8960585B8961585C896258A8
:1017F0005D8963585E8964585F896558AADC6658BC
:1018000060896758618968586289695863896A582C
:1018100064896B58EECC6C58ABDC6D5865896E589A
:1018200066896F58678970586889715869897258D4
:101830006A8973586B8974586C8975586D897658A4
:101840006E8977586F8978587089795871897A5874
:1018500072897B5873897C5874897D5875897E5844
:10186000D3DB7F5876898058AFDC8158ACDC825856
:1018700077898358B3BE845878898558FBCA8658BF
:10188000798987587A8988587B898958ADDC8A5844
:101890007C898B587D898C587E898D5880898E589B
:1018A00081898F5882899058838991588489925868
:1018B000CAC99358B9C49458858995588689965849
:1018C000878997588889985889899958BDC79A589F
:1018D000AEDC9B588A899C588B899D588C899E5870
:1018E000F6D49F58E6D0A0588D89A1588E89A25869
:1018F0008F89A3589089A4589189A5589289A65890
:101900009389A7589489A858ABC4A958D5B6AA58A2
:101910009589AB589689AC589789AD589889AE5837
:101920009989AF589A89B0589B89B1589C89B25807
:101930009D89B3589E89B4589F89B558A089B658D7
:10194000A189B758A289B858A389B958A489BA58A7
:10195000A589BB58A689BC58D4DBBD58A789BE58F9
:10196000A889BF58A989C058AA89C158DAB1C258F4
:10197000AB89C358AC89C458AD89C558D5DBC658A6
:10198000AE89C758AF89C858B089C958B189CA58F3
:10199000B289CB58B389CC58B489CD58B589CE58C3
:1019A000B689CF58B789D058B889D158D6DBD25824
:1019B000B989D358BA89D458BB89D558BEBAD65834
:1019C000BC89D758BD89D858BE89D958BF89DA583B
:1019D000C089DB58C189DC58C289DD58C389DE580B
:1019E000C489DF58C589E058C689E158C789E258DB
:1019F000C889E358C989E458C0C8E558CA89E65877
:101A0000CB89E758CC89E858CD89E958CE89EA587E
:101A1000CF89EB58BFCAEC58C9C8ED58D089EE58E9
:101A2000B3D7EF58D189F058F9C9F158D289F25893
:101A3000D389F358C7BFF458D489F558D589F658D7
:101A4000F8BAF758D689F858D789F958BCD2FA5855
:101A5000D889FB58D989FC58DA89FD58DB89FE58AA
:101A6000DC89FF58DD890059DE890159DF89025977
:101A7000BAE20359E0890459A6B40559E189065927
:101A8000E2890759B8B10859E3890959E4890A5923
:101A9000E5890B59E6890C59E7890D59B4B80E59F7
:101AA000E8890F59C4CF1059E9891159EA891259A7
:101AB000EB891359EC891459E7D91559A6CF165952
:101AC000E2CD1759ED891859EE891959EDD91A59EE
:101AD000E0B61B59EF891C59B9D21D59F0891E591E
:101AE000F1891F59BBB92059F2892159F38922592B
:101AF000F4892359F5892459B9E22559B7E22659C1
:101B0000F6892759F3B42859F7892959ECCC2A5971
:101B1000ABCC2B59F2B72C59F8892D59B2D82E5984
:101B2000EBD12F59BBBA3059F9893159A7CA32596B
:101B3000FA893359FB893459B7CD3559FC8936595F
:101B4000FD893759C4D23859E4BF3959D0BC3A5904
:101B5000E1B63B59FE893C59C5DE3D59408A3E59A4
:101B6000418A3F59428A4059438A4159C6DE425907
:101B7000BCDB4359448A4459D9D14559458A465911
:101B8000468A4759E6C64859CEC44959EEB74A591C
:101B9000478A4B59DCB74C59488A4D59498A4E59A6
:101BA000FCBF4F59E0D750594A8A5159F5C652598E
:101BB0004B8A53594C8A5459BCB15559C8DE5659B1
:101BC000B1BD5759D7CC5859CADE59594D8A5A59BF
:101BD000C9DE5B594E8A5C594F8A5D59508A5E59FD
:101BE000518A5F59528A6059ECB56159538A6259DA
:101BF000DDC96359548A6459558A6559C2B066591A
