Component: ARM Compiler 5.06 update 7 (build 960) Tool: armlink [4d3601]

==============================================================================

Section Cross References

    main.o(i.main) refers to misc.o(i.NVIC_PriorityGroupConfig) for NVIC_PriorityGroupConfig
    main.o(i.main) refers to delay.o(i.Delay_Init) for Delay_Init
    main.o(i.main) refers to buzzer.o(i.Buzzer_Init) for Buzzer_Init
    main.o(i.main) refers to key.o(i.UserKey_Init) for UserKey_Init
    main.o(i.main) refers to led.o(i.LED_Init) for LED_Init
    main.o(i.main) refers to usart1.o(i.USART1_Init) for USART1_Init
    main.o(i.main) refers to printfa.o(i.__0printf) for __2printf
    main.o(i.main) refers to uart4.o(i.UART4_Init) for UART4_Init
    main.o(i.main) refers to uart5.o(i.UART5_Init) for UART5_Init
    main.o(i.main) refers to i2c_device.o(i.i2cdevInit) for i2cdevInit
    main.o(i.main) refers to flash.o(i.LoadConfigData) for LoadConfigData
    main.o(i.main) refers to utils.o(i.FileSystem_Init) for FileSystem_Init
    main.o(i.main) refers to adc.o(i.ADCx_Init) for ADCx_Init
    main.o(i.main) refers to servo.o(i.Servo_Init) for Servo_Init
    main.o(i.main) refers to can.o(i.CAN_Mode_Init) for CAN_Mode_Init
    main.o(i.main) refers to tasks.o(i.xTaskCreate) for xTaskCreate
    main.o(i.main) refers to tasks.o(i.vTaskStartScheduler) for vTaskStartScheduler
    main.o(i.main) refers to ff.o(i.f_mount) for f_mount
==============================================================================

Removing Unused input sections from the image.

    Removing sensors.o(i.applyAxis3fLpf), (40 bytes).
    Removing sensors.o(i.getIsMPU9250Present), (20 bytes).
    Removing sensors.o(i.getSensorRawData), (48 bytes).
    Removing sensors.o(i.processAccGyroMeasurements), (368 bytes).
    Removing sensors.o(i.processAccScale), (204 bytes).
    Removing sensors.o(i.processGyroBias), (88 bytes).
    Removing sensors.o(i.processMagnetometerMeasurements), (124 bytes).
    Removing sensors.o(i.sensorsAddBiasValue), (46 bytes).
    Removing sensors.o(i.sensorsAreCalibrated), (12 bytes).
    Removing sensors.o(i.sensorsCalculateVarianceAndMean), (440 bytes).
    Removing sensors.o(i.sensorsFindBiasValue), (88 bytes).
    Removing sensors.o(i.sensorsTest), (44 bytes).
    Removing filter.o(i.iirLPFilterSingle), (50 bytes).
    Removing filter.o(i.lpf2pApply), (122 bytes).
    Removing filter.o(i.lpf2pReset), (52 bytes).
    Removing utils.o(i.Erase_SPI_Flash), (44 bytes).
    Removing utils.o(i.FileSystem_Test), (780 bytes).
    Removing utils.o(i.printAssertSnapshotData), (100 bytes).
==============================================================================

Image Symbol Table

    Local Symbols

    Symbol Name                              Value     Ov Type        Size  Object(Section)

    ../clib/../cmprslib/zerorunl2.c          0x00000000   Number         0  __dczerorl2.o ABSOLUTE
    ../clib/microlib/division.c              0x00000000   Number         0  uldiv.o ABSOLUTE
    ../clib/microlib/division.c              0x00000000   Number         0  ldiv.o ABSOLUTE
    ../clib/microlib/division.c              0x00000000   Number         0  uidiv.o ABSOLUTE
    ../clib/microlib/errno.c                 0x00000000   Number         0  errno.o ABSOLUTE
    ../clib/microlib/init/entry.s            0x00000000   Number         0  entry.o ABSOLUTE
    ../clib/microlib/init/entry.s            0x00000000   Number         0  entry9b.o ABSOLUTE
    ../clib/microlib/init/entry.s            0x00000000   Number         0  entry11b.o ABSOLUTE
    ../clib/microlib/init/entry.s            0x00000000   Number         0  entry2.o ABSOLUTE
    ../clib/microlib/init/entry.s            0x00000000   Number         0  entry10b.o ABSOLUTE
    ../clib/microlib/init/entry.s            0x00000000   Number         0  entry12b.o ABSOLUTE
    ../clib/microlib/init/entry.s            0x00000000   Number         0  entry8a.o ABSOLUTE
    ../clib/microlib/init/entry.s            0x00000000   Number         0  entry12a.o ABSOLUTE
    ../clib/microlib/init/entry.s            0x00000000   Number         0  entry10a.o ABSOLUTE
    ../clib/microlib/init/entry.s            0x00000000   Number         0  entry8b.o ABSOLUTE
    ../clib/microlib/init/entry.s            0x00000000   Number         0  entry7a.o ABSOLUTE
    ../clib/microlib/init/entry.s            0x00000000   Number         0  entry9a.o ABSOLUTE
    ../clib/microlib/init/entry.s            0x00000000   Number         0  entry5.o ABSOLUTE
    ../clib/microlib/init/entry.s            0x00000000   Number         0  entry7b.o ABSOLUTE
    ../clib/microlib/init/entry.s            0x00000000   Number         0  entry11a.o ABSOLUTE
    ../clib/microlib/longlong.c              0x00000000   Number         0  llsshr.o ABSOLUTE
    ../clib/microlib/longlong.c              0x00000000   Number         0  llshl.o ABSOLUTE
    ../clib/microlib/longlong.c              0x00000000   Number         0  llushr.o ABSOLUTE
    ../clib/microlib/printf/printf.c         0x00000000   Number         0  printfb.o ABSOLUTE
    ../clib/microlib/printf/printf.c         0x00000000   Number         0  printf1.o ABSOLUTE
    ../clib/microlib/printf/printf.c         0x00000000   Number         0  printfa.o ABSOLUTE
    ../clib/microlib/printf/printf.c         0x00000000   Number         0  printf7.o ABSOLUTE
    ../clib/microlib/printf/printf.c         0x00000000   Number         0  printf6.o ABSOLUTE
    ../clib/microlib/printf/printf.c         0x00000000   Number         0  printf5.o ABSOLUTE
    ../clib/microlib/printf/printf.c         0x00000000   Number         0  printf4.o ABSOLUTE
    ../clib/microlib/printf/printf.c         0x00000000   Number         0  printf3.o ABSOLUTE
    ../clib/microlib/printf/printf.c         0x00000000   Number         0  printf2.o ABSOLUTE
    ../clib/microlib/printf/printf.c         0x00000000   Number         0  printf0.o ABSOLUTE
    ../clib/microlib/printf/printf.c         0x00000000   Number         0  printf8.o ABSOLUTE
    ../clib/microlib/printf/stubs.s          0x00000000   Number         0  stubs.o ABSOLUTE
    ../clib/microlib/stdio/streams.c         0x00000000   Number         0  stdout.o ABSOLUTE
    ../clib/microlib/string/memcpy.c         0x00000000   Number         0  memcpya.o ABSOLUTE
    ../clib/microlib/string/memcpy.c         0x00000000   Number         0  memcpyb.o ABSOLUTE
    ../clib/microlib/string/memset.c         0x00000000   Number         0  memseta.o ABSOLUTE
    ../clib/microlib/string/strcpy.c         0x00000000   Number         0  strcpy.o ABSOLUTE
    ../clib/microlib/string/strlen.c         0x00000000   Number         0  strlen.o ABSOLUTE
    ../clib/microlib/stubs.s                 0x00000000   Number         0  iusefp.o ABSOLUTE
    ../fplib/microlib/d2f.c                  0x00000000   Number         0  d2f.o ABSOLUTE
    ../fplib/microlib/f2d.c                  0x00000000   Number         0  f2d.o ABSOLUTE
    ../fplib/microlib/fpadd.c                0x00000000   Number         0  fadd.o ABSOLUTE
    ../fplib/microlib/fpadd.c                0x00000000   Number         0  dadd.o ABSOLUTE
    ../fplib/microlib/fpdiv.c                0x00000000   Number         0  fdiv.o ABSOLUTE
    ../fplib/microlib/fpdiv.c                0x00000000   Number         0  ddiv.o ABSOLUTE
    ../fplib/microlib/fpepilogue.c           0x00000000   Number         0  fepilogue.o ABSOLUTE
    ../fplib/microlib/fpepilogue.c           0x00000000   Number         0  depilogue.o ABSOLUTE
    ../fplib/microlib/fpfix.c                0x00000000   Number         0  ffixir.o ABSOLUTE
    ../fplib/microlib/fpfix.c                0x00000000   Number         0  dfixui.o ABSOLUTE
    ../fplib/microlib/fpfix.c                0x00000000   Number         0  dfixul.o ABSOLUTE
    ../fplib/microlib/fpfix.c                0x00000000   Number         0  dfixi.o ABSOLUTE
    ../fplib/microlib/fpfix.c                0x00000000   Number         0  ffixui.o ABSOLUTE
    ../fplib/microlib/fpfix.c                0x00000000   Number         0  ffixi.o ABSOLUTE
    ../fplib/microlib/fpflt.c                0x00000000   Number         0  dfltui.o ABSOLUTE
    ../fplib/microlib/fpflt.c                0x00000000   Number         0  ffltui.o ABSOLUTE
    ../fplib/microlib/fpflt.c                0x00000000   Number         0  dflti.o ABSOLUTE
    ../fplib/microlib/fpflt.c                0x00000000   Number         0  ffltl.o ABSOLUTE
    ../fplib/microlib/fpflt.c                0x00000000   Number         0  fflti.o ABSOLUTE
    ../fplib/microlib/fpmul.c                0x00000000   Number         0  dmul.o ABSOLUTE
    ../fplib/microlib/fpmul.c                0x00000000   Number         0  fmul.o ABSOLUTE
    ../fplib/microlib/fprnd.c                0x00000000   Number         0  frnd.o ABSOLUTE
    ../fplib/microlib/fpscalb.c              0x00000000   Number         0  dscalb.o ABSOLUTE
    ../fplib/microlib/fpscalb.c              0x00000000   Number         0  fscalb.o ABSOLUTE
    ../fplib/microlib/fpsqrt.c               0x00000000   Number         0  fsqrt.o ABSOLUTE
    ../fplib/microlib/fpstat.c               0x00000000   Number         0  fpstat.o ABSOLUTE
    ../mathlib/atan.c                        0x00000000   Number         0  atan_x.o ABSOLUTE
    ../mathlib/atan.c                        0x00000000   Number         0  atan.o ABSOLUTE
    ../mathlib/cosf.c                        0x00000000   Number         0  cosf_x.o ABSOLUTE
    ../mathlib/cosf.c                        0x00000000   Number         0  cosf.o ABSOLUTE
    ../mathlib/dunder.c                      0x00000000   Number         0  dunder.o ABSOLUTE
    ../mathlib/fpclassify.c                  0x00000000   Number         0  fpclassify.o ABSOLUTE
    ../mathlib/fpclassifyf.c                 0x00000000   Number         0  fpclassifyf.o ABSOLUTE
    ../mathlib/funder.c                      0x00000000   Number         0  funder.o ABSOLUTE
    ../mathlib/poly.c                        0x00000000   Number         0  poly.o ABSOLUTE
    ../mathlib/powf.c                        0x00000000   Number         0  powf.o ABSOLUTE
    ../mathlib/powf.c                        0x00000000   Number         0  powf_x.o ABSOLUTE
    ../mathlib/rredf.c                       0x00000000   Number         0  rredf.o ABSOLUTE
    ../mathlib/sqrtf.c                       0x00000000   Number         0  sqrtf.o ABSOLUTE
    ../mathlib/sqrtf.c                       0x00000000   Number         0  sqrtf_x.o ABSOLUTE
    ../mathlib/tanf.c                        0x00000000   Number         0  tanf.o ABSOLUTE
    ../mathlib/tanf.c                        0x00000000   Number         0  tanf_x.o ABSOLUTE
    Src\BSP\CMSIS\CM3\DeviceSupport\ST\STM32F10x\startup\arm\startup_stm32f10x_hd.s 0x00000000   Number         0  startup_stm32f10x_hd.o ABSOLUTE
    Src\BSP\CMSIS\CM3\DeviceSupport\ST\STM32F10x\system_stm32f10x.c 0x00000000   Number         0  system_stm32f10x.o ABSOLUTE
    Src\BSP\adc.c                            0x00000000   Number         0  adc.o ABSOLUTE
    Src\BSP\ak8963.c                         0x00000000   Number         0  ak8963.o ABSOLUTE
    Src\BSP\buzzer.c                         0x00000000   Number         0  buzzer.o ABSOLUTE
    Src\BSP\can.c                            0x00000000   Number         0  can.o ABSOLUTE
    Src\BSP\delay.c                          0x00000000   Number         0  delay.o ABSOLUTE
    Src\BSP\flash.c                          0x00000000   Number         0  flash.o ABSOLUTE
    Src\BSP\i2c_device.c                     0x00000000   Number         0  i2c_device.o ABSOLUTE
    Src\BSP\i2c_driver.c                     0x00000000   Number         0  i2c_driver.o ABSOLUTE
    Src\BSP\i2c_oled.c                       0x00000000   Number         0  i2c_oled.o ABSOLUTE
    Src\BSP\key.c                            0x00000000   Number         0  key.o ABSOLUTE
    Src\BSP\led.c                            0x00000000   Number         0  led.o ABSOLUTE
    Src\BSP\motor.c                          0x00000000   Number         0  motor.o ABSOLUTE
    Src\BSP\mpu9250.c                        0x00000000   Number         0  mpu9250.o ABSOLUTE
    Src\BSP\nrf24l01.c                       0x00000000   Number         0  nrf24l01.o ABSOLUTE
    Src\BSP\power_control.c                  0x00000000   Number         0  power_control.o ABSOLUTE
    Src\BSP\servo.c                          0x00000000   Number         0  servo.o ABSOLUTE
    Src\BSP\spi_flash.c                      0x00000000   Number         0  spi_flash.o ABSOLUTE
    Src\BSP\uart4.c                          0x00000000   Number         0  uart4.o ABSOLUTE
    Src\BSP\uart5.c                          0x00000000   Number         0  uart5.o ABSOLUTE
    Src\BSP\usart1.c                         0x00000000   Number         0  usart1.o ABSOLUTE
    Src\BSP\watchdog.c                       0x00000000   Number         0  watchdog.o ABSOLUTE
    Src\EKF\double_matrix.c                  0x00000000   Number         0  double_matrix.o ABSOLUTE
    Src\EKF\ekf.c                            0x00000000   Number         0  ekf.o ABSOLUTE
    Src\EKF\ekf2.c                           0x00000000   Number         0  ekf2.o ABSOLUTE
    Src\EKF\fast_math.c                      0x00000000   Number         0  fast_math.o ABSOLUTE
    Src\EKF\matrix.c                         0x00000000   Number         0  matrix.o ABSOLUTE
    Src\EKF\mini_matrix.c                    0x00000000   Number         0  mini_matrix.o ABSOLUTE
    Src\EKF\quaternion.c                     0x00000000   Number         0  quaternion.o ABSOLUTE
    Src\FatFs\diskio.c                       0x00000000   Number         0  diskio.o ABSOLUTE
    Src\FatFs\ff.c                           0x00000000   Number         0  ff.o ABSOLUTE
    Src\FatFs\option\cc936.c                 0x00000000   Number         0  cc936.o ABSOLUTE
    Src\FreeRTOS\list.c                      0x00000000   Number         0  list.o ABSOLUTE
    Src\FreeRTOS\portable\MemMang\heap_4.c   0x00000000   Number         0  heap_4.o ABSOLUTE
    Src\FreeRTOS\portable\RVDS\ARM_CM3\port.c 0x00000000   Number         0  port.o ABSOLUTE
    Src\FreeRTOS\queue.c                     0x00000000   Number         0  queue.o ABSOLUTE
    Src\FreeRTOS\tasks.c                     0x00000000   Number         0  tasks.o ABSOLUTE
    Src\FreeRTOS\timers.c                    0x00000000   Number         0  timers.o ABSOLUTE
    Src\STM32F10x_StdPeriph_Driver\src\misc.c 0x00000000   Number         0  misc.o ABSOLUTE
    Src\STM32F10x_StdPeriph_Driver\src\stm32f10x_adc.c 0x00000000   Number         0  stm32f10x_adc.o ABSOLUTE
    Src\STM32F10x_StdPeriph_Driver\src\stm32f10x_can.c 0x00000000   Number         0  stm32f10x_can.o ABSOLUTE
    Src\STM32F10x_StdPeriph_Driver\src\stm32f10x_crc.c 0x00000000   Number         0  stm32f10x_crc.o ABSOLUTE
    Src\STM32F10x_StdPeriph_Driver\src\stm32f10x_dbgmcu.c 0x00000000   Number         0  stm32f10x_dbgmcu.o ABSOLUTE
    Src\STM32F10x_StdPeriph_Driver\src\stm32f10x_dma.c 0x00000000   Number         0  stm32f10x_dma.o ABSOLUTE
    Src\STM32F10x_StdPeriph_Driver\src\stm32f10x_exti.c 0x00000000   Number         0  stm32f10x_exti.o ABSOLUTE
    Src\STM32F10x_StdPeriph_Driver\src\stm32f10x_flash.c 0x00000000   Number         0  stm32f10x_flash.o ABSOLUTE
    Src\STM32F10x_StdPeriph_Driver\src\stm32f10x_gpio.c 0x00000000   Number         0  stm32f10x_gpio.o ABSOLUTE
    Src\STM32F10x_StdPeriph_Driver\src\stm32f10x_i2c.c 0x00000000   Number         0  stm32f10x_i2c.o ABSOLUTE
    Src\STM32F10x_StdPeriph_Driver\src\stm32f10x_iwdg.c 0x00000000   Number         0  stm32f10x_iwdg.o ABSOLUTE
    Src\STM32F10x_StdPeriph_Driver\src\stm32f10x_pwr.c 0x00000000   Number         0  stm32f10x_pwr.o ABSOLUTE
    Src\STM32F10x_StdPeriph_Driver\src\stm32f10x_rcc.c 0x00000000   Number         0  stm32f10x_rcc.o ABSOLUTE
    Src\STM32F10x_StdPeriph_Driver\src\stm32f10x_rtc.c 0x00000000   Number         0  stm32f10x_rtc.o ABSOLUTE
    Src\STM32F10x_StdPeriph_Driver\src\stm32f10x_sdio.c 0x00000000   Number         0  stm32f10x_sdio.o ABSOLUTE
    Src\STM32F10x_StdPeriph_Driver\src\stm32f10x_spi.c 0x00000000   Number         0  stm32f10x_spi.o ABSOLUTE
    Src\STM32F10x_StdPeriph_Driver\src\stm32f10x_tim.c 0x00000000   Number         0  stm32f10x_tim.o ABSOLUTE
    Src\STM32F10x_StdPeriph_Driver\src\stm32f10x_usart.c 0x00000000   Number         0  stm32f10x_usart.o ABSOLUTE
    Src\STM32F10x_StdPeriph_Driver\src\stm32f10x_wwdg.c 0x00000000   Number         0  stm32f10x_wwdg.o ABSOLUTE
    Src\System\filter.c                      0x00000000   Number         0  filter.o ABSOLUTE
    Src\System\obstacle.c                    0x00000000   Number         0  obstacle.o ABSOLUTE
    Src\System\radio.c                       0x00000000   Number         0  radio.o ABSOLUTE
    Src\System\sensors.c                     0x00000000   Number         0  sensors.o ABSOLUTE
    Src\System\utils.c                       0x00000000   Number         0  utils.o ABSOLUTE
    Src\User\main.c                          0x00000000   Number         0  main.o ABSOLUTE
    Src\User\stm32f10x_it.c                  0x00000000   Number         0  stm32f10x_it.o ABSOLUTE
    Src\\FreeRTOS\\portable\\RVDS\\ARM_CM3\\port.c 0x00000000   Number         0  port.o ABSOLUTE
    Src\\User\\stm32f10x_it.c                0x00000000   Number         0  stm32f10x_it.o ABSOLUTE
    cdcmple.s                                0x00000000   Number         0  cdcmple.o ABSOLUTE
    cdrcmple.s                               0x00000000   Number         0  cdrcmple.o ABSOLUTE
    cfcmple.s                                0x00000000   Number         0  cfcmple.o ABSOLUTE
    cfrcmple.s                               0x00000000   Number         0  cfrcmple.o ABSOLUTE
    dc.s                                     0x00000000   Number         0  dc.o ABSOLUTE
    handlers.s                               0x00000000   Number         0  handlers.o ABSOLUTE
    init.s                                   0x00000000   Number         0  init.o ABSOLUTE
    RESET                                    0x08000000   Section      304  startup_stm32f10x_hd.o(RESET)
    .ARM.Collect$$$$00000000                 0x08000130   Section        0  entry.o(.ARM.Collect$$$$00000000)
    .ARM.Collect$$$$00000001                 0x08000130   Section        4  entry2.o(.ARM.Collect$$$$00000001)
    .ARM.Collect$$$$00000004                 0x08000134   Section        4  entry5.o(.ARM.Collect$$$$00000004)
    .ARM.Collect$$$$00000008                 0x08000138   Section        0  entry7b.o(.ARM.Collect$$$$00000008)
    .ARM.Collect$$$$0000000A                 0x08000138   Section        0  entry8b.o(.ARM.Collect$$$$0000000A)
    .ARM.Collect$$$$0000000B                 0x08000138   Section        8  entry9a.o(.ARM.Collect$$$$0000000B)
    .ARM.Collect$$$$0000000E                 0x08000140   Section        4  entry12b.o(.ARM.Collect$$$$0000000E)
    .ARM.Collect$$$$0000000F                 0x08000144   Section        0  entry10a.o(.ARM.Collect$$$$0000000F)
    .ARM.Collect$$$$00000011                 0x08000144   Section        0  entry11a.o(.ARM.Collect$$$$00000011)
    .ARM.Collect$$$$00002712                 0x08000144   Section        4  entry2.o(.ARM.Collect$$$$00002712)
    __lit__00000000                          0x08000144   Data           4  entry2.o(.ARM.Collect$$$$00002712)
    .emb_text                                0x08000148   Section       18  stm32f10x_it.o(.emb_text)
    .emb_text                                0x0800015c   Section      150  port.o(.emb_text)
    .text                                    0x080001f4   Section       36  startup_stm32f10x_hd.o(.text)
    .text                                    0x08000218   Section        0  memcpya.o(.text)
    .text                                    0x0800023c   Section        0  memseta.o(.text)
    .text                                    0x08000260   Section        0  strlen.o(.text)
    .text                                    0x0800026e   Section        0  strcpy.o(.text)
    .text                                    0x08000280   Section        0  fadd.o(.text)
    .text                                    0x08000330   Section        0  fmul.o(.text)
    .text                                    0x08000394   Section        0  fdiv.o(.text)
    .text                                    0x08000410   Section        0  dadd.o(.text)
    .text                                    0x0800055e   Section        0  dmul.o(.text)
    .text                                    0x08000642   Section        0  ddiv.o(.text)
    .text                                    0x08000720   Section        0  fflti.o(.text)
    .text                                    0x08000732   Section        0  ffltui.o(.text)
    .text                                    0x0800073c   Section        0  dflti.o(.text)
    .text                                    0x0800075e   Section        0  ffixi.o(.text)
    .text                                    0x08000790   Section        0  ffixui.o(.text)
    .text                                    0x080007b8   Section        0  dfixi.o(.text)
    .text                                    0x080007f6   Section        0  f2d.o(.text)
    .text                                    0x0800081c   Section       48  cdcmple.o(.text)
    .text                                    0x0800084c   Section       48  cdrcmple.o(.text)
    .text                                    0x0800087c   Section        0  d2f.o(.text)
    .text                                    0x080008b4   Section       20  cfcmple.o(.text)
    .text                                    0x080008c8   Section       20  cfrcmple.o(.text)
    .text                                    0x080008dc   Section        0  uidiv.o(.text)
    .text                                    0x08000908   Section        0  uldiv.o(.text)
    .text                                    0x0800096a   Section        0  llshl.o(.text)
    .text                                    0x08000988   Section        0  llushr.o(.text)
    .text                                    0x080009a8   Section        0  llsshr.o(.text)
    .text                                    0x080009cc   Section        0  fepilogue.o(.text)
    .text                                    0x080009cc   Section        0  iusefp.o(.text)
    .text                                    0x08000a3a   Section        0  fscalb.o(.text)
    .text                                    0x08000a52   Section        0  frnd.o(.text)
    .text                                    0x08000a8e   Section        0  depilogue.o(.text)
    .text                                    0x08000b48   Section        0  dscalb.o(.text)
    .text                                    0x08000b76   Section        0  dfixul.o(.text)
    .text                                    0x08000ba8   Section       36  init.o(.text)
    .text                                    0x08000bcc   Section        0  __dczerorl2.o(.text)
    i.ADC_Cmd                                0x08000c22   Section        0  stm32f10x_adc.o(i.ADC_Cmd)
    i.ADC_DMACmd                             0x08000c38   Section        0  stm32f10x_adc.o(i.ADC_DMACmd)
    i.ADC_GetCalibrationStatus               0x08000c4e   Section        0  stm32f10x_adc.o(i.ADC_GetCalibrationStatus)
    i.ADC_GetResetCalibrationStatus          0x08000c62   Section        0  stm32f10x_adc.o(i.ADC_GetResetCalibrationStatus)
    i.ADC_Init                               0x08000c78   Section        0  stm32f10x_adc.o(i.ADC_Init)
    i.ADC_RegularChannelConfig               0x08000cc8   Section        0  stm32f10x_adc.o(i.ADC_RegularChannelConfig)
    i.ADC_ResetCalibration                   0x08000d80   Section        0  stm32f10x_adc.o(i.ADC_ResetCalibration)
    i.ADC_SoftwareStartConvCmd               0x08000d8a   Section        0  stm32f10x_adc.o(i.ADC_SoftwareStartConvCmd)
    i.ADC_StartCalibration                   0x08000da0   Section        0  stm32f10x_adc.o(i.ADC_StartCalibration)
    i.ADCx_GPIO_Config                       0x08000dac   Section        0  adc.o(i.ADCx_GPIO_Config)
    ADCx_GPIO_Config                         0x08000dad   Thumb Code    32  adc.o(i.ADCx_GPIO_Config)
    i.ADCx_Init                              0x08000dd0   Section        0  adc.o(i.ADCx_Init)
    i.ADCx_Mode_Config                       0x08000ddc   Section        0  adc.o(i.ADCx_Mode_Config)
    ADCx_Mode_Config                         0x08000ddd   Thumb Code   240  adc.o(i.ADCx_Mode_Config)
    i.ADJ_Outpt_Init                         0x08000ed8   Section        0  power_control.o(i.ADJ_Outpt_Init)
    i.BusFault_Handler                       0x08000f10   Section        0  stm32f10x_it.o(i.BusFault_Handler)
    i.Buzzer_Init                            0x08000f14   Section        0  buzzer.o(i.Buzzer_Init)
    i.CAN_FilterInit                         0x08000fc0   Section        0  stm32f10x_can.o(i.CAN_FilterInit)
    i.CAN_Init                               0x080010c8   Section        0  stm32f10x_can.o(i.CAN_Init)
    i.CAN_Mode_Init                          0x080011dc   Section        0  can.o(i.CAN_Mode_Init)
    i.CAN_Transmit                           0x080012ac   Section        0  stm32f10x_can.o(i.CAN_Transmit)
    i.CAN_TransmitStatus                     0x080013d4   Section        0  stm32f10x_can.o(i.CAN_TransmitStatus)
    i.CRC_Table                              0x08001474   Section        0  utils.o(i.CRC_Table)
    i.Calcultate_RotationMatrix              0x080014ac   Section        0  ekf.o(i.Calcultate_RotationMatrix)
    Calcultate_RotationMatrix                0x080014ad   Thumb Code   452  ekf.o(i.Calcultate_RotationMatrix)
    i.CanSendMsg                             0x08001670   Section        0  can.o(i.CanSendMsg)
    i.DMA1_Channel5_IRQHandler               0x080016dc   Section        0  i2c_driver.o(i.DMA1_Channel5_IRQHandler)
    i.DMA_ClearITPendingBit                  0x080016ec   Section        0  stm32f10x_dma.o(i.DMA_ClearITPendingBit)
    i.DMA_Cmd                                0x08001708   Section        0  stm32f10x_dma.o(i.DMA_Cmd)
    i.DMA_DeInit                             0x08001720   Section        0  stm32f10x_dma.o(i.DMA_DeInit)
    i.DMA_GetFlagStatus                      0x0800186c   Section        0  stm32f10x_dma.o(i.DMA_GetFlagStatus)
    i.DMA_ITConfig                           0x08001898   Section        0  stm32f10x_dma.o(i.DMA_ITConfig)
    i.DMA_Init                               0x080018aa   Section        0  stm32f10x_dma.o(i.DMA_Init)
    i.DebugMon_Handler                       0x080018e6   Section        0  stm32f10x_it.o(i.DebugMon_Handler)
    i.Delay_Init                             0x080018e8   Section        0  delay.o(i.Delay_Init)
    i.Duty_to_PWM                            0x0800192c   Section        0  servo.o(i.Duty_to_PWM)
    i.EKF_AHRSInit                           0x08001954   Section        0  ekf.o(i.EKF_AHRSInit)
    i.EXTI0_IRQHandler                       0x08001978   Section        0  motor.o(i.EXTI0_IRQHandler)
    i.EXTI15_10_IRQHandler                   0x080019ec   Section        0  nrf24l01.o(i.EXTI15_10_IRQHandler)
    i.EXTI2_IRQHandler                       0x08001a14   Section        0  sensors.o(i.EXTI2_IRQHandler)
    i.EXTI3_IRQHandler                       0x08001a54   Section        0  motor.o(i.EXTI3_IRQHandler)
    i.EXTI_ClearITPendingBit                 0x08001ac8   Section        0  stm32f10x_exti.o(i.EXTI_ClearITPendingBit)
    i.EXTI_GetITStatus                       0x08001ad4   Section        0  stm32f10x_exti.o(i.EXTI_GetITStatus)
    i.EXTI_Init                              0x08001afc   Section        0  stm32f10x_exti.o(i.EXTI_Init)
    i.FLASH_ClearFlag                        0x08001b90   Section        0  stm32f10x_flash.o(i.FLASH_ClearFlag)
    i.FLASH_ErasePage                        0x08001b9c   Section        0  stm32f10x_flash.o(i.FLASH_ErasePage)
    i.FLASH_GetBank1Status                   0x08001be8   Section        0  stm32f10x_flash.o(i.FLASH_GetBank1Status)
    i.FLASH_Lock                             0x08001c1c   Section        0  stm32f10x_flash.o(i.FLASH_Lock)
    i.FLASH_ProgramWord                      0x08001c30   Section        0  stm32f10x_flash.o(i.FLASH_ProgramWord)
    i.FLASH_Unlock                           0x08001c9c   Section        0  stm32f10x_flash.o(i.FLASH_Unlock)
    i.FLASH_WaitForLastOperation             0x08001cb4   Section        0  stm32f10x_flash.o(i.FLASH_WaitForLastOperation)
    i.FastAbs                                0x08001cda   Section        0  quaternion.o(i.FastAbs)
    FastAbs                                  0x08001cdb   Thumb Code    18  quaternion.o(i.FastAbs)
    i.FastSqrt                               0x08001cec   Section        0  fast_math.o(i.FastSqrt)
    i.FastSqrtI                              0x08001d00   Section        0  fast_math.o(i.FastSqrtI)
    i.FileSystem_Init                        0x08001d4c   Section        0  utils.o(i.FileSystem_Init)
    i.GPIO_EXTILineConfig                    0x08001ff8   Section        0  stm32f10x_gpio.o(i.GPIO_EXTILineConfig)
    i.GPIO_Init                              0x08002038   Section        0  stm32f10x_gpio.o(i.GPIO_Init)
    i.GPIO_PinRemapConfig                    0x08002150   Section        0  stm32f10x_gpio.o(i.GPIO_PinRemapConfig)
    i.GPIO_ReadInputDataBit                  0x080021e0   Section        0  stm32f10x_gpio.o(i.GPIO_ReadInputDataBit)
    i.GPIO_ResetBits                         0x080021f2   Section        0  stm32f10x_gpio.o(i.GPIO_ResetBits)
    i.GPIO_SetBits                           0x080021f6   Section        0  stm32f10x_gpio.o(i.GPIO_SetBits)
    i.GPIO_StructInit                        0x080021fa   Section        0  stm32f10x_gpio.o(i.GPIO_StructInit)
    i.Get_AccGyroData                        0x0800220c   Section        0  sensors.o(i.Get_AccGyroData)
    i.Get_MagData                            0x08002314   Section        0  sensors.o(i.Get_MagData)
    i.I2C2_ER_IRQHandler                     0x08002374   Section        0  i2c_driver.o(i.I2C2_ER_IRQHandler)
    i.I2C2_EV_IRQHandler                     0x08002384   Section        0  i2c_driver.o(i.I2C2_EV_IRQHandler)
    i.I2C_AcknowledgeConfig                  0x08002394   Section        0  stm32f10x_i2c.o(i.I2C_AcknowledgeConfig)
    i.I2C_ClearFlag                          0x080023ac   Section        0  stm32f10x_i2c.o(i.I2C_ClearFlag)
    i.I2C_DMACmd                             0x080023b8   Section        0  stm32f10x_i2c.o(i.I2C_DMACmd)
    i.I2C_DMALastTransferCmd                 0x080023d0   Section        0  stm32f10x_i2c.o(i.I2C_DMALastTransferCmd)
    i.I2C_DeInit                             0x080023e8   Section        0  stm32f10x_i2c.o(i.I2C_DeInit)
    i.I2C_GetFlagStatus                      0x08002420   Section        0  stm32f10x_i2c.o(i.I2C_GetFlagStatus)
    i.I2C_ITConfig                           0x0800245a   Section        0  stm32f10x_i2c.o(i.I2C_ITConfig)
    i.I2C_Init                               0x0800246c   Section        0  stm32f10x_i2c.o(i.I2C_Init)
    i.I2C_ReceiveData                        0x08002558   Section        0  stm32f10x_i2c.o(i.I2C_ReceiveData)
    i.I2C_Send7bitAddress                    0x08002560   Section        0  stm32f10x_i2c.o(i.I2C_Send7bitAddress)
    i.I2C_SendData                           0x08002572   Section        0  stm32f10x_i2c.o(i.I2C_SendData)
    i.IWDG_ReloadCounter                     0x08002578   Section        0  stm32f10x_iwdg.o(i.IWDG_ReloadCounter)
    i.LED_Init                               0x08002588   Section        0  led.o(i.LED_Init)
    i.LoadConfigData                         0x080025b8   Section        0  flash.o(i.LoadConfigData)
    i.MAIN_Output_Init                       0x08002698   Section        0  power_control.o(i.MAIN_Output_Init)
    i.MemManage_Handler                      0x080026d0   Section        0  stm32f10x_it.o(i.MemManage_Handler)
    i.MenuTask                               0x080026e4   Section        0  i2c_oled.o(i.MenuTask)
    i.Motor1_Brake                           0x080028c4   Section        0  motor.o(i.Motor1_Brake)
    i.Motor1_Encoder_Init                    0x080028dc   Section        0  motor.o(i.Motor1_Encoder_Init)
    i.Motor1_Speed_Control                   0x08002948   Section        0  motor.o(i.Motor1_Speed_Control)
    i.Motor2_Brake                           0x08002a5c   Section        0  motor.o(i.Motor2_Brake)
    i.Motor2_Encoder_Init                    0x08002a74   Section        0  motor.o(i.Motor2_Encoder_Init)
    i.Motor2_Speed_Control                   0x08002ae0   Section        0  motor.o(i.Motor2_Speed_Control)
    i.MotorTask                              0x08002bf4   Section        0  motor.o(i.MotorTask)
    i.Motor_Init                             0x08002d30   Section        0  motor.o(i.Motor_Init)
    i.Motor_PWM_Duty                         0x08002d4c   Section        0  motor.o(i.Motor_PWM_Duty)
    i.Motor_Speed_Calculate                  0x08002d98   Section        0  motor.o(i.Motor_Speed_Calculate)
    i.NMI_Handler                            0x08002e78   Section        0  stm32f10x_it.o(i.NMI_Handler)
    i.NRF_Init                               0x08002e7c   Section        0  nrf24l01.o(i.NRF_Init)
    i.NRF_LowLevel_Init                      0x08002f14   Section        0  nrf24l01.o(i.NRF_LowLevel_Init)
    NRF_LowLevel_Init                        0x08002f15   Thumb Code   280  nrf24l01.o(i.NRF_LowLevel_Init)
    i.NVIC_Init                              0x08003040   Section        0  misc.o(i.NVIC_Init)
    i.NVIC_PriorityGroupConfig               0x080030b0   Section        0  misc.o(i.NVIC_PriorityGroupConfig)
    i.OLED_CLS                               0x080030c4   Section        0  i2c_oled.o(i.OLED_CLS)
    i.OLED_DrawBMP                           0x0800310c   Section        0  i2c_oled.o(i.OLED_DrawBMP)
    i.OLED_Init                              0x0800317c   Section        0  i2c_oled.o(i.OLED_Init)
    i.OLED_SetPos                            0x08003238   Section        0  i2c_oled.o(i.OLED_SetPos)
    i.OLED_ShowParm                          0x0800325c   Section        0  i2c_oled.o(i.OLED_ShowParm)
    i.OLED_ShowStr                           0x0800338c   Section        0  i2c_oled.o(i.OLED_ShowStr)
    i.OLED_WriteCmd                          0x0800346c   Section        0  i2c_oled.o(i.OLED_WriteCmd)
    i.PWM                                    0x08003484   Section        0  servo.o(i.PWM)
    i.ParseRadioMsg                          0x080034ac   Section        0  radio.o(i.ParseRadioMsg)
    i.PowerControl_Init                      0x080038f8   Section        0  power_control.o(i.PowerControl_Init)
    i.PowerKey_Init                          0x08003924   Section        0  key.o(i.PowerKey_Init)
    i.PowerTask                              0x08003950   Section        0  power_control.o(i.PowerTask)
    i.ProcessMsg                             0x08003b74   Section        0  usart1.o(i.ProcessMsg)
    i.Quaternion_FromRotationMatrix          0x08003f2c   Section        0  quaternion.o(i.Quaternion_FromRotationMatrix)
    i.RCC_ADCCLKConfig                       0x08004138   Section        0  stm32f10x_rcc.o(i.RCC_ADCCLKConfig)
    i.RCC_AHBPeriphClockCmd                  0x08004150   Section        0  stm32f10x_rcc.o(i.RCC_AHBPeriphClockCmd)
    i.RCC_APB1PeriphClockCmd                 0x08004170   Section        0  stm32f10x_rcc.o(i.RCC_APB1PeriphClockCmd)
    i.RCC_APB1PeriphResetCmd                 0x08004190   Section        0  stm32f10x_rcc.o(i.RCC_APB1PeriphResetCmd)
    i.RCC_APB2PeriphClockCmd                 0x080041b0   Section        0  stm32f10x_rcc.o(i.RCC_APB2PeriphClockCmd)
    i.RCC_GetClocksFreq                      0x080041d0   Section        0  stm32f10x_rcc.o(i.RCC_GetClocksFreq)
    i.RadioTask                              0x080042a4   Section        0  radio.o(i.RadioTask)
    i.Read_Encoder                           0x080043d4   Section        0  motor.o(i.Read_Encoder)
    i.SPI_Cmd                                0x08004404   Section        0  stm32f10x_spi.o(i.SPI_Cmd)
    i.SPI_FLASH_BufferRead                   0x0800441c   Section        0  spi_flash.o(i.SPI_FLASH_BufferRead)
    i.SPI_FLASH_BufferWrite                  0x08004470   Section        0  spi_flash.o(i.SPI_FLASH_BufferWrite)
    i.SPI_FLASH_Init                         0x08004594   Section        0  spi_flash.o(i.SPI_FLASH_Init)
    i.SPI_FLASH_PageWrite                    0x08004658   Section        0  spi_flash.o(i.SPI_FLASH_PageWrite)
    i.SPI_FLASH_ReadID                       0x080046f8   Section        0  spi_flash.o(i.SPI_FLASH_ReadID)
    i.SPI_FLASH_SectorErase                  0x0800474c   Section        0  spi_flash.o(i.SPI_FLASH_SectorErase)
    i.SPI_FLASH_SendByte                     0x08004794   Section        0  spi_flash.o(i.SPI_FLASH_SendByte)
    i.SPI_FLASH_WaitForWriteEnd              0x0800480c   Section        0  spi_flash.o(i.SPI_FLASH_WaitForWriteEnd)
    i.SPI_FLASH_WriteEnable                  0x08004844   Section        0  spi_flash.o(i.SPI_FLASH_WriteEnable)
    i.SPI_Flash_WAKEUP                       0x08004868   Section        0  spi_flash.o(i.SPI_Flash_WAKEUP)
    i.SPI_I2S_GetFlagStatus                  0x0800488c   Section        0  stm32f10x_spi.o(i.SPI_I2S_GetFlagStatus)
    i.SPI_I2S_ReceiveData                    0x0800489e   Section        0  stm32f10x_spi.o(i.SPI_I2S_ReceiveData)
    i.SPI_I2S_SendData                       0x080048a4   Section        0  stm32f10x_spi.o(i.SPI_I2S_SendData)
    i.SPI_Init                               0x080048a8   Section        0  stm32f10x_spi.o(i.SPI_Init)
    i.SPI_RWByte                             0x080048e4   Section        0  nrf24l01.o(i.SPI_RWByte)
    SPI_RWByte                               0x080048e5   Thumb Code    52  nrf24l01.o(i.SPI_RWByte)
    i.SPI_TIMEOUT_UserCallback               0x08004918   Section        0  spi_flash.o(i.SPI_TIMEOUT_UserCallback)
    SPI_TIMEOUT_UserCallback                 0x08004919   Thumb Code    16  spi_flash.o(i.SPI_TIMEOUT_UserCallback)
    i.SaveConfigData                         0x08004958   Section        0  flash.o(i.SaveConfigData)
    i.SensorTask                             0x08004a8c   Section        0  sensors.o(i.SensorTask)
    i.Servo_Init                             0x08004e34   Section        0  servo.o(i.Servo_Init)
    i.SetSysClock                            0x08004e40   Section        0  system_stm32f10x.o(i.SetSysClock)
    SetSysClock                              0x08004e41   Thumb Code     8  system_stm32f10x.o(i.SetSysClock)
    i.SetSysClockTo72                        0x08004e48   Section        0  system_stm32f10x.o(i.SetSysClockTo72)
    SetSysClockTo72                          0x08004e49   Thumb Code   214  system_stm32f10x.o(i.SetSysClockTo72)
    i.Set_Motor1_PWM                         0x08004f28   Section        0  motor.o(i.Set_Motor1_PWM)
    i.Set_Motor2_PWM                         0x08004f70   Section        0  motor.o(i.Set_Motor2_PWM)
    i.Set_Servo_PWM                          0x08004fb8   Section        0  servo.o(i.Set_Servo_PWM)
    i.SysTick_CLKSourceConfig                0x08005014   Section        0  misc.o(i.SysTick_CLKSourceConfig)
    i.SysTick_Handler                        0x0800503c   Section        0  stm32f10x_it.o(i.SysTick_Handler)
    i.SystemInit                             0x0800505c   Section        0  system_stm32f10x.o(i.SystemInit)
    i.TIM3_Init                              0x080050bc   Section        0  servo.o(i.TIM3_Init)
    i.TIM4_Init                              0x080051bc   Section        0  motor.o(i.TIM4_Init)
    i.TIM5_IRQHandler                        0x0800528c   Section        0  motor.o(i.TIM5_IRQHandler)
    i.TIM8_Init                              0x080052a4   Section        0  servo.o(i.TIM8_Init)
    i.TIM_ClearFlag                          0x08005380   Section        0  stm32f10x_tim.o(i.TIM_ClearFlag)
    i.TIM_Cmd                                0x08005386   Section        0  stm32f10x_tim.o(i.TIM_Cmd)
    i.TIM_CtrlPWMOutputs                     0x0800539e   Section        0  stm32f10x_tim.o(i.TIM_CtrlPWMOutputs)
    i.TIM_ITConfig                           0x080053bc   Section        0  stm32f10x_tim.o(i.TIM_ITConfig)
    i.TIM_OC1Init                            0x080053d0   Section        0  stm32f10x_tim.o(i.TIM_OC1Init)
    i.TIM_OC1PreloadConfig                   0x08005468   Section        0  stm32f10x_tim.o(i.TIM_OC1PreloadConfig)
    i.TIM_OC2Init                            0x0800547c   Section        0  stm32f10x_tim.o(i.TIM_OC2Init)
    i.TIM_OC2PreloadConfig                   0x08005520   Section        0  stm32f10x_tim.o(i.TIM_OC2PreloadConfig)
    i.TIM_OC3Init                            0x0800553c   Section        0  stm32f10x_tim.o(i.TIM_OC3Init)
    i.TIM_OC3PreloadConfig                   0x080055dc   Section        0  stm32f10x_tim.o(i.TIM_OC3PreloadConfig)
    i.TIM_OC4Init                            0x080055f0   Section        0  stm32f10x_tim.o(i.TIM_OC4Init)
    i.TIM_OC4PreloadConfig                   0x0800566c   Section        0  stm32f10x_tim.o(i.TIM_OC4PreloadConfig)
    i.TIM_TimeBaseInit                       0x08005688   Section        0  stm32f10x_tim.o(i.TIM_TimeBaseInit)
    i.UART4_IRQHandler                       0x0800572c   Section        0  uart4.o(i.UART4_IRQHandler)
    i.UART4_Init                             0x080057a4   Section        0  uart4.o(i.UART4_Init)
    i.UART5_IRQHandler                       0x0800586c   Section        0  uart5.o(i.UART5_IRQHandler)
    i.UART5_Init                             0x080058e4   Section        0  uart5.o(i.UART5_Init)
    i.USART1_IRQHandler                      0x080059ac   Section        0  usart1.o(i.USART1_IRQHandler)
    i.USART1_Init                            0x08005ad8   Section        0  usart1.o(i.USART1_Init)
    i.USART_ClockInit                        0x08005b7c   Section        0  stm32f10x_usart.o(i.USART_ClockInit)
    i.USART_Cmd                              0x08005b9e   Section        0  stm32f10x_usart.o(i.USART_Cmd)
    i.USART_GetFlagStatus                    0x08005bb6   Section        0  stm32f10x_usart.o(i.USART_GetFlagStatus)
    i.USART_GetITStatus                      0x08005bd0   Section        0  stm32f10x_usart.o(i.USART_GetITStatus)
    i.USART_ITConfig                         0x08005c24   Section        0  stm32f10x_usart.o(i.USART_ITConfig)
    i.USART_Init                             0x08005c70   Section        0  stm32f10x_usart.o(i.USART_Init)
    i.USART_ReceiveData                      0x08005d48   Section        0  stm32f10x_usart.o(i.USART_ReceiveData)
    i.USART_SendData                         0x08005d52   Section        0  stm32f10x_usart.o(i.USART_SendData)
    i.Uart4Task                              0x08005d5c   Section        0  uart4.o(i.Uart4Task)
    i.Uart5Task                              0x08005db8   Section        0  uart5.o(i.Uart5Task)
    i.UsageFault_Handler                     0x08005e40   Section        0  stm32f10x_it.o(i.UsageFault_Handler)
    i.Usart1LinkStatus                       0x08005e44   Section        0  usart1.o(i.Usart1LinkStatus)
    i.Usart1Task                             0x08005e50   Section        0  usart1.o(i.Usart1Task)
    i.UserKey_Init                           0x08005ec0   Section        0  key.o(i.UserKey_Init)
    i.__0printf                              0x08005eec   Section        0  printfa.o(i.__0printf)
    i.__0sprintf                             0x08005f0c   Section        0  printfa.o(i.__0sprintf)
    i.__ARM_fpclassify                       0x08005f34   Section        0  fpclassify.o(i.__ARM_fpclassify)
    i.__ARM_fpclassifyf                      0x08005f5c   Section        0  fpclassifyf.o(i.__ARM_fpclassifyf)
    i.__kernel_poly                          0x08005f82   Section        0  poly.o(i.__kernel_poly)
    i.__mathlib_dbl_infnan                   0x0800602c   Section        0  dunder.o(i.__mathlib_dbl_infnan)
    i.__mathlib_dbl_underflow                0x08006034   Section        0  dunder.o(i.__mathlib_dbl_underflow)
    i.__mathlib_flt_infnan                   0x08006044   Section        0  funder.o(i.__mathlib_flt_infnan)
    i.__mathlib_flt_invalid                  0x0800604a   Section        0  funder.o(i.__mathlib_flt_invalid)
    i.__mathlib_flt_underflow                0x08006052   Section        0  funder.o(i.__mathlib_flt_underflow)
    i.__mathlib_rredf2                       0x0800605c   Section        0  rredf.o(i.__mathlib_rredf2)
    i.__scatterload_copy                     0x080061c4   Section       14  handlers.o(i.__scatterload_copy)
    i.__scatterload_null                     0x080061d2   Section        2  handlers.o(i.__scatterload_null)
    i.__scatterload_zeroinit                 0x080061d4   Section       14  handlers.o(i.__scatterload_zeroinit)
    i.__set_errno                            0x080061e4   Section        0  errno.o(i.__set_errno)
    i._fp_digits                             0x080061f0   Section        0  printfa.o(i._fp_digits)
    _fp_digits                               0x080061f1   Thumb Code   366  printfa.o(i._fp_digits)
    i._printf_core                           0x08006374   Section        0  printfa.o(i._printf_core)
    _printf_core                             0x08006375   Thumb Code  1704  printfa.o(i._printf_core)
    i._printf_post_padding                   0x08006a28   Section        0  printfa.o(i._printf_post_padding)
    _printf_post_padding                     0x08006a29   Thumb Code    36  printfa.o(i._printf_post_padding)
    i._printf_pre_padding                    0x08006a4c   Section        0  printfa.o(i._printf_pre_padding)
    _printf_pre_padding                      0x08006a4d   Thumb Code    46  printfa.o(i._printf_pre_padding)
    i._sputc                                 0x08006a7a   Section        0  printfa.o(i._sputc)
    _sputc                                   0x08006a7b   Thumb Code    10  printfa.o(i._sputc)
    i.ak8963Init                             0x08006a84   Section        0  ak8963.o(i.ak8963Init)
    i.ak8963SetMode                          0x08006aa8   Section        0  ak8963.o(i.ak8963SetMode)
    i.ak8963TestConnection                   0x08006ac8   Section        0  ak8963.o(i.ak8963TestConnection)
    i.assertFail                             0x08006afc   Section        0  utils.o(i.assertFail)
    i.atan                                   0x08006b40   Section        0  atan.o(i.atan)
    i.check_fs                               0x08006d60   Section        0  ff.o(i.check_fs)
    check_fs                                 0x08006d61   Thumb Code   140  ff.o(i.check_fs)
    i.chk_chr                                0x08006df0   Section        0  ff.o(i.chk_chr)
    chk_chr                                  0x08006df1   Thumb Code    20  ff.o(i.chk_chr)
    i.clust2sect                             0x08006e04   Section        0  ff.o(i.clust2sect)
    i.cmp_lfn                                0x08006e20   Section        0  ff.o(i.cmp_lfn)
    cmp_lfn                                  0x08006e21   Thumb Code   154  ff.o(i.cmp_lfn)
    i.cosf                                   0x08006ec0   Section        0  cosf.o(i.cosf)
    i.create_chain                           0x0800703c   Section        0  ff.o(i.create_chain)
    create_chain                             0x0800703d   Thumb Code   214  ff.o(i.create_chain)
    i.create_name                            0x08007114   Section        0  ff.o(i.create_name)
    create_name                              0x08007115   Thumb Code   604  ff.o(i.create_name)
    i.delay_ms                               0x08007384   Section        0  delay.o(i.delay_ms)
    i.delay_us                               0x080073c8   Section        0  delay.o(i.delay_us)
    i.dir_alloc                              0x08007410   Section        0  ff.o(i.dir_alloc)
    dir_alloc                                0x08007411   Thumb Code    92  ff.o(i.dir_alloc)
    i.dir_find                               0x0800746c   Section        0  ff.o(i.dir_find)
    dir_find                                 0x0800746d   Thumb Code   234  ff.o(i.dir_find)
    i.dir_next                               0x08007556   Section        0  ff.o(i.dir_next)
    dir_next                                 0x08007557   Thumb Code   314  ff.o(i.dir_next)
    i.dir_read                               0x08007690   Section        0  ff.o(i.dir_read)
    dir_read                                 0x08007691   Thumb Code   198  ff.o(i.dir_read)
    i.dir_register                           0x08007756   Section        0  ff.o(i.dir_register)
    dir_register                             0x08007757   Thumb Code   298  ff.o(i.dir_register)
    i.dir_sdi                                0x08007880   Section        0  ff.o(i.dir_sdi)
    dir_sdi                                  0x08007881   Thumb Code   200  ff.o(i.dir_sdi)
    i.disk_initialize                        0x08007948   Section        0  diskio.o(i.disk_initialize)
    i.disk_ioctl                             0x08007982   Section        0  diskio.o(i.disk_ioctl)
    i.disk_read                              0x080079c4   Section        0  diskio.o(i.disk_read)
    i.disk_status                            0x08007a04   Section        0  diskio.o(i.disk_status)
    i.disk_write                             0x08007a38   Section        0  diskio.o(i.disk_write)
    i.f_close                                0x08007a86   Section        0  ff.o(i.f_close)
    i.f_getfree                              0x08007aa6   Section        0  ff.o(i.f_getfree)
    i.f_lseek                                0x08007ba8   Section        0  ff.o(i.f_lseek)
    i.f_mkfs                                 0x08007d44   Section        0  ff.o(i.f_mkfs)
    i.f_mount                                0x080083c8   Section        0  ff.o(i.f_mount)
    i.f_open                                 0x08008424   Section        0  ff.o(i.f_open)
    i.f_opendir                              0x080085a2   Section        0  ff.o(i.f_opendir)
    i.f_read                                 0x08008618   Section        0  ff.o(i.f_read)
    i.f_readdir                              0x080087e8   Section        0  ff.o(i.f_readdir)
    i.f_sync                                 0x0800884c   Section        0  ff.o(i.f_sync)
    i.ff_convert                             0x080088fc   Section        0  cc936.o(i.ff_convert)
    i.ff_wtoupper                            0x08008978   Section        0  cc936.o(i.ff_wtoupper)
    i.find_volume                            0x080089d4   Section        0  ff.o(i.find_volume)
    find_volume                              0x080089d5   Thumb Code   966  ff.o(i.find_volume)
    i.fit_lfn                                0x08008dac   Section        0  ff.o(i.fit_lfn)
    fit_lfn                                  0x08008dad   Thumb Code   122  ff.o(i.fit_lfn)
    i.follow_path                            0x08008e2c   Section        0  ff.o(i.follow_path)
    follow_path                              0x08008e2d   Thumb Code   144  ff.o(i.follow_path)
    i.fputc                                  0x08008ebc   Section        0  usart1.o(i.fputc)
    i.gen_numname                            0x08008ee0   Section        0  ff.o(i.gen_numname)
    gen_numname                              0x08008ee1   Thumb Code   198  ff.o(i.gen_numname)
    i.getSysTickCnt                          0x08008fac   Section        0  stm32f10x_it.o(i.getSysTickCnt)
    i.get_fat                                0x08008fc8   Section        0  ff.o(i.get_fat)
    i.get_fattime                            0x08009108   Section        0  diskio.o(i.get_fattime)
    i.get_fileinfo                           0x08009110   Section        0  ff.o(i.get_fileinfo)
    get_fileinfo                             0x08009111   Thumb Code   272  ff.o(i.get_fileinfo)
    i.get_ldnumber                           0x08009220   Section        0  ff.o(i.get_ldnumber)
    get_ldnumber                             0x08009221   Thumb Code    74  ff.o(i.get_ldnumber)
    i.i2cNotifyClient                        0x0800926c   Section        0  i2c_driver.o(i.i2cNotifyClient)
    i2cNotifyClient                          0x0800926d   Thumb Code    38  i2c_driver.o(i.i2cNotifyClient)
    i.i2cTryNextMessage                      0x08009298   Section        0  i2c_driver.o(i.i2cTryNextMessage)
    i2cTryNextMessage                        0x08009299   Thumb Code    30  i2c_driver.o(i.i2cTryNextMessage)
    i.i2cdevInit                             0x080092b6   Section        0  i2c_device.o(i.i2cdevInit)
    i.i2cdevRead                             0x080092c4   Section        0  i2c_device.o(i.i2cdevRead)
    i.i2cdevReadByte                         0x08009308   Section        0  i2c_device.o(i.i2cdevReadByte)
    i.i2cdevWrite                            0x08009322   Section        0  i2c_device.o(i.i2cdevWrite)
    i.i2cdevWriteBit                         0x08009366   Section        0  i2c_device.o(i.i2cdevWriteBit)
    i.i2cdevWriteBits                        0x080093b6   Section        0  i2c_device.o(i.i2cdevWriteBits)
    i.i2cdevWriteByte                        0x0800941a   Section        0  i2c_device.o(i.i2cdevWriteByte)
    i.i2cdrvClearDMA                         0x08009438   Section        0  i2c_driver.o(i.i2cdrvClearDMA)
    i2cdrvClearDMA                           0x08009439   Thumb Code    56  i2c_driver.o(i.i2cdrvClearDMA)
    i.i2cdrvCreateMessage                    0x08009470   Section        0  i2c_driver.o(i.i2cdrvCreateMessage)
    i.i2cdrvCreateMessageIntAddr             0x08009490   Section        0  i2c_driver.o(i.i2cdrvCreateMessageIntAddr)
    i.i2cdrvDmaIsrHandler                    0x080094ac   Section        0  i2c_driver.o(i.i2cdrvDmaIsrHandler)
    i2cdrvDmaIsrHandler                      0x080094ad   Thumb Code    68  i2c_driver.o(i.i2cdrvDmaIsrHandler)
    i.i2cdrvDmaSetupBus                      0x080094f0   Section        0  i2c_driver.o(i.i2cdrvDmaSetupBus)
    i2cdrvDmaSetupBus                        0x080094f1   Thumb Code    86  i2c_driver.o(i.i2cdrvDmaSetupBus)
    i.i2cdrvErrorIsrHandler                  0x08009548   Section        0  i2c_driver.o(i.i2cdrvErrorIsrHandler)
    i2cdrvErrorIsrHandler                    0x08009549   Thumb Code   132  i2c_driver.o(i.i2cdrvErrorIsrHandler)
    i.i2cdrvEventIsrHandler                  0x080095dc   Section        0  i2c_driver.o(i.i2cdrvEventIsrHandler)
    i2cdrvEventIsrHandler                    0x080095dd   Thumb Code   478  i2c_driver.o(i.i2cdrvEventIsrHandler)
    i.i2cdrvInit                             0x080097ba   Section        0  i2c_driver.o(i.i2cdrvInit)
    i.i2cdrvInitBus                          0x080097c6   Section        0  i2c_driver.o(i.i2cdrvInitBus)
    i2cdrvInitBus                            0x080097c7   Thumb Code   308  i2c_driver.o(i.i2cdrvInitBus)
    i.i2cdrvMessageTransfer                  0x080098fc   Section        0  i2c_driver.o(i.i2cdrvMessageTransfer)
    i.i2cdrvRoughLoopDelay                   0x08009970   Section        0  i2c_driver.o(i.i2cdrvRoughLoopDelay)
    i2cdrvRoughLoopDelay                     0x08009971   Thumb Code    28  i2c_driver.o(i.i2cdrvRoughLoopDelay)
    i.i2cdrvStartTransfer                    0x0800998c   Section        0  i2c_driver.o(i.i2cdrvStartTransfer)
    i2cdrvStartTransfer                      0x0800998d   Thumb Code    78  i2c_driver.o(i.i2cdrvStartTransfer)
    i.i2cdrvTryToRestartBus                  0x080099da   Section        0  i2c_driver.o(i.i2cdrvTryToRestartBus)
    i2cdrvTryToRestartBus                    0x080099db   Thumb Code    12  i2c_driver.o(i.i2cdrvTryToRestartBus)
    i.i2cdrvdevUnlockBus                     0x080099e8   Section        0  i2c_driver.o(i.i2cdrvdevUnlockBus)
    i2cdrvdevUnlockBus                       0x080099e9   Thumb Code   216  i2c_driver.o(i.i2cdrvdevUnlockBus)
    i.ld_clust                               0x08009ac4   Section        0  ff.o(i.ld_clust)
    ld_clust                                 0x08009ac5   Thumb Code    32  ff.o(i.ld_clust)
    i.lpf2pInit                              0x08009ae4   Section        0  filter.o(i.lpf2pInit)
    i.lpf2pSetCutoffFreq                     0x08009b08   Section        0  filter.o(i.lpf2pSetCutoffFreq)
    i.main                                   0x08009bfc   Section        0  main.o(i.main)
    i.mem_cmp                                0x08009cc4   Section        0  ff.o(i.mem_cmp)
    mem_cmp                                  0x08009cc5   Thumb Code    38  ff.o(i.mem_cmp)
    i.mem_cpy                                0x08009cea   Section        0  ff.o(i.mem_cpy)
    mem_cpy                                  0x08009ceb   Thumb Code    26  ff.o(i.mem_cpy)
    i.mem_set                                0x08009d04   Section        0  ff.o(i.mem_set)
    mem_set                                  0x08009d05   Thumb Code    20  ff.o(i.mem_set)
    i.move_window                            0x08009d18   Section        0  ff.o(i.move_window)
    move_window                              0x08009d19   Thumb Code    52  ff.o(i.move_window)
    i.mpu6500GetDeviceID                     0x08009d4c   Section        0  mpu9250.o(i.mpu6500GetDeviceID)
    i.mpu6500Init                            0x08009d70   Section        0  mpu9250.o(i.mpu6500Init)
    i.mpu6500Reset                           0x08009d98   Section        0  mpu9250.o(i.mpu6500Reset)
    i.mpu6500SetAccelDLPF                    0x08009db8   Section        0  mpu9250.o(i.mpu6500SetAccelDLPF)
    i.mpu6500SetClockSource                  0x08009ddc   Section        0  mpu9250.o(i.mpu6500SetClockSource)
    i.mpu6500SetDLPFMode                     0x08009e00   Section        0  mpu9250.o(i.mpu6500SetDLPFMode)
    i.mpu6500SetFullScaleAccelRange          0x08009e24   Section        0  mpu9250.o(i.mpu6500SetFullScaleAccelRange)
    i.mpu6500SetFullScaleGyroRange           0x08009e48   Section        0  mpu9250.o(i.mpu6500SetFullScaleGyroRange)
    i.mpu6500SetI2CBypassEnabled             0x08009e6c   Section        0  mpu9250.o(i.mpu6500SetI2CBypassEnabled)
    i.mpu6500SetI2CMasterModeEnabled         0x08009e8c   Section        0  mpu9250.o(i.mpu6500SetI2CMasterModeEnabled)
    i.mpu6500SetIntDataReadyEnabled          0x08009eac   Section        0  mpu9250.o(i.mpu6500SetIntDataReadyEnabled)
    i.mpu6500SetIntEnabled                   0x08009ecc   Section        0  mpu9250.o(i.mpu6500SetIntEnabled)
    i.mpu6500SetInterruptDrive               0x08009eec   Section        0  mpu9250.o(i.mpu6500SetInterruptDrive)
    i.mpu6500SetInterruptLatch               0x08009f0c   Section        0  mpu9250.o(i.mpu6500SetInterruptLatch)
    i.mpu6500SetInterruptLatchClear          0x08009f2c   Section        0  mpu9250.o(i.mpu6500SetInterruptLatchClear)
    i.mpu6500SetInterruptMode                0x08009f4c   Section        0  mpu9250.o(i.mpu6500SetInterruptMode)
    i.mpu6500SetMasterClockSpeed             0x08009f6c   Section        0  mpu9250.o(i.mpu6500SetMasterClockSpeed)
    i.mpu6500SetRate                         0x08009f90   Section        0  mpu9250.o(i.mpu6500SetRate)
    i.mpu6500SetSlave4MasterDelay            0x08009fb0   Section        0  mpu9250.o(i.mpu6500SetSlave4MasterDelay)
    i.mpu6500SetSlaveAddress                 0x08009fd4   Section        0  mpu9250.o(i.mpu6500SetSlaveAddress)
    i.mpu6500SetSlaveDataLength              0x0800a004   Section        0  mpu9250.o(i.mpu6500SetSlaveDataLength)
    i.mpu6500SetSlaveDelayEnabled            0x0800a038   Section        0  mpu9250.o(i.mpu6500SetSlaveDelayEnabled)
    i.mpu6500SetSlaveEnabled                 0x0800a05c   Section        0  mpu9250.o(i.mpu6500SetSlaveEnabled)
    i.mpu6500SetSlaveReadWriteTransitionEnabled 0x0800a08c   Section        0  mpu9250.o(i.mpu6500SetSlaveReadWriteTransitionEnabled)
    i.mpu6500SetSlaveRegister                0x0800a0ac   Section        0  mpu9250.o(i.mpu6500SetSlaveRegister)
    i.mpu6500SetSleepEnabled                 0x0800a0dc   Section        0  mpu9250.o(i.mpu6500SetSleepEnabled)
    i.mpu6500SetTempSensorEnabled            0x0800a0fc   Section        0  mpu9250.o(i.mpu6500SetTempSensorEnabled)
    i.mpu6500SetWaitForExternalSensorEnabled 0x0800a120   Section        0  mpu9250.o(i.mpu6500SetWaitForExternalSensorEnabled)
    i.nrf_check                              0x0800a140   Section        0  nrf24l01.o(i.nrf_check)
    i.nrf_checkEventandRxPacket              0x0800a18c   Section        0  nrf24l01.o(i.nrf_checkEventandRxPacket)
    i.nrf_interruptCallback                  0x0800a1f0   Section        0  radio.o(i.nrf_interruptCallback)
    nrf_interruptCallback                    0x0800a1f1   Thumb Code    18  radio.o(i.nrf_interruptCallback)
    i.nrf_rxPacket                           0x0800a208   Section        0  nrf24l01.o(i.nrf_rxPacket)
    i.nrf_setAddress                         0x0800a24c   Section        0  nrf24l01.o(i.nrf_setAddress)
    i.nrf_setArc                             0x0800a26e   Section        0  nrf24l01.o(i.nrf_setArc)
    i.nrf_setArd                             0x0800a28e   Section        0  nrf24l01.o(i.nrf_setArd)
    i.nrf_setChannel                         0x0800a2ba   Section        0  nrf24l01.o(i.nrf_setChannel)
    i.nrf_setDataRate                        0x0800a2cc   Section        0  nrf24l01.o(i.nrf_setDataRate)
    i.nrf_setIterruptCallback                0x0800a304   Section        0  nrf24l01.o(i.nrf_setIterruptCallback)
    i.nrf_setPower                           0x0800a310   Section        0  nrf24l01.o(i.nrf_setPower)
    i.nrf_txPacket_AP                        0x0800a354   Section        0  nrf24l01.o(i.nrf_txPacket_AP)
    i.pick_lfn                               0x0800a37c   Section        0  ff.o(i.pick_lfn)
    pick_lfn                                 0x0800a37d   Thumb Code   124  ff.o(i.pick_lfn)
    i.printHardFault                         0x0800a3fc   Section        0  stm32f10x_it.o(i.printHardFault)
    i.prvAddCurrentTaskToDelayedList         0x0800a574   Section        0  tasks.o(i.prvAddCurrentTaskToDelayedList)
    prvAddCurrentTaskToDelayedList           0x0800a575   Thumb Code   124  tasks.o(i.prvAddCurrentTaskToDelayedList)
    i.prvAddNewTaskToReadyList               0x0800a60c   Section        0  tasks.o(i.prvAddNewTaskToReadyList)
    prvAddNewTaskToReadyList                 0x0800a60d   Thumb Code   156  tasks.o(i.prvAddNewTaskToReadyList)
    i.prvCheckForValidListAndQueue           0x0800a6c4   Section        0  timers.o(i.prvCheckForValidListAndQueue)
    prvCheckForValidListAndQueue             0x0800a6c5   Thumb Code    72  timers.o(i.prvCheckForValidListAndQueue)
    i.prvCheckTasksWaitingTermination        0x0800a728   Section        0  tasks.o(i.prvCheckTasksWaitingTermination)
    prvCheckTasksWaitingTermination          0x0800a729   Thumb Code    86  tasks.o(i.prvCheckTasksWaitingTermination)
    i.prvCopyDataFromQueue                   0x0800a78c   Section        0  queue.o(i.prvCopyDataFromQueue)
    prvCopyDataFromQueue                     0x0800a78d   Thumb Code    42  queue.o(i.prvCopyDataFromQueue)
    i.prvCopyDataToQueue                     0x0800a7b6   Section        0  queue.o(i.prvCopyDataToQueue)
    prvCopyDataToQueue                       0x0800a7b7   Thumb Code   124  queue.o(i.prvCopyDataToQueue)
    i.prvDeleteTCB                           0x0800a832   Section        0  tasks.o(i.prvDeleteTCB)
    prvDeleteTCB                             0x0800a833   Thumb Code    18  tasks.o(i.prvDeleteTCB)
    i.prvGetNextExpireTime                   0x0800a844   Section        0  timers.o(i.prvGetNextExpireTime)
    prvGetNextExpireTime                     0x0800a845   Thumb Code    36  timers.o(i.prvGetNextExpireTime)
    i.prvHeapInit                            0x0800a86c   Section        0  heap_4.o(i.prvHeapInit)
    prvHeapInit                              0x0800a86d   Thumb Code    98  heap_4.o(i.prvHeapInit)
    i.prvIdleTask                            0x0800a8e8   Section        0  tasks.o(i.prvIdleTask)
    prvIdleTask                              0x0800a8e9   Thumb Code    12  tasks.o(i.prvIdleTask)
    i.prvInitialiseMutex                     0x0800a8f4   Section        0  queue.o(i.prvInitialiseMutex)
    prvInitialiseMutex                       0x0800a8f5   Thumb Code    28  queue.o(i.prvInitialiseMutex)
    i.prvInitialiseNewQueue                  0x0800a910   Section        0  queue.o(i.prvInitialiseNewQueue)
    prvInitialiseNewQueue                    0x0800a911   Thumb Code    46  queue.o(i.prvInitialiseNewQueue)
    i.prvInitialiseNewTask                   0x0800a940   Section        0  tasks.o(i.prvInitialiseNewTask)
    prvInitialiseNewTask                     0x0800a941   Thumb Code   172  tasks.o(i.prvInitialiseNewTask)
    i.prvInitialiseTaskLists                 0x0800aa08   Section        0  tasks.o(i.prvInitialiseTaskLists)
    prvInitialiseTaskLists                   0x0800aa09   Thumb Code    70  tasks.o(i.prvInitialiseTaskLists)
    i.prvInsertBlockIntoFreeList             0x0800aa70   Section        0  heap_4.o(i.prvInsertBlockIntoFreeList)
    prvInsertBlockIntoFreeList               0x0800aa71   Thumb Code    96  heap_4.o(i.prvInsertBlockIntoFreeList)
    i.prvInsertTimerInActiveList             0x0800aad8   Section        0  timers.o(i.prvInsertTimerInActiveList)
    prvInsertTimerInActiveList               0x0800aad9   Thumb Code    80  timers.o(i.prvInsertTimerInActiveList)
    i.prvIsQueueEmpty                        0x0800ab30   Section        0  queue.o(i.prvIsQueueEmpty)
    prvIsQueueEmpty                          0x0800ab31   Thumb Code    26  queue.o(i.prvIsQueueEmpty)
    i.prvIsQueueFull                         0x0800ab4a   Section        0  queue.o(i.prvIsQueueFull)
    prvIsQueueFull                           0x0800ab4b   Thumb Code    30  queue.o(i.prvIsQueueFull)
    i.prvNotifyQueueSetContainer             0x0800ab68   Section        0  queue.o(i.prvNotifyQueueSetContainer)
    prvNotifyQueueSetContainer               0x0800ab69   Thumb Code   124  queue.o(i.prvNotifyQueueSetContainer)
    i.prvProcessExpiredTimer                 0x0800ac14   Section        0  timers.o(i.prvProcessExpiredTimer)
    prvProcessExpiredTimer                   0x0800ac15   Thumb Code    84  timers.o(i.prvProcessExpiredTimer)
    i.prvProcessReceivedCommands             0x0800ac8c   Section        0  timers.o(i.prvProcessReceivedCommands)
    prvProcessReceivedCommands               0x0800ac8d   Thumb Code   222  timers.o(i.prvProcessReceivedCommands)
    i.prvProcessTimerOrBlockTask             0x0800adb8   Section        0  timers.o(i.prvProcessTimerOrBlockTask)
    prvProcessTimerOrBlockTask               0x0800adb9   Thumb Code   102  timers.o(i.prvProcessTimerOrBlockTask)
    i.prvResetNextTaskUnblockTime            0x0800ae2c   Section        0  tasks.o(i.prvResetNextTaskUnblockTime)
    prvResetNextTaskUnblockTime              0x0800ae2d   Thumb Code    42  tasks.o(i.prvResetNextTaskUnblockTime)
    i.prvSampleTimeNow                       0x0800ae60   Section        0  timers.o(i.prvSampleTimeNow)
    prvSampleTimeNow                         0x0800ae61   Thumb Code    40  timers.o(i.prvSampleTimeNow)
    i.prvSwitchTimerLists                    0x0800ae8c   Section        0  timers.o(i.prvSwitchTimerLists)
    prvSwitchTimerLists                      0x0800ae8d   Thumb Code   140  timers.o(i.prvSwitchTimerLists)
    i.prvTaskExitError                       0x0800af40   Section        0  port.o(i.prvTaskExitError)
    prvTaskExitError                         0x0800af41   Thumb Code    48  port.o(i.prvTaskExitError)
    i.prvTimerTask                           0x0800afbc   Section        0  timers.o(i.prvTimerTask)
    prvTimerTask                             0x0800afbd   Thumb Code    26  timers.o(i.prvTimerTask)
    i.prvUnlockQueue                         0x0800afd6   Section        0  queue.o(i.prvUnlockQueue)
    prvUnlockQueue                           0x0800afd7   Thumb Code   146  queue.o(i.prvUnlockQueue)
    i.put_fat                                0x0800b068   Section        0  ff.o(i.put_fat)
    i.pvPortMalloc                           0x0800b1f0   Section        0  heap_4.o(i.pvPortMalloc)
    i.pvTaskIncrementMutexHeldCount          0x0800b378   Section        0  tasks.o(i.pvTaskIncrementMutexHeldCount)
    i.pxPortInitialiseStack                  0x0800b398   Section        0  port.o(i.pxPortInitialiseStack)
    i.radioInit                              0x0800b3bc   Section        0  radio.o(i.radioInit)
    radioInit                                0x0800b3bd   Thumb Code    38  radio.o(i.radioInit)
    i.radiolinkConnectStatus                 0x0800b3fc   Section        0  radio.o(i.radiolinkConnectStatus)
    i.radiolinkInit                          0x0800b408   Section        0  radio.o(i.radiolinkInit)
    i.readBuf                                0x0800b468   Section        0  nrf24l01.o(i.readBuf)
    readBuf                                  0x0800b469   Thumb Code    68  nrf24l01.o(i.readBuf)
    i.readReg                                0x0800b4b4   Section        0  nrf24l01.o(i.readReg)
    readReg                                  0x0800b4b5   Thumb Code    46  nrf24l01.o(i.readReg)
    i.remove_chain                           0x0800b4ec   Section        0  ff.o(i.remove_chain)
    remove_chain                             0x0800b4ed   Thumb Code   108  ff.o(i.remove_chain)
    i.scan_files                             0x0800b558   Section        0  utils.o(i.scan_files)
    i.sensorsAcquire                         0x0800b5f4   Section        0  sensors.o(i.sensorsAcquire)
    i.sensorsBiasObjInit                     0x0800b612   Section        0  sensors.o(i.sensorsBiasObjInit)
    sensorsBiasObjInit                       0x0800b613   Thumb Code    12  sensors.o(i.sensorsBiasObjInit)
    i.sensorsDeviceInit                      0x0800b620   Section        0  sensors.o(i.sensorsDeviceInit)
    i.sensorsInit                            0x0800b7cc   Section        0  sensors.o(i.sensorsInit)
    i.sensorsInterruptInit                   0x0800b808   Section        0  sensors.o(i.sensorsInterruptInit)
    sensorsInterruptInit                     0x0800b809   Thumb Code   136  sensors.o(i.sensorsInterruptInit)
    i.sensorsReadAcc                         0x0800b894   Section        0  sensors.o(i.sensorsReadAcc)
    i.sensorsReadGyro                        0x0800b8b4   Section        0  sensors.o(i.sensorsReadGyro)
    i.sensorsReadMag                         0x0800b8d4   Section        0  sensors.o(i.sensorsReadMag)
    i.sensorsSetupSlaveRead                  0x0800b8f4   Section        0  sensors.o(i.sensorsSetupSlaveRead)
    sensorsSetupSlaveRead                    0x0800b8f5   Thumb Code   116  sensors.o(i.sensorsSetupSlaveRead)
    i.st_clust                               0x0800b96c   Section        0  ff.o(i.st_clust)
    st_clust                                 0x0800b96d   Thumb Code    16  ff.o(i.st_clust)
    i.startTask                              0x0800b97c   Section        0  main.o(i.startTask)
    startTask                                0x0800b97d   Thumb Code   214  main.o(i.startTask)
    i.storeAssertSnapshotData                0x0800bb04   Section        0  utils.o(i.storeAssertSnapshotData)
    i.sum_sfn                                0x0800bb1c   Section        0  ff.o(i.sum_sfn)
    sum_sfn                                  0x0800bb1d   Thumb Code    32  ff.o(i.sum_sfn)
    i.sync_fs                                0x0800bb3c   Section        0  ff.o(i.sync_fs)
    sync_fs                                  0x0800bb3d   Thumb Code   200  ff.o(i.sync_fs)
    i.sync_window                            0x0800bc04   Section        0  ff.o(i.sync_window)
    sync_window                              0x0800bc05   Thumb Code    82  ff.o(i.sync_window)
    i.tanf                                   0x0800bc58   Section        0  tanf.o(i.tanf)
    i.uxListRemove                           0x0800bdcc   Section        0  list.o(i.uxListRemove)
    i.vApplicationIdleHook                   0x0800bdf4   Section        0  main.o(i.vApplicationIdleHook)
    i.vApplicationMallocFailedHook           0x0800be10   Section        0  main.o(i.vApplicationMallocFailedHook)
    i.vApplicationStackOverflowHook          0x0800be50   Section        0  main.o(i.vApplicationStackOverflowHook)
    i.vListInitialise                        0x0800be90   Section        0  list.o(i.vListInitialise)
    i.vListInitialiseItem                    0x0800beaa   Section        0  list.o(i.vListInitialiseItem)
    i.vListInsert                            0x0800beb0   Section        0  list.o(i.vListInsert)
    i.vListInsertEnd                         0x0800bee4   Section        0  list.o(i.vListInsertEnd)
    i.vPortEnterCritical                     0x0800befc   Section        0  port.o(i.vPortEnterCritical)
    i.vPortExitCritical                      0x0800bfac   Section        0  port.o(i.vPortExitCritical)
    i.vPortFree                              0x0800c020   Section        0  heap_4.o(i.vPortFree)
    i.vPortSetupTimerInterrupt               0x0800c11c   Section        0  port.o(i.vPortSetupTimerInterrupt)
    i.vPortValidateInterruptPriority         0x0800c130   Section        0  port.o(i.vPortValidateInterruptPriority)
    i.vQueueAddToRegistry                    0x0800c1f0   Section        0  queue.o(i.vQueueAddToRegistry)
    i.vQueueWaitForMessageRestricted         0x0800c21c   Section        0  queue.o(i.vQueueWaitForMessageRestricted)
    i.vTaskDelay                             0x0800c268   Section        0  tasks.o(i.vTaskDelay)
    i.vTaskDelete                            0x0800c2ec   Section        0  tasks.o(i.vTaskDelete)
    i.vTaskMissedYield                       0x0800c408   Section        0  tasks.o(i.vTaskMissedYield)
    i.vTaskPlaceOnEventList                  0x0800c414   Section        0  tasks.o(i.vTaskPlaceOnEventList)
    i.vTaskPlaceOnEventListRestricted        0x0800c468   Section        0  tasks.o(i.vTaskPlaceOnEventListRestricted)
    i.vTaskPriorityInherit                   0x0800c4c4   Section        0  tasks.o(i.vTaskPriorityInherit)
    i.vTaskSetTimeOutState                   0x0800c574   Section        0  tasks.o(i.vTaskSetTimeOutState)
    i.vTaskStartScheduler                    0x0800c5c0   Section        0  tasks.o(i.vTaskStartScheduler)
    i.vTaskSuspendAll                        0x0800c694   Section        0  tasks.o(i.vTaskSuspendAll)
    i.vTaskSwitchContext                     0x0800c6a4   Section        0  tasks.o(i.vTaskSwitchContext)
    i.validate                               0x0800c760   Section        0  ff.o(i.validate)
    validate                                 0x0800c761   Thumb Code    50  ff.o(i.validate)
    i.writeBuf                               0x0800c794   Section        0  nrf24l01.o(i.writeBuf)
    writeBuf                                 0x0800c795   Thumb Code    68  nrf24l01.o(i.writeBuf)
    i.writeReg                               0x0800c7e0   Section        0  nrf24l01.o(i.writeReg)
    writeReg                                 0x0800c7e1   Thumb Code    50  nrf24l01.o(i.writeReg)
    i.xPortGetFreeHeapSize                   0x0800c81c   Section        0  heap_4.o(i.xPortGetFreeHeapSize)
    i.xPortStartScheduler                    0x0800c828   Section        0  port.o(i.xPortStartScheduler)
    i.xPortSysTickHandler                    0x0800c8c8   Section        0  port.o(i.xPortSysTickHandler)
    i.xQueueCreateMutex                      0x0800c8fc   Section        0  queue.o(i.xQueueCreateMutex)
    i.xQueueGenericCreate                    0x0800c920   Section        0  queue.o(i.xQueueGenericCreate)
    i.xQueueGenericReceive                   0x0800c9ac   Section        0  queue.o(i.xQueueGenericReceive)
    i.xQueueGenericReset                     0x0800cb78   Section        0  queue.o(i.xQueueGenericReset)
    i.xQueueGenericSend                      0x0800cc24   Section        0  queue.o(i.xQueueGenericSend)
    i.xQueueGenericSendFromISR               0x0800cdf0   Section        0  queue.o(i.xQueueGenericSendFromISR)
    i.xQueueGiveFromISR                      0x0800cf04   Section        0  queue.o(i.xQueueGiveFromISR)
    i.xTaskCheckForTimeOut                   0x0800d01c   Section        0  tasks.o(i.xTaskCheckForTimeOut)
    i.xTaskCreate                            0x0800d0cc   Section        0  tasks.o(i.xTaskCreate)
    i.xTaskGetSchedulerState                 0x0800d12c   Section        0  tasks.o(i.xTaskGetSchedulerState)
    i.xTaskGetTickCount                      0x0800d14c   Section        0  tasks.o(i.xTaskGetTickCount)
    i.xTaskIncrementTick                     0x0800d158   Section        0  tasks.o(i.xTaskIncrementTick)
    i.xTaskPriorityDisinherit                0x0800d2dc   Section        0  tasks.o(i.xTaskPriorityDisinherit)
    i.xTaskRemoveFromEventList               0x0800d3d8   Section        0  tasks.o(i.xTaskRemoveFromEventList)
    i.xTaskResumeAll                         0x0800d490   Section        0  tasks.o(i.xTaskResumeAll)
    i.xTimerCreateTimerTask                  0x0800d5bc   Section        0  timers.o(i.xTimerCreateTimerTask)
    i.xTimerGenericCommand                   0x0800d628   Section        0  timers.o(i.xTimerGenericCommand)
    .constdata                               0x0800d6c0   Section      512  utils.o(.constdata)
    .constdata                               0x0800d8c0   Section     2520  i2c_oled.o(.constdata)
    .constdata                               0x0800e298   Section       96  i2c_driver.o(.constdata)
    sensorsBusDef                            0x0800e298   Data          96  i2c_driver.o(.constdata)
    .constdata                               0x0800e2f8   Section       58  ff.o(.constdata)
    LfnOfs                                   0x0800e2f8   Data          13  ff.o(.constdata)
    vst                                      0x0800e306   Data          22  ff.o(.constdata)
    cst                                      0x0800e31c   Data          22  ff.o(.constdata)
    .constdata                               0x0800e332   Section    176320  cc936.o(.constdata)
    uni2oem                                  0x0800e332   Data       87172  cc936.o(.constdata)
    oem2uni                                  0x080237b6   Data       87172  cc936.o(.constdata)
    lower                                    0x08038c3a   Data         988  cc936.o(.constdata)
    upper                                    0x08039016   Data         988  cc936.o(.constdata)
    .constdata                               0x080393f8   Section      152  atan.o(.constdata)
    atanhi                                   0x080393f8   Data          32  atan.o(.constdata)
    atanlo                                   0x08039418   Data          32  atan.o(.constdata)
    aTodd                                    0x08039438   Data          40  atan.o(.constdata)
    aTeven                                   0x08039460   Data          48  atan.o(.constdata)
    .constdata                               0x08039490   Section       32  rredf.o(.constdata)
    twooverpi                                0x08039490   Data          32  rredf.o(.constdata)
    .conststring                             0x080394b0   Section       83  usart1.o(.conststring)
    .conststring                             0x08039504   Section       99  flash.o(.conststring)
    .conststring                             0x08039568   Section      479  queue.o(.conststring)
    .conststring                             0x08039748   Section      179  tasks.o(.conststring)
    .conststring                             0x080397fc   Section       66  port.o(.conststring)
    .conststring                             0x08039840   Section      138  heap_4.o(.conststring)
    .conststrlit                             0x080398cc   Section        1  utils.o(.conststrlit)
    .data                                    0x20000000   Section       12  main.o(.data)
    .data                                    0x2000000c   Section       12  stm32f10x_it.o(.data)
    sysTickCnt                               0x20000014   Data           4  stm32f10x_it.o(.data)
    .data                                    0x20000018   Section       60  sensors.o(.data)
    gyroBiasFound                            0x20000018   Data           1  sensors.o(.data)
    accScaleSum                              0x2000001c   Data           4  sensors.o(.data)
    accScale                                 0x20000020   Data           4  sensors.o(.data)
    isInit                                   0x20000024   Data           1  sensors.o(.data)
    AK8963_ASA                               0x20000025   Data           3  sensors.o(.data)
    gyroRaw                                  0x20000028   Data           6  sensors.o(.data)
    accRaw                                   0x2000002e   Data           6  sensors.o(.data)
    magRaw                                   0x20000034   Data           6  sensors.o(.data)
    isMPUPresent                             0x2000003a   Data           1  sensors.o(.data)
    isMagPresent                             0x2000003b   Data           1  sensors.o(.data)
    accelerometerDataQueue                   0x2000003c   Data           4  sensors.o(.data)
    gyroDataQueue                            0x20000040   Data           4  sensors.o(.data)
    magnetometerDataQueue                    0x20000044   Data           4  sensors.o(.data)
    sensorsDataReady                         0x20000048   Data           4  sensors.o(.data)
    accBiasFound                             0x2000004d   Data           1  sensors.o(.data)
    accScaleSumCount                         0x20000050   Data           4  sensors.o(.data)
    .data                                    0x20000054   Section       61  utils.o(.data)
    .data                                    0x20000094   Section       64  radio.o(.data)
    nrfIT                                    0x2000009c   Data           4  radio.o(.data)
    radioConnectStatus                       0x200000a0   Data           1  radio.o(.data)
    failReceiveCount                         0x200000a2   Data           2  radio.o(.data)
    duty                                     0x200000b4   Data          32  radio.o(.data)
    .data                                    0x200000d4   Section        9  usart1.o(.data)
    usart1LinkStatus                         0x200000dc   Data           1  usart1.o(.data)
    .data                                    0x200000e0   Section       14  uart4.o(.data)
    temp                                     0x200000ec   Data           2  uart4.o(.data)
    .data                                    0x200000f0   Section       14  uart5.o(.data)
    temp                                     0x200000fc   Data           2  uart5.o(.data)
    .data                                    0x20000100   Section       12  adc.o(.data)
    .data                                    0x2000010c   Section        4  spi_flash.o(.data)
    SPITimeout                               0x2000010c   Data           4  spi_flash.o(.data)
    .data                                    0x20000110   Section        1  i2c_oled.o(.data)
    .data                                    0x20000114   Section        6  delay.o(.data)
    fac_us                                   0x20000114   Data           4  delay.o(.data)
    fac_ms                                   0x20000118   Data           2  delay.o(.data)
    .data                                    0x2000011a   Section       16  servo.o(.data)
    .data                                    0x2000012a   Section        8  motor.o(.data)
    motor1_pulse_last_bias                   0x2000012e   Data           2  motor.o(.data)
    motor2_pulse_last_bias                   0x20000130   Data           2  motor.o(.data)
    .data                                    0x20000134   Section      128  i2c_driver.o(.data)
    .data                                    0x200001b4   Section        9  mpu9250.o(.data)
    devAddr                                  0x200001b4   Data           1  mpu9250.o(.data)
    I2Cx                                     0x200001b8   Data           4  mpu9250.o(.data)
    isInit                                   0x200001bc   Data           1  mpu9250.o(.data)
    .data                                    0x200001c0   Section       13  ak8963.o(.data)
    devAddr                                  0x200001c0   Data           1  ak8963.o(.data)
    buffer                                   0x200001c1   Data           6  ak8963.o(.data)
    I2Cx                                     0x200001c8   Data           4  ak8963.o(.data)
    isInit                                   0x200001cc   Data           1  ak8963.o(.data)
    .data                                    0x200001d0   Section        4  nrf24l01.o(.data)
    interruptCb                              0x200001d0   Data           4  nrf24l01.o(.data)
    .data                                    0x200001d4   Section        1  power_control.o(.data)
    .data                                    0x200001d8   Section       10  ff.o(.data)
    FatFs                                    0x200001d8   Data           8  ff.o(.data)
    Fsid                                     0x200001e0   Data           2  ff.o(.data)
    .data                                    0x200001e2   Section       20  stm32f10x_rcc.o(.data)
    APBAHBPrescTable                         0x200001e2   Data          16  stm32f10x_rcc.o(.data)
    ADCPrescTable                            0x200001f2   Data           4  stm32f10x_rcc.o(.data)
    .data                                    0x200001f8   Section       60  tasks.o(.data)
    pxDelayedTaskList                        0x200001fc   Data           4  tasks.o(.data)
    pxOverflowDelayedTaskList                0x20000200   Data           4  tasks.o(.data)
    uxDeletedTasksWaitingCleanUp             0x20000204   Data           4  tasks.o(.data)
    uxCurrentNumberOfTasks                   0x20000208   Data           4  tasks.o(.data)
    xTickCount                               0x2000020c   Data           4  tasks.o(.data)
    uxTopReadyPriority                       0x20000210   Data           4  tasks.o(.data)
    xSchedulerRunning                        0x20000214   Data           4  tasks.o(.data)
    uxPendedTicks                            0x20000218   Data           4  tasks.o(.data)
    xYieldPending                            0x2000021c   Data           4  tasks.o(.data)
    xNumOfOverflows                          0x20000220   Data           4  tasks.o(.data)
    uxTaskNumber                             0x20000224   Data           4  tasks.o(.data)
    xNextTaskUnblockTime                     0x20000228   Data           4  tasks.o(.data)
    xIdleTaskHandle                          0x2000022c   Data           4  tasks.o(.data)
    uxSchedulerSuspended                     0x20000230   Data           4  tasks.o(.data)
    .data                                    0x20000234   Section       20  timers.o(.data)
    pxCurrentTimerList                       0x20000234   Data           4  timers.o(.data)
    pxOverflowTimerList                      0x20000238   Data           4  timers.o(.data)
    xTimerQueue                              0x2000023c   Data           4  timers.o(.data)
    xTimerTaskHandle                         0x20000240   Data           4  timers.o(.data)
    xLastTime                                0x20000244   Data           4  timers.o(.data)
    .data                                    0x20000248   Section       12  port.o(.data)
    uxCriticalNesting                        0x20000248   Data           4  port.o(.data)
    ucMaxSysCallPriority                     0x2000024c   Data           1  port.o(.data)
    ulMaxPRIGROUPValue                       0x20000250   Data           4  port.o(.data)
    .data                                    0x20000254   Section       24  heap_4.o(.data)
    xStart                                   0x20000254   Data           8  heap_4.o(.data)
    pxEnd                                    0x2000025c   Data           4  heap_4.o(.data)
    xFreeBytesRemaining                      0x20000260   Data           4  heap_4.o(.data)
    xMinimumEverFreeBytesRemaining           0x20000264   Data           4  heap_4.o(.data)
    xBlockAllocatedBit                       0x20000268   Data           4  heap_4.o(.data)
    .data                                    0x2000026c   Section        4  stdout.o(.data)
    .data                                    0x20000270   Section        4  errno.o(.data)
    _errno                                   0x20000270   Data           4  errno.o(.data)
    .nzds                                    0x20000274   Section       12  utils.o(.nzds)
    .bss                                     0x20000280   Section     6504  sensors.o(.bss)
    gyroBias                                 0x20001a94   Data          12  sensors.o(.bss)
    accLpf                                   0x20001b18   Data          84  sensors.o(.bss)
    gyroLpf                                  0x20001b6c   Data          84  sensors.o(.bss)
    buffer                                   0x20001bc0   Data          22  sensors.o(.bss)
    .bss                                     0x20001be8   Section    10935  utils.o(.bss)
    lfn                                      0x200044a0   Data         511  utils.o(.bss)
    .bss                                     0x200046a0   Section       16  radio.o(.bss)
    .bss                                     0x200046b0   Section     1156  ekf.o(.bss)
    H                                        0x200046b0   Data         168  ekf.o(.bss)
    X                                        0x20004758   Data          28  ekf.o(.bss)
    KY                                       0x20004774   Data          28  ekf.o(.bss)
    Y                                        0x20004790   Data          24  ekf.o(.bss)
    CBn                                      0x200047a8   Data          36  ekf.o(.bss)
    PX                                       0x200047cc   Data         196  ekf.o(.bss)
    PXX                                      0x20004890   Data         196  ekf.o(.bss)
    PXY                                      0x20004954   Data         168  ekf.o(.bss)
    K                                        0x200049fc   Data         168  ekf.o(.bss)
    S                                        0x20004aa4   Data         144  ekf.o(.bss)
    .bss                                     0x20004b34   Section       38  usart1.o(.bss)
    usartMsgTemp                             0x20004b34   Data          38  usart1.o(.bss)
    .bss                                     0x20004b5c   Section       28  motor.o(.bss)
    .bss                                     0x20004b78   Section       30  mpu9250.o(.bss)
    buffer                                   0x20004b78   Data          14  mpu9250.o(.bss)
    verifyBuffer                             0x20004b86   Data          16  mpu9250.o(.bss)
    .bss                                     0x20004b98   Section       80  queue.o(.bss)
    .bss                                     0x20004be8   Section      300  tasks.o(.bss)
    pxReadyTasksLists                        0x20004be8   Data         200  tasks.o(.bss)
    xDelayedTaskList1                        0x20004cb0   Data          20  tasks.o(.bss)
    xDelayedTaskList2                        0x20004cc4   Data          20  tasks.o(.bss)
    xPendingReadyList                        0x20004cd8   Data          20  tasks.o(.bss)
    xTasksWaitingTermination                 0x20004cec   Data          20  tasks.o(.bss)
    xSuspendedTaskList                       0x20004d00   Data          20  tasks.o(.bss)
    .bss                                     0x20004d14   Section       40  timers.o(.bss)
    xActiveTimerList1                        0x20004d14   Data          20  timers.o(.bss)
    xActiveTimerList2                        0x20004d28   Data          20  timers.o(.bss)
    .bss                                     0x20004d3c   Section    16384  heap_4.o(.bss)
    ucHeap                                   0x20004d3c   Data       16384  heap_4.o(.bss)
    STACK                                    0x20008d40   Section     1024  startup_stm32f10x_hd.o(STACK)

    Global Symbols

    Symbol Name                              Value     Ov Type        Size  Object(Section)

    BuildAttributes$$THM_ISAv4$P$D$K$B$S$PE$A:L22UL41UL21$X:L11$S22US41US21$IEEE1$IW$USESV6$~STKCKD$USESV7$~SHL$OTIME$ROPI$IEEEX$EBA8$MICROLIB$REQ8$PRES8$EABIv2 0x00000000   Number         0  anon$$obj.o ABSOLUTE
    __ARM_use_no_argv                        0x00000000   Number         0  main.o ABSOLUTE
    _printf_a                                0x00000000   Number         0  stubs.o ABSOLUTE
    _printf_c                                0x00000000   Number         0  stubs.o ABSOLUTE
    _printf_charcount                        0x00000000   Number         0  stubs.o ABSOLUTE
    _printf_d                                0x00000000   Number         0  stubs.o ABSOLUTE
    _printf_e                                0x00000000   Number         0  stubs.o ABSOLUTE
    _printf_f                                0x00000000   Number         0  stubs.o ABSOLUTE
    _printf_flags                            0x00000000   Number         0  stubs.o ABSOLUTE
    _printf_fp_dec                           0x00000000   Number         0  stubs.o ABSOLUTE
    _printf_fp_hex                           0x00000000   Number         0  stubs.o ABSOLUTE
    _printf_g                                0x00000000   Number         0  stubs.o ABSOLUTE
    _printf_i                                0x00000000   Number         0  stubs.o ABSOLUTE
    _printf_int_dec                          0x00000000   Number         0  stubs.o ABSOLUTE
    _printf_l                                0x00000000   Number         0  stubs.o ABSOLUTE
    _printf_lc                               0x00000000   Number         0  stubs.o ABSOLUTE
    _printf_ll                               0x00000000   Number         0  stubs.o ABSOLUTE
    _printf_lld                              0x00000000   Number         0  stubs.o ABSOLUTE
    _printf_lli                              0x00000000   Number         0  stubs.o ABSOLUTE
    _printf_llo                              0x00000000   Number         0  stubs.o ABSOLUTE
    _printf_llu                              0x00000000   Number         0  stubs.o ABSOLUTE
    _printf_llx                              0x00000000   Number         0  stubs.o ABSOLUTE
    _printf_longlong_dec                     0x00000000   Number         0  stubs.o ABSOLUTE
    _printf_longlong_hex                     0x00000000   Number         0  stubs.o ABSOLUTE
    _printf_longlong_oct                     0x00000000   Number         0  stubs.o ABSOLUTE
    _printf_ls                               0x00000000   Number         0  stubs.o ABSOLUTE
    _printf_mbtowc                           0x00000000   Number         0  stubs.o ABSOLUTE
    _printf_n                                0x00000000   Number         0  stubs.o ABSOLUTE
    _printf_o                                0x00000000   Number         0  stubs.o ABSOLUTE
    _printf_p                                0x00000000   Number         0  stubs.o ABSOLUTE
    _printf_percent                          0x00000000   Number         0  stubs.o ABSOLUTE
    _printf_pre_padding                      0x00000000   Number         0  stubs.o ABSOLUTE
    _printf_return_value                     0x00000000   Number         0  stubs.o ABSOLUTE
    _printf_s                                0x00000000   Number         0  stubs.o ABSOLUTE
    _printf_sizespec                         0x00000000   Number         0  stubs.o ABSOLUTE
    _printf_str                              0x00000000   Number         0  stubs.o ABSOLUTE
    _printf_truncate_signed                  0x00000000   Number         0  stubs.o ABSOLUTE
    _printf_truncate_unsigned                0x00000000   Number         0  stubs.o ABSOLUTE
    _printf_u                                0x00000000   Number         0  stubs.o ABSOLUTE
    _printf_wc                               0x00000000   Number         0  stubs.o ABSOLUTE
    _printf_wctomb                           0x00000000   Number         0  stubs.o ABSOLUTE
    _printf_widthprec                        0x00000000   Number         0  stubs.o ABSOLUTE
    _printf_x                                0x00000000   Number         0  stubs.o ABSOLUTE
    __arm_fini_                               - Undefined Weak Reference
    __cpp_initialize__aeabi_                  - Undefined Weak Reference
    __cxa_finalize                            - Undefined Weak Reference
    _clock_init                               - Undefined Weak Reference
    _microlib_exit                            - Undefined Weak Reference
    __Vectors_Size                           0x00000130   Number         0  startup_stm32f10x_hd.o ABSOLUTE
    __Vectors                                0x08000000   Data           4  startup_stm32f10x_hd.o(RESET)
    __Vectors_End                            0x08000130   Data           0  startup_stm32f10x_hd.o(RESET)
    __main                                   0x08000131   Thumb Code     0  entry.o(.ARM.Collect$$$$00000000)
    _main_stk                                0x08000131   Thumb Code     0  entry2.o(.ARM.Collect$$$$00000001)
    _main_scatterload                        0x08000135   Thumb Code     0  entry5.o(.ARM.Collect$$$$00000004)
    __main_after_scatterload                 0x08000139   Thumb Code     0  entry5.o(.ARM.Collect$$$$00000004)
    _main_clock                              0x08000139   Thumb Code     0  entry7b.o(.ARM.Collect$$$$00000008)
    _main_cpp_init                           0x08000139   Thumb Code     0  entry8b.o(.ARM.Collect$$$$0000000A)
    _main_init                               0x08000139   Thumb Code     0  entry9a.o(.ARM.Collect$$$$0000000B)
    __rt_lib_shutdown_fini                   0x08000141   Thumb Code     0  entry12b.o(.ARM.Collect$$$$0000000E)
    __rt_final_cpp                           0x08000145   Thumb Code     0  entry10a.o(.ARM.Collect$$$$0000000F)
    __rt_final_exit                          0x08000145   Thumb Code     0  entry11a.o(.ARM.Collect$$$$00000011)
    HardFault_Handler                        0x08000149   Thumb Code    18  stm32f10x_it.o(.emb_text)
    SVC_Handler                              0x0800015d   Thumb Code    32  port.o(.emb_text)
    __asm___6_port_c_39a90d8d__prvStartFirstTask 0x08000181   Thumb Code    28  port.o(.emb_text)
    PendSV_Handler                           0x080001a1   Thumb Code    72  port.o(.emb_text)
    vPortGetIPSR                             0x080001ed   Thumb Code     6  port.o(.emb_text)
    Reset_Handler                            0x080001f5   Thumb Code     8  startup_stm32f10x_hd.o(.text)
    ADC1_2_IRQHandler                        0x0800020f   Thumb Code     0  startup_stm32f10x_hd.o(.text)
    ADC3_IRQHandler                          0x0800020f   Thumb Code     0  startup_stm32f10x_hd.o(.text)
    CAN1_RX1_IRQHandler                      0x0800020f   Thumb Code     0  startup_stm32f10x_hd.o(.text)
    CAN1_SCE_IRQHandler                      0x0800020f   Thumb Code     0  startup_stm32f10x_hd.o(.text)
    DMA1_Channel1_IRQHandler                 0x0800020f   Thumb Code     0  startup_stm32f10x_hd.o(.text)
    DMA1_Channel2_IRQHandler                 0x0800020f   Thumb Code     0  startup_stm32f10x_hd.o(.text)
    DMA1_Channel3_IRQHandler                 0x0800020f   Thumb Code     0  startup_stm32f10x_hd.o(.text)
    DMA1_Channel4_IRQHandler                 0x0800020f   Thumb Code     0  startup_stm32f10x_hd.o(.text)
    DMA1_Channel6_IRQHandler                 0x0800020f   Thumb Code     0  startup_stm32f10x_hd.o(.text)
    DMA1_Channel7_IRQHandler                 0x0800020f   Thumb Code     0  startup_stm32f10x_hd.o(.text)
    DMA2_Channel1_IRQHandler                 0x0800020f   Thumb Code     0  startup_stm32f10x_hd.o(.text)
    DMA2_Channel2_IRQHandler                 0x0800020f   Thumb Code     0  startup_stm32f10x_hd.o(.text)
    DMA2_Channel3_IRQHandler                 0x0800020f   Thumb Code     0  startup_stm32f10x_hd.o(.text)
    DMA2_Channel4_5_IRQHandler               0x0800020f   Thumb Code     0  startup_stm32f10x_hd.o(.text)
    EXTI1_IRQHandler                         0x0800020f   Thumb Code     0  startup_stm32f10x_hd.o(.text)
    EXTI4_IRQHandler                         0x0800020f   Thumb Code     0  startup_stm32f10x_hd.o(.text)
    EXTI9_5_IRQHandler                       0x0800020f   Thumb Code     0  startup_stm32f10x_hd.o(.text)
    FLASH_IRQHandler                         0x0800020f   Thumb Code     0  startup_stm32f10x_hd.o(.text)
    FSMC_IRQHandler                          0x0800020f   Thumb Code     0  startup_stm32f10x_hd.o(.text)
    I2C1_ER_IRQHandler                       0x0800020f   Thumb Code     0  startup_stm32f10x_hd.o(.text)
    I2C1_EV_IRQHandler                       0x0800020f   Thumb Code     0  startup_stm32f10x_hd.o(.text)
    PVD_IRQHandler                           0x0800020f   Thumb Code     0  startup_stm32f10x_hd.o(.text)
    RCC_IRQHandler                           0x0800020f   Thumb Code     0  startup_stm32f10x_hd.o(.text)
    RTCAlarm_IRQHandler                      0x0800020f   Thumb Code     0  startup_stm32f10x_hd.o(.text)
    RTC_IRQHandler                           0x0800020f   Thumb Code     0  startup_stm32f10x_hd.o(.text)
    SDIO_IRQHandler                          0x0800020f   Thumb Code     0  startup_stm32f10x_hd.o(.text)
    SPI1_IRQHandler                          0x0800020f   Thumb Code     0  startup_stm32f10x_hd.o(.text)
    SPI2_IRQHandler                          0x0800020f   Thumb Code     0  startup_stm32f10x_hd.o(.text)
    SPI3_IRQHandler                          0x0800020f   Thumb Code     0  startup_stm32f10x_hd.o(.text)
    TAMPER_IRQHandler                        0x0800020f   Thumb Code     0  startup_stm32f10x_hd.o(.text)
    TIM1_BRK_IRQHandler                      0x0800020f   Thumb Code     0  startup_stm32f10x_hd.o(.text)
    TIM1_CC_IRQHandler                       0x0800020f   Thumb Code     0  startup_stm32f10x_hd.o(.text)
    TIM1_TRG_COM_IRQHandler                  0x0800020f   Thumb Code     0  startup_stm32f10x_hd.o(.text)
    TIM1_UP_IRQHandler                       0x0800020f   Thumb Code     0  startup_stm32f10x_hd.o(.text)
    TIM2_IRQHandler                          0x0800020f   Thumb Code     0  startup_stm32f10x_hd.o(.text)
    TIM3_IRQHandler                          0x0800020f   Thumb Code     0  startup_stm32f10x_hd.o(.text)
    TIM4_IRQHandler                          0x0800020f   Thumb Code     0  startup_stm32f10x_hd.o(.text)
    TIM6_IRQHandler                          0x0800020f   Thumb Code     0  startup_stm32f10x_hd.o(.text)
    TIM7_IRQHandler                          0x0800020f   Thumb Code     0  startup_stm32f10x_hd.o(.text)
    TIM8_BRK_IRQHandler                      0x0800020f   Thumb Code     0  startup_stm32f10x_hd.o(.text)
    TIM8_CC_IRQHandler                       0x0800020f   Thumb Code     0  startup_stm32f10x_hd.o(.text)
    TIM8_TRG_COM_IRQHandler                  0x0800020f   Thumb Code     0  startup_stm32f10x_hd.o(.text)
    TIM8_UP_IRQHandler                       0x0800020f   Thumb Code     0  startup_stm32f10x_hd.o(.text)
    USART2_IRQHandler                        0x0800020f   Thumb Code     0  startup_stm32f10x_hd.o(.text)
    USART3_IRQHandler                        0x0800020f   Thumb Code     0  startup_stm32f10x_hd.o(.text)
    USBWakeUp_IRQHandler                     0x0800020f   Thumb Code     0  startup_stm32f10x_hd.o(.text)
    USB_HP_CAN1_TX_IRQHandler                0x0800020f   Thumb Code     0  startup_stm32f10x_hd.o(.text)
    USB_LP_CAN1_RX0_IRQHandler               0x0800020f   Thumb Code     0  startup_stm32f10x_hd.o(.text)
    WWDG_IRQHandler                          0x0800020f   Thumb Code     0  startup_stm32f10x_hd.o(.text)
    __aeabi_memcpy                           0x08000219   Thumb Code    36  memcpya.o(.text)
    __aeabi_memcpy4                          0x08000219   Thumb Code     0  memcpya.o(.text)
    __aeabi_memcpy8                          0x08000219   Thumb Code     0  memcpya.o(.text)
    __aeabi_memset                           0x0800023d   Thumb Code    14  memseta.o(.text)
    __aeabi_memset4                          0x0800023d   Thumb Code     0  memseta.o(.text)
    __aeabi_memset8                          0x0800023d   Thumb Code     0  memseta.o(.text)
    __aeabi_memclr                           0x0800024b   Thumb Code     4  memseta.o(.text)
    __aeabi_memclr4                          0x0800024b   Thumb Code     0  memseta.o(.text)
    __aeabi_memclr8                          0x0800024b   Thumb Code     0  memseta.o(.text)
    _memset$wrapper                          0x0800024f   Thumb Code    18  memseta.o(.text)
    strlen                                   0x08000261   Thumb Code    14  strlen.o(.text)
    strcpy                                   0x0800026f   Thumb Code    18  strcpy.o(.text)
    __aeabi_fadd                             0x08000281   Thumb Code   164  fadd.o(.text)
    __aeabi_fsub                             0x08000325   Thumb Code     6  fadd.o(.text)
    __aeabi_frsub                            0x0800032b   Thumb Code     6  fadd.o(.text)
    __aeabi_fmul                             0x08000331   Thumb Code   100  fmul.o(.text)
    __aeabi_fdiv                             0x08000395   Thumb Code   124  fdiv.o(.text)
    __aeabi_dadd                             0x08000411   Thumb Code   322  dadd.o(.text)
    __aeabi_dsub                             0x08000553   Thumb Code     6  dadd.o(.text)
    __aeabi_drsub                            0x08000559   Thumb Code     6  dadd.o(.text)
    __aeabi_dmul                             0x0800055f   Thumb Code   228  dmul.o(.text)
    __aeabi_ddiv                             0x08000643   Thumb Code   222  ddiv.o(.text)
    __aeabi_i2f                              0x08000721   Thumb Code    18  fflti.o(.text)
    __aeabi_ui2f                             0x08000733   Thumb Code    10  ffltui.o(.text)
    __aeabi_i2d                              0x0800073d   Thumb Code    34  dflti.o(.text)
    __aeabi_f2iz                             0x0800075f   Thumb Code    50  ffixi.o(.text)
    __aeabi_f2uiz                            0x08000791   Thumb Code    40  ffixui.o(.text)
    __aeabi_d2iz                             0x080007b9   Thumb Code    62  dfixi.o(.text)
    __aeabi_f2d                              0x080007f7   Thumb Code    38  f2d.o(.text)
    __aeabi_cdcmpeq                          0x0800081d   Thumb Code     0  cdcmple.o(.text)
    __aeabi_cdcmple                          0x0800081d   Thumb Code    48  cdcmple.o(.text)
    __aeabi_cdrcmple                         0x0800084d   Thumb Code    48  cdrcmple.o(.text)
    __aeabi_d2f                              0x0800087d   Thumb Code    56  d2f.o(.text)
    __aeabi_cfcmpeq                          0x080008b5   Thumb Code     0  cfcmple.o(.text)
    __aeabi_cfcmple                          0x080008b5   Thumb Code    20  cfcmple.o(.text)
    __aeabi_cfrcmple                         0x080008c9   Thumb Code    20  cfrcmple.o(.text)
    __aeabi_uidiv                            0x080008dd   Thumb Code     0  uidiv.o(.text)
    __aeabi_uidivmod                         0x080008dd   Thumb Code    44  uidiv.o(.text)
    __aeabi_uldivmod                         0x08000909   Thumb Code    98  uldiv.o(.text)
    __aeabi_llsl                             0x0800096b   Thumb Code    30  llshl.o(.text)
    _ll_shift_l                              0x0800096b   Thumb Code     0  llshl.o(.text)
    __aeabi_llsr                             0x08000989   Thumb Code    32  llushr.o(.text)
    _ll_ushift_r                             0x08000989   Thumb Code     0  llushr.o(.text)
    __aeabi_lasr                             0x080009a9   Thumb Code    36  llsshr.o(.text)
    _ll_sshift_r                             0x080009a9   Thumb Code     0  llsshr.o(.text)
    __I$use$fp                               0x080009cd   Thumb Code     0  iusefp.o(.text)
    _float_round                             0x080009cd   Thumb Code    18  fepilogue.o(.text)
    _float_epilogue                          0x080009df   Thumb Code    92  fepilogue.o(.text)
    __ARM_scalbnf                            0x08000a3b   Thumb Code    24  fscalb.o(.text)
    scalbnf                                  0x08000a3b   Thumb Code     0  fscalb.o(.text)
    _frnd                                    0x08000a53   Thumb Code    60  frnd.o(.text)
    _double_round                            0x08000a8f   Thumb Code    30  depilogue.o(.text)
    _double_epilogue                         0x08000aad   Thumb Code   156  depilogue.o(.text)
    __ARM_scalbn                             0x08000b49   Thumb Code    46  dscalb.o(.text)
    scalbn                                   0x08000b49   Thumb Code     0  dscalb.o(.text)
    __aeabi_d2ulz                            0x08000b77   Thumb Code    48  dfixul.o(.text)
    __scatterload                            0x08000ba9   Thumb Code    28  init.o(.text)
    __scatterload_rt2                        0x08000ba9   Thumb Code     0  init.o(.text)
    __decompress                             0x08000bcd   Thumb Code     0  __dczerorl2.o(.text)
    __decompress1                            0x08000bcd   Thumb Code    86  __dczerorl2.o(.text)
    ADC_Cmd                                  0x08000c23   Thumb Code    22  stm32f10x_adc.o(i.ADC_Cmd)
    ADC_DMACmd                               0x08000c39   Thumb Code    22  stm32f10x_adc.o(i.ADC_DMACmd)
    ADC_GetCalibrationStatus                 0x08000c4f   Thumb Code    20  stm32f10x_adc.o(i.ADC_GetCalibrationStatus)
    ADC_GetResetCalibrationStatus            0x08000c63   Thumb Code    20  stm32f10x_adc.o(i.ADC_GetResetCalibrationStatus)
    ADC_Init                                 0x08000c79   Thumb Code    70  stm32f10x_adc.o(i.ADC_Init)
    ADC_RegularChannelConfig                 0x08000cc9   Thumb Code   184  stm32f10x_adc.o(i.ADC_RegularChannelConfig)
    ADC_ResetCalibration                     0x08000d81   Thumb Code    10  stm32f10x_adc.o(i.ADC_ResetCalibration)
    ADC_SoftwareStartConvCmd                 0x08000d8b   Thumb Code    22  stm32f10x_adc.o(i.ADC_SoftwareStartConvCmd)
    ADC_StartCalibration                     0x08000da1   Thumb Code    10  stm32f10x_adc.o(i.ADC_StartCalibration)
    ADCx_Init                                0x08000dd1   Thumb Code    12  adc.o(i.ADCx_Init)
    ADJ_Outpt_Init                           0x08000ed9   Thumb Code    50  power_control.o(i.ADJ_Outpt_Init)
    BusFault_Handler                         0x08000f11   Thumb Code     4  stm32f10x_it.o(i.BusFault_Handler)
    Buzzer_Init                              0x08000f15   Thumb Code   162  buzzer.o(i.Buzzer_Init)
    CAN_FilterInit                           0x08000fc1   Thumb Code   258  stm32f10x_can.o(i.CAN_FilterInit)
    CAN_Init                                 0x080010c9   Thumb Code   276  stm32f10x_can.o(i.CAN_Init)
    CAN_Mode_Init                            0x080011dd   Thumb Code   200  can.o(i.CAN_Mode_Init)
    CAN_Transmit                             0x080012ad   Thumb Code   294  stm32f10x_can.o(i.CAN_Transmit)
    CAN_TransmitStatus                       0x080013d5   Thumb Code   138  stm32f10x_can.o(i.CAN_TransmitStatus)
    CRC_Table                                0x08001475   Thumb Code    48  utils.o(i.CRC_Table)
    CanSendMsg                               0x08001671   Thumb Code   104  can.o(i.CanSendMsg)
    DMA1_Channel5_IRQHandler                 0x080016dd   Thumb Code    10  i2c_driver.o(i.DMA1_Channel5_IRQHandler)
    DMA_ClearITPendingBit                    0x080016ed   Thumb Code    18  stm32f10x_dma.o(i.DMA_ClearITPendingBit)
    DMA_Cmd                                  0x08001709   Thumb Code    24  stm32f10x_dma.o(i.DMA_Cmd)
    DMA_DeInit                               0x08001721   Thumb Code   324  stm32f10x_dma.o(i.DMA_DeInit)
    DMA_GetFlagStatus                        0x0800186d   Thumb Code    36  stm32f10x_dma.o(i.DMA_GetFlagStatus)
    DMA_ITConfig                             0x08001899   Thumb Code    18  stm32f10x_dma.o(i.DMA_ITConfig)
    DMA_Init                                 0x080018ab   Thumb Code    60  stm32f10x_dma.o(i.DMA_Init)
    DebugMon_Handler                         0x080018e7   Thumb Code     2  stm32f10x_it.o(i.DebugMon_Handler)
    Delay_Init                               0x080018e9   Thumb Code    58  delay.o(i.Delay_Init)
    Duty_to_PWM                              0x0800192d   Thumb Code    30  servo.o(i.Duty_to_PWM)
    EKF_AHRSInit                             0x08001955   Thumb Code    30  ekf.o(i.EKF_AHRSInit)
    EXTI0_IRQHandler                         0x08001979   Thumb Code   108  motor.o(i.EXTI0_IRQHandler)
    EXTI15_10_IRQHandler                     0x080019ed   Thumb Code    36  nrf24l01.o(i.EXTI15_10_IRQHandler)
    EXTI2_IRQHandler                         0x08001a15   Thumb Code    56  sensors.o(i.EXTI2_IRQHandler)
    EXTI3_IRQHandler                         0x08001a55   Thumb Code   108  motor.o(i.EXTI3_IRQHandler)
    EXTI_ClearITPendingBit                   0x08001ac9   Thumb Code     6  stm32f10x_exti.o(i.EXTI_ClearITPendingBit)
    EXTI_GetITStatus                         0x08001ad5   Thumb Code    34  stm32f10x_exti.o(i.EXTI_GetITStatus)
    EXTI_Init                                0x08001afd   Thumb Code   142  stm32f10x_exti.o(i.EXTI_Init)
    FLASH_ClearFlag                          0x08001b91   Thumb Code     6  stm32f10x_flash.o(i.FLASH_ClearFlag)
    FLASH_ErasePage                          0x08001b9d   Thumb Code    72  stm32f10x_flash.o(i.FLASH_ErasePage)
    FLASH_GetBank1Status                     0x08001be9   Thumb Code    48  stm32f10x_flash.o(i.FLASH_GetBank1Status)
    FLASH_Lock                               0x08001c1d   Thumb Code    14  stm32f10x_flash.o(i.FLASH_Lock)
    FLASH_ProgramWord                        0x08001c31   Thumb Code   102  stm32f10x_flash.o(i.FLASH_ProgramWord)
    FLASH_Unlock                             0x08001c9d   Thumb Code    12  stm32f10x_flash.o(i.FLASH_Unlock)
    FLASH_WaitForLastOperation               0x08001cb5   Thumb Code    38  stm32f10x_flash.o(i.FLASH_WaitForLastOperation)
    FastSqrt                                 0x08001ced   Thumb Code    20  fast_math.o(i.FastSqrt)
    FastSqrtI                                0x08001d01   Thumb Code    62  fast_math.o(i.FastSqrtI)
    FileSystem_Init                          0x08001d4d   Thumb Code   278  utils.o(i.FileSystem_Init)
    GPIO_EXTILineConfig                      0x08001ff9   Thumb Code    60  stm32f10x_gpio.o(i.GPIO_EXTILineConfig)
    GPIO_Init                                0x08002039   Thumb Code   278  stm32f10x_gpio.o(i.GPIO_Init)
    GPIO_PinRemapConfig                      0x08002151   Thumb Code   138  stm32f10x_gpio.o(i.GPIO_PinRemapConfig)
    GPIO_ReadInputDataBit                    0x080021e1   Thumb Code    18  stm32f10x_gpio.o(i.GPIO_ReadInputDataBit)
    GPIO_ResetBits                           0x080021f3   Thumb Code     4  stm32f10x_gpio.o(i.GPIO_ResetBits)
    GPIO_SetBits                             0x080021f7   Thumb Code     4  stm32f10x_gpio.o(i.GPIO_SetBits)
    GPIO_StructInit                          0x080021fb   Thumb Code    16  stm32f10x_gpio.o(i.GPIO_StructInit)
    Get_AccGyroData                          0x0800220d   Thumb Code   246  sensors.o(i.Get_AccGyroData)
    Get_MagData                              0x08002315   Thumb Code    88  sensors.o(i.Get_MagData)
    I2C2_ER_IRQHandler                       0x08002375   Thumb Code    10  i2c_driver.o(i.I2C2_ER_IRQHandler)
    I2C2_EV_IRQHandler                       0x08002385   Thumb Code    10  i2c_driver.o(i.I2C2_EV_IRQHandler)
    I2C_AcknowledgeConfig                    0x08002395   Thumb Code    24  stm32f10x_i2c.o(i.I2C_AcknowledgeConfig)
    I2C_ClearFlag                            0x080023ad   Thumb Code    12  stm32f10x_i2c.o(i.I2C_ClearFlag)
    I2C_DMACmd                               0x080023b9   Thumb Code    24  stm32f10x_i2c.o(i.I2C_DMACmd)
    I2C_DMALastTransferCmd                   0x080023d1   Thumb Code    24  stm32f10x_i2c.o(i.I2C_DMALastTransferCmd)
    I2C_DeInit                               0x080023e9   Thumb Code    50  stm32f10x_i2c.o(i.I2C_DeInit)
    I2C_GetFlagStatus                        0x08002421   Thumb Code    58  stm32f10x_i2c.o(i.I2C_GetFlagStatus)
    I2C_ITConfig                             0x0800245b   Thumb Code    18  stm32f10x_i2c.o(i.I2C_ITConfig)
    I2C_Init                                 0x0800246d   Thumb Code   222  stm32f10x_i2c.o(i.I2C_Init)
    I2C_ReceiveData                          0x08002559   Thumb Code     8  stm32f10x_i2c.o(i.I2C_ReceiveData)
    I2C_Send7bitAddress                      0x08002561   Thumb Code    18  stm32f10x_i2c.o(i.I2C_Send7bitAddress)
    I2C_SendData                             0x08002573   Thumb Code     4  stm32f10x_i2c.o(i.I2C_SendData)
    IWDG_ReloadCounter                       0x08002579   Thumb Code    10  stm32f10x_iwdg.o(i.IWDG_ReloadCounter)
    LED_Init                                 0x08002589   Thumb Code    44  led.o(i.LED_Init)
    LoadConfigData                           0x080025b9   Thumb Code   206  flash.o(i.LoadConfigData)
    MAIN_Output_Init                         0x08002699   Thumb Code    50  power_control.o(i.MAIN_Output_Init)
    MemManage_Handler                        0x080026d1   Thumb Code    14  stm32f10x_it.o(i.MemManage_Handler)
    MenuTask                                 0x080026e5   Thumb Code   410  i2c_oled.o(i.MenuTask)
    Motor1_Brake                             0x080028c5   Thumb Code    24  motor.o(i.Motor1_Brake)
    Motor1_Encoder_Init                      0x080028dd   Thumb Code   102  motor.o(i.Motor1_Encoder_Init)
    Motor1_Speed_Control                     0x08002949   Thumb Code   246  motor.o(i.Motor1_Speed_Control)
    Motor2_Brake                             0x08002a5d   Thumb Code    24  motor.o(i.Motor2_Brake)
    Motor2_Encoder_Init                      0x08002a75   Thumb Code   104  motor.o(i.Motor2_Encoder_Init)
    Motor2_Speed_Control                     0x08002ae1   Thumb Code   246  motor.o(i.Motor2_Speed_Control)
    MotorTask                                0x08002bf5   Thumb Code   304  motor.o(i.MotorTask)
    Motor_Init                               0x08002d31   Thumb Code    28  motor.o(i.Motor_Init)
    Motor_PWM_Duty                           0x08002d4d   Thumb Code    72  motor.o(i.Motor_PWM_Duty)
    Motor_Speed_Calculate                    0x08002d99   Thumb Code   206  motor.o(i.Motor_Speed_Calculate)
    NMI_Handler                              0x08002e79   Thumb Code     2  stm32f10x_it.o(i.NMI_Handler)
    NRF_Init                                 0x08002e7d   Thumb Code   146  nrf24l01.o(i.NRF_Init)
    NVIC_Init                                0x08003041   Thumb Code   100  misc.o(i.NVIC_Init)
    NVIC_PriorityGroupConfig                 0x080030b1   Thumb Code    10  misc.o(i.NVIC_PriorityGroupConfig)
    OLED_CLS                                 0x080030c5   Thumb Code    66  i2c_oled.o(i.OLED_CLS)
    OLED_DrawBMP                             0x0800310d   Thumb Code   106  i2c_oled.o(i.OLED_DrawBMP)
    OLED_Init                                0x0800317d   Thumb Code   188  i2c_oled.o(i.OLED_Init)
    OLED_SetPos                              0x08003239   Thumb Code    36  i2c_oled.o(i.OLED_SetPos)
    OLED_ShowParm                            0x0800325d   Thumb Code   182  i2c_oled.o(i.OLED_ShowParm)
    OLED_ShowStr                             0x0800338d   Thumb Code   212  i2c_oled.o(i.OLED_ShowStr)
    OLED_WriteCmd                            0x0800346d   Thumb Code    18  i2c_oled.o(i.OLED_WriteCmd)
    PWM                                      0x08003485   Thumb Code    40  servo.o(i.PWM)
    ParseRadioMsg                            0x080034ad   Thumb Code  1100  radio.o(i.ParseRadioMsg)
    PowerControl_Init                        0x080038f9   Thumb Code    38  power_control.o(i.PowerControl_Init)
    PowerKey_Init                            0x08003925   Thumb Code    38  key.o(i.PowerKey_Init)
    PowerTask                                0x08003951   Thumb Code   500  power_control.o(i.PowerTask)
    ProcessMsg                               0x08003b75   Thumb Code   922  usart1.o(i.ProcessMsg)
    Quaternion_FromRotationMatrix            0x08003f2d   Thumb Code   518  quaternion.o(i.Quaternion_FromRotationMatrix)
    RCC_ADCCLKConfig                         0x08004139   Thumb Code    18  stm32f10x_rcc.o(i.RCC_ADCCLKConfig)
    RCC_AHBPeriphClockCmd                    0x08004151   Thumb Code    26  stm32f10x_rcc.o(i.RCC_AHBPeriphClockCmd)
    RCC_APB1PeriphClockCmd                   0x08004171   Thumb Code    26  stm32f10x_rcc.o(i.RCC_APB1PeriphClockCmd)
    RCC_APB1PeriphResetCmd                   0x08004191   Thumb Code    26  stm32f10x_rcc.o(i.RCC_APB1PeriphResetCmd)
    RCC_APB2PeriphClockCmd                   0x080041b1   Thumb Code    26  stm32f10x_rcc.o(i.RCC_APB2PeriphClockCmd)
    RCC_GetClocksFreq                        0x080041d1   Thumb Code   192  stm32f10x_rcc.o(i.RCC_GetClocksFreq)
    RadioTask                                0x080042a5   Thumb Code   282  radio.o(i.RadioTask)
    Read_Encoder                             0x080043d5   Thumb Code    34  motor.o(i.Read_Encoder)
    SPI_Cmd                                  0x08004405   Thumb Code    24  stm32f10x_spi.o(i.SPI_Cmd)
    SPI_FLASH_BufferRead                     0x0800441d   Thumb Code    80  spi_flash.o(i.SPI_FLASH_BufferRead)
    SPI_FLASH_BufferWrite                    0x08004471   Thumb Code   290  spi_flash.o(i.SPI_FLASH_BufferWrite)
    SPI_FLASH_Init                           0x08004595   Thumb Code   188  spi_flash.o(i.SPI_FLASH_Init)
    SPI_FLASH_PageWrite                      0x08004659   Thumb Code   102  spi_flash.o(i.SPI_FLASH_PageWrite)
    SPI_FLASH_ReadID                         0x080046f9   Thumb Code    78  spi_flash.o(i.SPI_FLASH_ReadID)
    SPI_FLASH_SectorErase                    0x0800474d   Thumb Code    66  spi_flash.o(i.SPI_FLASH_SectorErase)
    SPI_FLASH_SendByte                       0x08004795   Thumb Code   110  spi_flash.o(i.SPI_FLASH_SendByte)
    SPI_FLASH_WaitForWriteEnd                0x0800480d   Thumb Code    50  spi_flash.o(i.SPI_FLASH_WaitForWriteEnd)
    SPI_FLASH_WriteEnable                    0x08004845   Thumb Code    30  spi_flash.o(i.SPI_FLASH_WriteEnable)
    SPI_Flash_WAKEUP                         0x08004869   Thumb Code    30  spi_flash.o(i.SPI_Flash_WAKEUP)
    SPI_I2S_GetFlagStatus                    0x0800488d   Thumb Code    18  stm32f10x_spi.o(i.SPI_I2S_GetFlagStatus)
    SPI_I2S_ReceiveData                      0x0800489f   Thumb Code     6  stm32f10x_spi.o(i.SPI_I2S_ReceiveData)
    SPI_I2S_SendData                         0x080048a5   Thumb Code     4  stm32f10x_spi.o(i.SPI_I2S_SendData)
    SPI_Init                                 0x080048a9   Thumb Code    60  stm32f10x_spi.o(i.SPI_Init)
    SaveConfigData                           0x08004959   Thumb Code   298  flash.o(i.SaveConfigData)
    SensorTask                               0x08004a8d   Thumb Code   870  sensors.o(i.SensorTask)
    Servo_Init                               0x08004e35   Thumb Code    12  servo.o(i.Servo_Init)
    Set_Motor1_PWM                           0x08004f29   Thumb Code    66  motor.o(i.Set_Motor1_PWM)
    Set_Motor2_PWM                           0x08004f71   Thumb Code    66  motor.o(i.Set_Motor2_PWM)
    Set_Servo_PWM                            0x08004fb9   Thumb Code    84  servo.o(i.Set_Servo_PWM)
    SysTick_CLKSourceConfig                  0x08005015   Thumb Code    40  misc.o(i.SysTick_CLKSourceConfig)
    SysTick_Handler                          0x0800503d   Thumb Code    28  stm32f10x_it.o(i.SysTick_Handler)
    SystemInit                               0x0800505d   Thumb Code    78  system_stm32f10x.o(i.SystemInit)
    TIM3_Init                                0x080050bd   Thumb Code   242  servo.o(i.TIM3_Init)
    TIM4_Init                                0x080051bd   Thumb Code   200  motor.o(i.TIM4_Init)
    TIM5_IRQHandler                          0x0800528d   Thumb Code    18  motor.o(i.TIM5_IRQHandler)
    TIM8_Init                                0x080052a5   Thumb Code   212  servo.o(i.TIM8_Init)
    TIM_ClearFlag                            0x08005381   Thumb Code     6  stm32f10x_tim.o(i.TIM_ClearFlag)
    TIM_Cmd                                  0x08005387   Thumb Code    24  stm32f10x_tim.o(i.TIM_Cmd)
    TIM_CtrlPWMOutputs                       0x0800539f   Thumb Code    30  stm32f10x_tim.o(i.TIM_CtrlPWMOutputs)
    TIM_ITConfig                             0x080053bd   Thumb Code    18  stm32f10x_tim.o(i.TIM_ITConfig)
    TIM_OC1Init                              0x080053d1   Thumb Code   132  stm32f10x_tim.o(i.TIM_OC1Init)
    TIM_OC1PreloadConfig                     0x08005469   Thumb Code    18  stm32f10x_tim.o(i.TIM_OC1PreloadConfig)
    TIM_OC2Init                              0x0800547d   Thumb Code   154  stm32f10x_tim.o(i.TIM_OC2Init)
    TIM_OC2PreloadConfig                     0x08005521   Thumb Code    26  stm32f10x_tim.o(i.TIM_OC2PreloadConfig)
    TIM_OC3Init                              0x0800553d   Thumb Code   150  stm32f10x_tim.o(i.TIM_OC3Init)
    TIM_OC3PreloadConfig                     0x080055dd   Thumb Code    18  stm32f10x_tim.o(i.TIM_OC3PreloadConfig)
    TIM_OC4Init                              0x080055f1   Thumb Code   114  stm32f10x_tim.o(i.TIM_OC4Init)
    TIM_OC4PreloadConfig                     0x0800566d   Thumb Code    26  stm32f10x_tim.o(i.TIM_OC4PreloadConfig)
    TIM_TimeBaseInit                         0x08005689   Thumb Code   122  stm32f10x_tim.o(i.TIM_TimeBaseInit)
    UART4_IRQHandler                         0x0800572d   Thumb Code   102  uart4.o(i.UART4_IRQHandler)
    UART4_Init                               0x080057a5   Thumb Code   192  uart4.o(i.UART4_Init)
    UART5_IRQHandler                         0x0800586d   Thumb Code   102  uart5.o(i.UART5_IRQHandler)
    UART5_Init                               0x080058e5   Thumb Code   188  uart5.o(i.UART5_Init)
    USART1_IRQHandler                        0x080059ad   Thumb Code   282  usart1.o(i.USART1_IRQHandler)
    USART1_Init                              0x08005ad9   Thumb Code   154  usart1.o(i.USART1_Init)
    USART_ClockInit                          0x08005b7d   Thumb Code    34  stm32f10x_usart.o(i.USART_ClockInit)
    USART_Cmd                                0x08005b9f   Thumb Code    24  stm32f10x_usart.o(i.USART_Cmd)
    USART_GetFlagStatus                      0x08005bb7   Thumb Code    26  stm32f10x_usart.o(i.USART_GetFlagStatus)
    USART_GetITStatus                        0x08005bd1   Thumb Code    84  stm32f10x_usart.o(i.USART_GetITStatus)
    USART_ITConfig                           0x08005c25   Thumb Code    74  stm32f10x_usart.o(i.USART_ITConfig)
    USART_Init                               0x08005c71   Thumb Code   210  stm32f10x_usart.o(i.USART_Init)
    USART_ReceiveData                        0x08005d49   Thumb Code    10  stm32f10x_usart.o(i.USART_ReceiveData)
    USART_SendData                           0x08005d53   Thumb Code     8  stm32f10x_usart.o(i.USART_SendData)
    Uart4Task                                0x08005d5d   Thumb Code    82  uart4.o(i.Uart4Task)
    Uart5Task                                0x08005db9   Thumb Code    92  uart5.o(i.Uart5Task)
    UsageFault_Handler                       0x08005e41   Thumb Code     4  stm32f10x_it.o(i.UsageFault_Handler)
    Usart1LinkStatus                         0x08005e45   Thumb Code     6  usart1.o(i.Usart1LinkStatus)
    Usart1Task                               0x08005e51   Thumb Code    98  usart1.o(i.Usart1Task)
    UserKey_Init                             0x08005ec1   Thumb Code    38  key.o(i.UserKey_Init)
    __0printf                                0x08005eed   Thumb Code    22  printfa.o(i.__0printf)
    __1printf                                0x08005eed   Thumb Code     0  printfa.o(i.__0printf)
    __2printf                                0x08005eed   Thumb Code     0  printfa.o(i.__0printf)
    __c89printf                              0x08005eed   Thumb Code     0  printfa.o(i.__0printf)
    printf                                   0x08005eed   Thumb Code     0  printfa.o(i.__0printf)
    __0sprintf                               0x08005f0d   Thumb Code    34  printfa.o(i.__0sprintf)
    __1sprintf                               0x08005f0d   Thumb Code     0  printfa.o(i.__0sprintf)
    __2sprintf                               0x08005f0d   Thumb Code     0  printfa.o(i.__0sprintf)
    __c89sprintf                             0x08005f0d   Thumb Code     0  printfa.o(i.__0sprintf)
    sprintf                                  0x08005f0d   Thumb Code     0  printfa.o(i.__0sprintf)
    __ARM_fpclassify                         0x08005f35   Thumb Code    40  fpclassify.o(i.__ARM_fpclassify)
    __ARM_fpclassifyf                        0x08005f5d   Thumb Code    38  fpclassifyf.o(i.__ARM_fpclassifyf)
    __kernel_poly                            0x08005f83   Thumb Code   170  poly.o(i.__kernel_poly)
    __mathlib_dbl_infnan                     0x0800602d   Thumb Code     6  dunder.o(i.__mathlib_dbl_infnan)
    __mathlib_dbl_underflow                  0x08006035   Thumb Code    10  dunder.o(i.__mathlib_dbl_underflow)
    __mathlib_flt_infnan                     0x08006045   Thumb Code     6  funder.o(i.__mathlib_flt_infnan)
    __mathlib_flt_invalid                    0x0800604b   Thumb Code     8  funder.o(i.__mathlib_flt_invalid)
    __mathlib_flt_underflow                  0x08006053   Thumb Code    10  funder.o(i.__mathlib_flt_underflow)
    __mathlib_rredf2                         0x0800605d   Thumb Code   344  rredf.o(i.__mathlib_rredf2)
    __scatterload_copy                       0x080061c5   Thumb Code    14  handlers.o(i.__scatterload_copy)
    __scatterload_null                       0x080061d3   Thumb Code     2  handlers.o(i.__scatterload_null)
    __scatterload_zeroinit                   0x080061d5   Thumb Code    14  handlers.o(i.__scatterload_zeroinit)
    __set_errno                              0x080061e5   Thumb Code     6  errno.o(i.__set_errno)
    ak8963Init                               0x08006a85   Thumb Code    22  ak8963.o(i.ak8963Init)
    ak8963SetMode                            0x08006aa9   Thumb Code    22  ak8963.o(i.ak8963SetMode)
    ak8963TestConnection                     0x08006ac9   Thumb Code    40  ak8963.o(i.ak8963TestConnection)
    assertFail                               0x08006afd   Thumb Code    44  utils.o(i.assertFail)
    atan                                     0x08006b41   Thumb Code   474  atan.o(i.atan)
    clust2sect                               0x08006e05   Thumb Code    26  ff.o(i.clust2sect)
    cosf                                     0x08006ec1   Thumb Code   328  cosf.o(i.cosf)
    delay_ms                                 0x08007385   Thumb Code    62  delay.o(i.delay_ms)
    delay_us                                 0x080073c9   Thumb Code    68  delay.o(i.delay_us)
    disk_initialize                          0x08007949   Thumb Code    58  diskio.o(i.disk_initialize)
    disk_ioctl                               0x08007983   Thumb Code    66  diskio.o(i.disk_ioctl)
    disk_read                                0x080079c5   Thumb Code    62  diskio.o(i.disk_read)
    disk_status                              0x08007a05   Thumb Code    46  diskio.o(i.disk_status)
    disk_write                               0x08007a39   Thumb Code    78  diskio.o(i.disk_write)
    f_close                                  0x08007a87   Thumb Code    32  ff.o(i.f_close)
    f_getfree                                0x08007aa7   Thumb Code   258  ff.o(i.f_getfree)
    f_lseek                                  0x08007ba9   Thumb Code   410  ff.o(i.f_lseek)
    f_mkfs                                   0x08007d45   Thumb Code  1622  ff.o(i.f_mkfs)
    f_mount                                  0x080083c9   Thumb Code    86  ff.o(i.f_mount)
    f_open                                   0x08008425   Thumb Code   382  ff.o(i.f_open)
    f_opendir                                0x080085a3   Thumb Code   118  ff.o(i.f_opendir)
    f_read                                   0x08008619   Thumb Code   464  ff.o(i.f_read)
    f_readdir                                0x080087e9   Thumb Code   100  ff.o(i.f_readdir)
    f_sync                                   0x0800884d   Thumb Code   176  ff.o(i.f_sync)
    ff_convert                               0x080088fd   Thumb Code   116  cc936.o(i.ff_convert)
    ff_wtoupper                              0x08008979   Thumb Code    84  cc936.o(i.ff_wtoupper)
    fputc                                    0x08008ebd   Thumb Code    32  usart1.o(i.fputc)
    getSysTickCnt                            0x08008fad   Thumb Code    22  stm32f10x_it.o(i.getSysTickCnt)
    get_fat                                  0x08008fc9   Thumb Code   318  ff.o(i.get_fat)
    get_fattime                              0x08009109   Thumb Code     4  diskio.o(i.get_fattime)
    i2cdevInit                               0x080092b7   Thumb Code    14  i2c_device.o(i.i2cdevInit)
    i2cdevRead                               0x080092c5   Thumb Code    68  i2c_device.o(i.i2cdevRead)
    i2cdevReadByte                           0x08009309   Thumb Code    26  i2c_device.o(i.i2cdevReadByte)
    i2cdevWrite                              0x08009323   Thumb Code    68  i2c_device.o(i.i2cdevWrite)
    i2cdevWriteBit                           0x08009367   Thumb Code    80  i2c_device.o(i.i2cdevWriteBit)
    i2cdevWriteBits                          0x080093b7   Thumb Code   100  i2c_device.o(i.i2cdevWriteBits)
    i2cdevWriteByte                          0x0800941b   Thumb Code    30  i2c_device.o(i.i2cdevWriteByte)
    i2cdrvCreateMessage                      0x08009471   Thumb Code    32  i2c_driver.o(i.i2cdrvCreateMessage)
    i2cdrvCreateMessageIntAddr               0x08009491   Thumb Code    28  i2c_driver.o(i.i2cdrvCreateMessageIntAddr)
    i2cdrvInit                               0x080097bb   Thumb Code    12  i2c_driver.o(i.i2cdrvInit)
    i2cdrvMessageTransfer                    0x080098fd   Thumb Code    96  i2c_driver.o(i.i2cdrvMessageTransfer)
    lpf2pInit                                0x08009ae5   Thumb Code    36  filter.o(i.lpf2pInit)
    lpf2pSetCutoffFreq                       0x08009b09   Thumb Code   234  filter.o(i.lpf2pSetCutoffFreq)
    main                                     0x08009bfd   Thumb Code   146  main.o(i.main)
    mpu6500GetDeviceID                       0x08009d4d   Thumb Code    24  mpu9250.o(i.mpu6500GetDeviceID)
    mpu6500Init                              0x08009d71   Thumb Code    28  mpu9250.o(i.mpu6500Init)
    mpu6500Reset                             0x08009d99   Thumb Code    24  mpu9250.o(i.mpu6500Reset)
    mpu6500SetAccelDLPF                      0x08009db9   Thumb Code    28  mpu9250.o(i.mpu6500SetAccelDLPF)
    mpu6500SetClockSource                    0x08009ddd   Thumb Code    28  mpu9250.o(i.mpu6500SetClockSource)
    mpu6500SetDLPFMode                       0x08009e01   Thumb Code    28  mpu9250.o(i.mpu6500SetDLPFMode)
    mpu6500SetFullScaleAccelRange            0x08009e25   Thumb Code    28  mpu9250.o(i.mpu6500SetFullScaleAccelRange)
    mpu6500SetFullScaleGyroRange             0x08009e49   Thumb Code    28  mpu9250.o(i.mpu6500SetFullScaleGyroRange)
    mpu6500SetI2CBypassEnabled               0x08009e6d   Thumb Code    24  mpu9250.o(i.mpu6500SetI2CBypassEnabled)
    mpu6500SetI2CMasterModeEnabled           0x08009e8d   Thumb Code    24  mpu9250.o(i.mpu6500SetI2CMasterModeEnabled)
    mpu6500SetIntDataReadyEnabled            0x08009ead   Thumb Code    24  mpu9250.o(i.mpu6500SetIntDataReadyEnabled)
    mpu6500SetIntEnabled                     0x08009ecd   Thumb Code    22  mpu9250.o(i.mpu6500SetIntEnabled)
    mpu6500SetInterruptDrive                 0x08009eed   Thumb Code    24  mpu9250.o(i.mpu6500SetInterruptDrive)
    mpu6500SetInterruptLatch                 0x08009f0d   Thumb Code    24  mpu9250.o(i.mpu6500SetInterruptLatch)
    mpu6500SetInterruptLatchClear            0x08009f2d   Thumb Code    24  mpu9250.o(i.mpu6500SetInterruptLatchClear)
    mpu6500SetInterruptMode                  0x08009f4d   Thumb Code    24  mpu9250.o(i.mpu6500SetInterruptMode)
    mpu6500SetMasterClockSpeed               0x08009f6d   Thumb Code    28  mpu9250.o(i.mpu6500SetMasterClockSpeed)
    mpu6500SetRate                           0x08009f91   Thumb Code    22  mpu9250.o(i.mpu6500SetRate)
    mpu6500SetSlave4MasterDelay              0x08009fb1   Thumb Code    28  mpu9250.o(i.mpu6500SetSlave4MasterDelay)
    mpu6500SetSlaveAddress                   0x08009fd5   Thumb Code    38  mpu9250.o(i.mpu6500SetSlaveAddress)
    mpu6500SetSlaveDataLength                0x0800a005   Thumb Code    44  mpu9250.o(i.mpu6500SetSlaveDataLength)
    mpu6500SetSlaveDelayEnabled              0x0800a039   Thumb Code    26  mpu9250.o(i.mpu6500SetSlaveDelayEnabled)
    mpu6500SetSlaveEnabled                   0x0800a05d   Thumb Code    40  mpu9250.o(i.mpu6500SetSlaveEnabled)
    mpu6500SetSlaveReadWriteTransitionEnabled 0x0800a08d   Thumb Code    24  mpu9250.o(i.mpu6500SetSlaveReadWriteTransitionEnabled)
    mpu6500SetSlaveRegister                  0x0800a0ad   Thumb Code    38  mpu9250.o(i.mpu6500SetSlaveRegister)
    mpu6500SetSleepEnabled                   0x0800a0dd   Thumb Code    24  mpu9250.o(i.mpu6500SetSleepEnabled)
    mpu6500SetTempSensorEnabled              0x0800a0fd   Thumb Code    28  mpu9250.o(i.mpu6500SetTempSensorEnabled)
    mpu6500SetWaitForExternalSensorEnabled   0x0800a121   Thumb Code    24  mpu9250.o(i.mpu6500SetWaitForExternalSensorEnabled)
    nrf_check                                0x0800a141   Thumb Code    68  nrf24l01.o(i.nrf_check)
    nrf_checkEventandRxPacket                0x0800a18d   Thumb Code    98  nrf24l01.o(i.nrf_checkEventandRxPacket)
    nrf_rxPacket                             0x0800a209   Thumb Code    62  nrf24l01.o(i.nrf_rxPacket)
    nrf_setAddress                           0x0800a24d   Thumb Code    34  nrf24l01.o(i.nrf_setAddress)
    nrf_setArc                               0x0800a26f   Thumb Code    32  nrf24l01.o(i.nrf_setArc)
    nrf_setArd                               0x0800a28f   Thumb Code    44  nrf24l01.o(i.nrf_setArd)
    nrf_setChannel                           0x0800a2bb   Thumb Code    18  nrf24l01.o(i.nrf_setChannel)
    nrf_setDataRate                          0x0800a2cd   Thumb Code    56  nrf24l01.o(i.nrf_setDataRate)
    nrf_setIterruptCallback                  0x0800a305   Thumb Code     6  nrf24l01.o(i.nrf_setIterruptCallback)
    nrf_setPower                             0x0800a311   Thumb Code    66  nrf24l01.o(i.nrf_setPower)
    nrf_txPacket_AP                          0x0800a355   Thumb Code    34  nrf24l01.o(i.nrf_txPacket_AP)
    printHardFault                           0x0800a3fd   Thumb Code   186  stm32f10x_it.o(i.printHardFault)
    put_fat                                  0x0800b069   Thumb Code   392  ff.o(i.put_fat)
    pvPortMalloc                             0x0800b1f1   Thumb Code   274  heap_4.o(i.pvPortMalloc)
    pvTaskIncrementMutexHeldCount            0x0800b379   Thumb Code    26  tasks.o(i.pvTaskIncrementMutexHeldCount)
    pxPortInitialiseStack                    0x0800b399   Thumb Code    30  port.o(i.pxPortInitialiseStack)
    radiolinkConnectStatus                   0x0800b3fd   Thumb Code     6  radio.o(i.radiolinkConnectStatus)
    radiolinkInit                            0x0800b409   Thumb Code    52  radio.o(i.radiolinkInit)
    scan_files                               0x0800b559   Thumb Code   140  utils.o(i.scan_files)
    sensorsAcquire                           0x0800b5f5   Thumb Code    30  sensors.o(i.sensorsAcquire)
    sensorsDeviceInit                        0x0800b621   Thumb Code   256  sensors.o(i.sensorsDeviceInit)
    sensorsInit                              0x0800b7cd   Thumb Code    48  sensors.o(i.sensorsInit)
    sensorsReadAcc                           0x0800b895   Thumb Code    28  sensors.o(i.sensorsReadAcc)
    sensorsReadGyro                          0x0800b8b5   Thumb Code    28  sensors.o(i.sensorsReadGyro)
    sensorsReadMag                           0x0800b8d5   Thumb Code    28  sensors.o(i.sensorsReadMag)
    storeAssertSnapshotData                  0x0800bb05   Thumb Code    14  utils.o(i.storeAssertSnapshotData)
    tanf                                     0x0800bc59   Thumb Code   314  tanf.o(i.tanf)
    uxListRemove                             0x0800bdcd   Thumb Code    40  list.o(i.uxListRemove)
    vApplicationIdleHook                     0x0800bdf5   Thumb Code    24  main.o(i.vApplicationIdleHook)
    vApplicationMallocFailedHook             0x0800be11   Thumb Code    40  main.o(i.vApplicationMallocFailedHook)
    vApplicationStackOverflowHook            0x0800be51   Thumb Code    40  main.o(i.vApplicationStackOverflowHook)
    vListInitialise                          0x0800be91   Thumb Code    26  list.o(i.vListInitialise)
    vListInitialiseItem                      0x0800beab   Thumb Code     6  list.o(i.vListInitialiseItem)
    vListInsert                              0x0800beb1   Thumb Code    52  list.o(i.vListInsert)
    vListInsertEnd                           0x0800bee5   Thumb Code    24  list.o(i.vListInsertEnd)
    vPortEnterCritical                       0x0800befd   Thumb Code    68  port.o(i.vPortEnterCritical)
    vPortExitCritical                        0x0800bfad   Thumb Code    48  port.o(i.vPortExitCritical)
    vPortFree                                0x0800c021   Thumb Code   120  heap_4.o(i.vPortFree)
    vPortSetupTimerInterrupt                 0x0800c11d   Thumb Code    14  port.o(i.vPortSetupTimerInterrupt)
    vPortValidateInterruptPriority           0x0800c131   Thumb Code    86  port.o(i.vPortValidateInterruptPriority)
    vQueueAddToRegistry                      0x0800c1f1   Thumb Code    38  queue.o(i.vQueueAddToRegistry)
    vQueueWaitForMessageRestricted           0x0800c21d   Thumb Code    74  queue.o(i.vQueueWaitForMessageRestricted)
    vTaskDelay                               0x0800c269   Thumb Code    72  tasks.o(i.vTaskDelay)
    vTaskDelete                              0x0800c2ed   Thumb Code   192  tasks.o(i.vTaskDelete)
    vTaskMissedYield                         0x0800c409   Thumb Code     8  tasks.o(i.vTaskMissedYield)
    vTaskPlaceOnEventList                    0x0800c415   Thumb Code    42  tasks.o(i.vTaskPlaceOnEventList)
    vTaskPlaceOnEventListRestricted          0x0800c469   Thumb Code    50  tasks.o(i.vTaskPlaceOnEventListRestricted)
    vTaskPriorityInherit                     0x0800c4c5   Thumb Code   164  tasks.o(i.vTaskPriorityInherit)
    vTaskSetTimeOutState                     0x0800c575   Thumb Code    32  tasks.o(i.vTaskSetTimeOutState)
    vTaskStartScheduler                      0x0800c5c1   Thumb Code   108  tasks.o(i.vTaskStartScheduler)
    vTaskSuspendAll                          0x0800c695   Thumb Code    12  tasks.o(i.vTaskSuspendAll)
    vTaskSwitchContext                       0x0800c6a5   Thumb Code   138  tasks.o(i.vTaskSwitchContext)
    xPortGetFreeHeapSize                     0x0800c81d   Thumb Code     6  heap_4.o(i.xPortGetFreeHeapSize)
    xPortStartScheduler                      0x0800c829   Thumb Code   140  port.o(i.xPortStartScheduler)
    xPortSysTickHandler                      0x0800c8c9   Thumb Code    46  port.o(i.xPortSysTickHandler)
    xQueueCreateMutex                        0x0800c8fd   Thumb Code    34  queue.o(i.xQueueCreateMutex)
    xQueueGenericCreate                      0x0800c921   Thumb Code    78  queue.o(i.xQueueGenericCreate)
    xQueueGenericReceive                     0x0800c9ad   Thumb Code   416  queue.o(i.xQueueGenericReceive)
    xQueueGenericReset                       0x0800cb79   Thumb Code   136  queue.o(i.xQueueGenericReset)
    xQueueGenericSend                        0x0800cc25   Thumb Code   412  queue.o(i.xQueueGenericSend)
    xQueueGenericSendFromISR                 0x0800cdf1   Thumb Code   234  queue.o(i.xQueueGenericSendFromISR)
    xQueueGiveFromISR                        0x0800cf05   Thumb Code   216  queue.o(i.xQueueGiveFromISR)
    xTaskCheckForTimeOut                     0x0800d01d   Thumb Code   116  tasks.o(i.xTaskCheckForTimeOut)
    xTaskCreate                              0x0800d0cd   Thumb Code    96  tasks.o(i.xTaskCreate)
    xTaskGetSchedulerState                   0x0800d12d   Thumb Code    24  tasks.o(i.xTaskGetSchedulerState)
    xTaskGetTickCount                        0x0800d14d   Thumb Code     6  tasks.o(i.xTaskGetTickCount)
    xTaskIncrementTick                       0x0800d159   Thumb Code   274  tasks.o(i.xTaskIncrementTick)
    xTaskPriorityDisinherit                  0x0800d2dd   Thumb Code   168  tasks.o(i.xTaskPriorityDisinherit)
    xTaskRemoveFromEventList                 0x0800d3d9   Thumb Code   118  tasks.o(i.xTaskRemoveFromEventList)
    xTaskResumeAll                           0x0800d491   Thumb Code   214  tasks.o(i.xTaskResumeAll)
    xTimerCreateTimerTask                    0x0800d5bd   Thumb Code    54  timers.o(i.xTimerCreateTimerTask)
    xTimerGenericCommand                     0x0800d629   Thumb Code   116  timers.o(i.xTimerGenericCommand)
    crcTableHigh                             0x0800d6c0   Data         256  utils.o(.constdata)
    crcTableLow                              0x0800d7c0   Data         256  utils.o(.constdata)
    F6x8                                     0x0800d8c0   Data         552  i2c_oled.o(.constdata)
    F8X16                                    0x0800dae8   Data        1520  i2c_oled.o(.constdata)
    F16x16                                   0x0800e0d8   Data         448  i2c_oled.o(.constdata)
    Region$$Table$$Base                      0x080398d0   Number         0  anon$$obj.o(Region$$Table)
    Region$$Table$$Limit                     0x080398f0   Number         0  anon$$obj.o(Region$$Table)
    startTaskHandle                          0x20000000   Data           4  main.o(.data)
    can_buf                                  0x20000004   Data           8  main.o(.data)
    hard_fault_index                         0x2000000c   Data           4  stm32f10x_it.o(.data)
    memory_fault_index                       0x20000010   Data           4  stm32f10x_it.o(.data)
    ak8963_CaliStage                         0x2000004c   Data           1  sensors.o(.data)
    res_flash                                0x20000054   Data           1  utils.o(.data)
    fnum                                     0x20000058   Data           4  utils.o(.data)
    WriteBuffer                              0x2000005c   Data          35  utils.o(.data)
    WriteBuffer2                             0x2000007f   Data          18  utils.o(.data)
    radiolinkTaskHandle                      0x20000094   Data           4  radio.o(.data)
    radioTxQueue                             0x20000098   Data           4  radio.o(.data)
    configParamDefault                       0x200000a4   Data          16  radio.o(.data)
    usart1RecCount                           0x200000d4   Data           2  usart1.o(.data)
    usart1RxQueue                            0x200000d8   Data           4  usart1.o(.data)
    uart4RecCount                            0x200000e0   Data           2  uart4.o(.data)
    uart4RxQueue                             0x200000e4   Data           4  uart4.o(.data)
    ultrasonic_distance1                     0x200000e8   Data           2  uart4.o(.data)
    ultrasonic_state1                        0x200000ea   Data           1  uart4.o(.data)
    uart5RecCount                            0x200000f0   Data           2  uart5.o(.data)
    uart5RxQueue                             0x200000f4   Data           4  uart5.o(.data)
    ultrasonic_distance2                     0x200000f8   Data           2  uart5.o(.data)
    ultrasonic_state2                        0x200000fa   Data           1  uart5.o(.data)
    ADC_ConvertedValue                       0x20000100   Data           4  adc.o(.data)
    ADC_ConvertedValueLocal                  0x20000104   Data           8  adc.o(.data)
    menu                                     0x20000110   Data           1  i2c_oled.o(.data)
    servoPWM                                 0x2000011a   Data          16  servo.o(.data)
    motor1_cnt                               0x2000012a   Data           2  motor.o(.data)
    motor2_cnt                               0x2000012c   Data           2  motor.o(.data)
    sensorsBus                               0x20000134   Data         128  i2c_driver.o(.data)
    powerStatus                              0x200001d4   Data           1  power_control.o(.data)
    pxCurrentTCB                             0x200001f8   Data           4  tasks.o(.data)
    __stdout                                 0x2000026c   Data           4  stdout.o(.data)
    snapshot                                 0x20000274   Data          12  utils.o(.nzds)
    gyroBiasRunning                          0x20000280   Data        6164  sensors.o(.bss)
    sensors                                  0x20001aa0   Data          52  sensors.o(.bss)
    state                                    0x20001ad4   Data          68  sensors.o(.bss)
    sensor_raw                               0x20001bd6   Data          18  sensors.o(.bss)
    fs                                       0x20001be8   Data        4144  utils.o(.bss)
    fnew                                     0x20002c18   Data        4132  utils.o(.bss)
    ReadBuffer                               0x20003c3c   Data        2048  utils.o(.bss)
    fpath                                    0x2000443c   Data         100  utils.o(.bss)
    configParam                              0x200046a0   Data          16  radio.o(.bss)
    motorStatus                              0x20004b5c   Data          28  motor.o(.bss)
    xQueueRegistry                           0x20004b98   Data          80  queue.o(.bss)
    __initial_sp                             0x20009140   Data           0  startup_stm32f10x_hd.o(STACK)



==============================================================================

Memory Map of the image

  Image Entry point : 0x08000131

  Load Region LR_IROM1 (Base: 0x08000000, Size: 0x00039b70, Max: 0x00040000, ABSOLUTE, COMPRESSED[0x00039974])

    Execution Region ER_IROM1 (Exec base: 0x08000000, Load base: 0x08000000, Size: 0x000398f0, Max: 0x00040000, ABSOLUTE)

    Exec Addr    Load Addr    Size         Type   Attr      Idx    E Section Name        Object

    0x08000000   0x08000000   0x00000130   Data   RO         3892    RESET               startup_stm32f10x_hd.o
    0x08000130   0x08000130   0x00000000   Code   RO         7875  * .ARM.Collect$$$$00000000  mc_w.l(entry.o)
    0x08000130   0x08000130   0x00000004   Code   RO         8230    .ARM.Collect$$$$00000001  mc_w.l(entry2.o)
    0x08000134   0x08000134   0x00000004   Code   RO         8233    .ARM.Collect$$$$00000004  mc_w.l(entry5.o)
    0x08000138   0x08000138   0x00000000   Code   RO         8235    .ARM.Collect$$$$00000008  mc_w.l(entry7b.o)
    0x08000138   0x08000138   0x00000000   Code   RO         8237    .ARM.Collect$$$$0000000A  mc_w.l(entry8b.o)
    0x08000138   0x08000138   0x00000008   Code   RO         8238    .ARM.Collect$$$$0000000B  mc_w.l(entry9a.o)
    0x08000140   0x08000140   0x00000004   Code   RO         8245    .ARM.Collect$$$$0000000E  mc_w.l(entry12b.o)
    0x08000144   0x08000144   0x00000000   Code   RO         8240    .ARM.Collect$$$$0000000F  mc_w.l(entry10a.o)
    0x08000144   0x08000144   0x00000000   Code   RO         8242    .ARM.Collect$$$$00000011  mc_w.l(entry11a.o)
    0x08000144   0x08000144   0x00000004   Code   RO         8231    .ARM.Collect$$$$00002712  mc_w.l(entry2.o)
    0x08000148   0x08000148   0x00000012   Code   RO          255    .emb_text           stm32f10x_it.o
    0x0800015a   0x0800015a   0x00000002   PAD
    0x0800015c   0x0800015c   0x00000096   Code   RO         7703    .emb_text           port.o
    0x080001f2   0x080001f2   0x00000002   PAD
    0x080001f4   0x080001f4   0x00000024   Code   RO         3893    .text               startup_stm32f10x_hd.o
    0x08000218   0x08000218   0x00000024   Code   RO         7880    .text               mc_w.l(memcpya.o)
    0x0800023c   0x0800023c   0x00000024   Code   RO         7882    .text               mc_w.l(memseta.o)
    0x08000260   0x08000260   0x0000000e   Code   RO         7884    .text               mc_w.l(strlen.o)
    0x0800026e   0x0800026e   0x00000012   Code   RO         7886    .text               mc_w.l(strcpy.o)
    0x08000280   0x08000280   0x000000b0   Code   RO         8151    .text               mf_w.l(fadd.o)
    0x08000330   0x08000330   0x00000064   Code   RO         8153    .text               mf_w.l(fmul.o)
    0x08000394   0x08000394   0x0000007c   Code   RO         8155    .text               mf_w.l(fdiv.o)
    0x08000410   0x08000410   0x0000014e   Code   RO         8157    .text               mf_w.l(dadd.o)
    0x0800055e   0x0800055e   0x000000e4   Code   RO         8159    .text               mf_w.l(dmul.o)
    0x08000642   0x08000642   0x000000de   Code   RO         8161    .text               mf_w.l(ddiv.o)
    0x08000720   0x08000720   0x00000012   Code   RO         8163    .text               mf_w.l(fflti.o)
    0x08000732   0x08000732   0x0000000a   Code   RO         8165    .text               mf_w.l(ffltui.o)
    0x0800073c   0x0800073c   0x00000022   Code   RO         8169    .text               mf_w.l(dflti.o)
    0x0800075e   0x0800075e   0x00000032   Code   RO         8173    .text               mf_w.l(ffixi.o)
    0x08000790   0x08000790   0x00000028   Code   RO         8175    .text               mf_w.l(ffixui.o)
    0x080007b8   0x080007b8   0x0000003e   Code   RO         8177    .text               mf_w.l(dfixi.o)
    0x080007f6   0x080007f6   0x00000026   Code   RO         8181    .text               mf_w.l(f2d.o)
    0x0800081c   0x0800081c   0x00000030   Code   RO         8183    .text               mf_w.l(cdcmple.o)
    0x0800084c   0x0800084c   0x00000030   Code   RO         8185    .text               mf_w.l(cdrcmple.o)
    0x0800087c   0x0800087c   0x00000038   Code   RO         8187    .text               mf_w.l(d2f.o)
    0x080008b4   0x080008b4   0x00000014   Code   RO         8189    .text               mf_w.l(cfcmple.o)
    0x080008c8   0x080008c8   0x00000014   Code   RO         8191    .text               mf_w.l(cfrcmple.o)
    0x080008dc   0x080008dc   0x0000002c   Code   RO         8247    .text               mc_w.l(uidiv.o)
    0x08000908   0x08000908   0x00000062   Code   RO         8249    .text               mc_w.l(uldiv.o)
    0x0800096a   0x0800096a   0x0000001e   Code   RO         8251    .text               mc_w.l(llshl.o)
    0x08000988   0x08000988   0x00000020   Code   RO         8253    .text               mc_w.l(llushr.o)
    0x080009a8   0x080009a8   0x00000024   Code   RO         8255    .text               mc_w.l(llsshr.o)
    0x080009cc   0x080009cc   0x00000000   Code   RO         8264    .text               mc_w.l(iusefp.o)
    0x080009cc   0x080009cc   0x0000006e   Code   RO         8265    .text               mf_w.l(fepilogue.o)
    0x08000a3a   0x08000a3a   0x00000018   Code   RO         8267    .text               mf_w.l(fscalb.o)
    0x08000a52   0x08000a52   0x0000003c   Code   RO         8271    .text               mf_w.l(frnd.o)
    0x08000a8e   0x08000a8e   0x000000ba   Code   RO         8273    .text               mf_w.l(depilogue.o)
    0x08000b48   0x08000b48   0x0000002e   Code   RO         8275    .text               mf_w.l(dscalb.o)
    0x08000b76   0x08000b76   0x00000030   Code   RO         8277    .text               mf_w.l(dfixul.o)
    0x08000ba6   0x08000ba6   0x00000002   PAD
    0x08000ba8   0x08000ba8   0x00000024   Code   RO         8283    .text               mc_w.l(init.o)
    0x08000bcc   0x08000bcc   0x00000056   Code   RO         8293    .text               mc_w.l(__dczerorl2.o)
    0x08000c22   0x08000c22   0x00000016   Code   RO         4345    i.ADC_Cmd           stm32f10x_adc.o
    0x08000c38   0x08000c38   0x00000016   Code   RO         4346    i.ADC_DMACmd        stm32f10x_adc.o
    0x08000c4e   0x08000c4e   0x00000014   Code   RO         4353    i.ADC_GetCalibrationStatus  stm32f10x_adc.o
    0x08000c62   0x08000c62   0x00000014   Code   RO         4359    i.ADC_GetResetCalibrationStatus  stm32f10x_adc.o
    0x08000c76   0x08000c76   0x00000002   PAD
    0x08000c78   0x08000c78   0x00000050   Code   RO         4363    i.ADC_Init          stm32f10x_adc.o
    0x08000cc8   0x08000cc8   0x000000b8   Code   RO         4367    i.ADC_RegularChannelConfig  stm32f10x_adc.o
    0x08000d80   0x08000d80   0x0000000a   Code   RO         4368    i.ADC_ResetCalibration  stm32f10x_adc.o
    0x08000d8a   0x08000d8a   0x00000016   Code   RO         4370    i.ADC_SoftwareStartConvCmd  stm32f10x_adc.o
    0x08000da0   0x08000da0   0x0000000a   Code   RO         4372    i.ADC_StartCalibration  stm32f10x_adc.o
    0x08000daa   0x08000daa   0x00000002   PAD
    0x08000dac   0x08000dac   0x00000024   Code   RO         1286    i.ADCx_GPIO_Config  adc.o
    0x08000dd0   0x08000dd0   0x0000000c   Code   RO         1287    i.ADCx_Init         adc.o
    0x08000ddc   0x08000ddc   0x000000fc   Code   RO         1288    i.ADCx_Mode_Config  adc.o
    0x08000ed8   0x08000ed8   0x00000038   Code   RO         3803    i.ADJ_Outpt_Init    power_control.o
    0x08000f10   0x08000f10   0x00000004   Code   RO          256    i.BusFault_Handler  stm32f10x_it.o
    0x08000f14   0x08000f14   0x000000ac   Code   RO         1701    i.Buzzer_Init       buzzer.o
    0x08000fc0   0x08000fc0   0x00000108   Code   RO         4567    i.CAN_FilterInit    stm32f10x_can.o
    0x080010c8   0x080010c8   0x00000114   Code   RO         4574    i.CAN_Init          stm32f10x_can.o
    0x080011dc   0x080011dc   0x000000d0   Code   RO         1479    i.CAN_Mode_Init     can.o
    0x080012ac   0x080012ac   0x00000126   Code   RO         4582    i.CAN_Transmit      stm32f10x_can.o
    0x080013d2   0x080013d2   0x00000002   PAD
    0x080013d4   0x080013d4   0x000000a0   Code   RO         4583    i.CAN_TransmitStatus  stm32f10x_can.o
    0x08001474   0x08001474   0x00000038   Code   RO          603    i.CRC_Table         utils.o
    0x080014ac   0x080014ac   0x000001c4   Code   RO          745    i.Calcultate_RotationMatrix  ekf.o
    0x08001670   0x08001670   0x0000006c   Code   RO         1481    i.CanSendMsg        can.o
    0x080016dc   0x080016dc   0x00000010   Code   RO         1890    i.DMA1_Channel5_IRQHandler  i2c_driver.o
    0x080016ec   0x080016ec   0x0000001c   Code   RO         4783    i.DMA_ClearITPendingBit  stm32f10x_dma.o
    0x08001708   0x08001708   0x00000018   Code   RO         4784    i.DMA_Cmd           stm32f10x_dma.o
    0x08001720   0x08001720   0x0000014c   Code   RO         4785    i.DMA_DeInit        stm32f10x_dma.o
    0x0800186c   0x0800186c   0x0000002c   Code   RO         4787    i.DMA_GetFlagStatus  stm32f10x_dma.o
    0x08001898   0x08001898   0x00000012   Code   RO         4789    i.DMA_ITConfig      stm32f10x_dma.o
    0x080018aa   0x080018aa   0x0000003c   Code   RO         4790    i.DMA_Init          stm32f10x_dma.o
    0x080018e6   0x080018e6   0x00000002   Code   RO          257    i.DebugMon_Handler  stm32f10x_it.o
    0x080018e8   0x080018e8   0x00000044   Code   RO         1640    i.Delay_Init        delay.o
    0x0800192c   0x0800192c   0x00000028   Code   RO         1726    i.Duty_to_PWM       servo.o
    0x08001954   0x08001954   0x00000024   Code   RO          748    i.EKF_AHRSInit      ekf.o
    0x08001978   0x08001978   0x00000074   Code   RO         1777    i.EXTI0_IRQHandler  motor.o
    0x080019ec   0x080019ec   0x00000028   Code   RO         3628    i.EXTI15_10_IRQHandler  nrf24l01.o
    0x08001a14   0x08001a14   0x00000040   Code   RO          345    i.EXTI2_IRQHandler  sensors.o
    0x08001a54   0x08001a54   0x00000074   Code   RO         1778    i.EXTI3_IRQHandler  motor.o
    0x08001ac8   0x08001ac8   0x0000000c   Code   RO         4855    i.EXTI_ClearITPendingBit  stm32f10x_exti.o
    0x08001ad4   0x08001ad4   0x00000028   Code   RO         4859    i.EXTI_GetITStatus  stm32f10x_exti.o
    0x08001afc   0x08001afc   0x00000094   Code   RO         4860    i.EXTI_Init         stm32f10x_exti.o
    0x08001b90   0x08001b90   0x0000000c   Code   RO         4908    i.FLASH_ClearFlag   stm32f10x_flash.o
    0x08001b9c   0x08001b9c   0x0000004c   Code   RO         4913    i.FLASH_ErasePage   stm32f10x_flash.o
    0x08001be8   0x08001be8   0x00000034   Code   RO         4914    i.FLASH_GetBank1Status  stm32f10x_flash.o
    0x08001c1c   0x08001c1c   0x00000014   Code   RO         4923    i.FLASH_Lock        stm32f10x_flash.o
    0x08001c30   0x08001c30   0x0000006c   Code   RO         4928    i.FLASH_ProgramWord  stm32f10x_flash.o
    0x08001c9c   0x08001c9c   0x00000018   Code   RO         4931    i.FLASH_Unlock      stm32f10x_flash.o
    0x08001cb4   0x08001cb4   0x00000026   Code   RO         4935    i.FLASH_WaitForLastOperation  stm32f10x_flash.o
    0x08001cda   0x08001cda   0x00000012   Code   RO          890    i.FastAbs           quaternion.o
    0x08001cec   0x08001cec   0x00000014   Code   RO          969    i.FastSqrt          fast_math.o
    0x08001d00   0x08001d00   0x0000004c   Code   RO          971    i.FastSqrtI         fast_math.o
    0x08001d4c   0x08001d4c   0x000002ac   Code   RO          605    i.FileSystem_Init   utils.o
    0x08001ff8   0x08001ff8   0x00000040   Code   RO         5085    i.GPIO_EXTILineConfig  stm32f10x_gpio.o
    0x08002038   0x08002038   0x00000116   Code   RO         5088    i.GPIO_Init         stm32f10x_gpio.o
    0x0800214e   0x0800214e   0x00000002   PAD
    0x08002150   0x08002150   0x00000090   Code   RO         5090    i.GPIO_PinRemapConfig  stm32f10x_gpio.o
    0x080021e0   0x080021e0   0x00000012   Code   RO         5092    i.GPIO_ReadInputDataBit  stm32f10x_gpio.o
    0x080021f2   0x080021f2   0x00000004   Code   RO         5095    i.GPIO_ResetBits    stm32f10x_gpio.o
    0x080021f6   0x080021f6   0x00000004   Code   RO         5096    i.GPIO_SetBits      stm32f10x_gpio.o
    0x080021fa   0x080021fa   0x00000010   Code   RO         5097    i.GPIO_StructInit   stm32f10x_gpio.o
    0x0800220a   0x0800220a   0x00000002   PAD
    0x0800220c   0x0800220c   0x00000108   Code   RO          346    i.Get_AccGyroData   sensors.o
    0x08002314   0x08002314   0x00000060   Code   RO          347    i.Get_MagData       sensors.o
    0x08002374   0x08002374   0x00000010   Code   RO         1891    i.I2C2_ER_IRQHandler  i2c_driver.o
    0x08002384   0x08002384   0x00000010   Code   RO         1892    i.I2C2_EV_IRQHandler  i2c_driver.o
    0x08002394   0x08002394   0x00000018   Code   RO         5197    i.I2C_AcknowledgeConfig  stm32f10x_i2c.o
    0x080023ac   0x080023ac   0x0000000c   Code   RO         5200    i.I2C_ClearFlag     stm32f10x_i2c.o
    0x080023b8   0x080023b8   0x00000018   Code   RO         5203    i.I2C_DMACmd        stm32f10x_i2c.o
    0x080023d0   0x080023d0   0x00000018   Code   RO         5204    i.I2C_DMALastTransferCmd  stm32f10x_i2c.o
    0x080023e8   0x080023e8   0x00000038   Code   RO         5205    i.I2C_DeInit        stm32f10x_i2c.o
    0x08002420   0x08002420   0x0000003a   Code   RO         5211    i.I2C_GetFlagStatus  stm32f10x_i2c.o
    0x0800245a   0x0800245a   0x00000012   Code   RO         5215    i.I2C_ITConfig      stm32f10x_i2c.o
    0x0800246c   0x0800246c   0x000000ec   Code   RO         5216    i.I2C_Init          stm32f10x_i2c.o
    0x08002558   0x08002558   0x00000008   Code   RO         5221    i.I2C_ReceiveData   stm32f10x_i2c.o
    0x08002560   0x08002560   0x00000012   Code   RO         5223    i.I2C_Send7bitAddress  stm32f10x_i2c.o
    0x08002572   0x08002572   0x00000004   Code   RO         5224    i.I2C_SendData      stm32f10x_i2c.o
    0x08002576   0x08002576   0x00000002   PAD
    0x08002578   0x08002578   0x00000010   Code   RO         5402    i.IWDG_ReloadCounter  stm32f10x_iwdg.o
    0x08002588   0x08002588   0x00000030   Code   RO         1314    i.LED_Init          led.o
    0x080025b8   0x080025b8   0x000000e0   Code   RO         1326    i.LoadConfigData    flash.o
    0x08002698   0x08002698   0x00000038   Code   RO         3804    i.MAIN_Output_Init  power_control.o
    0x080026d0   0x080026d0   0x00000014   Code   RO          258    i.MemManage_Handler  stm32f10x_it.o
    0x080026e4   0x080026e4   0x000001e0   Code   RO         1508    i.MenuTask          i2c_oled.o
    0x080028c4   0x080028c4   0x00000018   Code   RO         1779    i.Motor1_Brake      motor.o
    0x080028dc   0x080028dc   0x0000006c   Code   RO         1780    i.Motor1_Encoder_Init  motor.o
    0x08002948   0x08002948   0x00000114   Code   RO         1781    i.Motor1_Speed_Control  motor.o
    0x08002a5c   0x08002a5c   0x00000018   Code   RO         1782    i.Motor2_Brake      motor.o
    0x08002a74   0x08002a74   0x0000006c   Code   RO         1783    i.Motor2_Encoder_Init  motor.o
    0x08002ae0   0x08002ae0   0x00000114   Code   RO         1784    i.Motor2_Speed_Control  motor.o
    0x08002bf4   0x08002bf4   0x0000013c   Code   RO         1785    i.MotorTask         motor.o
    0x08002d30   0x08002d30   0x0000001c   Code   RO         1786    i.Motor_Init        motor.o
    0x08002d4c   0x08002d4c   0x0000004c   Code   RO         1787    i.Motor_PWM_Duty    motor.o
    0x08002d98   0x08002d98   0x000000e0   Code   RO         1788    i.Motor_Speed_Calculate  motor.o
    0x08002e78   0x08002e78   0x00000002   Code   RO          259    i.NMI_Handler       stm32f10x_it.o
    0x08002e7a   0x08002e7a   0x00000002   PAD
    0x08002e7c   0x08002e7c   0x00000098   Code   RO         3629    i.NRF_Init          nrf24l01.o
    0x08002f14   0x08002f14   0x0000012c   Code   RO         3630    i.NRF_LowLevel_Init  nrf24l01.o
    0x08003040   0x08003040   0x00000070   Code   RO         4303    i.NVIC_Init         misc.o
    0x080030b0   0x080030b0   0x00000014   Code   RO         4304    i.NVIC_PriorityGroupConfig  misc.o
    0x080030c4   0x080030c4   0x00000048   Code   RO         1509    i.OLED_CLS          i2c_oled.o
    0x0800310c   0x0800310c   0x00000070   Code   RO         1510    i.OLED_DrawBMP      i2c_oled.o
    0x0800317c   0x0800317c   0x000000bc   Code   RO         1512    i.OLED_Init         i2c_oled.o
    0x08003238   0x08003238   0x00000024   Code   RO         1516    i.OLED_SetPos       i2c_oled.o
    0x0800325c   0x0800325c   0x00000130   Code   RO         1518    i.OLED_ShowParm     i2c_oled.o
    0x0800338c   0x0800338c   0x000000e0   Code   RO         1519    i.OLED_ShowStr      i2c_oled.o
    0x0800346c   0x0800346c   0x00000018   Code   RO         1520    i.OLED_WriteCmd     i2c_oled.o
    0x08003484   0x08003484   0x00000028   Code   RO         1727    i.PWM               servo.o
    0x080034ac   0x080034ac   0x0000044c   Code   RO          672    i.ParseRadioMsg     radio.o
    0x080038f8   0x080038f8   0x0000002c   Code   RO         3805    i.PowerControl_Init  power_control.o
    0x08003924   0x08003924   0x0000002c   Code   RO         1461    i.PowerKey_Init     key.o
    0x08003950   0x08003950   0x00000224   Code   RO         3806    i.PowerTask         power_control.o
    0x08003b74   0x08003b74   0x000003b8   Code   RO         1151    i.ProcessMsg        usart1.o
    0x08003f2c   0x08003f2c   0x0000020c   Code   RO          894    i.Quaternion_FromRotationMatrix  quaternion.o
    0x08004138   0x08004138   0x00000018   Code   RO         5502    i.RCC_ADCCLKConfig  stm32f10x_rcc.o
    0x08004150   0x08004150   0x00000020   Code   RO         5503    i.RCC_AHBPeriphClockCmd  stm32f10x_rcc.o
    0x08004170   0x08004170   0x00000020   Code   RO         5504    i.RCC_APB1PeriphClockCmd  stm32f10x_rcc.o
    0x08004190   0x08004190   0x00000020   Code   RO         5505    i.RCC_APB1PeriphResetCmd  stm32f10x_rcc.o
    0x080041b0   0x080041b0   0x00000020   Code   RO         5506    i.RCC_APB2PeriphClockCmd  stm32f10x_rcc.o
    0x080041d0   0x080041d0   0x000000d4   Code   RO         5514    i.RCC_GetClocksFreq  stm32f10x_rcc.o
    0x080042a4   0x080042a4   0x00000130   Code   RO          673    i.RadioTask         radio.o
    0x080043d4   0x080043d4   0x00000030   Code   RO         1789    i.Read_Encoder      motor.o
    0x08004404   0x08004404   0x00000018   Code   RO         5983    i.SPI_Cmd           stm32f10x_spi.o
    0x0800441c   0x0800441c   0x00000054   Code   RO         1349    i.SPI_FLASH_BufferRead  spi_flash.o
    0x08004470   0x08004470   0x00000122   Code   RO         1350    i.SPI_FLASH_BufferWrite  spi_flash.o
    0x08004592   0x08004592   0x00000002   PAD
    0x08004594   0x08004594   0x000000c4   Code   RO         1352    i.SPI_FLASH_Init    spi_flash.o
    0x08004658   0x08004658   0x000000a0   Code   RO         1353    i.SPI_FLASH_PageWrite  spi_flash.o
    0x080046f8   0x080046f8   0x00000054   Code   RO         1356    i.SPI_FLASH_ReadID  spi_flash.o
    0x0800474c   0x0800474c   0x00000048   Code   RO         1357    i.SPI_FLASH_SectorErase  spi_flash.o
    0x08004794   0x08004794   0x00000078   Code   RO         1358    i.SPI_FLASH_SendByte  spi_flash.o
    0x0800480c   0x0800480c   0x00000038   Code   RO         1361    i.SPI_FLASH_WaitForWriteEnd  spi_flash.o
    0x08004844   0x08004844   0x00000024   Code   RO         1362    i.SPI_FLASH_WriteEnable  spi_flash.o
    0x08004868   0x08004868   0x00000024   Code   RO         1364    i.SPI_Flash_WAKEUP  spi_flash.o
    0x0800488c   0x0800488c   0x00000012   Code   RO         5991    i.SPI_I2S_GetFlagStatus  stm32f10x_spi.o
    0x0800489e   0x0800489e   0x00000006   Code   RO         5994    i.SPI_I2S_ReceiveData  stm32f10x_spi.o
    0x080048a4   0x080048a4   0x00000004   Code   RO         5995    i.SPI_I2S_SendData  stm32f10x_spi.o
    0x080048a8   0x080048a8   0x0000003c   Code   RO         5996    i.SPI_Init          stm32f10x_spi.o
    0x080048e4   0x080048e4   0x00000034   Code   RO         3631    i.SPI_RWByte        nrf24l01.o
    0x08004918   0x08004918   0x00000040   Code   RO         1365    i.SPI_TIMEOUT_UserCallback  spi_flash.o
    0x08004958   0x08004958   0x00000134   Code   RO         1327    i.SaveConfigData    flash.o
    0x08004a8c   0x08004a8c   0x000003a8   Code   RO          348    i.SensorTask        sensors.o
    0x08004e34   0x08004e34   0x0000000c   Code   RO         1729    i.Servo_Init        servo.o
    0x08004e40   0x08004e40   0x00000008   Code   RO         3837    i.SetSysClock       system_stm32f10x.o
    0x08004e48   0x08004e48   0x000000e0   Code   RO         3838    i.SetSysClockTo72   system_stm32f10x.o
    0x08004f28   0x08004f28   0x00000048   Code   RO         1790    i.Set_Motor1_PWM    motor.o
    0x08004f70   0x08004f70   0x00000048   Code   RO         1791    i.Set_Motor2_PWM    motor.o
    0x08004fb8   0x08004fb8   0x0000005c   Code   RO         1730    i.Set_Servo_PWM     servo.o
    0x08005014   0x08005014   0x00000028   Code   RO         4307    i.SysTick_CLKSourceConfig  misc.o
    0x0800503c   0x0800503c   0x00000020   Code   RO          260    i.SysTick_Handler   stm32f10x_it.o
    0x0800505c   0x0800505c   0x00000060   Code   RO         3840    i.SystemInit        system_stm32f10x.o
    0x080050bc   0x080050bc   0x00000100   Code   RO         1731    i.TIM3_Init         servo.o
    0x080051bc   0x080051bc   0x000000d0   Code   RO         1792    i.TIM4_Init         motor.o
    0x0800528c   0x0800528c   0x00000018   Code   RO         1793    i.TIM5_IRQHandler   motor.o
    0x080052a4   0x080052a4   0x000000dc   Code   RO         1732    i.TIM8_Init         servo.o
    0x08005380   0x08005380   0x00000006   Code   RO         6132    i.TIM_ClearFlag     stm32f10x_tim.o
    0x08005386   0x08005386   0x00000018   Code   RO         6138    i.TIM_Cmd           stm32f10x_tim.o
    0x0800539e   0x0800539e   0x0000001e   Code   RO         6140    i.TIM_CtrlPWMOutputs  stm32f10x_tim.o
    0x080053bc   0x080053bc   0x00000012   Code   RO         6163    i.TIM_ITConfig      stm32f10x_tim.o
    0x080053ce   0x080053ce   0x00000002   PAD
    0x080053d0   0x080053d0   0x00000098   Code   RO         6167    i.TIM_OC1Init       stm32f10x_tim.o
    0x08005468   0x08005468   0x00000012   Code   RO         6170    i.TIM_OC1PreloadConfig  stm32f10x_tim.o
    0x0800547a   0x0800547a   0x00000002   PAD
    0x0800547c   0x0800547c   0x000000a4   Code   RO         6172    i.TIM_OC2Init       stm32f10x_tim.o
    0x08005520   0x08005520   0x0000001a   Code   RO         6175    i.TIM_OC2PreloadConfig  stm32f10x_tim.o
    0x0800553a   0x0800553a   0x00000002   PAD
    0x0800553c   0x0800553c   0x000000a0   Code   RO         6177    i.TIM_OC3Init       stm32f10x_tim.o
    0x080055dc   0x080055dc   0x00000012   Code   RO         6180    i.TIM_OC3PreloadConfig  stm32f10x_tim.o
    0x080055ee   0x080055ee   0x00000002   PAD
    0x080055f0   0x080055f0   0x0000007c   Code   RO         6182    i.TIM_OC4Init       stm32f10x_tim.o
    0x0800566c   0x0800566c   0x0000001a   Code   RO         6184    i.TIM_OC4PreloadConfig  stm32f10x_tim.o
    0x08005686   0x08005686   0x00000002   PAD
    0x08005688   0x08005688   0x000000a4   Code   RO         6209    i.TIM_TimeBaseInit  stm32f10x_tim.o
    0x0800572c   0x0800572c   0x00000078   Code   RO         1226    i.UART4_IRQHandler  uart4.o
    0x080057a4   0x080057a4   0x000000c8   Code   RO         1227    i.UART4_Init        uart4.o
    0x0800586c   0x0800586c   0x00000078   Code   RO         1256    i.UART5_IRQHandler  uart5.o
    0x080058e4   0x080058e4   0x000000c8   Code   RO         1257    i.UART5_Init        uart5.o
    0x080059ac   0x080059ac   0x0000012c   Code   RO         1152    i.USART1_IRQHandler  usart1.o
    0x08005ad8   0x08005ad8   0x000000a4   Code   RO         1153    i.USART1_Init       usart1.o
    0x08005b7c   0x08005b7c   0x00000022   Code   RO         6672    i.USART_ClockInit   stm32f10x_usart.o
    0x08005b9e   0x08005b9e   0x00000018   Code   RO         6674    i.USART_Cmd         stm32f10x_usart.o
    0x08005bb6   0x08005bb6   0x0000001a   Code   RO         6677    i.USART_GetFlagStatus  stm32f10x_usart.o
    0x08005bd0   0x08005bd0   0x00000054   Code   RO         6678    i.USART_GetITStatus  stm32f10x_usart.o
    0x08005c24   0x08005c24   0x0000004a   Code   RO         6680    i.USART_ITConfig    stm32f10x_usart.o
    0x08005c6e   0x08005c6e   0x00000002   PAD
    0x08005c70   0x08005c70   0x000000d8   Code   RO         6681    i.USART_Init        stm32f10x_usart.o
    0x08005d48   0x08005d48   0x0000000a   Code   RO         6688    i.USART_ReceiveData  stm32f10x_usart.o
    0x08005d52   0x08005d52   0x00000008   Code   RO         6691    i.USART_SendData    stm32f10x_usart.o
    0x08005d5a   0x08005d5a   0x00000002   PAD
    0x08005d5c   0x08005d5c   0x0000005c   Code   RO         1228    i.Uart4Task         uart4.o
    0x08005db8   0x08005db8   0x00000088   Code   RO         1258    i.Uart5Task         uart5.o
    0x08005e40   0x08005e40   0x00000004   Code   RO          261    i.UsageFault_Handler  stm32f10x_it.o
    0x08005e44   0x08005e44   0x0000000c   Code   RO         1154    i.Usart1LinkStatus  usart1.o
    0x08005e50   0x08005e50   0x00000070   Code   RO         1155    i.Usart1Task        usart1.o
    0x08005ec0   0x08005ec0   0x0000002c   Code   RO         1462    i.UserKey_Init      key.o
    0x08005eec   0x08005eec   0x00000020   Code   RO         8123    i.__0printf         mc_w.l(printfa.o)
    0x08005f0c   0x08005f0c   0x00000028   Code   RO         8125    i.__0sprintf        mc_w.l(printfa.o)
    0x08005f34   0x08005f34   0x00000028   Code   RO         8207    i.__ARM_fpclassify  m_ws.l(fpclassify.o)
    0x08005f5c   0x08005f5c   0x00000026   Code   RO         8209    i.__ARM_fpclassifyf  m_ws.l(fpclassifyf.o)
    0x08005f82   0x08005f82   0x000000aa   Code   RO         8225    i.__kernel_poly     m_ws.l(poly.o)
    0x0800602c   0x0800602c   0x00000006   Code   RO         8194    i.__mathlib_dbl_infnan  m_ws.l(dunder.o)
    0x08006032   0x08006032   0x00000002   PAD
    0x08006034   0x08006034   0x00000010   Code   RO         8199    i.__mathlib_dbl_underflow  m_ws.l(dunder.o)
    0x08006044   0x08006044   0x00000006   Code   RO         8212    i.__mathlib_flt_infnan  m_ws.l(funder.o)
    0x0800604a   0x0800604a   0x00000008   Code   RO         8214    i.__mathlib_flt_invalid  m_ws.l(funder.o)
    0x08006052   0x08006052   0x0000000a   Code   RO         8217    i.__mathlib_flt_underflow  m_ws.l(funder.o)
    0x0800605c   0x0800605c   0x00000168   Code   RO         8227    i.__mathlib_rredf2  m_ws.l(rredf.o)
    0x080061c4   0x080061c4   0x0000000e   Code   RO         8287    i.__scatterload_copy  mc_w.l(handlers.o)
    0x080061d2   0x080061d2   0x00000002   Code   RO         8288    i.__scatterload_null  mc_w.l(handlers.o)
    0x080061d4   0x080061d4   0x0000000e   Code   RO         8289    i.__scatterload_zeroinit  mc_w.l(handlers.o)
    0x080061e2   0x080061e2   0x00000002   PAD
    0x080061e4   0x080061e4   0x0000000c   Code   RO         8259    i.__set_errno       mc_w.l(errno.o)
    0x080061f0   0x080061f0   0x00000184   Code   RO         8130    i._fp_digits        mc_w.l(printfa.o)
    0x08006374   0x08006374   0x000006b4   Code   RO         8131    i._printf_core      mc_w.l(printfa.o)
    0x08006a28   0x08006a28   0x00000024   Code   RO         8132    i._printf_post_padding  mc_w.l(printfa.o)
    0x08006a4c   0x08006a4c   0x0000002e   Code   RO         8133    i._printf_pre_padding  mc_w.l(printfa.o)
    0x08006a7a   0x08006a7a   0x0000000a   Code   RO         8135    i._sputc            mc_w.l(printfa.o)
    0x08006a84   0x08006a84   0x00000024   Code   RO         3478    i.ak8963Init        ak8963.o
    0x08006aa8   0x08006aa8   0x00000020   Code   RO         3485    i.ak8963SetMode     ak8963.o
    0x08006ac8   0x08006ac8   0x00000034   Code   RO         3487    i.ak8963TestConnection  ak8963.o
    0x08006afc   0x08006afc   0x00000044   Code   RO          607    i.assertFail        utils.o
    0x08006b40   0x08006b40   0x00000220   Code   RO         7832    i.atan              m_ws.l(atan.o)
    0x08006d60   0x08006d60   0x00000090   Code   RO         3951    i.check_fs          ff.o
    0x08006df0   0x08006df0   0x00000014   Code   RO         3952    i.chk_chr           ff.o
    0x08006e04   0x08006e04   0x0000001a   Code   RO         3953    i.clust2sect        ff.o
    0x08006e1e   0x08006e1e   0x00000002   PAD
    0x08006e20   0x08006e20   0x000000a0   Code   RO         3954    i.cmp_lfn           ff.o
    0x08006ec0   0x08006ec0   0x0000017c   Code   RO         7842    i.cosf              m_ws.l(cosf.o)
    0x0800703c   0x0800703c   0x000000d6   Code   RO         3955    i.create_chain      ff.o
    0x08007112   0x08007112   0x00000002   PAD
    0x08007114   0x08007114   0x00000270   Code   RO         3956    i.create_name       ff.o
    0x08007384   0x08007384   0x00000044   Code   RO         1644    i.delay_ms          delay.o
    0x080073c8   0x080073c8   0x00000048   Code   RO         1645    i.delay_us          delay.o
    0x08007410   0x08007410   0x0000005c   Code   RO         3957    i.dir_alloc         ff.o
    0x0800746c   0x0800746c   0x000000ea   Code   RO         3958    i.dir_find          ff.o
    0x08007556   0x08007556   0x0000013a   Code   RO         3959    i.dir_next          ff.o
    0x08007690   0x08007690   0x000000c6   Code   RO         3960    i.dir_read          ff.o
    0x08007756   0x08007756   0x0000012a   Code   RO         3961    i.dir_register      ff.o
    0x08007880   0x08007880   0x000000c8   Code   RO         3963    i.dir_sdi           ff.o
    0x08007948   0x08007948   0x0000003a   Code   RO         3897    i.disk_initialize   diskio.o
    0x08007982   0x08007982   0x00000042   Code   RO         3898    i.disk_ioctl        diskio.o
    0x080079c4   0x080079c4   0x0000003e   Code   RO         3899    i.disk_read         diskio.o
    0x08007a02   0x08007a02   0x00000002   PAD
    0x08007a04   0x08007a04   0x00000034   Code   RO         3900    i.disk_status       diskio.o
    0x08007a38   0x08007a38   0x0000004e   Code   RO         3901    i.disk_write        diskio.o
    0x08007a86   0x08007a86   0x00000020   Code   RO         3965    i.f_close           ff.o
    0x08007aa6   0x08007aa6   0x00000102   Code   RO         3967    i.f_getfree         ff.o
    0x08007ba8   0x08007ba8   0x0000019a   Code   RO         3969    i.f_lseek           ff.o
    0x08007d42   0x08007d42   0x00000002   PAD
    0x08007d44   0x08007d44   0x00000684   Code   RO         3971    i.f_mkfs            ff.o
    0x080083c8   0x080083c8   0x0000005c   Code   RO         3972    i.f_mount           ff.o
    0x08008424   0x08008424   0x0000017e   Code   RO         3973    i.f_open            ff.o
    0x080085a2   0x080085a2   0x00000076   Code   RO         3974    i.f_opendir         ff.o
    0x08008618   0x08008618   0x000001d0   Code   RO         3978    i.f_read            ff.o
    0x080087e8   0x080087e8   0x00000064   Code   RO         3979    i.f_readdir         ff.o
    0x0800884c   0x0800884c   0x000000b0   Code   RO         3982    i.f_sync            ff.o
    0x080088fc   0x080088fc   0x0000007c   Code   RO         4274    i.ff_convert        cc936.o
    0x08008978   0x08008978   0x0000005c   Code   RO         4275    i.ff_wtoupper       cc936.o
    0x080089d4   0x080089d4   0x000003d8   Code   RO         3987    i.find_volume       ff.o
    0x08008dac   0x08008dac   0x00000080   Code   RO         3988    i.fit_lfn           ff.o
    0x08008e2c   0x08008e2c   0x00000090   Code   RO         3989    i.follow_path       ff.o
    0x08008ebc   0x08008ebc   0x00000024   Code   RO         1157    i.fputc             usart1.o
    0x08008ee0   0x08008ee0   0x000000cc   Code   RO         3990    i.gen_numname       ff.o
    0x08008fac   0x08008fac   0x0000001c   Code   RO          262    i.getSysTickCnt     stm32f10x_it.o
    0x08008fc8   0x08008fc8   0x0000013e   Code   RO         3991    i.get_fat           ff.o
    0x08009106   0x08009106   0x00000002   PAD
    0x08009108   0x08009108   0x00000008   Code   RO         3902    i.get_fattime       diskio.o
    0x08009110   0x08009110   0x00000110   Code   RO         3992    i.get_fileinfo      ff.o
    0x08009220   0x08009220   0x0000004a   Code   RO         3993    i.get_ldnumber      ff.o
    0x0800926a   0x0800926a   0x00000002   PAD
    0x0800926c   0x0800926c   0x0000002c   Code   RO         1893    i.i2cNotifyClient   i2c_driver.o
    0x08009298   0x08009298   0x0000001e   Code   RO         1894    i.i2cTryNextMessage  i2c_driver.o
    0x080092b6   0x080092b6   0x0000000e   Code   RO         2005    i.i2cdevInit        i2c_device.o
    0x080092c4   0x080092c4   0x00000044   Code   RO         2006    i.i2cdevRead        i2c_device.o
    0x08009308   0x08009308   0x0000001a   Code   RO         2010    i.i2cdevReadByte    i2c_device.o
    0x08009322   0x08009322   0x00000044   Code   RO         2011    i.i2cdevWrite       i2c_device.o
    0x08009366   0x08009366   0x00000050   Code   RO         2013    i.i2cdevWriteBit    i2c_device.o
    0x080093b6   0x080093b6   0x00000064   Code   RO         2014    i.i2cdevWriteBits   i2c_device.o
    0x0800941a   0x0800941a   0x0000001e   Code   RO         2015    i.i2cdevWriteByte   i2c_device.o
    0x08009438   0x08009438   0x00000038   Code   RO         1895    i.i2cdrvClearDMA    i2c_driver.o
    0x08009470   0x08009470   0x00000020   Code   RO         1896    i.i2cdrvCreateMessage  i2c_driver.o
    0x08009490   0x08009490   0x0000001c   Code   RO         1897    i.i2cdrvCreateMessageIntAddr  i2c_driver.o
    0x080094ac   0x080094ac   0x00000044   Code   RO         1898    i.i2cdrvDmaIsrHandler  i2c_driver.o
    0x080094f0   0x080094f0   0x00000056   Code   RO         1899    i.i2cdrvDmaSetupBus  i2c_driver.o
    0x08009546   0x08009546   0x00000002   PAD
    0x08009548   0x08009548   0x00000094   Code   RO         1900    i.i2cdrvErrorIsrHandler  i2c_driver.o
    0x080095dc   0x080095dc   0x000001de   Code   RO         1901    i.i2cdrvEventIsrHandler  i2c_driver.o
    0x080097ba   0x080097ba   0x0000000c   Code   RO         1902    i.i2cdrvInit        i2c_driver.o
    0x080097c6   0x080097c6   0x00000134   Code   RO         1903    i.i2cdrvInitBus     i2c_driver.o
    0x080098fa   0x080098fa   0x00000002   PAD
    0x080098fc   0x080098fc   0x00000074   Code   RO         1904    i.i2cdrvMessageTransfer  i2c_driver.o
    0x08009970   0x08009970   0x0000001c   Code   RO         1905    i.i2cdrvRoughLoopDelay  i2c_driver.o
    0x0800998c   0x0800998c   0x0000004e   Code   RO         1906    i.i2cdrvStartTransfer  i2c_driver.o
    0x080099da   0x080099da   0x0000000c   Code   RO         1907    i.i2cdrvTryToRestartBus  i2c_driver.o
    0x080099e6   0x080099e6   0x00000002   PAD
    0x080099e8   0x080099e8   0x000000dc   Code   RO         1908    i.i2cdrvdevUnlockBus  i2c_driver.o
    0x08009ac4   0x08009ac4   0x00000020   Code   RO         3994    i.ld_clust          ff.o
    0x08009ae4   0x08009ae4   0x00000024   Code   RO          562    i.lpf2pInit         filter.o
    0x08009b08   0x08009b08   0x000000f4   Code   RO          564    i.lpf2pSetCutoffFreq  filter.o
    0x08009bfc   0x08009bfc   0x000000c8   Code   RO            1    i.main              main.o
    0x08009cc4   0x08009cc4   0x00000026   Code   RO         3995    i.mem_cmp           ff.o
    0x08009cea   0x08009cea   0x0000001a   Code   RO         3996    i.mem_cpy           ff.o
    0x08009d04   0x08009d04   0x00000014   Code   RO         3997    i.mem_set           ff.o
    0x08009d18   0x08009d18   0x00000034   Code   RO         3998    i.move_window       ff.o
    0x08009d4c   0x08009d4c   0x00000024   Code   RO         2100    i.mpu6500GetDeviceID  mpu9250.o
    0x08009d70   0x08009d70   0x00000028   Code   RO         2202    i.mpu6500Init       mpu9250.o
    0x08009d98   0x08009d98   0x00000020   Code   RO         2205    i.mpu6500Reset      mpu9250.o
    0x08009db8   0x08009db8   0x00000024   Code   RO         2214    i.mpu6500SetAccelDLPF  mpu9250.o
    0x08009ddc   0x08009ddc   0x00000024   Code   RO         2221    i.mpu6500SetClockSource  mpu9250.o
    0x08009e00   0x08009e00   0x00000024   Code   RO         2223    i.mpu6500SetDLPFMode  mpu9250.o
    0x08009e24   0x08009e24   0x00000024   Code   RO         2235    i.mpu6500SetFullScaleAccelRange  mpu9250.o
    0x08009e48   0x08009e48   0x00000024   Code   RO         2236    i.mpu6500SetFullScaleGyroRange  mpu9250.o
    0x08009e6c   0x08009e6c   0x00000020   Code   RO         2240    i.mpu6500SetI2CBypassEnabled  mpu9250.o
    0x08009e8c   0x08009e8c   0x00000020   Code   RO         2241    i.mpu6500SetI2CMasterModeEnabled  mpu9250.o
    0x08009eac   0x08009eac   0x00000020   Code   RO         2243    i.mpu6500SetIntDataReadyEnabled  mpu9250.o
    0x08009ecc   0x08009ecc   0x00000020   Code   RO         2244    i.mpu6500SetIntEnabled  mpu9250.o
    0x08009eec   0x08009eec   0x00000020   Code   RO         2251    i.mpu6500SetInterruptDrive  mpu9250.o
    0x08009f0c   0x08009f0c   0x00000020   Code   RO         2252    i.mpu6500SetInterruptLatch  mpu9250.o
    0x08009f2c   0x08009f2c   0x00000020   Code   RO         2253    i.mpu6500SetInterruptLatchClear  mpu9250.o
    0x08009f4c   0x08009f4c   0x00000020   Code   RO         2254    i.mpu6500SetInterruptMode  mpu9250.o
    0x08009f6c   0x08009f6c   0x00000024   Code   RO         2255    i.mpu6500SetMasterClockSpeed  mpu9250.o
    0x08009f90   0x08009f90   0x00000020   Code   RO         2260    i.mpu6500SetRate    mpu9250.o
    0x08009fb0   0x08009fb0   0x00000024   Code   RO         2268    i.mpu6500SetSlave4MasterDelay  mpu9250.o
    0x08009fd4   0x08009fd4   0x00000030   Code   RO         2272    i.mpu6500SetSlaveAddress  mpu9250.o
    0x0800a004   0x0800a004   0x00000034   Code   RO         2273    i.mpu6500SetSlaveDataLength  mpu9250.o
    0x0800a038   0x0800a038   0x00000024   Code   RO         2274    i.mpu6500SetSlaveDelayEnabled  mpu9250.o
    0x0800a05c   0x0800a05c   0x00000030   Code   RO         2275    i.mpu6500SetSlaveEnabled  mpu9250.o
    0x0800a08c   0x0800a08c   0x00000020   Code   RO         2277    i.mpu6500SetSlaveReadWriteTransitionEnabled  mpu9250.o
    0x0800a0ac   0x0800a0ac   0x00000030   Code   RO         2278    i.mpu6500SetSlaveRegister  mpu9250.o
    0x0800a0dc   0x0800a0dc   0x00000020   Code   RO         2282    i.mpu6500SetSleepEnabled  mpu9250.o
    0x0800a0fc   0x0800a0fc   0x00000024   Code   RO         2290    i.mpu6500SetTempSensorEnabled  mpu9250.o
    0x0800a120   0x0800a120   0x00000020   Code   RO         2291    i.mpu6500SetWaitForExternalSensorEnabled  mpu9250.o
    0x0800a140   0x0800a140   0x0000004c   Code   RO         3632    i.nrf_check         nrf24l01.o
    0x0800a18c   0x0800a18c   0x00000062   Code   RO         3633    i.nrf_checkEventandRxPacket  nrf24l01.o
    0x0800a1ee   0x0800a1ee   0x00000002   PAD
    0x0800a1f0   0x0800a1f0   0x00000018   Code   RO          674    i.nrf_interruptCallback  radio.o
    0x0800a208   0x0800a208   0x00000044   Code   RO         3636    i.nrf_rxPacket      nrf24l01.o
    0x0800a24c   0x0800a24c   0x00000022   Code   RO         3639    i.nrf_setAddress    nrf24l01.o
    0x0800a26e   0x0800a26e   0x00000020   Code   RO         3640    i.nrf_setArc        nrf24l01.o
    0x0800a28e   0x0800a28e   0x0000002c   Code   RO         3641    i.nrf_setArd        nrf24l01.o
    0x0800a2ba   0x0800a2ba   0x00000012   Code   RO         3642    i.nrf_setChannel    nrf24l01.o
    0x0800a2cc   0x0800a2cc   0x00000038   Code   RO         3643    i.nrf_setDataRate   nrf24l01.o
    0x0800a304   0x0800a304   0x0000000c   Code   RO         3644    i.nrf_setIterruptCallback  nrf24l01.o
    0x0800a310   0x0800a310   0x00000042   Code   RO         3645    i.nrf_setPower      nrf24l01.o
    0x0800a352   0x0800a352   0x00000002   PAD
    0x0800a354   0x0800a354   0x00000028   Code   RO         3648    i.nrf_txPacket_AP   nrf24l01.o
    0x0800a37c   0x0800a37c   0x00000080   Code   RO         3999    i.pick_lfn          ff.o
    0x0800a3fc   0x0800a3fc   0x00000178   Code   RO          263    i.printHardFault    stm32f10x_it.o
    0x0800a574   0x0800a574   0x00000098   Code   RO         7193    i.prvAddCurrentTaskToDelayedList  tasks.o
    0x0800a60c   0x0800a60c   0x000000b8   Code   RO         7194    i.prvAddNewTaskToReadyList  tasks.o
    0x0800a6c4   0x0800a6c4   0x00000064   Code   RO         7585    i.prvCheckForValidListAndQueue  timers.o
    0x0800a728   0x0800a728   0x00000064   Code   RO         7195    i.prvCheckTasksWaitingTermination  tasks.o
    0x0800a78c   0x0800a78c   0x0000002a   Code   RO         6947    i.prvCopyDataFromQueue  queue.o
    0x0800a7b6   0x0800a7b6   0x0000007c   Code   RO         6948    i.prvCopyDataToQueue  queue.o
    0x0800a832   0x0800a832   0x00000012   Code   RO         7196    i.prvDeleteTCB      tasks.o
    0x0800a844   0x0800a844   0x00000028   Code   RO         7586    i.prvGetNextExpireTime  timers.o
    0x0800a86c   0x0800a86c   0x0000007c   Code   RO         7781    i.prvHeapInit       heap_4.o
    0x0800a8e8   0x0800a8e8   0x0000000c   Code   RO         7197    i.prvIdleTask       tasks.o
    0x0800a8f4   0x0800a8f4   0x0000001c   Code   RO         6949    i.prvInitialiseMutex  queue.o
    0x0800a910   0x0800a910   0x0000002e   Code   RO         6950    i.prvInitialiseNewQueue  queue.o
    0x0800a93e   0x0800a93e   0x00000002   PAD
    0x0800a940   0x0800a940   0x000000c8   Code   RO         7198    i.prvInitialiseNewTask  tasks.o
    0x0800aa08   0x0800aa08   0x00000068   Code   RO         7199    i.prvInitialiseTaskLists  tasks.o
    0x0800aa70   0x0800aa70   0x00000068   Code   RO         7782    i.prvInsertBlockIntoFreeList  heap_4.o
    0x0800aad8   0x0800aad8   0x00000058   Code   RO         7588    i.prvInsertTimerInActiveList  timers.o
    0x0800ab30   0x0800ab30   0x0000001a   Code   RO         6951    i.prvIsQueueEmpty   queue.o
    0x0800ab4a   0x0800ab4a   0x0000001e   Code   RO         6952    i.prvIsQueueFull    queue.o
    0x0800ab68   0x0800ab68   0x000000ac   Code   RO         6953    i.prvNotifyQueueSetContainer  queue.o
    0x0800ac14   0x0800ac14   0x00000078   Code   RO         7589    i.prvProcessExpiredTimer  timers.o
    0x0800ac8c   0x0800ac8c   0x0000012c   Code   RO         7590    i.prvProcessReceivedCommands  timers.o
    0x0800adb8   0x0800adb8   0x00000074   Code   RO         7591    i.prvProcessTimerOrBlockTask  timers.o
    0x0800ae2c   0x0800ae2c   0x00000034   Code   RO         7201    i.prvResetNextTaskUnblockTime  tasks.o
    0x0800ae60   0x0800ae60   0x0000002c   Code   RO         7592    i.prvSampleTimeNow  timers.o
    0x0800ae8c   0x0800ae8c   0x000000b4   Code   RO         7593    i.prvSwitchTimerLists  timers.o
    0x0800af40   0x0800af40   0x0000007c   Code   RO         7704    i.prvTaskExitError  port.o
    0x0800afbc   0x0800afbc   0x0000001a   Code   RO         7594    i.prvTimerTask      timers.o
    0x0800afd6   0x0800afd6   0x00000092   Code   RO         6954    i.prvUnlockQueue    queue.o
    0x0800b068   0x0800b068   0x00000188   Code   RO         4000    i.put_fat           ff.o
    0x0800b1f0   0x0800b1f0   0x00000188   Code   RO         7783    i.pvPortMalloc      heap_4.o
    0x0800b378   0x0800b378   0x00000020   Code   RO         7205    i.pvTaskIncrementMutexHeldCount  tasks.o
    0x0800b398   0x0800b398   0x00000024   Code   RO         7705    i.pxPortInitialiseStack  port.o
    0x0800b3bc   0x0800b3bc   0x00000040   Code   RO          675    i.radioInit         radio.o
    0x0800b3fc   0x0800b3fc   0x0000000c   Code   RO          677    i.radiolinkConnectStatus  radio.o
    0x0800b408   0x0800b408   0x00000060   Code   RO          679    i.radiolinkInit     radio.o
    0x0800b468   0x0800b468   0x0000004c   Code   RO         3650    i.readBuf           nrf24l01.o
    0x0800b4b4   0x0800b4b4   0x00000038   Code   RO         3651    i.readReg           nrf24l01.o
    0x0800b4ec   0x0800b4ec   0x0000006c   Code   RO         4002    i.remove_chain      ff.o
    0x0800b558   0x0800b558   0x0000009c   Code   RO          609    i.scan_files        utils.o
    0x0800b5f4   0x0800b5f4   0x0000001e   Code   RO          356    i.sensorsAcquire    sensors.o
    0x0800b612   0x0800b612   0x0000000c   Code   RO          359    i.sensorsBiasObjInit  sensors.o
    0x0800b61e   0x0800b61e   0x00000002   PAD
    0x0800b620   0x0800b620   0x000001ac   Code   RO          361    i.sensorsDeviceInit  sensors.o
    0x0800b7cc   0x0800b7cc   0x0000003c   Code   RO          363    i.sensorsInit       sensors.o
    0x0800b808   0x0800b808   0x0000008c   Code   RO          364    i.sensorsInterruptInit  sensors.o
    0x0800b894   0x0800b894   0x00000020   Code   RO          365    i.sensorsReadAcc    sensors.o
    0x0800b8b4   0x0800b8b4   0x00000020   Code   RO          366    i.sensorsReadGyro   sensors.o
    0x0800b8d4   0x0800b8d4   0x00000020   Code   RO          367    i.sensorsReadMag    sensors.o
    0x0800b8f4   0x0800b8f4   0x00000078   Code   RO          368    i.sensorsSetupSlaveRead  sensors.o
    0x0800b96c   0x0800b96c   0x00000010   Code   RO         4003    i.st_clust          ff.o
    0x0800b97c   0x0800b97c   0x00000188   Code   RO            2    i.startTask         main.o
    0x0800bb04   0x0800bb04   0x00000018   Code   RO          610    i.storeAssertSnapshotData  utils.o
    0x0800bb1c   0x0800bb1c   0x00000020   Code   RO         4004    i.sum_sfn           ff.o
    0x0800bb3c   0x0800bb3c   0x000000c8   Code   RO         4005    i.sync_fs           ff.o
    0x0800bc04   0x0800bc04   0x00000052   Code   RO         4006    i.sync_window       ff.o
    0x0800bc56   0x0800bc56   0x00000002   PAD
    0x0800bc58   0x0800bc58   0x00000174   Code   RO         7868    i.tanf              m_ws.l(tanf.o)
    0x0800bdcc   0x0800bdcc   0x00000028   Code   RO         6904    i.uxListRemove      list.o
    0x0800bdf4   0x0800bdf4   0x0000001c   Code   RO            3    i.vApplicationIdleHook  main.o
    0x0800be10   0x0800be10   0x00000040   Code   RO            4    i.vApplicationMallocFailedHook  main.o
    0x0800be50   0x0800be50   0x00000040   Code   RO            5    i.vApplicationStackOverflowHook  main.o
    0x0800be90   0x0800be90   0x0000001a   Code   RO         6905    i.vListInitialise   list.o
    0x0800beaa   0x0800beaa   0x00000006   Code   RO         6906    i.vListInitialiseItem  list.o
    0x0800beb0   0x0800beb0   0x00000034   Code   RO         6907    i.vListInsert       list.o
    0x0800bee4   0x0800bee4   0x00000018   Code   RO         6908    i.vListInsertEnd    list.o
    0x0800befc   0x0800befc   0x000000b0   Code   RO         7707    i.vPortEnterCritical  port.o
    0x0800bfac   0x0800bfac   0x00000074   Code   RO         7708    i.vPortExitCritical  port.o
    0x0800c020   0x0800c020   0x000000fc   Code   RO         7784    i.vPortFree         heap_4.o
    0x0800c11c   0x0800c11c   0x00000014   Code   RO         7709    i.vPortSetupTimerInterrupt  port.o
    0x0800c130   0x0800c130   0x000000c0   Code   RO         7710    i.vPortValidateInterruptPriority  port.o
    0x0800c1f0   0x0800c1f0   0x0000002c   Code   RO         6960    i.vQueueAddToRegistry  queue.o
    0x0800c21c   0x0800c21c   0x0000004a   Code   RO         6964    i.vQueueWaitForMessageRestricted  queue.o
    0x0800c266   0x0800c266   0x00000002   PAD
    0x0800c268   0x0800c268   0x00000084   Code   RO         7214    i.vTaskDelay        tasks.o
    0x0800c2ec   0x0800c2ec   0x0000011c   Code   RO         7216    i.vTaskDelete       tasks.o
    0x0800c408   0x0800c408   0x0000000c   Code   RO         7220    i.vTaskMissedYield  tasks.o
    0x0800c414   0x0800c414   0x00000054   Code   RO         7222    i.vTaskPlaceOnEventList  tasks.o
    0x0800c468   0x0800c468   0x0000005c   Code   RO         7223    i.vTaskPlaceOnEventListRestricted  tasks.o
    0x0800c4c4   0x0800c4c4   0x000000b0   Code   RO         7225    i.vTaskPriorityInherit  tasks.o
    0x0800c574   0x0800c574   0x0000004c   Code   RO         7230    i.vTaskSetTimeOutState  tasks.o
    0x0800c5c0   0x0800c5c0   0x000000d4   Code   RO         7231    i.vTaskStartScheduler  tasks.o
    0x0800c694   0x0800c694   0x00000010   Code   RO         7233    i.vTaskSuspendAll   tasks.o
    0x0800c6a4   0x0800c6a4   0x000000bc   Code   RO         7234    i.vTaskSwitchContext  tasks.o
    0x0800c760   0x0800c760   0x00000032   Code   RO         4007    i.validate          ff.o
    0x0800c792   0x0800c792   0x00000002   PAD
